:100000000C9444020C9461020C9461020C94610201
:100010000C9461020C9461020C9461020C946102D4
:100020000C9461020C9461020C9461020C946102C4
:100030000C9461020C9461020C9461020C946102B4
:100040000C9461020C9461020C943B040C947803B0
:100050000C9461020C9493020C9461020C94610262
:100060000C9461020C9461020A0A0A0A0D53656C31
:1000700065637420454550524F4D2041646472655C
:1000800073733A0A0D31202D20307835303A204EE6
:10009000657420436F6E6E6563746F720A0D322053
:1000A0002D20307835323A2041444320426F747419
:1000B0006F6D2042640A0D33202D20307835343A9C
:1000C000204E657420457874656E73696F6E0A0DF5
:1000D00034202D20307835363A2041444320546F67
:1000E000702042640A0D0A0D507265737320582007
:1000F000746F20657869740A0A0D000A0A0A0A0DED
:10010000454550524F4D2044656275670A0D3D3D8F
:100110003D3D3D3D3D3D3D3D3D0A0A0D50202D20DC
:1001200050726F6475637420436F64650A0D4820D4
:100130002D204865782044756D700A0D4B202D20C8
:10014000436865636B73756D0A0D57202D205772D8
:100150006974650A0D52202D20526573657420451F
:100160004550524F4D20746F2030300A0D58202DCD
:100170002052657475726E20746F204465627567D5
:10018000204D656E750A0D000A0A0A0A0D414443A6
:100190002044656275670A0D3D3D3D3D3D3D3D3D59
:1001A0003D0A0A0D0A0D5072657373205820746F52
:1001B00020657869740A0A0D000A0A0A0A0D493294
:1001C0004320546573740A0D3D3D3D3D3D3D3D3D2D
:1001D0000A0A0D456E7375726520746865204D6F4F
:1001E00064756C652069732050726F6772616D6D04
:1001F00065642061732061204D61737465720A0D1E
:10020000436F6E6E6563742074686520546F756308
:10021000682050616E656C204C434420746F2074DC
:100220006865204D6F64756C6520616E642073771E
:1002300069746368204F4E0A0A0D54686520272BA5
:1002400027206B65792077696C6C20696E63726515
:100250006D656E742074686520414D5020434F4495
:10026000452076616C756520646973706C61796591
:100270006420627920310A0D54686520272D2720DB
:100280006B65792077696C6C2064656372656D6558
:100290006E742074686520414D5020434F444520C2
:1002A00076616C756520646973706C617965642032
:1002B000627920310A0D5072657373202758272008
:1002C000746F2072657475726E20746F205465733C
:1002D00074204D656E750A0A0D000A0A0A0A0D445B
:1002E00045425547204D454E550A0D3D3D3D3D3D4E
:1002F0003D3D3D3D3D3D3D3D0A0D41202D204144CC
:100300004320746573740A0D45202D2045455052D5
:100310004F4D20746573740A0D58202D204578695F
:100320007420746F205374617274204D656E750A69
:100330000D000A0A0A0A0D54455354204D454E55E6
:100340000A0D3D3D3D3D3D3D3D3D3D3D3D3D0A0DA3
:1003500049202D2049324320746573740A0D5820BA
:100360002D204578697420746F2053746172742055
:100370004D656E750A0D000A0A0D53746172742082
:100380004D454E550A0D3D3D3D3D3D3D3D3D3D3DBF
:100390003D3D0A0D54202D20426F6172642074652A
:1003A0007374730A0D44202D204465627567204DD7
:1003B000656E750A0D3C454E5445523E2D20546FD6
:1003C00020726566726573682073637265656E0A74
:1003D0000A0D0020436F6D6D616E64206E6F742096
:1003E000696D706C656D656E7465640A0D000A0A4E
:1003F0000D454547204E657420436F6E6E656374EE
:100400006F72202D2049324320454550524F4D20D8
:1004100050726F6772616D6D65720A0D3D3D3D3DB5
:100420003D3D3D3D3D3D3D3D3D3D3D3D3D3D3D3DFC
:100430003D3D3D3D3D3D3D3D3D3D3D3D3D3D3D3DEC
:100440003D3D3D3D3D0A0A0D000A0A0A0A0A0A0A14
:100450000A0A0A0A0D28632920436F7079726967B6
:10046000687420546865204D61677374696D20431A
:100470006F6D70616E79204C74642E20323032358D
:100480000A0A0D000A0D000011241FBECFEFD8E0AC
:10049000DEBFCDBF11E0A0E0B1E0E4EEF7E102C0C5
:1004A00005900D92AA3FB107D9F723E0AAEFB1E07A
:1004B00001C01D92A03CB207E1F70E9442050C94D6
:1004C000F00B0C94000087E080937C0010927E007B
:1004D00010927B0010920B0210920C0210920D02EF
:1004E00010920E0210920702109208021092090256
:1004F00010920A0210920602109202021092030257
:1005000010920402109205021092FE011092FF0157
:1005100010920002109201028FEE80937A000895EB
:1005200010927A0008951F920F920FB60F92112425
:100530002F933F938F939F93AF93BF9380910B0221
:1005400080FF02C05F9A01C05F98209178003091CF
:1005500079008091070290910802A0910902B09160
:100560000A02820F931FA11DB11D80930702909371
:100570000802A0930902B0930A0280910B029091A5
:100580000C02A0910D02B0910E020196A11DB11DA9
:1005900080930B0290930C02A0930D02B0930E0275
:1005A0008F3F9105A105B10541F138F18091070216
:1005B00090910802A0910902B0910A02892F9A2F06
:1005C000AB2FBB278093FA019093FB01A093FC0112
:1005D000B093FD0110920B0210920C0210920D02CA
:1005E00010920E0210920702109208021092090255
:1005F00010920A0281E080930602BF91AF919F9111
:100600008F913F912F910F900FBE0F901F901895D3
:100610000F931F9320910602211102C080E051C068
:100620000091FE011091FF01209100023091010222
:100630004091FA015091FB016091FC017091FD0124
:10064000400F511F621F731F4093FE015093FF0123
:100650006093000270930102009102021091030264
:1006600020910402309105020F5F1F4F2F4F3F4F23
:100670000F3F11052105310509F048F400930202EE
:10068000109303022093040230930502C7CF109207
:1006900002021092030210920402109205021092BC
:1006A000FE011092FF011092000210920102452FEC
:1006B000562F672F7727FC01408351836283738312
:1006C00081E01F910F9108951092D0021092CF02F5
:1006D0001092CE021092CD021092C50087E6809350
:1006E000C40086E08093C20088E98093C100089529
:1006F0001F920F920FB60F9211248F939F93EF9337
:10070000FF939091CE028091CD02981306C0809104
:10071000C1008F7D8093C10011C0E091CD02F0E057
:10072000E75EFD4F80818093C6008091CD028F5F90
:100730008093CD02843B10F01092CD02FF91EF9197
:100740009F918F910F900FBE0F901F901895F89466
:100750002091CE0230E08091CD027894482F50E075
:100760002417350710F42C543F4F8D54821B0895E5
:100770001F93CF93DF93D82F192FC62F0E94A70363
:100780008C17E0F38091CE022D2FED2FF12F9E2FAD
:10079000921B9C1758F49191A82FB0E0A75EBD4F13
:1007A0009C938F5F843B98F380E0F1CFF894809323
:1007B000CE028091C10085FD16C0E091CD02F0E02F
:1007C000E75EFD4F80818093C6008091CD028F5FF0
:1007D0008093CD02843B10F01092CD028091C10035
:1007E00080628093C100789484E0DF91CF911F9163
:1007F0000895CF93DF93FC0101900020E9F7319732
:10080000EF01C81BD90B6C2F0E94B803843011F480
:100810008C2F01C080E0DF91CF910895CF93C82F36
:100820001092C1000E946403EC2FF0E0EE0FFF1F56
:10083000E050FF4F81818F9380818F9388E091E01A
:100840009F938F9389ED92E09F938F930E94060967
:100850000F900F900F900F900F900F9089ED92E0F6
:10086000CF910C94F9032091CE029091CD0281E0BA
:10087000291380E008951F920F920FB60F92112452
:100880002F933F934F935F936F937F938F939F9398
:10089000AF93BF93EF93FF939091C0008091C600F8
:1008A000E091D002F0E0E15FFD4F80838091D002C3
:1008B0008F5F8093D0028A3010F01092D002892F7F
:1008C0008C7159F094FF02C080E005C093FF02C014
:1008D00081E001C082E00E940E04FF91EF91BF9180
:1008E000AF919F918F917F916F915F914F913F91C8
:1008F0002F910F900FBE0F901F9018953091D0023E
:100900002091CF023217A9F0F894E091CF02F0E0E5
:10091000E15FFD4F2081FC0120838091CF028F5F3A
:100920008093CF028A3010F01092CF02789484E046
:10093000089580E00895CF93DF931F92CDB7DEB77F
:100940008091BC008983898187FFFACF0F90DF9166
:10095000CF9108958CE08093B800ECEBF0E08081BB
:10096000846080830895FF920F931F93CF93DF934A
:10097000C82F162FF42E052F84EA8093BC000E9406
:100980009B04CC0FC093BB0084E88093BC000E9402
:100990009B04CF2DD02FCE01810F911D8C0184E8B7
:1009A000F82EC017D10741F089918093BB00F092D7
:1009B000BC000E949B04F5CF84E98093BC00DF91CA
:1009C000CF911F910F91FF900895AF92BF92CF9258
:1009D000DF92EF92FF920F931F93CF93DF93C82F75
:1009E000062FF42E152F84EA8093BC000E949B04EE
:1009F000CC0FC160C093BB0084E88093BC000E9410
:100A00009B04CF2DD12F10E0E12CF12C680181E067
:100A1000C81AD10884ECB82E94E8A92EE016F10685
:100A200091F0CE14DF0419F4A092BC0002C0B09281
:100A3000BC000E949B048091BB0088838FEFE81A62
:100A4000F80A2196EBCF84E98093BC00DF91CF9127
:100A50001F910F91FF90EF90DF90CF90BF90AF90DC
:100A600008951092B800ECEBF0E080818B7F8083DA
:100A70000895579A5F985F9A5F985F9A5F985F9A18
:100A80005F9808950E9439050E9464030E948A08B5
:100A90000E94A908FDCFCF93DF9300D000D01F9212
:100AA000CDB7DEB70E94AA0481E08093D2021F92E4
:100AB0008F9386E891E09F938F9389ED92E09F93C7
:100AC0008F930E94060989ED92E00E94F90381E16B
:100AD00089838091D2028A83AE014F5F5F4F62E0CB
:100AE00080E10E94B3041092D4021092D3028AE2F1
:100AF00098E09093D6028093D50287EE96E090938B
:100B0000D8028093D7020F900F900F900F900F9004
:100B10000F900F900F900F900F900F90DF91CF914B
:100B200008951F93CF93DF931F92CDB7DEB7182F91
:100B3000CE0101960E947E04882391F0112379F062
:100B400089818D3039F484E894E00E94CF080E94B6
:100B5000F90305C061E0CE0101960E94B8038981C6
:100B60000F90DF91CF911F9108956F927F928F9296
:100B70009F92AF92BF92CF92DF92EF92FF920F932C
:100B80001F93CF93DF93CDB7DEB76B970FB6F89473
:100B9000DEBF0FBECDBF81E00E949105882309F41E
:100BA000AEC0873509F473C018F4883439F095C0A5
:100BB000883621F0873709F46AC08FC087E991E051
:100BC0000E94F9031982AE014F5F5F4F61E080918F
:100BD000D1020E94B30400E010E096EA692E91E091
:100BE000792E29EDC22E22E0D22E34EBA32E31E055
:100BF000B32E1F930F937F926F92DF92CF920E943A
:100C0000060989ED92E00E94F903AE014F5F5F4F44
:100C100060E18091D1020E94E504CE0101964C0171
:100C200089EDE82E82E0F82E0F900F900F900F9034
:100C30000F900F90F40181914F011F928F93BF92FB
:100C4000AF92FF92EF920E940609F3E0EF0EF11CC3
:100C50000F900F900F900F900F900F9089E0E81673
:100C600083E0F80639F70E9433048823E1F389ED25
:100C700092E00E94F9038BE191E00E94F903005F8A
:100C80001F4F011592E0190709F0B3CF26C0198252
:100C90008AE58A83AE014F5F5F4F62E08091D102A7
:100CA0000E94B3041F921F921F9281E08F9389814B
:100CB0001F928F938AEB91E09F938F9389ED92E03F
:100CC0009F938F930E94060989ED92E00E94F90399
:100CD0000FB6F894DEBF0FBECDBF8BEF90E09093C0
:100CE000D4028093D30285EB95E09093D602809353
:100CF000D50287EE96E09093D8028093D7026B9648
:100D00000FB6F894DEBF0FBECDBFDF91CF911F911C
:100D10000F91FF90EF90DF90CF90BF90AF909F909A
:100D20008F907F906F900895CF93DF9300D000D085
:100D3000CDB7DEB7CE0101960E940803882319F1D2
:100D400029813A814B815C8168E378E383E090E01C
:100D50000E94DC08AA27BB27BF93AF939F938F9372
:100D600089EE91E09F938F9389ED92E09F938F930B
:100D70000E94060989ED92E00E94F9030FB6F894EB
:100D8000DEBF0FBECDBF81E00E9491058823C1F078
:100D9000883511F08837A1F40E9490028AED92E024
:100DA0009093D4028093D30282E697E09093D60288
:100DB0008093D50287EE96E09093D8028093D70275
:100DC0000F900F900F900F90DF91CF910895CF93D8
:100DD000DF938091D3029091D402009771F10E9429
:100DE000C308EC01833B910510F0C2EBD0E00E94F8
:100DF000A70390E08C179D07D0F3BE018091D3022A
:100E00009091D4020E94B1082091D3023091D40273
:100E10002C0F3D1F3093D4022093D3026C2F0E94DD
:100E2000B803E091D302F091D402E491E1110DC036
:100E30001092D4021092D30208C08091D5029091F2
:100E4000D6029093D8028093D702DF91CF91089574
:100E500081E00E9491058823A1F1843541F018F4C6
:100E6000843471F016C0843659F0843791F482E3EB
:100E700093E09093D4028093D30285EF97E017C05C
:100E80008AED92E09093D4028093D30282E697E0B9
:100E90000EC083ED93E00E94CF080E94F90387E71C
:100EA00093E09093D4028093D30288E297E09093EA
:100EB000D6028093D50287EE96E09093D802809375
:100EC000D702089581E00E949105882309F445C066
:100ED000883511F128F4813449F0853491F025C02A
:100EE000853679F08837C1F08136F9F40E946302C3
:100EF00088E891E09093D4028093D30284E996E04D
:100F000022C00E94AA0488E690E09093D4028093C5
:100F1000D3028EEA97E017C087E793E09093D4025C
:100F20008093D30288E297E00EC083ED93E00E94A5
:100F3000CF080E94F9038AED92E09093D402809347
:100F4000D30282E697E09093D6028093D50287EE93
:100F500096E09093D8028093D702089581E00E9492
:100F60009105882309F440C0833389F030F481333C
:100F700061F0823309F582E50BC08835A1F088372E
:100F800091F08433C9F486E503C080E501C084E5AF
:100F90008093D1028BEF90E09093D4028093D302A0
:100FA00085EB95E017C08AED92E09093D402809390
:100FB000D30282E697E00EC083ED93E00E94CF0853
:100FC0000E94F90388E690E09093D4028093D302C4
:100FD0008EEA97E09093D6028093D50287EE96E052
:100FE0009093D8028093D702089581E00E949105E2
:100FF000882379F1883591F018F4893431F017C0DD
:10100000893619F0883751F012C089EB91E090933E
:10101000D4028093D3028BE495E011C087E793E07C
:101020009093D4028093D30288E297E008C08AEDBF
:1010300092E09093D4028093D30282E697E090935B
:10104000D6028093D50287EE96E09093D8028093E3
:10105000D7020895CF93DF9300D000D01F92CDB771
:10106000DEB780E00E949105882309F44BC08D32E1
:1010700001F130F48B3211F58091D2028F5F1CC0E8
:10108000883511F08837D1F40E94310582E393E06E
:101090009093D4028093D30285EF97E09093D60289
:1010A0008093D50287EE96E09093D8028093D70282
:1010B00029C08091D20281508093D2028091D202C5
:1010C0001F928F9386E891E09F938F9389ED92E032
:1010D0009F938F930E94060989ED92E00E94F90385
:1010E00081E189838091D2028A83AE014F5F5F4F95
:1010F00062E080E10E94B3040F900F900F900F9078
:101100000F900F900F900F900F900F900F90DF9116
:10111000CF91089589E494E00E94CF080E94F903DA
:101120008EEE93E00E94CF080E94F90387E793E0D8
:101130009093D4028093D30288E297E09093D602F2
:101140008093D50287EE96E09093D8028093D702E1
:101150000895E091D702F091D802309709F00994F0
:101160000895ABE0B3E020E030E02617370741F008
:10117000FC01E20FF31FE491ED932F5F3F4FF5CF9A
:101180008BE093E008959C0180E090E0F901E80F86
:10119000F91FE491EE2311F00196F8CF0895CF9353
:1011A000DF93EC010E94C308BC016F5F7F4FCE014B
:1011B000DF91CF910C94B108DB018F939F930E9434
:1011C000EC08BF91AF91A29F800D911DA39F900D40
:1011D000B29F900D112408950E94F708A59F900DCD
:1011E000B49F900DA49F800D911D11240895A29F7E
:1011F000B001B39FC001A39F700D811D1124911DEB
:10120000B29F700D811D1124911D0895AEE0B0E0D4
:10121000ECE0F9E00C94C70B0D891E8986E08C8305
:101220001A8309838FEF9FE79E838D83AE01475E0C
:101230005F4F6F89788DCE0101960E942809EF815A
:10124000F885E00FF11F10822E96E4E00C94E30B7A
:10125000ABE0B0E0EEE2F9E00C94B90B6C017B017D
:101260008A01FC0117821682838181FFCCC1CE01E5
:1012700001963C01F6019381F70193FD859193FF5F
:1012800081917F01882309F4BAC1853239F493FD35
:10129000859193FF81917F01853229F4B60190E019
:1012A0000E941F0BE7CF912C212C312CFFE1F3156D
:1012B000D8F08B3279F038F4803279F08332A1F4AF
:1012C000232D20611DC08D3261F0803369F4232D00
:1012D000216016C0832D8260382EE32DE4603E2EFF
:1012E0002AC0F32DF8601DC037FC2DC020ED280F5B
:1012F0002A3040F08E32B9F436FC81C1232D2064AF
:10130000322E19C036FE06C08AE0989E200D1124A8
:10131000922E11C0EAE02E9E200D1124222EF32DD4
:10132000F0623F2E08C08C3621F4832D8068382E61
:1013300002C0883641F4F70193FD859193FF8191B6
:101340007F018111B3CF982F9F7D9554933028F45E
:101350000C5F1F4F9FE399830DC0833631F08337B5
:1013600071F0833509F059C021C0F801808189836B
:101370000E5F1F4F88248394912C530113C02801C2
:10138000F2E04F0E511CF801A080B18036FE03C080
:10139000692D70E002C06FEF7FEFC5010E94140B52
:1013A0004C018201F32DFF773F2E16C0280122E069
:1013B000420E511CF801A080B18036FE03C0692D99
:1013C00070E002C06FEF7FEFC5010E94090B4C0176
:1013D000F32DF0683F2E820133FC1BC0822D90E07C
:1013E00088169906B0F4B60180E290E00E941F0BC7
:1013F0002A94F4CFF50137FC859137FE81915F0186
:10140000B60190E00E941F0B21102A9421E0821A5D
:1014100091088114910471F7E8C0843611F089367F
:1014200041F5F80137FE07C06081718182819381A7
:101430000C5F1F4F08C060817181072E000C880B64
:10144000990B0E5F1F4FF32DFF763F2E97FF09C0BC
:1014500090958095709561957F4F8F4F9F4FF06865
:101460003F2E2AE030E0A3010E945B0B882E8618F5
:1014700045C0853731F4232D2F7EB22E2AE030E08F
:1014800025C0932D997FB92E8F36C1F018F4883579
:1014900079F0B5C0803719F0883721F0B0C0E92F56
:1014A000E061BE2EB4FE0DC0FB2DF460BF2E09C05E
:1014B00034FE0AC0292F2660B22E06C028E030E094
:1014C00005C020E130E002C020E132E0F801B7FEC3
:1014D00007C060817181828193810C5F1F4F06C0BC
:1014E0006081718180E090E00E5F1F4FA3010E9438
:1014F0005B0B882E8618FB2DFF773F2E36FE0DC026
:10150000232D2E7FA22E891458F434FE0BC032FCFA
:1015100009C0832D8E7EA82E05C0B82CA32C03C035
:10152000B82C01C0B92CA4FE0FC0FE01E80DF11DBE
:101530008081803321F49A2D997EA92E09C0A2FEC4
:1015400006C0B394B39404C08A2D867809F0B3948E
:10155000A3FC11C0A0FE06C0B21488F4280C922C83
:101560009B180EC0B21460F4B60180E290E00E94B5
:101570001F0BB394F7CFB21418F42B1802C0982C99
:10158000212CA4FE10C0B60180E390E00E941F0B46
:10159000A2FE17C0A1FC03C088E790E002C088E566
:1015A00090E0B6010CC08A2D867859F0A1FE02C0E9
:1015B0008BE201C080E2A7FC8DE2B60190E00E94C0
:1015C0001F0B891438F4B60180E390E00E941F0BD2
:1015D0009A94F7CF8A94F301E80DF11D8081B6014A
:1015E00090E00E941F0B8110F5CF222009F442CE1B
:1015F000B60180E290E00E941F0B2A94F6CFF6011C
:101600008681978102C08FEF9FEF2B96E2E10C94C9
:10161000D50BFC010590615070400110D8F7809502
:1016200090958E0F9F1F0895FC01615070400190AE
:101630000110D8F7809590958E0F9F1F08950F93F6
:101640001F93CF93DF93FB01238121FD03C08FEF15
:101650009FEF2CC022FF16C046815781248135811F
:101660004217530744F4A081B1819D012F5F3F4F82
:10167000318320838C93268137812F5F3F4F3783BF
:10168000268314C08B01EC01FB010084F185E02D61
:101690000995892BE1F6D80116968D919C911797A3
:1016A000019617969C938E931697CE01DF91CF915A
:1016B0001F910F910895FA01AA27283051F1203186
:1016C00081F1E8946F936E7F6E5F7F4F8F4F9F4FD6
:1016D000AF4FB1E03ED0B4E03CD0670F781F891F18
:1016E0009A1FA11D680F791F8A1F911DA11D6A0FE6
:1016F000711D811D911DA11D20D009F468943F9199
:101700002AE0269F11243019305D3193DEF6CF0197
:101710000895462F4770405D4193B3E00FD0C9F75D
:10172000F6CF462F4F70405D4A3318F0495D31FDCA
:101730004052419302D0A9F7EACFB4E0A69597951D
:10174000879577956795BA95C9F7009761057105F3
:1017500008959B01AC010A2E06945795479537953D
:101760002795BA95C9F7620F731F841F951FA01D97
:1017700008952F923F924F925F926F927F928F9235
:101780009F92AF92BF92CF92DF92EF92FF920F9310
:101790001F93CF93DF93CDB7DEB7CA1BDB0B0FB61A
:1017A000F894DEBF0FBECDBF09942A8839884888D7
:1017B0005F846E847D848C849B84AA84B984C8846D
:1017C000DF80EE80FD800C811B81AA81B981CE0F64
:1017D000D11D0FB6F894DEBF0FBECDBFED01089549
:0417E000F894FFCFAB
:1017E4001E013501510167010A0A0D53595354452D
:1017F4004D204552524F520A0D25730A0D000A0D11
:1018040053657269616C204672616D696E6720452B
:1018140072726F72000A0D53657269616C204461C3
:101824007461204F76657272756E204572726F72A4
:10183400000A0D53657269616C2050617269747994
:10184400204572726F72000A0D53657269616C20D3
:10185400545820627566206F766572666C6F7720C7
:101864004572726F7200446973706C6179696E6756
:1018740020253032780D000A0A0D48455820445579
:101884004D500A0D0A0041646472203D2025303415
:10189400783A20002530327820000A0D44617461C2
:1018A4002025303278207772697474656E2025643F
:1018B4002074696D657320746F206164647265734C
:1018C4007320253034780A0D00434837203D202505
:0A18D400756D56202020200D000045
:00000001FF
