:100000000C94D5010C94F2010C94F2010C94F201C1
:100010000C94F2010C94F2010C94F2010C94F20194
:100020000C94F2010C94F2010C94F2010C94F20184
:100030000C94F2010C94F2010C94F2010C94F20174
:100040000C94F2010C94F2010C94FD020C94370212
:100050000C94F2010C94F2010C94F2010C94F20154
:100060000C94F2010C94F201A50542074207A20587
:10007000FB05420742074207420742074207420781
:10008000380742074207E705420742079D05420736
:1000900042070506F10542074207420742074207A9
:1000A0004207420742074207A50542074207A20549
:1000B000FB05420742074207420742074207420741
:1000C000380742074207E705420742079D054207F6
:1000D00042070506F1058F098C09920992099209D8
:1000E000920992099209920989099209920986094D
:1000F0009209920992099209920992099209920928
:100100009209920992099209920992099209920917
:100110009209920992098F098C0992099209920910
:10012000920992099209920989099209920986090C
:10013000F509F909FD09010A050A090A0D0A0A0D5E
:10014000454550524F4D204D454E550A0D2D2D2DF4
:100150002D2D2D2D2D2D2D2D0A0D533A2053657447
:1001600075702053686F7420436F756E740A0D4468
:100170003A20446973706C617920416C6C0A0D41BE
:100180003A20457261736520416C6C0A0D503A202B
:10019000446973706C617920506167650A0D453A56
:1001A00020457261736520506167650A0D573A20DA
:1001B000777269746520427974650A0D563A205643
:1001C000657269667920454550524F4D0A0D4D3A8A
:1001D000204D61696E204D656E750A0A0D000A0A90
:1001E000496E76616C696420526573706F6E7365D9
:1001F0000A0A0D506C656173652053656C65637404
:1002000020426F61726420746F20546573740A0D0C
:1002100031202D20496E7465726661636520426FDE
:10022000617264202D20343539312D30310A0D3280
:10023000202D20526F746F7220426F617264202DE6
:1002400020343830382D30310A0D33202D20436FC3
:10025000696C204D656D6F727920426F6172642008
:100260002D20343938372D30310A0D34202D2050CF
:100270005355204D696D6963202D20343938372D51
:1002800030310A0D000A0A41726475696E6F2049A7
:10029000B24320546573742050726F6772616D0AA7
:1002A0000A0D506C656173652053656C656374203D
:1002B000426F61726420746F20546573740A0D314B
:1002C000202D20496E7465726661636520426F61FE
:1002D0007264202D20343539312D30310A0D322011
:1002E0002D20526F746F7220426F617264202D2036
:1002F000343830382D30310A0D33202D20436F69CA
:100300006C204D656D6F727920426F617264202D93
:1003100020343938372D30310A0D34202D205053F8
:1003200055204D696D6963202D20343938372D30C3
:10033000310A0D000A0A0D2A2A2A2A2A2A2A2A2ADA
:100340002A2A2A2A0A0D2A204D41494E204D454E7F
:1003500055202A0A0D2A2A2A2A2A2A2A2A2A2A2A19
:100360002A2A0A0D503A2050434139353334204768
:1003700050494F0A0D453A2032344C43313238202F
:10038000454550524F4D0A0D443A204D43503437A5
:100390004131204441430A0D4D3A204D61696E20A0
:1003A0004D656E750A0D0A0D000011241FBECFEFBA
:1003B000D8E0DEBFCDBF16E0A0E0B1E0ECE2F1E2B4
:1003C00002C005900D92A434B107D9F728E0A4E447
:1003D000B6E001C01D92A738B207E1F70E9493086A
:1003E0000C9494100C940000CF93DF9300D01F92D4
:1003F000CDB7DEB7613471058105910528F088EF2E
:1004000091E00E94BD020DC019826A83AE014F5F68
:100410005F4F62E08EE20E94D2078FE092E00E947E
:10042000BD020E9450090F900F900F90DF91CF9165
:1004300008958BE192E00E94BD0264EF71E082E0DA
:100440000E946F0A089510921B0710921A071092CB
:100450001907109218071092C50087E68093C40010
:1004600086E08093C20088E98093C10008951F92BE
:100470000F920FB60F9211248F939F93EF93FF93D8
:100480009091190780911807981306C0E1ECF0E0ED
:1004900080818F7D808311C0E0911807F0E0E05BE0
:1004A000F94F80818093C600809118078F5F8093F9
:1004B0001807883C10F010921807FF91EF919F9158
:1004C0008F910F900FBE0F901F901895F894209168
:1004D000190730E0809118077894482F50E02417CE
:1004E000350710F428533F4F8953821B08950F930B
:1004F0001F93CF938C01C62F0E9466028C17E0F3E6
:1005000090911907CC23B1F0D801C1502C2F30E0C5
:100510002F5F3F4F200F311F40E08D91E92FF0E01A
:10052000E05BF94F80839F5F983C08F0942FA217FF
:10053000B30799F7F894909319078091C10085FD4E
:1005400016C0E0911807F0E0E05BF94F80818093DE
:10055000C600809118078F5F80931807883C10F0C1
:1005600010921807E1ECF0E080818062808378943B
:1005700084E0CF911F910F910895CF93DF93FC01F9
:1005800001900020E9F73197EF01C81BD90B6C2FC0
:100590000E947702843011F48C2F01C080E0DF913B
:1005A000CF910895CF93DF93C82FD0E0D093450625
:1005B000C09344061092C1000E942302CC0FDD1F9D
:1005C000C050DF4F89818F9388818F938FEA92E0AB
:1005D0009F938F9388E797E09F938F930E94BC0D22
:1005E00088E797E00E94BD020F900F900F900F9048
:1005F0000F900F90DF91CF9108951F920F920FB639
:100600000F9211242F933F934F935F936F937F9398
:100610008F939F93AF93BF93EF93FF939091C000FD
:100620008091C600E0911B07F0E0EA5BF94F808300
:1006300080911B078F5F80931B078A3010F0109208
:100640001B07892F8C7179F094FF04C080E00E9411
:10065000D20209C093FF04C081E00E94D20203C00D
:1006600082E00E94D202FF91EF91BF91AF919F91E2
:100670008F917F916F915F914F913F912F910F904B
:100680000FBE0F901F901895DC0120911B079091D1
:100690001A072917A1F0F894E0911A07F0E0EA5B35
:1006A000F94F80818C9380911A078F5F80931A078E
:1006B0008A3010F010921A07789484E0089580E050
:1006C0000895CF92DF92EF92FF9240916107E42F5D
:1006D000F0E0EE0FFF1FE852FB4F0190F081E02D9C
:1006E000228133816901E12CF12C6C157D058E0589
:1006F0009F0528F083E593E00E94BD0247C030913A
:1007000060072481F32EF20E0190F081E02DE69F28
:100710009001E79F300DF69F300D112430931D0797
:1007200020931C07411106C0EEE1F7E030832183DE
:1007300062E006C020931E07932F9770F92A61E0AC
:10074000E62FF0E0E25EF84FA0916107B0E0AA0F5B
:10075000BB1FA852BB4F0D90BC91A02D4D915C9139
:1007600011974115510561F020E030E09FEF919322
:100770002F5F3F4F4D915C91119724173507B8F3C8
:10078000640F4EE157E08F2D0E94D207FF90EF904B
:10079000DF90CF9008952F923F924F925F926F9289
:1007A0007F928F929F92AF92BF92CF92DF92EF9201
:1007B000FF920F931F93CF93DF93CDB7DEB7A1972F
:1007C0000FB6F894DEBF0FBECDBF99A388A380916A
:1007D0006107E82FF0E0EE0FFF1FE852FB4F01909A
:1007E000F081E02D2281338148A159A1421753079E
:1007F00028F083E593E00E94BD020EC14081518143
:1008000068A179A1649F9001659F300D749F300DA0
:10081000112430931D0720931C07109160079481C9
:10082000190F811106C0EEE1F7E03083218362E009
:1008300006C020931E07832F8770182B61E04EE1BE
:1008400057E0812F0E94D207E0916107F0E0EE0FA0
:10085000FF1FE852FB4F0190F081E02D4EE157E081
:100860006081812F0E941F0888A199A1892B21F402
:1008700089E693E00E94BD02E0916107F0E0EE0F8F
:10088000FF1FE852FB4F0190F081E02D80819181A4
:10089000409708F4C1C0AEE1B7E0BF8FAE8F1D8EA8
:1008A0001C8EFE0131966F014E01FBE18F0E911CF3
:1008B0000F2EFEE24F2E512CF02D0F2EF4EC2F2E8A
:1008C000F3E03F2EF02D0F2EF7EC6F2EF3E07F2E8E
:1008D000F02D2C8D3D8D232BB1F439A13F9348A1F0
:1008E0004F93A0EBB3E0BF93AF93DF92CF920E9400
:1008F000BC0DC6010E94BD020F900F900F900F908B
:100900000F900F9004C088EB93E00E94BD0280918D
:100910001D078F9380911C078F93AEEBB3E0BF93BD
:10092000AF93A8E7B7E0BF93AF930E94BC0DEE8CE6
:10093000FF8C8E01055F1F4F0F900F900F900F904F
:100940000F900F905701D7018C9190EE980F9F3523
:1009500078F41F928F933F922F921F930F930E94D0
:10096000BC0D0F900F900F900F900F900F9003C041
:10097000F80151824082FFEFEF1AFF0AD5018C91F6
:100980001F928F937F926F92DF92CF920E94BC0D45
:10099000C6010E94BD020F5F1F4F0F900F900F9076
:1009A0000F900F900F900815190561F6EE8DFF8DD1
:1009B0007096FF8FEE8F8AEB93E00E94BD02CE010E
:1009C0000B960E94BD028BEF93E00E94BD028091C6
:1009D0001C0790911D07409690931D0780931C075C
:1009E0002C8D3D8D2F5F3F4F3D8F2C8FE091610708
:1009F000F0E0EE0FFF1FE852FB4F0190F081E02D79
:100A000080819181929582958F7089279F70892727
:100A10002817390708F45DCFA1960FB6F894DEBF0A
:100A20000FBECDBFDF91CF911F910F91FF90EF903F
:100A3000DF90CF90BF90AF909F908F907F906F90FE
:100A40005F904F903F902F90089570931D07609393
:100A50001C078DEC93E00E94BD0268E577E082E020
:100A60000E946F0A0895809361076093600708955C
:100A700080E895E00E946A0A8EE391E00E94000CF3
:100A80000E94BD0208950E9461030E9438050895E6
:100A9000CB010E94CB030E9438050895CF93DF93CA
:100AA0008CED93E00E94BD02E0916107F0E0EE0F53
:100AB000FF1FE852FB4F0190F081E02D828193816E
:100AC000892BA9F0C0E0D0E0CE010E94CB03219693
:100AD000E0916107F0E0EE0FFF1FE852FB4F01903D
:100AE000F081E02D82819381C817D90768F38AEFDE
:100AF00093E00E94BD020E943805DF91CF910895D6
:100B00003F924F925F926F927F928F929F92AF929D
:100B1000BF92CF92DF92EF92FF920F931F93CF93EA
:100B2000DF9390E0FC01E154F109E733F10508F0AF
:100B3000A9C1EC5CFF4F0C94B60D0E94AB0C0E9457
:100B40004E05A4C10E944E05A1C18CE094E00E9414
:100B5000BD02E0916107F0E0EE0FFF1FE852FB4F8E
:100B60000190F081E02D82819381892B49F1C12C84
:100B7000D12C760181E394E00E94BD02C701B60149
:100B80000E9461038FE39CE90197F1F700C0000028
:100B90009FEFC91AD90AE90AF90AE0916107F0E062
:100BA000EE0FFF1FE852FB4F0190F081E02D828194
:100BB0009381A0E0B0E0C816D906EA06FB06D0F2A1
:100BC00083E394E00E94BD020E9438055FC185E482
:100BD00094E00E94BD0268E475E082E00E946F0A22
:100BE00055C18EE594E00E94BD0265E275E084E0A7
:100BF0000E946F0A4BC185E494E00E94BD0263E449
:100C000075E082E00E946F0A41C18DE694E00E9487
:100C1000BD02E0916107F0E0EE0FFF1FE852FB4FCD
:100C20000190F081E02D82819381892B09F416C116
:100C30000F2EFEEFAF2EF3E0BF2EF02D812C912C66
:100C4000CEE1D7E0442443946894552451F8612CB4
:100C5000712C0F2EFFE1CF2EF7E0DF2EF02D0F2E9F
:100C6000F0E9EF2EF4E0FF2EF02D08E717E081E326
:100C700094E00E94BD0290916107E92FF0E0EE0F31
:100C8000FF1FE852FB4F0190F081E02D209160079B
:100C90008481820F40815181849E9001859E300D18
:100CA000949E300D112430931D0720931C07911141
:100CB00004C038832983652D05C02883932F97703E
:100CC000892B642DE62FF0E0E25EF84FA0916107DA
:100CD000B0E0AA0FBB1FA852BB4F0D90BC91A02D36
:100CE0004D915C9111974115510569F0262D372DD5
:100CF000922F980D91932F5F3F4F4D915C911197DB
:100D000024173507A8F3640FAE010E94D2078FE3C2
:100D10009CE90197F1F700C0000020916107E22FE4
:100D2000F0E0EE0FFF1FE852FB4F0190F081E02D45
:100D3000309060078481380E40815181849EC001CB
:100D4000859E900D949E900D112490931D07809385
:100D50001C07211104C098838983652D05C08883F1
:100D6000892F8770382A642DAE01832D0E94D20707
:100D7000E0916107F0E0EE0FFF1FE852FB4F01909A
:100D8000F081E02DAE016081832D0E941F08E0916B
:100D90006107F0E0EE0FFF1FE852FB4F0190F0817A
:100DA000E02D408151814115510509F443C0A881CE
:100DB000A815C1F108C02F5F3F4F70816A2F680FDF
:100DC000761799F103C0862D972DFE0121811F9280
:100DD0002F93880E991E99249F928F9220911C0721
:100DE00030911D07820F931F9F938F93FF92EF9275
:100DF0001F930F930E94BC0DE0916107F0E0EE0F8E
:100E0000FF1FE852FB4F0190F081E02D828093801C
:100E10008DB79EB70A960FB6F8949EBF0FBE8DBFD2
:100E2000580108C09601862D972DF9010196841767
:100E3000950709F69FEF891A990AE0916107F0E09A
:100E4000EE0FFF1FE852FB4F0190F081E02D8281F1
:100E500093818816990608F40ACF06C00F2EFEEF7C
:100E6000AF2EF3E0BF2EF02DC5010E94BD020EC0D3
:100E70000E94A408823019F40E94970907C00E94BA
:100E8000500904C08EED95E00E94BD02DF91CF9124
:100E90001F910F91FF90EF90DF90CF90BF90AF9098
:100EA0009F908F907F906F905F904F903F900895AC
:100EB000CF93C62F80911C0790911D071F926F93AF
:100EC0001F926F939C0133273F932F931F929F9301
:100ED0008FEB94E09F938F9388E797E09F938F9396
:100EE0000E94BC0D88E797E00E94BD0290916107C7
:100EF000E92FF0E0EE0FFF1FE852FB4F0190F08169
:100F0000E02D209160078481820F2DB73EB7245FCA
:100F10003F4F0FB6F8943EBF0FBE2DBF91110BC0CF
:100F200090911C0720911D07EEE1F7E0208391834B
:100F3000C28363E00BC020911C0790911D07EEE176
:100F4000F7E02083C1839770892B62E04EE157E080
:100F50000E94D2070E943805CF910895CF93DF9366
:100F60001F92CDB7DEB7ECEBF0E0808189838981F9
:100F70008823DCF70F90DF91CF9108958EED94E0F8
:100F80000E94BD0288B1806388B988E48093B8006C
:100F9000ECEBF0E080818460808380E095E00E944B
:100FA000BD020895AF92BF92CF92DF92FF920F934E
:100FB0001F93CF93DF93C82F162F6A010F2EFCEBE0
:100FC000AF2EB12CF02D84EAF50180830E94AE078C
:100FD000CC0FC093BB0084E8F50180830E94AE076C
:100FE000112301F1E6011150012F10E00F5F1F4F97
:100FF0000C0D1D1D0F2EFBEBAF2EB12CF02D0F2E67
:10100000FCEBCF2ED12CF02D0F2EF4E8FF2EF02D7F
:101010008991F5018083F601F0820E94AE07C01726
:10102000D107B1F784E98093BC00DF91CF911F9184
:101030000F91FF90DF90CF90BF90AF9008956F9287
:101040007F928F929F92AF92BF92CF92DF92EF9258
:10105000FF920F931F93CF93DF93C82F062F142F68
:10106000D52F0F2EFCEBEF2EF12CF02D84EAF7019B
:1010700080830E94AE07CC0FC160C093BB0084E8A0
:10108000F70180830E94AE070023D9F1812E9D2EA7
:10109000EE24EA94E00EF12CFFEFEF1AFF0AC0E015
:1010A000D0E010E0015011090F2EFCEBAF2EB12C57
:1010B000F02D0F2EF4EC7F2EF02D0F2EFBEBCF2E0C
:1010C000D12CF02D0F2EF4E86F2EF02DC017D10784
:1010D00049F4F50160820E94AE07F6018081F401B7
:1010E000808308C0F50170820E94AE07F6018081FE
:1010F000F40180832196FFEF8F1A9F0ACE15DF053A
:1011000029F784E98093BC00DF91CF911F910F9163
:10111000FF90EF90DF90CF90BF90AF909F908F9017
:101120007F906F9008950E9423020E9497098093F8
:1011300062070E94BE0780916207823011F00E9410
:10114000D80A0E94490AFDCF8091620708951F9333
:10115000CF93DF93D82FC0EDC80FCA3008F47FC0FB
:101160008FE98D0F863030F08FEB8D0F863008F4CD
:101170007BC059C010EE1D0F1F921F9384EC93E0AB
:101180009F938F9388E797E09F938F930E94BC0D66
:1011900088E797E00E94BD02C0EBCD0F0F900F9043
:1011A0000F900F900F900F90CA3010F0C9ECC10F44
:1011B00020916B07215020936B07CF7080916707B8
:1011C00090916807A0916907B0916A07880F991FED
:1011D000AA1FBB1F880F991FAA1FBB1F880F991F2B
:1011E000AA1FBB1F880F991FAA1FBB1F8C2B8093A0
:1011F000670790936807A0936907B0936A07211166
:101200004BC088E095E00E94BD0260916707709135
:1012100068078091690790916A07E0916507F091EE
:101220006607099539C08DEE95E00E94BD0234C075
:101230001F92DF9384EC93E09F938F9388E797E06E
:101240009F938F930E94BC0D88E797E00E94BD0298
:101250000F900F900F900F900F900F90A9CF8FE9E4
:101260008D0F863028F786CF1F92DF9384EC93E0B2
:101270009F938F9388E797E09F938F930E94BC0D75
:1012800088E797E00E94BD020F900F900F900F909B
:101290000F900F901D2F8ACFDF91CF911F9108954E
:1012A0000E94A408811111C084E393E00E94000C05
:1012B0000E94BD028BE799E090936F0780936E07C1
:1012C00010926D0710926C0708950E94A408813057
:1012D00059F481E69BE090936F0780936E0710921C
:1012E0006D0710926C0708950E94380510926D07E3
:1012F00010926C07089590E0FC01E454F109ED327E
:10130000F10580F4E559FF4F0C94B60D0E94C20A16
:1013100008950E94500908950E94380508950E947A
:10132000190208958DEE95E00E94BD0208950F9375
:101330001F93CF93DF931F92CDB7DEB71092640750
:101340001092630702E310E089E095E00E94BD027D
:1013500001501109C9F785E892E00E94000C0E9433
:10136000BD02CE0101960E9444038823D1F38981F6
:10137000813361F48BE095E00E94BD0280E599E045
:1013800090936D0780936C0710E070C0823331F446
:1013900083E395E00E94BD0211E068C0833349F405
:1013A00081E08093640787E595E00E94BD0212E02A
:1013B0005DC0843309F053C082E08093640781E804
:1013C00095E00E94BD02CE0101960E94440388234D
:1013D000D1F3E9818E2F90E0FC01F297E730F1051F
:1013E00000F5E856FF4F0C94B60D81E0809363073B
:1013F0001AC082E08093630716C083E0809363077E
:1014000012C084E0809363070EC085E08093630779
:101410000AC086E08093630706C087E08093630775
:1014200002C0109263078091630790E001969F933A
:101430008F9388EC95E09F938F9388E797E09F9335
:101440008F930E94BC0D88E797E00E94BD020F9029
:101450000F900F900F900F900F9012E007C08EED3D
:1014600091E00E94000C0E94BD027BCF6091630757
:10147000809164070E94330520E539E030936D07C1
:1014800020936C07812F0F90DF91CF911F910F91C7
:101490000895CF93DF931F92CDB7DEB7CE010196AB
:1014A0000E944403843059F4E0916E07F0916F0775
:1014B000309719F08981099502C00E945009E09186
:1014C0006C07F0916D07309709F009950F90DF9147
:1014D000CF91089590936F0780936E07089580933E
:1014E0006B071092670710926807109269071092B5
:1014F0006A07709366076093650787EA98E09093A0
:101500006F0780936E070895982F9F7D9D3419F47F
:101510000E94500908959FEC980F953070F5E82FC0
:10152000F0E0EE0FFF1FE954FF4F0190F081E02D36
:10153000F0937707E093760781818F9380818F9373
:101540008FEE95E09F938F9388E797E09F938F931B
:101550000E94BC0D88E797E00E94BD0281E69BE0F7
:101560000E946A0A8AE591E00E94BD020F900F90E6
:101570000F900F900F900F9008958EED95E00E94C0
:10158000BD0208950E94A408811109C084E89AE070
:101590000E946A0A8BE991E00E94BD02089581E6EB
:1015A0009BE00E946A0A8AE591E00E94BD020895CC
:1015B0008F929F92AF92BF92CF92DF92EF92FF9263
:1015C0000F931F93CF93DF93811106C082E0809326
:1015D000700709E111E014C081E0809370078091E9
:1015E00017019091180190937707809376070E94D6
:1015F000C20A80917007882309F452C007E111E004
:10160000A12CB12C0F2EFDEFCF2EF5E0DF2EF02D0B
:101610000F2EF8E7EF2EF7E0FF2EF02DC1E7D7E011
:10162000882483940F2EF3E09F2EF02DD801ED91A6
:10163000FC9181818F9380818F93DF92CF92FF9273
:10164000EF920E94BC0DC7010E94BD028882D801A2
:10165000ED91FC9184818983AE0162E082810E94D8
:10166000D2079882D801ED91FD918D018381898304
:10167000AE0162E082810E94D20782E196E00E9480
:10168000BD02BFEFAB1ABB0A2091700730E00F908C
:101690000F900F900F900F900F90A216B30630F29C
:1016A0008BEF93E00E94BD02DF91CF911F910F91CC
:1016B000FF90EF90DF90CF90BF90AF909F908F9072
:1016C00008950F931F93CF93DF93873549F018F454
:1016D000823581F054C0823769F0873709F04FC0F6
:1016E00068EC7BE082E00E946F0A8FE291E00E944A
:1016F000BD0249C010927107E0917607F09177071B
:1017000041E757E061E082810E94D207E0917607CD
:10171000F0917707AF014B5F5F4F61E082810E94DC
:101720001F0808E010E0C0E8D0E0E0917607F091F3
:101730007707838190E08C239D23892B29F48BEC00
:1017400093E00E94BD020FC0858190E08C239D2311
:10175000892B29F48AE196E00E94BD0204C081E44D
:1017600096E00E94BD02D695C79501501109E9F691
:101770008AEF93E00E94BD020E94C20A04C08EED6F
:1017800095E00E94BD02DF91CF911F910F910895C6
:10179000E1E7F7E081E080836183E0917607F091F3
:1017A000770741E757E062E082810E94D2070E94FA
:1017B000C20A08956115710561F0E82FF92FAEEBAB
:1017C000B7E06254784F84918D933196A617B7078E
:1017D000D1F78EEB97E00895AC01FC01849188234A
:1017E00059F020E030E02F5F3F4FFA01E20FF31F86
:1017F00094919111F8CF02C020E030E0C901089522
:10180000CF93DF93EC010E94EC0BBC016F5F7F4F25
:10181000CE010E94DA0BDF91CF9108956115710519
:10182000D1F0FC01680F791FA8E080E09191592761
:101830002A2F382F55233CF4440F551F9FEC49277E
:101840009DE1592702C0440F551F2150310991F7DE
:10185000E617F70759F7CA0108958F929F92AF9242
:10186000BF92CF92DF92EF92FF920F931F93CF938D
:10187000DF93CDB7DEB7C357D1090FB6F894DEBFFB
:101880000FBECDBFA82EB12C8E010B5E1F4F6E0177
:1018900082E1C80ED11CDE0111967D018A2E9F2C9B
:1018A000B982FE01329689819F012E193F09280FC6
:1018B000311D2C35310510F0108205C0D8018C91F6
:1018C00080830F5F1F4F3196EC15FD0561F7482DA2
:1018D000592D61E18A2D0E94D2078FE39CE901977F
:1018E000F1F700C0000090E1B90EA0E8BA12D8CF1D
:1018F00040E050E06CE570E0CE0145960E940E0C91
:101900002EE7E2962FAFE297E3969FAFE397E49638
:101910008FAFE497AE014F585F4F63E08A2D0E946E
:10192000D2078FE39CE90197F1F700C00000CD5882
:10193000DF4F0FB6F894DEBF0FBECDBFDF91CF9162
:101940001F910F91FF90EF90DF90CF90BF90AF90DD
:101950009F908F9008957F928F929F92AF92BF92A7
:10196000CF92DF92EF92FF920F931F93CF93DF936B
:10197000CDB7DEB7C656D1090FB6F894DEBF0FBE9D
:10198000CDBF83E5898383E48A8331E03B8392E39F
:101990009C8380E38D8321E32E8347E34F838887F5
:1019A00044E349879A878B879C878D879E879F878B
:1019B000888B298B8A8B2B8B9C8B8D8B9E8B9F8B03
:1019C000888F498F9A8F8B8F80E88F8F88EA8E8FD0
:1019D00082E18D8F3C8F1BA28AEB8AA38BED89A3BA
:1019E00018A23AE03DA31CA23FA31EA224E129A70E
:1019F00018A62BA71AA62DA71CA69EE19FA71EA678
:101A000099AB18AA9BAB1AAA88E28DAB1CAA8FAB24
:101A10001EAA89AF18AE3BAF1AAE3DAF1CAE2FAFBA
:101A20001EAE22962FAF229721961FAE21972496A5
:101A30002FAF249723961FAE239726969FAF269706
:101A400025961FAE259728969FAF289727961FAEFD
:101A500027972A969FAF2A9729961FAE29972C96EB
:101A60008FAF2C972B961FAE2B972E968FAF2E975E
:101A70002D961FAE2D9760968FAF60972F961FAE55
:101A80002F97912CCE0101967C018E01005B1F4F98
:101A900058019FEFA91AB90A6801A1E1CA0ED11C29
:101AA000702E812EF8019082F501D8012C91CF0182
:101AB000801B910B820F911D8035910510F01082D3
:101AC00006C0D7018C918083C70101967C013196B5
:101AD000EC15FD0551F7472D582D61E188E50E9471
:101AE000D207AFE3BCE91197F1F700C00000B0E105
:101AF0009B0EE0E89E12D6CF40E050E06FE470E02D
:101B0000CE0101960E940E0C2EE7A5962FAFA59749
:101B1000A6969FAFA697A7968FAFA797AE014C59F1
:101B20005F4F63E088E50E94D2078FE39CE901974D
:101B3000F1F700C0000089E50E942D0C8AE50E94A3
:101B40002D0CCA59DF4F0FB6F894DEBF0FBECDBFC4
:101B5000DF91CF911F910F91FF90EF90DF90CF9089
:101B6000BF90AF909F908F907F900895EE0FFF1FD2
:101B70000590F491E02D0994AEE0B0E0E2ECFDE0D8
:101B80000C946B100D891E8986E08C831A8309835F
:101B90008FEF9FE79E838D83AE01475E5F4F6F8916
:101BA000788DCE0101960E94DF0D2F813885F801D6
:101BB000E20FF31F10822E96E4E00C948710ACE045
:101BC000B0E0E5EEFDE00C945D107C016B018A0154
:101BD000FC0117821682838181FFBDC1CE0101966F
:101BE0004C01F7019381F60193FD859193FF81915B
:101BF0006F01882309F4ABC1853239F493FD8591D7
:101C000093FF81916F01853229F4B70190E00E9422
:101C1000C70FE7CF512C312C20E02032A0F48B32BB
:101C200069F030F4803259F0833269F420612CC0BD
:101C30008D3239F0803339F4216026C0226024606F
:101C400023C0286021C027FD27C030ED380F3A306F
:101C500078F426FF06C0FAE05F9E300D1124532E63
:101C600013C08AE0389E300D1124332E20620CC040
:101C70008E3221F426FD6BC1206406C08C3611F42F
:101C8000206802C0883641F4F60193FD859193FFE8
:101C900081916F018111C1CF982F9F7D9554933011
:101CA00028F40C5F1F4FFFE3F9830DC0833631F03A
:101CB000833771F0833509F05BC022C0F801808161
:101CC00089830E5F1F4F44244394512C540115C047
:101CD0003801F2E06F0E711CF801A080B18026FF80
:101CE00003C0652D70E002C06FEF7FEFC5012C8748
:101CF0000E94BC0F2C0183012C852F77222E17C048
:101D00003801F2E06F0E711CF801A080B18026FF4F
:101D100003C0652D70E002C06FEF7FEFC5012C8717
:101D20000E94B10F2C012C852068222E830123FCF8
:101D30001BC0832D90E048165906B0F4B70180E22D
:101D400090E00E94C70F3A94F4CFF50127FC8591EB
:101D500027FE81915F01B70190E00E94C70F31100B
:101D60003A94F1E04F1A51084114510471F7E5C05B
:101D7000843611F0893639F5F80127FF07C06081F4
:101D80007181828193810C5F1F4F08C060817181D6
:101D9000072E000C880B990B0E5F1F4F2F76722EAB
:101DA00097FF09C090958095709561957F4F8F4FF3
:101DB0009F4F2068722E2AE030E0A4010E94FF0F9E
:101DC000A82EA81844C0853729F42F7EB22E2AE009
:101DD00030E025C0F22FF97FBF2E8F36C1F018F406
:101DE000883579F0B4C0803719F0883721F0AFC05A
:101DF0002F2F2061B22EB4FE0DC08B2D8460B82E23
:101E000009C024FF0AC09F2F9660B92E06C028E0A3
:101E100030E005C020E130E002C020E132E0F8010E
:101E2000B7FE07C060817181828193810C5F1F4F73
:101E300006C06081718180E090E00E5F1F4FA401B9
:101E40000E94FF0FA82EA818FB2DFF777F2E76FE8D
:101E50000BC0372D3E7FA51450F474FE0AC072FCEF
:101E600008C0372D3E7E05C0BA2C372D03C0BA2CD2
:101E700001C0B52C34FF0DC0FE01EA0DF11D8081BB
:101E8000803311F4397E09C032FF06C0B394B39495
:101E900004C0832F867809F0B39433FD13C030FF5C
:101EA00006C05A2CB31418F4530C5B18B32CB3149B
:101EB00068F4B70180E290E03C870E94C70FB394BA
:101EC0003C85F5CFB31410F43B1801C0312C34FF1E
:101ED00012C0B70180E390E03C870E94C70F3C85A9
:101EE00032FF17C031FD03C088E790E002C088E5EB
:101EF00090E0B7010CC0832F867859F031FF02C003
:101F00008BE201C080E237FD8DE2B70190E00E94D4
:101F1000C70FA51438F4B70180E390E00E94C70F03
:101F20005A94F7CFAA94F401EA0DF11D8081B7010C
:101F300090E00E94C70FA110F5CF332009F451CED5
:101F4000B70180E290E00E94C70F3A94F6CFF70104
:101F50008681978102C08FEF9FEF2C96E2E10C946F
:101F60007910FC010590615070400110D8F7809500
:101F700090958E0F9F1F0895FC0161507040019055
:101F80000110D8F7809590958E0F9F1F08950F939D
:101F90001F93CF93DF93FB01238121FD03C08FEFBC
:101FA0009FEF28C022FF16C04681578124813581CA
:101FB0004217530744F4A081B1819D012F5F3F4F29
:101FC000318320838C93268137812F5F3F4F378366
:101FD000268310C0EB01092F182F0084F185E02D16
:101FE0000995892BE1F68E819F8101969F838E83CF
:101FF000812F902FDF91CF911F910F910895FA01BA
:10200000AA27283051F1203181F1E8946F936E7F37
:102010006E5F7F4F8F4F9F4FAF4FB1E03ED0B4E028
:102020003CD0670F781F891F9A1FA11D680F791F69
:102030008A1F911DA11D6A0F711D811D911DA11D7A
:1020400020D009F468943F912AE0269F112430198A
:10205000305D3193DEF6CF010895462F4770405D25
:102060004193B3E00FD0C9F7F6CF462F4F70405DD4
:102070004A3318F0495D31FD4052419302D0A9F72F
:10208000EACFB4E0A6959795879577956795BA9529
:10209000C9F700976105710508959B01AC010A2EEF
:1020A00006945795479537952795BA95C9F7620FC6
:1020B000731F841F951FA01D08952F923F924F926A
:1020C0005F926F927F928F929F92AF92BF92CF92C8
:1020D000DF92EF92FF920F931F93CF93DF93CDB7D1
:1020E000DEB7CA1BDB0B0FB6F894DEBF0FBECDBF49
:1020F00009942A88398848885F846E847D848C841A
:102100009B84AA84B984C884DF80EE80FD800C8122
:102110001B81AA81B981CE0FD11D0FB6F894DEBF05
:0C2120000FBECDBFED010895F894FFCF75
:10212C00EB0202031E033403100008005010008061
:10213C00005840000001561D01290123011C0621F5
:10214C00E00000290627C0C000360626FF00004527
:10215C006E7465722048657861646563696D616C45
:10216C002076616C756520746F20777269746520B8
:10217C00746F204750494F3A20000A0D53656C6527
:10218C0063742046756E6374696F6E0A0D2D2D2D68
:10219C002D2D2D2D2D2D2D2D2D2D2D0A0D77203D59
:1021AC0020492F4F2057726974650A0D72203D200B
:1021BC00492F4F20526561640A0D000A0A0D5043E5
:1021CC004139353334202D204750494F204D656E11
:1021DC00750A0D2D2D2D2D2D2D2D2D2D2D2D2D2D1E
:1021EC002D2D2D2D2D2D0A0D53656C6563742044FA
:1021FC0065766963650A0D31202D2055380A0D323C
:10220C00202D2055390A0D4D202D204D61696E2051
:10221C004D656E750A0A0D000A0D56616C756520C8
:10222C006F7574206F662072616E67650A0D000A07
:10223C000D444143205365740A0D000A0D456E741C
:10224C006572204441432056616C756520283030FE
:10225C0048202D20343048293A20000A0D4144539F
:10226C0037383238204D656E75202D2050726573CD
:10227C007320416E79204B657920746F20657869E5
:10228C00740A0A0D00434830204348312043483239
:10229C0020434833204348342043483520434836B4
:1022AC00204348370A0D002D2D2D2D2D2D2D2D2D94
:1022BC002D2D2D2D2D2D2D2D2D2D2D2D2D2D2D2D42
:1022CC002D2D2D2D2D2D0A0D002530337820000AB3
:1022DC000A0D53595354454D204552524F520A0D35
:1022EC0025730A0D000A0D5041555345440A0D50F3
:1022FC007265737320616E79206B657920746F2021
:10230C00636F6E74696E75650A0D000A0D53657204
:10231C0069616C204672616D696E67204572726FDF
:10232C0072000A0D53657269616C204461746120FE
:10233C004F76657272756E204572726F72000A0D5F
:10234C0053657269616C20506172697479204572B1
:10235C00726F72000A0D53657269616C20545820BB
:10236C00627566206F766572666C6F772045727247
:10237C006F72000A0D50616765204F7574206F668F
:10238C002052616E67650A0D0050414745202020A0
:10239C002020202020202020202020202020202031
:1023AC00202020204845582020202020202020209C
:1023BC002020202020202020202020202020202011
:1023CC00202020202020202041534349490A0D0081
:1023DC00202530327820200020202020200025309D
:1023EC00347820002563002025303278000A0D4512
:1023FC006E74657220646174613A20000A0A0D449F
:10240C006973706C6179696E6720456E7469726569
:10241C0020454550524F4D2E2E2E0A0A0D000A0D06
:10242C00566572696679204F4B0A0D0045726173CF
:10243C00696E6720456E7469726520454550524F30
:10244C004D2C20506C6561736520576169740A0DC1
:10245C00002E000A0D454550524F4D2045726173B8
:10246C0065640A0D000A0D456E7465722050616733
:10247C0065204E6F2E2028486578293A20000A0DD9
:10248C00456E74657220416464723A20000A0D56E0
:10249C006572696679696E6720454550524F4D20CB
:1024AC002D20506C6561736520576169740A0D00AD
:1024BC000A0D566572696679204661696C656420FF
:1024CC006174206164647220253034782028773D53
:1024DC00253032782C523D25303278290A0D000AED
:1024EC000D253034582025303258202530325828CC
:1024FC0027256327290A0D0012010D0108010A0D79
:10250C0020496E6974616C6973696E672049B243C6
:10251C0020496E74657266616365202E2E2E200034
:10252C0020646F6E650A0D000D0A000A0A496E746C
:10253C0065726661636520426F617264202D203480
:10254C003539312D30312073656C65637465640ADF
:10255C000A0D000A0A526F746F7220426F61726426
:10256C00202D20343830382D30312073656C656364
:10257C007465640A0A0D000A0A436F696C204D6584
:10258C006D6F727920426F617264202D203439385E
:10259C00372D30312073656C65637465640A0A0DE0
:1025AC00000A0A436F696C204D656D6F7279204289
:1025BC006F617264202850535529202D20343938EE
:1025CC00372D30312073656C65637465640A0A0DB0
:1025DC0020202057686963682050535528312D38C6
:1025EC00292E2E2E0A0D20000A0A50535520256440
:1025FC002053656C65637465643A0A0A0D00426188
:10260C006420436F6D6D616E64070A0D0007002531
:10261C00732053656C65637465640A0D00436F6EBB
:10262C006669677572696E67202573202E2E2E2EB3
:10263C002000646F6E65200A0D0030005531202D8E
:10264C0020343830382D3031005539202D20343994
:10265C0035312D3031005538202D20343935312D80
:04266C003031000009
:00000001FF
