:100000000C94A8010C94C5010C94C5010C94C50175
:100010000C94C5010C94C5010C94C5010C94C50148
:100020000C94C5010C94C5010C94C5010C94C50138
:100030000C94C5010C94C5010C94C5010C94C50128
:100040000C94C5010C94C5010C9497030C94DC022C
:100050000C94C5010C94F7010C94C5010C94C501D6
:100060000C94C5010C94C5010A0A0A0A0D414443C7
:100070002044656275670A0D3D3D3D3D3D3D3D3D7A
:100080003D0A0A0D0A0D5072657373205820746F73
:1000900020657869740A0A0D000A0A0A0A0D4932B5
:1000A0004320546573740A0D3D3D3D3D3D3D3D3D4E
:1000B0000A0A0D456E7375726520746865204D6F70
:1000C00064756C652069732050726F6772616D6D25
:1000D00065642061732061204D61737465720A0D3F
:1000E000436F6E6E6563742074686520546F75632A
:1000F000682050616E656C204C434420746F2074FE
:100100006865204D6F64756C6520616E642073773F
:1001100069746368204F4E0A0A0D54686520272BC6
:1001200027206B65792077696C6C20696E63726536
:100130006D656E742074686520414D5020434F44B6
:10014000452076616C756520646973706C617965B2
:100150006420627920310A0D54686520272D2720FC
:100160006B65792077696C6C2064656372656D6579
:100170006E742074686520414D5020434F444520E3
:1001800076616C756520646973706C617965642053
:10019000627920310A0D5072657373202758272029
:1001A000746F2072657475726E20746F205465735D
:1001B00074204D656E750A0A0D000A0A0A0A0D447C
:1001C00045425547204D454E550A0D3D3D3D3D3D6F
:1001D0003D3D3D3D3D3D3D3D0A0D41202D204144ED
:1001E0004320746573740A0D58202D204578697476
:1001F00020746F205374617274204D656E750A0D02
:10020000000A0A0A0A0D54455354204D454E550A1A
:100210000D3D3D3D3D3D3D3D3D3D3D3D3D0A0D4995
:10022000202D2049324320746573740A0D58202D07
:10023000204578697420746F205374617274204D66
:10024000656E750A0D000A0A0D5374617274204DB3
:10025000454E550A0D3D3D3D3D3D3D3D3D3D3D3D00
:100260003D0A0D54202D20426F6172642074657325
:1002700074730A0D44202D204465627567204D6516
:100280006E750A0D3C454E5445523E2D20546F204C
:10029000726566726573682073637265656E0A0ABB
:1002A0000D0020436F6D6D616E64206E6F74206968
:1002B0006D706C656D656E7465640A0D000A0A0DDB
:1002C0004545472042617474657279204D6F6475AD
:1002D0006C65202D20493243205465737420536F80
:1002E0006674776172650A0D3D3D3D3D3D3D3D3D86
:1002F0003D3D3D3D3D3D3D3D3D3D3D3D3D3D3D3D2E
:100300003D3D3D3D3D3D3D3D3D3D3D3D3D3D0A0A83
:100310000D000A0A0A0A0A0A0A0A0A0A0A0D2863CA
:100320002920436F7079726967687420546865206A
:100330004D61677374696D20436F6D70616E7920D4
:100340004C74642E20323032350A0A0D000A0D003A
:1003500011241FBECFEFD8E0DEBFCDBF11E0A0E07B
:10036000B1E0EAE9F3E102C005900D92A83AB107C5
:10037000D9F723E0A8EAB1E001C01D92AD36B2077B
:10038000E1F70E9452040C94CB090C94000087E022
:1003900080937C0010927E0010927B001092B90135
:1003A0001092BA011092BB011092BC011092B501DB
:1003B0001092B6011092B7011092B8011092B401D8
:1003C0001092B0011092B1011092B2011092B301DB
:1003D0001092AC011092AD011092AE011092AF01DB
:1003E0008FEE80937A00089510927A0008951F92FC
:1003F0000F920FB60F9211242F933F938F939F93D9
:10040000AF93BF938091B90180FF02C05F9A01C092
:100410005F9820917800309179008091B50190919A
:10042000B601A091B701B091B801820F931FA11D31
:10043000B11D8093B5019093B601A093B701B0931D
:10044000B8018091B9019091BA01A091BB01B0911E
:10045000BC010196A11DB11D8093B9019093BA0111
:10046000A093BB01B093BC018F3F9105A105B105DD
:1004700041F138F18091B5019091B601A091B70199
:10048000B091B801892F9A2FAB2FBB278093A80179
:100490009093A901A093AA01B093AB011092B90166
:1004A0001092BA011092BB011092BC011092B501DA
:1004B0001092B6011092B7011092B80181E08093BA
:1004C000B401BF91AF919F918F913F912F910F9068
:1004D0000FBE0F901F9018950F931F932091B4019A
:1004E000211102C080E051C00091AC011091AD011A
:1004F0002091AE013091AF014091A8015091A90126
:100500006091AA017091AB01400F511F621F731FD0
:100510004093AC015093AD016093AE017093AF0175
:100520000091B0011091B1012091B2013091B3015D
:100530000F5F1F4F2F4F3F4F0F3F11052105310513
:1005400009F048F40093B0011093B1012093B20177
:100550003093B301C7CF1092B0011092B101109245
:10056000B2011092B3011092AC011092AD01109241
:10057000AE011092AF01452F562F672F7727FC0150
:10058000408351836283738381E01F910F910895AB
:1005900010927E0210927D0210927C0210927B02D9
:1005A0001092C50087E68093C40086E08093C20065
:1005B00088E98093C10008951F920F920FB60F92A1
:1005C00011248F939F93EF93FF9390917C028091DE
:1005D0007B02981306C08091C1008F7D8093C1007B
:1005E00011C0E0917B02F0E0E953FE4F80818093DF
:1005F000C60080917B028F5F80937B02843B10F06A
:1006000010927B02FF91EF919F918F910F900FBEFF
:100610000F901F901895F89420917C0230E0809103
:100620007B027894482F50E02417350710F42C549F
:100630003F4F8D54821B08951F93CF93DF93D82F84
:10064000192FC62F0E940B038C17E0F380917C02B8
:100650002D2FED2FF12F9E2F921B9C1758F4919167
:10066000A82FB0E0A953BE4F9C938F5F843B98F3B3
:1006700080E0F1CFF89480937C028091C10085FDE9
:1006800016C0E0917B02F0E0E953FE4F8081809339
:10069000C60080917B028F5F80937B02843B10F0C9
:1006A00010927B028091C10080628093C100789497
:1006B00084E0DF91CF911F910895CF93DF93FC01E8
:1006C00001900020E9F73197EF01C81BD90B6C2F7F
:1006D0000E941C03843011F48C2F01C080E0DF9154
:1006E000CF910895CF93C82F1092C1000E94C802E5
:1006F000EC2FF0E0EE0FFF1FE050FF4F81818F9352
:1007000080818F9388E091E09F938F9386E892E0B9
:100710009F938F930E94E1060F900F900F900F9080
:100720000F900F9086E892E0CF910C945D031F929A
:100730000F920FB60F9211242F933F934F935F9315
:100740006F937F938F939F93AF93BF93EF93FF9399
:100750009091C0008091C600E0917E02F0E0E354E9
:10076000FE4F808380917E028F5F80937E028A306D
:1007700010F010927E02892F8C7159F094FF02C004
:1007800080E005C093FF02C081E001C082E00E94CA
:100790007203FF91EF91BF91AF919F918F917F91E4
:1007A0006F915F914F913F912F910F900FBE0F90DE
:1007B0001F90189530917E0220917D023217A9F08A
:1007C000F894E0917D02F0E0E354FE4F2081FC01BB
:1007D000208380917D028F5F80937D028A3010F0AC
:1007E00010927D02789484E0089580E00895CF937C
:1007F000DF931F92CDB7DEB78091BC0089838981DA
:1008000087FFFACF0F90DF91CF9108958CE080930E
:10081000B800ECEBF0E08081846080830895FF9263
:100820000F931F93CF93DF93C82F162FF42E052F0E
:1008300084EA8093BC000E94F703CC0FC093BB00F6
:1008400084E88093BC000E94F703CF2DD02FCE0107
:10085000810F911D8C0184E8F82EC017D10741F05B
:1008600089918093BB00F092BC000E94F703F5CF02
:1008700084E98093BC00DF91CF911F910F91FF908D
:1008800008951092B800ECEBF0E080818B7F8083BC
:100890000895579A5F985F9A5F985F9A5F985F9AFA
:1008A0005F9808950E9449040E94C8020E9465064C
:1008B0000E948406FDCFCF93DF9300D000D01F921B
:1008C000CDB7DEB70E94060481E080937F021F92BD
:1008D0008F9386E891E09F938F9386E892E09F93B1
:1008E0008F930E94E10686E892E00E945D0381E119
:1008F000898380917F028A83AE014F5F5F4F62E000
:1009000080E10E940F04109281021092800285E023
:1009100096E0909383028093820288E195E0909321
:100920008502809384020F900F900F900F900F908C
:100930000F900F900F900F900F900F90DF91CF912D
:1009400008951F93CF93DF931F92CDB7DEB7182F73
:10095000CE0101960E94DA03882391F0112379F0E9
:1009600089818D3039F48DE493E00E94AA060E94BB
:100970005D0305C061E0CE0101960E941C038981E0
:100980000F90DF91CF911F910895CF93DF9300D007
:1009900000D0CDB7DEB7CE0101960E946C0288234D
:1009A00019F129813A814B815C8168E378E383E026
:1009B00090E00E94B706AA27BB27BF93AF939F93EF
:1009C0008F9387E991E09F938F9386E892E09F93BE
:1009D0008F930E94E10686E892E00E945D030FB6C5
:1009E000F894DEBF0FBECDBF81E00E94A104882332
:1009F000C1F0883511F08837A1F40E94F4018AEB28
:100A000091E0909381028093800283E995E0909336
:100A100083028093820288E195E09093850280931F
:100A200084020F900F900F900F90DF91CF91089557
:100A3000CF93DF938091800290918102009771F1B2
:100A40000E949E06EC01833B910510F0C2EBD0E0C2
:100A50000E940B0390E08C179D07D0F3BE0180919C
:100A60008002909181020E948C0620918002309138
:100A700081022C0F3D1F30938102209380026C2F46
:100A80000E941C03E0918002F0918102E491E11147
:100A90000DC0109281021092800208C080918202E3
:100AA000909183029093850280938402DF91CF918D
:100AB000089581E00E94A1048823A1F1843541F0CA
:100AC00018F4843471F016C0843659F0843791F4E8
:100AD00081E092E0909381028093800280ED95E026
:100AE00017C08AEB91E0909381028093800283E9A2
:100AF00095E00EC082EA92E00E94AA060E945D0381
:100B000086E492E0909381028093800289E595E0EB
:100B1000909383028093820288E195E0909385020E
:100B200080938402089581E00E94A1048823B9F192
:100B30008835A1F018F4813431F019C0813619F0EC
:100B4000883761F014C00E94C70188E690E0909356
:100B500081028093800285EC94E017C086E492E0E5
:100B6000909381028093800289E595E00EC082EA2D
:100B700092E00E94AA060E945D038AEB91E09093A6
:100B800081028093800283E995E0909383028093B1
:100B9000820288E195E09093850280938402089513
:100BA00081E00E94A104882379F1883591F018F43E
:100BB000893431F017C0893619F0883751F012C0E6
:100BC00089E990E090938102809380028BE594E024
:100BD00011C086E492E0909381028093800289E5BF
:100BE00095E008C08AEB91E09093810280938002A7
:100BF00083E995E0909383028093820288E195E0F7
:100C000090938502809384020895CF93DF9300D060
:100C100000D01F92CDB7DEB780E00E94A1048823E8
:100C200009F44BC08D3201F130F48B3211F5809113
:100C30007F028F5F1CC0883511F08837D1F40E9485
:100C4000410481E092E0909381028093800280EDE4
:100C500095E0909383028093820288E195E09093DF
:100C600085028093840229C080917F028150809305
:100C70007F0280917F021F928F9386E891E09F937D
:100C80008F9386E892E09F938F930E94E10686E817
:100C900092E00E945D0381E1898380917F028A83D3
:100CA000AE014F5F5F4F62E080E10E940F040F9042
:100CB0000F900F900F900F900F900F900F900F903C
:100CC0000F900F90DF91CF91089582E193E00E9401
:100CD000AA060E945D038DEB92E00E94AA060E9484
:100CE0005D0386E492E0909381028093800289E51F
:100CF00095E0909383028093820288E195E090933F
:100D00008502809384020895E0918402F091850227
:100D1000309709F009940895A8EBB2E020E030E0A4
:100D20002617370741F0FC01E20FF31FE491ED9322
:100D30002F5F3F4FF5CF88EB92E008959C0180E054
:100D400090E0F901E80FF91FE491EE2311F001960C
:100D5000F8CF0895CF93DF93EC010E949E06BC016B
:100D60006F5F7F4FCE01DF91CF910C948C06DB013A
:100D70008F939F930E94C706BF91AF91A29F800D52
:100D8000911DA39F900DB29F900D112408950E9474
:100D9000D206A59F900DB49F900DA49F800D911D2C
:100DA00011240895A29FB001B39FC001A39F700DAD
:100DB000811D1124911DB29F700D811D1124911D63
:100DC0000895AEE0B0E0E7EEF6E00C94A2090D89DC
:100DD0001E8986E08C831A8309838FEF9FE79E83A9
:100DE0008D83AE01475E5F4F6F89788DCE0101968E
:100DF0000E940307EF81F885E00FF11F10822E9605
:100E0000E4E00C94BE09ABE0B0E0E9E0F7E00C945C
:100E100094096C017B018A01FC011782168283818F
:100E200081FFCCC1CE0101963C01F6019381F7010F
:100E300093FD859193FF81917F01882309F4BAC1C5
:100E4000853239F493FD859193FF81917F0185323D
:100E500029F4B60190E00E94FA08E7CF912C212CEA
:100E6000312CFFE1F315D8F08B3279F038F4803271
:100E700079F08332A1F4232D20611DC08D3261F001
:100E8000803369F4232D216016C0832D8260382EB3
:100E9000E32DE4603E2E2AC0F32DF8601DC037FC20
:100EA0002DC020ED280F2A3040F08E32B9F436FCE8
:100EB00081C1232D2064322E19C036FE06C08AE07F
:100EC000989E200D1124922E11C0EAE02E9E200D36
:100ED0001124222EF32DF0623F2E08C08C3621F40F
:100EE000832D8068382E02C0883641F4F70193FDC7
:100EF000859193FF81917F018111B3CF982F9F7DC1
:100F00009554933028F40C5F1F4F9FE399830DC0D5
:100F1000833631F0833771F0833509F059C021C031
:100F2000F801808189830E5F1F4F88248394912C60
:100F3000530113C02801F2E04F0E511CF801A080AC
:100F4000B18036FE03C0692D70E002C06FEF7FEF05
:100F5000C5010E94EF084C018201F32DFF773F2E5F
:100F600016C0280122E0420E511CF801A080B18079
:100F700036FE03C0692D70E002C06FEF7FEFC50140
:100F80000E94E4084C01F32DF0683F2E820133FCEF
:100F90001BC0822D90E088169906B0F4B60180E25D
:100FA00090E00E94FA082A94F4CFF50137FC85916D
:100FB00037FE81915F01B60190E00E94FA0821108E
:100FC0002A9421E0821A91088114910471F7E8C0F3
:100FD000843611F0893641F5F80137FE07C060818B
:100FE0007181828193810C5F1F4F08C06081718184
:100FF000072E000C880B990B0E5F1F4FF32DFF7609
:101000003F2E97FF09C090958095709561957F4F11
:101010008F4F9F4FF0683F2E2AE030E0A3010E94DF
:101020003609882E861845C0853731F4232D2F7E4A
:10103000B22E2AE030E025C0932D997FB92E8F364D
:10104000C1F018F4883579F0B5C0803719F08837C9
:1010500021F0B0C0E92FE061BE2EB4FE0DC0FB2D23
:10106000F460BF2E09C034FE0AC0292F2660B22EBC
:1010700006C028E030E005C020E130E002C020E1F9
:1010800032E0F801B7FE07C06081718182819381EF
:101090000C5F1F4F06C06081718180E090E00E5FA1
:1010A0001F4FA3010E943609882E8618FB2DFF775B
:1010B0003F2E36FE0DC0232D2E7FA22E891458F40C
:1010C00034FE0BC032FC09C0832D8E7EA82E05C0D5
:1010D000B82CA32C03C0B82C01C0B92CA4FE0FC09F
:1010E000FE01E80DF11D8081803321F49A2D997E57
:1010F000A92E09C0A2FE06C0B394B39404C08A2DE1
:10110000867809F0B394A3FC11C0A0FE06C0B21407
:1011100088F4280C922C9B180EC0B21460F4B6010F
:1011200080E290E00E94FA08B394F7CFB21418F46A
:101130002B1802C0982C212CA4FE10C0B60180E30D
:1011400090E00E94FA08A2FE17C0A1FC03C088E745
:1011500090E002C088E590E0B6010CC08A2D867848
:1011600059F0A1FE02C08BE201C080E2A7FC8DE233
:10117000B60190E00E94FA08891438F4B60180E3C1
:1011800090E00E94FA089A94F7CF8A94F301E80D50
:10119000F11D8081B60190E00E94FA088110F5CF20
:1011A000222009F442CEB60180E290E00E94FA08C3
:1011B0002A94F6CFF6018681978102C08FEF9FEFC8
:1011C0002B96E2E10C94B009FC010590615070404F
:1011D0000110D8F7809590958E0F9F1F0895FC0100
:1011E0006150704001900110D8F7809590958E0F56
:1011F0009F1F08950F931F93CF93DF93FB012381CC
:1012000021FD03C08FEF9FEF2CC022FF16C0468147
:101210005781248135814217530744F4A081B1815D
:101220009D012F5F3F4F318320838C93268137812F
:101230002F5F3F4F3783268314C08B01EC01FB01E6
:101240000084F185E02D0995892BE1F6D8011696E9
:101250008D919C911797019617969C938E93169754
:10126000CE01DF91CF911F910F910895FA01AA2726
:10127000283051F1203181F1E8946F936E7F6E5FD9
:101280007F4F8F4F9F4FAF4FB1E03ED0B4E03CD087
:10129000670F781F891F9A1FA11D680F791F8A1F6A
:1012A000911DA11D6A0F711D811D911DA11D20D0D1
:1012B00009F468943F912AE0269F11243019305D8B
:1012C0003193DEF6CF010895462F4770405D41937C
:1012D000B3E00FD0C9F7F6CF462F4F70405D4A33C9
:1012E00018F0495D31FD4052419302D0A9F7EACF91
:1012F000B4E0A6959795879577956795BA95C9F7C0
:1013000000976105710508959B01AC010A2E0694B2
:101310005795479537952795BA95C9F7620F731F6B
:10132000841F951FA01D08952F923F924F925F92A8
:101330006F927F928F929F92AF92BF92CF92DF92E5
:10134000EF92FF920F931F93CF93DF93CDB7DEB74A
:10135000CA1BDB0B0FB6F894DEBF0FBECDBF0994DE
:101360002A88398848885F846E847D848C849B8435
:10137000AA84B984C884DF80EE80FD800C811B8143
:10138000AA81B981CE0FD11D0FB6F894DEBF0FBE72
:0A139000CDBFED010895F894FFCFE2
:10139A001E013501510167010A0A0D53595354457B
:1013AA004D204552524F520A0D25730A0D000A0D5F
:1013BA0053657269616C204672616D696E6720457A
:1013CA0072726F72000A0D53657269616C20446112
:1013DA007461204F76657272756E204572726F72F3
:1013EA00000A0D53657269616C20506172697479E3
:1013FA00204572726F72000A0D53657269616C2022
:10140A00545820627566206F766572666C6F772015
:10141A004572726F7200446973706C6179696E67A4
:10142A0020253032780D00434837203D2025756D40
:08143A0056202020200D0000C7
:00000001FF
