S0130000544A3030303030365F53572E7372656344
S11300000C9431020C944E020C944E020C944E0249
S11300100C944E020C944E020C944E020C944E021C
S11300200C944E020C944E020C944E020C94520901
S11300300C944E020C944E020C944E020C944E02FC
S11300400C944E020C944E020C9427030C946402FC
S11300500C944E020C944E020C944E020C944E02DC
S11300600C944E020C944E020A0A0A0A0D53656C53
S113007065637420454550524F4D20416464726558
S113008073733A0A0D31202D20307835303A204EE2
S1130090657420436F6E6E6563746F720A0D32204F
S11300A02D20307835323A2041444320426F747415
S11300B06F6D2042640A0D33202D20307835343A98
S11300C0204E657420457874656E73696F6E0A0DF1
S11300D034202D20307835363A2041444320546F63
S11300E0702042640A0D0A0D507265737320582003
S11300F0746F20657869740A0A0D000A0A0A0A0DE9
S1130100454550524F4D2044656275670A0D3D3D8B
S11301103D3D3D3D3D3D3D3D3D0A0A0D50202D20D8
S113012050726F6475637420436F64650A0D4820D0
S11301302D204865782044756D700A0D4B202D20C4
S1130140436865636B73756D0A0D57202D205772D4
S11301506974650A0D52202D20526573657420451B
S11301604550524F4D20746F2030300A0D53202DCE
S11301702053657420454550524F4D20746F2046DE
S1130180460A0D58202D2052657475726E20746FC6
S1130190204465627567204D656E750A0D000A0A74
S11301A00A0A0D49324320546573740A0D3D3D3DDE
S11301B03D3D3D3D3D0A0A0D456E737572652074E3
S11301C06865204D6F64756C652069732050726F8B
S11301D06772616D6D65642061732061204D617388
S11301E07465720A0D436F6E6E656374207468657E
S11301F020546F7563682050616E656C204C4344D5
S113020020746F20746865204D6F64756C6520617F
S11302106E6420737769746368204F4E0A0A0D5424
S1130220686520272B27206B65792077696C6C2003
S1130230696E6372656D656E742074686520414DE6
S11302405020434F44452076616C75652064697382
S1130250706C6179656420627920310A0D54686597
S113026020272D27206B65792077696C6C206465C5
S11302706372656D656E742074686520414D50200D
S1130280434F44452076616C756520646973706CD6
S11302906179656420627920310A0D507265737347
S11302A02027582720746F2072657475726E20742D
S11302B06F2054657374204D656E750A0A0D000A2B
S11302C00A0A0A0D4445425547204D454E550A0D2C
S11302D03D3D3D3D3D3D3D3D3D3D3D3D3D0A0D45A5
S11302E0202D20454550524F4D2044656275670AC4
S11302F00D58202D204578697420746F2053746143
S11303007274204D656E750A0D000A0A0A0A0D54AE
S1130310455354204D454E550A0D3D3D3D3D3D3D13
S11303203D3D3D3D3D3D0A0D45202D204545505266
S11303304F4D20746573740A0D58202D204578693B
S11303407420746F205374617274204D656E750A45
S11303500D000A0A0D5374617274204D454E550AFE
S11303600D3D3D3D3D3D3D3D3D3D3D3D3D0A0D5435
S1130370202D20426F6172642074657374730A0DBA
S113038044202D204465627567204D656E750A0D05
S11303903C454E5445523E2D20546F207265667282
S11303A06573682073637265656E0A0A0D002043E5
S11303B06F6D6D616E64206E6F7420696D706C6515
S11303C06D656E7465640A0D000A0A0D4545472083
S11303D04E657420436F6E6E6563746F72202D20BA
S11303E049324320454550524F4D2050726F677239
S11303F0616D6D65720A0D3D3D3D3D3D3D3D3D3DAB
S11304003D3D3D3D3D3D3D3D3D3D3D3D3D3D3D3D18
S11304103D3D3D3D3D3D3D3D3D3D3D3D3D3D3D3D08
S11304200A0A0D000A0A0A0A0A0A0A0A0A0A0A0D2C
S113043028632920436F707972696768742054684F
S113044065204D61677374696D20436F6D70616ED3
S113045079204C74642E20323032350A0A0D000A99
S11304600D0011241FBECFEFD8E0DEBFCDBF12E0D8
S1130470A0E0B1E0EAEEF8E102C005900D92A634E6
S1130480B107D9F723E0A6E4B2E001C01D92AC3F66
S1130490B207E1F70E943B040C94730C0C94000027
S11304A0109207031092060310920503109204039E
S11304B01092C50087E68093C40086E08093C20052
S11304C088E98093C10008951F920F920FB60F928E
S11304D011248F939F93EF93FF9390910503809141
S11304E00403981306C08091C1008F7D8093C100DE
S11304F011C0E0910403F0E0E05BFD4F8081809344
S1130500C600809104038F5F80930403843B10F042
S113051010920403FF91EF919F918F910F900FBE62
S11305200F901F901895F8942091050330E0809166
S113053004037894482F50E02417350710F42C5402
S11305403F4F8D54821B08951F93CF93DF93D82F71
S1130550192FC62F0E9493028C17E0F38091050394
S11305602D2FED2FF12F9E2F921B9C1758F4919154
S1130570A82FB0E0A05BBD4F9C938F5F843B98F3A2
S113058080E0F1CFF894809305038091C10085FD4C
S113059016C0E0910403F0E0E05BFD4F808180939E
S11305A0C600809104038F5F80930403843B10F0A2
S11305B0109204038091C10080628093C1007894FA
S11305C084E0DF91CF911F910895CF93DF93FC01D5
S11305D001900020E9F73197EF01C81BD90B6C2F6C
S11305E00E94A402843011F48C2F01C080E0DF91BA
S11305F0CF910895CF93C82F1092C1000E9450024A
S1130600EC2FF0E0EE0FFF1FE050FF4F81818F933E
S113061080818F9388E091E09F938F9385E193E0AD
S11306209F938F930E9489090F900F900F900F90C2
S11306300F900F9085E193E0CF910C94E502209107
S113064005039091040381E0291380E008951F922B
S11306500F920FB60F9211242F933F934F935F93F2
S11306606F937F938F939F93AF93BF93EF93FF9376
S11306709091C0008091C600E0910703F0E0EA5B2E
S1130680FD4F8083809107038F5F809307038A3037
S113069010F010920703892F8C7159F094FF02C057
S11306A080E005C093FF02C081E001C082E00E94A7
S11306B0FA02FF91EF91BF91AF919F918F917F913A
S11306C06F915F914F913F912F910F900FBE0F90BB
S11306D01F90189530910703209106033217A9F053
S11306E0F894E0910603F0E0EA5BFD4F2081FC0101
S11306F02083809106038F5F809306038A3010F075
S113070010920603789484E0089580E00895CF93CE
S1130710DF931F92CDB7DEB78FEF9FEF2091BC0020
S11307202983298127FD02C00197C1F70F90DF912A
S1130730CF9108958CE08093B800ECEBF0E08081D9
S1130740846080830895FF920F931F93CF93DF9368
S1130750C82F162FF42E052F84EA8093BC000E9424
S11307608703CC0FC093BB0084E88093BC000E9435
S11307708703CF2DD02FCE01810F911D8C0184E8EA
S1130780F82EC017D10741F089918093BB00F092F5
S1130790BC000E948703F5CF8091B90094E990933F
S11307A0BC00DF91CF911F910F91FF900895AF92FC
S11307B0BF92CF92DF92EF92FF920F931F93CF934A
S11307C0DF93C82F062FF42E152F84EA8093BC00E4
S11307D00E948703CC0FC160C093BB0084E8809360
S11307E0BC000E948703CF2DD12F10E0E12CF12C07
S11307F0680181E0C81AD10884ECB82E94E8A92EC7
S1130800E016F10691F0CE14DF0419F4A092BC00B6
S113081002C0B092BC000E9487038091BB00888311
S11308208FEFE81AF80A2196EBCF84E98093BC0095
S1130830DF91CF911F910F91FF90EF90DF90CF90B8
S1130840BF90AF9008951092B800ECEBF0E0808177
S11308508B7F80830895579A5F985F9A5F985F9A19
S11308605F985F9A5F98209A0895813011F4289ACE
S11308700895289808950E942B040E9450020E9413
S1130880D0080E94220981E090E00E94350488EE9D
S113089093E00E942D09C1E00E944A09882389F04F
S11308A0CC2331F080E090E00E943504C0E005C024
S11308B081E090E00E943504C1E088EE93E00E945C
S11308C02D090E94EF08E8CFCF93DF9300D000D02A
S11308D01F92CDB7DEB70E949A0381E0809309038B
S11308E01F928F9386E891E09F938F9385E193E025
S11308F09F938F930E94890985E193E00E94E5020A
S113090081E18983809109038A83AE014F5F5F4F40
S113091062E080E10E94A30310920B0310920A0389
S113092081E396E090930D0380930C038EEE94E0A4
S113093090930F0380930E030F900F900F900F90DE
S11309400F900F900F900F900F900F900F90DF91DA
S1130950CF9108950F931F93CF93DF93182F042FF4
S1130960E9016F3F710511F008F01F5F6883AE0164
S113097061E0812F0E94A3038832C9F72196AE015A
S1130980602F812F0E94D703CE01DF91CF911F9159
S11309900F9108951F93CF93DF931F92CDB7DEB7C6
S11309A0182FCE0101960E946A03882391F0112327
S11309B079F089818D3039F48FE594E00E9415092E
S11309C00E94E50205C061E0CE0101960E94A402E6
S11309D089810F90DF91CF911F910895CF93DF9379
S11309E080910A0390910B03009771F10E94090909
S11309F0EC01833B910510F0C2EBD0E00E9493021E
S1130A0090E08C179D07D0F3BE0180910A0390916A
S1130A100B030E94F70820910A0330910B032C0F5B
S1130A203D1F30930B0320930A036C2F0E94A402F2
S1130A30E0910A03F0910B03E491E1110DC01092CF
S1130A400B0310920A0308C080910C0390910D03CC
S1130A5090930F0380930E03DF91CF91089581E06B
S1130A600E94CA048823A1F1843541F018F4843427
S1130A7071F016C0843659F0843791F48AE093E01B
S1130A8090930B0380930A038CEF95E017C08FEBD0
S1130A9092E090930B0380930A0389E695E00EC0DD
S1130AA08EEA93E00E9415090E94E50282E593E034
S1130AB090930B0380930A038FE295E090930D03C8
S1130AC080930C038EEE94E090930F0380930E03B7
S1130AD0089581E00E94CA048823D1F18835B9F0D1
S1130AE018F4853431F01CC0853619F0883779F054
S1130AF017C081E00E9435040E949A0388E690E0C2
S1130B0090930B0380930A0389EA95E017C082E56A
S1130B1093E090930B0380930A038FE295E00EC059
S1130B208EEA93E00E9415090E94E5028FEB92E0A1
S1130B3090930B0380930A0389E695E090930D0349
S1130B4080930C038EEE94E090930F0380930E0336
S1130B50089581E00E94CA04882309F44CC08333B9
S1130B6089F030F4813361F0823369F582E50BC09A
S1130B708835A1F0883791F0843329F586E503C0E0
S1130B8080E501C084E5809308038BEF90E09093A7
S1130B900B0380930A0389E397E023C08FEB92E071
S1130BA090930B0380930A0389E695E090930D03D9
S1130BB080930C038EEE94E090930F0380930E03C6
S1130BC080E00C9435048EEA93E00E9415090E949B
S1130BD0E50288E690E090930B0380930A0389EA88
S1130BE095E090930D0380930C038EEE94E0909324
S1130BF00F0380930E03089581E00E94CA048823A2
S1130C0079F1883591F018F4893431F017C08936B8
S1130C1019F0883751F012C08EE991E090930B03DC
S1130C2080930A0384E694E011C082E593E09093F4
S1130C300B0380930A038FE295E008C08FEB92E0E8
S1130C4090930B0380930A0389E695E090930D0338
S1130C5080930C038EEE94E090930F0380930E0325
S1130C600895CF93DF9300D000D01F92CDB7DEB7A5
S1130C7080E00E94CA04882309F44BC08D3201F13C
S1130C8030F48B3211F5809109038F5F1CC08835D5
S1130C9011F08837D1F40E9423048AE093E0909302
S1130CA00B0380930A038CEF95E090930D038093DC
S1130CB00C038EEE94E090930F0380930E0329C0EF
S1130CC080910903815080930903809109031F9245
S1130CD08F9386E891E09F938F9385E193E09F93B0
S1130CE08F930E94890985E193E00E94E50281E1E6
S1130CF08983809109038A83AE014F5F5F4F62E06D
S1130D0080E10E94A3030F900F900F900F900F901B
S1130D100F900F900F900F900F900F90DF91CF9145
S1130D2008950F931F93CF93C82F8A016F3F7105C6
S1130D3011F008F0CF5FF8016083A80161E08C2F07
S1130D400E94A3038832C9F7A80162E08C2FCF91D7
S1130D501F910F910C94A3037F928F929F92AF9255
S1130D60BF92CF92DF92EF92FF920F931F93CF9394
S1130D70DF9300D01F92CDB7DEB7782E8A8300E0D0
S1130D8010E0E12CF12C97E9C92E91E0D92E25E150
S1130D90A22E23E0B22E4801892C992486940E9425
S1130DA01F038823E1F3C40101969F938F938A81E3
S1130DB01F928F93DF92CF92BF92AF920E948909C4
S1130DC085E193E00E94E502AE014F5F5F4FB701FA
S1130DD0809108030E9491069E012F5F3F4F41E0DE
S1130DE050E0B701809108030E94AA040FB6F8945A
S1130DF0DEBF0FBECDBF8A817816E1F00E941F03CB
S1130E008823E1F38A811F928F9386EC91E09F936C
S1130E108F9385E193E09F938F930E94890985E1E5
S1130E2093E00E94E5020F900F900F900F900F90A7
S1130E300F900AC09FEFE91AF90A0C591F4F0115C8
S1130E4088EC180709F0A7CF0E941F038823E1F359
S1130E500F900F900F90DF91CF911F910F91FF9002
S1130E60EF90DF90CF90BF90AF909F908F907F9046
S1130E7008954F925F926F927F928F929F92AF925A
S1130E80BF92CF92DF92EF92FF920F931F93CF9373
S1130E90DF93CDB7DEB76B970FB6F894DEBF0FBE06
S1130EA0CDBF81E00E94CA04882309F462C1883559
S1130EB009F433C170F4823509F42BC118F4883471
S1130EC0C9F041C1833509F422C1873509F478C0DA
S1130ED03AC1833709F41BC130F4883659F082379C
S1130EE009F417C130C1873709F46AC0883709F497
S1130EF014C129C187ED91E00E94E502198200E046
S1130F0010E096EE492E91E0592E25E1622E23E061
S1130F10722E4E0182E1880E911C34EFA32E31E033
S1130F20B32E1F930F935F924F927F926F920E9402
S1130F30890985E193E00E94E5029E012F5F3F4FFE
S1130F4040E150E0B801809108030E94AA046E01B8
S1130F5092E0C90ED11C85E1E82E83E0F82E0F90B3
S1130F600F900F900F900F900F90F60181916F01E9
S1130F701F928F93BF92AF92FF92EF920E948909C2
S1130F80F3E0EF0EF11C0F900F900F900F900F9065
S1130F900F90C814D90449F70E941F038823E1F372
S1130FA085E193E00E94E5028BE191E00E94E50275
S1130FB0005F1F4F011582E0180709F0B2CFC7C0C8
S1130FC080E489838AE58A83AE014F5F5F4F60E4E2
S1130FD070E0809108030E9491060E941F038823F9
S1130FE0E1F31F9280E48F938A811F928F938AEF9B
S1130FF091E09F938F9385E193E09F938F930E9459
S1131000890985E193E00E94E5029E012F5F3F4F2D
S113101041E050E060E470E0809108030E94AA047B
S11310200FB6F894DEBF0FBECDBF0E941F03882306
S1131030E1F31F9280E48F938A811F928F9380E261
S113104092E09F938F9385E193E09F938F930E9407
S1131050890985E193E00E94E5028FE0898385EAAE
S11310608A83AE014F5F5F4F6FE071E080910803A8
S11310700E9491060FB6F894DEBF0FBECDBF0E944A
S11310801F038823E1F381E08F938FE08F938A819C
S11310901F928F938AEF91E09F938F9385E193E062
S11310A09F938F930E94890985E193E00E94E50252
S11310B09E012F5F3F4F41E050E06FE071E080916F
S11310C008030E94AA040FB6F894DEBF0FBECDBF7A
S11310D00E941F038823E1F381E08F938FE08F93B5
S11310E08A811F928F9380E292E09F938F9385E190
S11310F093E09F938F930E94890985E193E00E9476
S1131100E5020FB6F894DEBF0FBECDBF20C08FEF4F
S113111001C080E00E94AC061AC08FEB92E090936D
S11311200B0380930A0389E695E090930D03809363
S11311300C038EEE94E090930F0380930E0380E0F3
S11311400E94350416C08EEA93E00E94E5028BEFFC
S113115090E090930B0380930A0389E397E09093C4
S11311600D0380930C038EEE94E090930F03809311
S11311700E036B960FB6F894DEBF0FBECDBFDF91A2
S1131180CF911F910F91FF90EF90DF90CF90BF9080
S1131190AF909F908F907F906F905F904F90089545
S11311A084E294E00E9415090E94E50289EC93E030
S11311B00E9415090E94E50282E593E090930B03D7
S11311C080930A038FE295E090930D0380930C03C0
S11311D08EEE94E090930F0380930E030895E091B4
S11311E00E03F0910F03309709F009940895A7E4D2
S11311F0B3E020E030E02617370741F0FC01E20FAE
S1131200F31FE491ED932F5F3F4FF5CF87E493E015
S113121008959C0180E090E0F901E80FF91FE49142
S1131220EE2311F00196F8CF0895CF93DF93EC01EC
S11312300E940909BC016F5F7F4FCE01DF91CF91FE
S11312400C94F708109214031092130310921203D3
S11312501092110310921003089590931403809335
S1131260130310921203109211031092850010922E
S1131270840080ED97E09093890080938800EFE6E6
S1131280F0E0808182608083E1E8F0E08081826028
S11312908083089580911003882319F0109210031D
S11312A081E008951F920F920FB60F9211242F938D
S11312B03F938F939F938091110390911203019612
S11312C0909312038093110320911303309114031C
S11312D08217930759F41092810080916F008D7FDB
S11312E080936F0081E0809310030AC0809188008E
S11312F0909189008053984F90938900809388003F
S11313009F918F913F912F910F900FBE0F901F903F
S11313101895AEE0B0E0EFE8F9E00C944A0C0D89C2
S11313201E8986E08C831A8309838FEF9FE79E834F
S11313308D83AE01475E5F4F6F89788DCE01019634
S11313400E94AB09EF81F885E00FF11F10822E9601
S1131350E4E00C94660CABE0B0E0E1EBF9E00C9453
S11313603C0C6C017B018A01FC011782168283818B
S113137081FFCCC1CE0101963C01F6019381F701B6
S113138093FD859193FF81917F01882309F4BAC16C
S1131390853239F493FD859193FF81917F018532E4
S11313A029F4B60190E00E94A20BE7CF912C212CE6
S11313B0312CFFE1F315D8F08B3279F038F4803218
S11313C079F08332A1F4232D20611DC08D3261F0A8
S11313D0803369F4232D216016C0832D8260382E5A
S11313E0E32DE4603E2E2AC0F32DF8601DC037FCC7
S11313F02DC020ED280F2A3040F08E32B9F436FC8F
S113140081C1232D2064322E19C036FE06C08AE025
S1131410989E200D1124922E11C0EAE02E9E200DDC
S11314201124222EF32DF0623F2E08C08C3621F4B5
S1131430832D8068382E02C0883641F4F70193FD6D
S1131440859193FF81917F018111B3CF982F9F7D67
S11314509554933028F40C5F1F4F9FE399830DC07C
S1131460833631F0833771F0833509F059C021C0D8
S1131470F801808189830E5F1F4F88248394912C07
S1131480530113C02801F2E04F0E511CF801A08053
S1131490B18036FE03C0692D70E002C06FEF7FEFAC
S11314A0C5010E94970B4C018201F32DFF773F2E5B
S11314B016C0280122E0420E511CF801A080B18020
S11314C036FE03C0692D70E002C06FEF7FEFC501E7
S11314D00E948C0B4C01F32DF0683F2E820133FCEB
S11314E01BC0822D90E088169906B0F4B60180E204
S11314F090E00E94A20B2A94F4CFF50137FC859169
S113150037FE81915F01B60190E00E94A20B211089
S11315102A9421E0821A91088114910471F7E8C099
S1131520843611F0893641F5F80137FE07C0608131
S11315307181828193810C5F1F4F08C0608171812A
S1131540072E000C880B990B0E5F1F4FF32DFF76AF
S11315503F2E97FF09C090958095709561957F4FB8
S11315608F4F9F4FF0683F2E2AE030E0A3010E9486
S1131570DE0B882E861845C0853731F4232D2F7E47
S1131580B22E2AE030E025C0932D997FB92E8F36F4
S1131590C1F018F4883579F0B5C0803719F0883770
S11315A021F0B0C0E92FE061BE2EB4FE0DC0FB2DCA
S11315B0F460BF2E09C034FE0AC0292F2660B22E63
S11315C006C028E030E005C020E130E002C020E1A0
S11315D032E0F801B7FE07C0608171818281938196
S11315E00C5F1F4F06C06081718180E090E00E5F48
S11315F01F4FA3010E94DE0B882E8618FB2DFF7758
S11316003F2E36FE0DC0232D2E7FA22E891458F4B2
S113161034FE0BC032FC09C0832D8E7EA82E05C07B
S1131620B82CA32C03C0B82C01C0B92CA4FE0FC045
S1131630FE01E80DF11D8081803321F49A2D997EFD
S1131640A92E09C0A2FE06C0B394B39404C08A2D87
S1131650867809F0B394A3FC11C0A0FE06C0B214AE
S113166088F4280C922C9B180EC0B21460F4B601B6
S113167080E290E00E94A20BB394F7CFB21418F466
S11316802B1802C0982C212CA4FE10C0B60180E3B4
S113169090E00E94A20BA2FE17C0A1FC03C088E741
S11316A090E002C088E590E0B6010CC08A2D8678EF
S11316B059F0A1FE02C08BE201C080E2A7FC8DE2DA
S11316C0B60190E00E94A20B891438F4B60180E3BD
S11316D090E00E94A20B9A94F7CF8A94F301E80D4C
S11316E0F11D8081B60190E00E94A20B8110F5CF1C
S11316F0222009F442CEB60180E290E00E94A20BBF
S11317002A94F6CFF6018681978102C08FEF9FEF6E
S11317102B96E2E10C94580CFC010590615070404A
S11317200110D8F7809590958E0F9F1F0895FC01A6
S11317306150704001900110D8F7809590958E0FFC
S11317409F1F08950F931F93CF93DF93FB01238172
S113175021FD03C08FEF9FEF2CC022FF16C04681EE
S11317605781248135814217530744F4A081B18104
S11317709D012F5F3F4F318320838C9326813781D6
S11317802F5F3F4F3783268314C08B01EC01FB018D
S11317900084F185E02D0995892BE1F6D801169690
S11317A08D919C911797019617969C938E931697FB
S11317B0CE01DF91CF911F910F910895FA01AA27CD
S11317C0283051F1203181F1E8946F936E7F6E5F80
S11317D07F4F8F4F9F4FAF4FB1E03ED0B4E03CD02E
S11317E0670F781F891F9A1FA11D680F791F8A1F11
S11317F0911DA11D6A0F711D811D911DA11D20D078
S113180009F468943F912AE0269F11243019305D31
S11318103193DEF6CF010895462F4770405D419322
S1131820B3E00FD0C9F7F6CF462F4F70405D4A336F
S113183018F0495D31FD4052419302D0A9F7EACF37
S1131840B4E0A6959795879577956795BA95C9F766
S113185000976105710508959B01AC010A2E069459
S11318605795479537952795BA95C9F7620F731F12
S1131870841F951FA01D08952F923F924F925F924F
S11318806F927F928F929F92AF92BF92CF92DF928C
S1131890EF92FF920F931F93CF93DF93CDB7DEB7F1
S11318A0CA1BDB0B0FB6F894DEBF0FBECDBF099485
S11318B02A88398848885F846E847D848C849B84DC
S11318C0AA84B984C884DF80EE80FD800C811B81EA
S11318D0AA81B981CE0FD11D0FB6F894DEBF0FBE19
S10D18E0CDBFED010895F894FFCF89
S11318EA1E013501510167010A0A0D535953544522
S11318FA4D204552524F520A0D25730A0D000A0D06
S113190A53657269616C204672616D696E67204520
S113191A72726F72000A0D53657269616C204461B8
S113192A7461204F76657272756E204572726F7299
S113193A000A0D53657269616C2050617269747989
S113194A204572726F72000A0D53657269616C20C8
S113195A545820627566206F766572666C6F7720BC
S113196A4572726F7200446973706C6179696E674B
S113197A20253032780D000D526573657474696ED2
S113198A6720416C6C206F6620454550524F4D20AC
S113199A746F2025303278202D2025303364252594
S11319AA20646F6E65000A0D4572617365204552A5
S11319BA522025780A0D000A0A0D48455820445534
S11319CA4D500A0D0A0041646472203D20253034CA
S11319DA783A20002530327820000A0D4461746177
S11319EA2025303278207772697474656E20746F9A
S11319FA206164647265737320253034780A0D009B
S1131A0A0A0D44617461202530327820726561645C
S1131A1A2066726F6D206164647265737320253069
S1091A2A34780A0D0000EF
S9030000FC
