S0130000544A3030303030365F53572E7372656344
S11300000C94F7020C9414030C9414030C9414032E
S11300100C9414030C9414030C9414030C94140300
S11300200C9414030C9414030C9414030C943B0BC1
S11300300C9414030C9414030C9414030C941403E0
S11300400C9414030C9414030C94ED030C942A03E1
S11300500C9414030C9414030C9414030C941403C0
S11300600C9414030C9414030A0A0A0A0D53656CC5
S113007065637420454550524F4D20416464726558
S113008073733A0A0D31202D20307835303A204EE2
S1130090657420436F6E6E6563746F720A0D32204F
S11300A02D20307835323A2041444320426F747415
S11300B06F6D2042640A0D33202D20307835343A98
S11300C0204E657420457874656E73696F6E0A0DF1
S11300D034202D20307835363A2041444320546F63
S11300E0702042640A0D0A0D507265737320582003
S11300F0746F20657869740A0A0D000A0A0A0A0DE9
S1130100454550524F4D2044656275670A0D3D3D8B
S11301103D3D3D3D3D3D3D3D3D0A0A0D50202D20D8
S113012050726F6475637420436F64650A0D4820D0
S11301302D204865782044756D700A0D4B202D20C4
S1130140436865636B73756D0A0D57202D205772D4
S11301506974650A0D52202D20526573657420451B
S11301604550524F4D20746F2030300A0D53202DCE
S11301702053657420454550524F4D20746F2046DE
S1130180460A0D58202D2052657475726E20746FC6
S1130190204465627567204D656E750A0D000A0A74
S11301A00A0A0D4445425547204D454E550A0D3D1A
S11301B03D3D3D3D3D3D3D3D3D3D3D3D0A0D4520E3
S11301C02D20454550524F4D2044656275670A0DF8
S11301D058202D204578697420746F2053746172FF
S11301E074204D656E750A0D000A0D546F6F206DF5
S11301F0616E7920636861726163746572732065EE
S11302006E7465726564202D20506C656173652081
S113021072657472790A0D0053554343455353462E
S1130220554C4C5920436865636B656420616E646A
S11302302050726F6772616D6D6564204545505240
S11302404F4D21210A0A0D52656D6F766520426F6C
S113025061726420616E64206170706C7920544511
S113026053544544204D41524B0A0A0D000A0A0AD0
S11302700D4175746F6D61746963616C6C79206391
S11302806865636B696E6720616E642050726F6786
S113029072616D6D696E6720454550524F4D0A0D70
S11302A0000A0A0A0D436F6E6E65637420746865F4
S11302B020626F61726420556E64657220546573A8
S11302C07420746F20746865204A69670A0D454E6E
S11302D05355524520464C59494E47204C454144BC
S11302E020495320434F4E4E4354454420746F20BD
S11302F04A554D5045520A0D507265737320275864
S11303002720746F2065786974206F7220616E797C
S1130310206F74686572206B657920746F20707229
S11303206F636565640A0D000A0A0A0D456E7465FB
S11303307220746865204E65787420626F617264FF
S113034027732053657269616C204E6F0A0D000A91
S11303500A0A0D456E7465722074686520626F61C7
S1130360726427732053657269616C204E6F0A0DA5
S1130370000A0A0A0D436865636B20746865206689
S11303806F6C6C6F77696E672064657461696C73F8
S11303902061726520636F72726563740A0D507216
S11303A06573732027582720746F2065786974203B
S11303B06F7220616E79206F74686572206B657945
S11303C020746F2070726F636565640A0D000A0AF9
S11303D00A0D456E7465722074686520626F6172DF
S11303E064277320417373656D626C79205265765E
S11303F06973696F6E204E6F206F66207468652084
S11304006261746368206F6620626F617264732036
S1130410556E64657220546573740A0D000A0A0AE5
S11304200D456E7465722074686520626F61726434
S1130430277320417373656D626C79204E6F206F52
S11304406620746865206261746368206F66206248
S11304506F6172647320556E6465722054657374A1
S11304600A0D000A0A0A0D456E74657220746865E7
S113047020576F726B73204F72646572204E6F2029
S113048028574F29206F6620746865206261746361
S113049068206F6620626F6172647320556E6465B4
S11304A07220546573740A0D000A0A0D5374617244
S11304B074204D454E550A0D3D3D3D3D3D3D3D3D70
S11304C03D3D3D3D0A0D54202D20426F6172642054
S11304D074657374730A0D44202D20446562756736
S11304E0204D656E750A0D3C454E5445523E2D20F7
S11304F0546F2072656672657368207363726565F4
S11305006E0A0A0D0020436F6D6D616E64206E6F7C
S11305107420696D706C656D656E7465640A0D0098
S11305200A0A0D454547204E657420436F6E6E657B
S113053063746F72202D2049324320454550524F39
S11305404D2050726F6772616D6D65720A0D3D3D8D
S11305503D3D3D3D3D3D3D3D3D3D3D3D3D3D3D3DC7
S11305603D3D3D3D3D3D3D3D3D3D3D3D3D3D3D3DB7
S11305703D3D3D3D3D3D3D0A0D4669726D776172DD
S1130580652049443A20000A0A0A0A0A0A0A0A0AA1
S11305900A0A0D28632920436F70797269676874A9
S11305A020546865204D61677374696D20436F6DD5
S11305B070616E79204C74642E20323032350A0A10
S11305C00D002E000A0A0A0A0A0A0A0A0A0A0A0A74
S11305D00A0A0A0D000A0D00544A30303030303611
S11305E05F5357202D2056657220303100001124AE
S11305F01FBECFEFD8E0DEBFCDBF12E0A0E0B1E078
S1130600E0EDFCE102C005900D92A837B107D9F7DF
S113061024E0A8E7B2E001C01D92AB35B207E1F7D0
S11306200E94FC040C94660E0C9400001092390392
S11306301092380310923703109236031092C500BB
S113064087E68093C40086E08093C20088E98093A3
S1130650C10008951F920F920FB60F9211248F9329
S11306609F93EF93FF9390913703809136039813F0
S113067006C08091C1008F7D8093C10011C0E091BC
S11306803603F0E0EE57FD4F80818093C6008091E1
S113069036038F5F80933603843B10F01092360349
S11306A0FF91EF919F918F910F900FBE0F901F902C
S11306B01895F8942091370330E0809136037894AC
S11306C0482F50E02417350710F42C543F4F8D5415
S11306D0821B08951F93CF93DF93D82F192FC62F12
S11306E00E9459038C17E0F3809137032D2FED2FCF
S11306F0F12F9E2F921B9C1758F49191A82FB0E0D4
S1130700AE57BD4F9C938F5F843B98F380E0F1CF4D
S1130710F894809337038091C10085FD16C0E09161
S11307203603F0E0EE57FD4F80818093C600809140
S113073036038F5F80933603843B10F010923603A8
S11307408091C10080628093C100789484E0DF913D
S1130750CF911F910895CF93DF93FC010190002066
S1130760E9F73197EF01C81BD90B6C2F0E946A037C
S1130770843011F48C2F01C080E0DF91CF91089573
S1130780CF93C82F1092C1000E941603EC2FF0E003
S1130790EE0FFF1FE050FF4F81818F9380818F9375
S11307A088E091E09F938F9384E793E09F938F93E6
S11307B00E947C0B0F900F900F900F900F900F9052
S11307C084E793E0CF910C94AB032091370390918D
S11307D0360381E0291380E008951F920F920FB62B
S11307E00F9211242F933F934F935F936F937F93B3
S11307F08F939F93AF93BF93EF93FF939091C00018
S11308008091C600E0913903F0E0E858FD4F808301
S1130810809139038F5F809339038A3010F01092EE
S11308203903892F8C7159F094FF02C080E005C010
S113083093FF02C081E001C082E00E94C003FF91E7
S1130840EF91BF91AF919F918F917F916F915F9144
S11308504F913F912F910F900FBE0F901F901895BD
S113086030913903209138033217A9F0F894E091BC
S11308703803F0E0E858FD4F2081FC01208380918B
S113088038038F5F809338038A3010F01092380356
S1130890789484E0089580E00895CF93DF931F92C5
S11308A0CDB7DEB78FEF9FEF2091BC00298329815C
S11308B027FD02C00197C1F70F90DF91CF910895F2
S11308C08CE08093B800ECEBF0E08081846080835E
S11308D00895FF920F931F93CF93DF93C82F162F82
S11308E0F42E052F84EA8093BC000E944D04CC0FA3
S11308F0C093BB0084E88093BC000E944D04CF2DBC
S1130900D02FCE01810F911D8C0184E8F82EC017E1
S1130910D10741F089918093BB00F092BC000E9402
S11309204D04F5CF8091B90094E99093BC00DF9118
S1130930CF911F910F91FF900895AF92BF92CF92E4
S1130940DF92EF92FF920F931F93CF93DF93C82F01
S1130950062FF42E152F84EA8093BC000E944D04C8
S1130960CC0FC160C093BB0084E88093BC000E949C
S11309704D04CF2DD12F10E0E12CF12C680181E042
S1130980C81AD10884ECB82E94E8A92EE016F10612
S113099091F0CE14DF0419F4A092BC0002C0B0920E
S11309A0BC000E944D048091BB0088838FEFE81A3D
S11309B0F80A2196EBCF84E98093BC00DF91CF91B4
S11309C01F910F91FF90EF90DF90CF90BF90AF9069
S11309D00895813011F4289A089528980895529A18
S11309E05A985A9A5A985A9A5A985A9A5A98209AA5
S11309F080E090E00C94E9040E94EF040E94160346
S1130A000E940B0B0E94AF0A0E94D80AFDCFEF92FE
S1130A10FF920F931F93CF93DF937A01E9016F3F06
S1130A20710511F008F08F5F6883082F10E0AE01A4
S1130A3061E070E0C8010E9469048897C1F72196BB
S1130A40AE01B701C8010E949D04CE01DF91CF9190
S1130A501F910F91FF90EF900895CF9384EC95E050
S1130A600E94FE0A0E94AB038BE393E09F938F9353
S1130A7088E493E09F938F9386E891E09F938F930C
S1130A8084E793E09F938F930E947C0B84E793E029
S1130A900E94AB0381E00E94E9048DB79EB70896DB
S1130AA00FB6F8949EBF0FBE8DBFCAE082EC95E0EE
S1130AB00E94FE0A0E94AB0388EC90E00E94160B91
S1130AC00E94330B8823E1F3C15081F780E00E9438
S1130AD0E90484EC95E00E94FE0A0E94AB0388E1DD
S1130AE092E00E94FE0A0E94AB031092530384E03A
S1130AF08093520388E293E090936A03809369039E
S1130B008FEB96E090936C0380936B038EE895E0F3
S1130B1090936E0380936D03CF910895CF93DF93E9
S1130B208091690390916A03009771F10E94F20A1F
S1130B30EC01833B910510F0C2EBD0E00E94590315
S1130B4090E08C179D07D0F3BE01809169039091CA
S1130B506A030E94E00A2091690330916A032C0F12
S1130B603D1F30936A03209369036C2F0E946A032C
S1130B70E0916903F0916A03E491E1110DC01092D0
S1130B806A031092690308C080916B0390916C030F
S1130B9090936E0380936D03DF91CF9108950F932B
S1130BA01F93CF93DF938A016F3F710511F008F013
S1130BB08F5FF8016083C82FD0E0A80161E070E086
S1130BC0CE010E9469048897C1F7A80162E070E031
S1130BD0CE01DF91CF911F910F910C9469047F9204
S1130BE08F929F92AF92BF92CF92DF92EF92FF9239
S1130BF00F931F93CF93DF9300D01F92CDB7DEB72F
S1130C00782E8A8300E010E0E12CF12C90EAC92EC2
S1130C1091E0D92E24E7A22E23E0B22E4801892C9C
S1130C20992486940E94E5038823E1F3C401019684
S1130C309F938F938A811F928F93DF92CF92BF925B
S1130C40AF920E947C0B84E793E00E94AB03AE0159
S1130C504F5F5F4FB70180913A030E94CF059E0119
S1130C602F5F3F4F41E050E0B70180913A030E946B
S1130C7007050FB6F894DEBF0FBECDBF8A81781684
S1130C80E1F00E94E5038823E1F38A811F928F93A8
S1130C908FEC91E09F938F9384E793E09F938F93DE
S1130CA00E947C0B84E793E00E94AB030F900F90AB
S1130CB00F900F900F900F900AC09FEFE91AF90A56
S1130CC00C591F4F011588EC180709F0A7CF0E9493
S1130CD0E5038823E1F30F900F900F90DF91CF91FC
S1130CE01F910F91FF90EF90DF90CF90BF90AF9046
S1130CF09F908F907F900895CF93DF931F92CDB7ED
S1130D00DEB7CE0101960E943004882381F08981E8
S1130D108D3039F485ED95E00E94FE0A0E94AB0304
S1130D2005C061E0CE0101960E946A0389810F909B
S1130D30DF91CF9108950E947C068823F9F08835CD
S1130D4011F0883749F48FE493E090936A03809319
S1130D5069038FEB96E008C08DE692E090936A03F6
S1130D60809369038DE295E090936C0380936B0309
S1130D708EE895E090936E0380936D0308950E942E
S1130D807C068823E9F1E09153038A3011F08D3019
S1130D9099F4F0E0EC5AFC4F108264E573E08BE3C5
S1130DA093E00E94750B81EA92E090936A0380932A
S1130DB069038BE996E01AC0AE2FB0E0AC5ABC4F81
S1130DC08C93EF5FE093530380915203E817C0F0D4
S1130DD089EE91E00E94FE0A0E94AB038FEB96E03D
S1130DE090936A03809369038FE493E090936C0378
S1130DF080936B038EE895E090936E0380936D036C
S1130E0008950E947C06882351F1883511F08837B3
S1130E1079F484EC95E00E94FE0A0E94AB0389EA0F
S1130E2094E090936A038093690381E79AE00DC08C
S1130E301092530384E0809352038FE493E09093E1
S1130E406A03809369038FEB96E090936C0380931D
S1130E506B038EE895E090936E0380936D03089581
S1130E600E947C06882309F474C0E09153038A30FD
S1130E7019F08D3009F044C0F0E0EC5AFC4F1082B8
S1130E8064E573E08FE393E00E94750B84EC95E0D6
S1130E900E94FE0A0E94AB0381E793E090936A03E9
S1130EA08093690381E097E090936C0380936B03D4
S1130EB08EE895E090936E0380936D038FE393E047
S1130EC09F938F9383E493E09F938F9388E493E0BD
S1130ED09F938F9380EE91E09F938F9384E793E0A9
S1130EE09F938F930E947C0B8DB79EB70A960FB683
S1130EF0F8949EBF0FBE8DBF84E793E00C94AB03C0
S1130F00AE2FB0E0AC5ABC4F8C93EF5FE093530329
S1130F1080915203E817E8F089EE91E00E94FE0AFE
S1130F200E94AB031092530384E0809352038EEC2F
S1130F3093E090936A038093690380E397E090932E
S1130F406C0380936B038EE895E090936E0380931B
S1130F506D0308950E947C06882309F447C0E0913C
S1130F6053038A3011F08D30C1F4F0E0EC5AFC4F99
S1130F70108264E573E083E493E00E94750B1092A1
S1130F80530384E0809352038EEC93E090936A03BE
S1130F908093690380E397E01FC0AE2FB0E0AC5AA2
S1130FA0BC4F8C93EF5FE093530380915203E81797
S1130FB0E8F089EE91E00E94FE0A0E94AB031092D1
S1130FC0530385E0809352038DE194E090936A0388
S1130FD0809369038AEA97E090936C0380936B0390
S1130FE08EE895E090936E0380936D0308950E94BC
S1130FF07C06882309F44DC0E09153038A3011F034
S11310008D30F1F4F0E0EC5AFC4F108264E573E0AB
S113101088E493E00E94750B1092530385E080935B
S1131020520384EC95E00E94FE0A0E94AB038DE11A
S113103094E090936A03809369038AEA97E01FC05F
S1131040AE2FB0E0AC5ABC4F8C93EF5FE0935303E8
S113105080915203E817E8F089EE91E00E94FE0ABD
S11310600E94AB03109253038AE08093520383E6F9
S113107094E090936A038093690387EF97E09093D9
S11310806C0380936B038EE895E090936E038093DA
S11310906D0308954F925F926F927F928F929F9209
S11310A0AF92BF92CF92DF92EF92FF920F931F9372
S11310B0CF93DF93CDB7DEB76B970FB6F894DEBF4F
S11310C00FBECDBF0E947C06882309F462C1883517
S11310D009F433C170F4823509F42BC118F488344F
S11310E0C9F041C1833509F422C1873509F478C0B8
S11310F03AC1833709F41BC130F4883659F082377A
S113110009F417C130C1873709F46AC0883709F474
S113111014C129C186E092E00E94AB03198200E069
S113112010E095E1492E92E0592E24E7622E23E047
S1131130722E4E0182E1880E911C33E2A32E32E01E
S1131140B32E1F930F935F924F927F926F920E94E0
S11311507C0B84E793E00E94AB039E012F5F3F4F1B
S113116040E150E0B80180913A030E9407056E0106
S113117092E0C90ED11C84E7E82E83E0F82E0F908C
S11311800F900F900F900F900F90F60181916F01C7
S11311901F928F93BF92AF92FF92EF920E947C0BAB
S11311A0F3E0EF0EF11C0F900F900F900F900F9043
S11311B00F90C814D90449F70E94E5038823E1F38A
S11311C084E793E00E94AB0385E792E00E94AB03BF
S11311D0005F1F4F011582E0180709F0B2CFC7C0A6
S11311E080E489838AE58A83AE014F5F5F4F60E4C0
S11311F070E080913A030E94CF050E94E5038823A2
S1131200E1F31F9280E48F938A811F928F9389E286
S113121092E09F938F9384E793E09F938F930E9430
S11312207C0B84E793E00E94AB039E012F5F3F4F4A
S113123041E050E060E470E080913A030E940705C9
S11312400FB6F894DEBF0FBECDBF0E94E50388231E
S1131250E1F31F9280E48F938A811F928F938FE42E
S113126092E09F938F9384E793E09F938F930E94E0
S11312707C0B84E793E00E94AB038FE0898385EACB
S11312808A83AE014F5F5F4F6FE071E080913A0354
S11312900E94CF050FB6F894DEBF0FBECDBF0E94EB
S11312A0E5038823E1F381E08F938FE08F938A81B4
S11312B01F928F9389E292E09F938F9384E793E048
S11312C09F938F930E947C0B84E793E00E94AB036F
S11312D09E012F5F3F4F41E050E06FE071E080914D
S11312E03A030E9407050FB6F894DEBF0FBECDBFC8
S11312F00E94E5038823E1F381E08F938FE08F93CD
S11313008A811F928F938FE492E09F938F9384E757
S113131093E09F938F930E947C0B84E793E00E9459
S1131320AB030FB6F894DEBF0FBECDBF20C08FEF66
S113133001C080E00E94EF051AC08EE991E090930D
S11313406A038093690382E39AE090936C03809329
S11313506B038EE895E090936E0380936D0380E0B9
S11313600E94E90416C085E095E00E94AB038BEF70
S113137090E090936A03809369038AE498E09093E1
S11313806C0380936B038EE895E090936E038093D7
S11313906D036B960FB6F894DEBF0FBECDBFDF9121
S11313A0CF911F910F91FF90EF90DF90CF90BF905E
S11313B0AF909F908F907F906F905F904F90089523
S11313C00E947C06882309F44CC0833389F030F4EE
S11313D0813361F0823369F582E50BC08835A1F071
S11313E0883791F0843329F586E503C080E501C090
S11313F084E580933A038BEF90E090936A038093A3
S113140069038AE498E023C08EE991E090936A032B
S11314108093690382E39AE090936C0380936B0357
S11314208EE895E090936E0380936D0380E00C94B6
S1131430E90485E095E00E94FE0A0E94AB0388E679
S113144090E090936A038093690380EE99E090930F
S11314506C0380936B038EE895E090936E03809306
S11314606D0308950E947C068823D1F18835B9F074
S113147018F4853431F01CC0853619F0883779F0BA
S113148017C081E00E94E9040E94600488E690E0AD
S113149090936A038093690380EE99E017C089EA08
S11314A094E090936A038093690381E79AE00EC005
S11314B085E095E00E94FE0A0E94AB038EE991E06C
S11314C090936A038093690382E39AE090936C0398
S11314D080936B038EE895E090936E0380936D0385
S11314E008950E947C068823C9F1843541F018F4DC
S11314F0843499F01BC0843681F08437B9F4109297
S113150053038AE08093520383E694E090936A0342
S11315108093690387EF97E017C08EE991E0909379
S11315206A038093690382E39AE00EC085E095E044
S11315300E94FE0A0E94AB0389EA94E090936A0336
S11315408093690381E79AE090936C0380936B0323
S11315508EE895E090936E0380936D03089587E879
S113156095E00E94FE0A0E94AB0380E295E00E948F
S1131570FE0A0E94AB030E94720B0E94FE0A0E94A4
S1131580AB0384E792E00E94AB0389EA94E0909372
S11315906A038093690381E79AE090936C038093D4
S11315A06B038EE895E090936E0380936D0308952A
S11315B0E0916D03F0916E03309709F0099408955A
S11315C0A6EAB3E020E030E02617370741F0FC013B
S11315D0E20FF31FE491ED932F5F3F4FF5CF86EABF
S11315E093E008959C0180E090E0F901E80FF91F71
S11315F0E491EE2311F00196F8CF0895CF93DF9391
S1131600EC010E94F20ABC016F5F7F4FCE01DF91B3
S1131610CF910C94E00A109273031092720310920B
S113162071031092700310926F03089590937303E3
S113163080937203109271031092700310928500CC
S1131640109284008AEF90E0909389008093880040
S1131650EFE6F0E0808182608083E1E8F0E0808161
S113166083608083089580916F03882319F010921A
S11316706F0381E008951F920F920FB60F92112409
S11316802F933F938F939F93809170039091710355
S113169001969093710380937003209172033091AB
S11316A073038217930759F41092810080916F009D
S11316B08D7F80936F0081E080936F030AC08091D7
S11316C088009091890086509F4F90938900809361
S11316D088009F918F913F912F910F900FBE0F9093
S11316E01F90189588ED95E00895FB01DC010190A9
S11316F00D920020E1F70895AEE0B0E0E2E8FBE0EF
S11317000C943D0E0D891E8986E08C831A8309830F
S11317108FEF9FE79E838D83AE01475E5F4F6F8996
S1131720788DCE0101960E949E0BEF81F885E00F23
S1131730F11F10822E96E4E00C94590EABE0B0E059
S1131740E4EAFBE00C942F0E6C017B018A01FC019E
S113175017821682838181FFCCC1CE0101963C01A0
S1131760F6019381F70193FD859193FF81917F01A8
S1131770882309F4BAC1853239F493FD859193FF26
S113178081917F01853229F4B60190E00E94950D84
S1131790E7CF912C212C312CFFE1F315D8F08B32BB
S11317A079F038F4803279F08332A1F4232D20616A
S11317B01DC08D3261F0803369F4232D216016C081
S11317C0832D8260382EE32DE4603E2E2AC0F32D53
S11317D0F8601DC037FC2DC020ED280F2A3040F0E2
S11317E08E32B9F436FC81C1232D2064322E19C007
S11317F036FE06C08AE0989E200D1124922E11C058
S1131800EAE02E9E200D1124222EF32DF0623F2EAD
S113181008C08C3621F4832D8068382E02C08836A7
S113182041F4F70193FD859193FF81917F0181112B
S1131830B3CF982F9F7D9554933028F40C5F1F4F9E
S11318409FE399830DC0833631F0833771F083357C
S113185009F059C021C0F801808189830E5F1F4FB0
S113186088248394912C530113C02801F2E04F0E75
S1131870511CF801A080B18036FE03C0692D70E0D0
S113188002C06FEF7FEFC5010E948A0D4C018201F7
S1131890F32DFF773F2E16C0280122E0420E511C83
S11318A0F801A080B18036FE03C0692D70E002C04B
S11318B06FEF7FEFC5010E947F0D4C01F32DF0689F
S11318C03F2E820133FC1BC0822D90E088169906BE
S11318D0B0F4B60180E290E00E94950D2A94F4CF12
S11318E0F50137FC859137FE81915F01B60190E0E7
S11318F00E94950D21102A9421E0821A91088114E6
S1131900910471F7E8C0843611F0893641F5F80185
S113191037FE07C060817181828193810C5F1F4F04
S113192008C060817181072E000C880B990B0E5F33
S11319301F4FF32DFF763F2E97FF09C0909580959A
S1131940709561957F4F8F4F9F4FF0683F2E2AE02F
S113195030E0A3010E94D10D882E861845C085373A
S113196031F4232D2F7EB22E2AE030E025C0932DB2
S1131970997FB92E8F36C1F018F4883579F0B5C047
S1131980803719F0883721F0B0C0E92FE061BE2E0E
S1131990B4FE0DC0FB2DF460BF2E09C034FE0AC096
S11319A0292F2660B22E06C028E030E005C020E1D1
S11319B030E002C020E132E0F801B7FE07C06081E8
S11319C07181828193810C5F1F4F06C06081718198
S11319D080E090E00E5F1F4FA3010E94D10D882E7E
S11319E08618FB2DFF773F2E36FE0DC0232D2E7F4C
S11319F0A22E891458F434FE0BC032FC09C0832D86
S1131A008E7EA82E05C0B82CA32C03C0B82C01C010
S1131A10B92CA4FE0FC0FE01E80DF11D80818033B6
S1131A2021F49A2D997EA92E09C0A2FE06C0B39472
S1131A30B39404C08A2D867809F0B394A3FC11C032
S1131A40A0FE06C0B21488F4280C922C9B180EC079
S1131A50B21460F4B60180E290E00E94950DB39454
S1131A60F7CFB21418F42B1802C0982C212CA4FE22
S1131A7010C0B60180E390E00E94950DA2FE17C04D
S1131A80A1FC03C088E790E002C088E590E0B601BD
S1131A900CC08A2D867859F0A1FE02C08BE201C0E9
S1131AA080E2A7FC8DE2B60190E00E94950D8914B6
S1131AB038F4B60180E390E00E94950D9A94F7CF34
S1131AC08A94F301E80DF11D8081B60190E00E9433
S1131AD0950D8110F5CF222009F442CEB60180E2A3
S1131AE090E00E94950D2A94F6CFF60186819781A5
S1131AF002C08FEF9FEF2B96E2E10C944B0EFC019A
S1131B000590615070400110D8F7809590958E0F24
S1131B109F1F0895FC016150704001900110D8F797
S1131B20809590958E0F9F1F08950F931F93CF93C9
S1131B30DF93FB01238121FD03C08FEF9FEF2CC0B6
S1131B4022FF16C0468157812481358142175307ED
S1131B5044F4A081B1819D012F5F3F4F31832083E5
S1131B608C93268137812F5F3F4F3783268314C0A0
S1131B708B01EC01FB010084F185E02D0995892B93
S1131B80E1F6D80116968D919C91179701961796B8
S1131B909C938E931697CE01DF91CF911F910F9155
S1131BA00895FA01AA27283051F1203181F1E894EF
S1131BB06F936E7F6E5F7F4F8F4F9F4FAF4FB1E03C
S1131BC03ED0B4E03CD0670F781F891F9A1FA11D37
S1131BD0680F791F8A1F911DA11D6A0F711D811D38
S1131BE0911DA11D20D009F468943F912AE0269FFD
S1131BF011243019305D3193DEF6CF010895462F5C
S1131C004770405D4193B3E00FD0C9F7F6CF462F3C
S1131C104F70405D4A3318F0495D31FD40524193A5
S1131C2002D0A9F7EACFB4E0A69597958795779562
S1131C306795BA95C9F700976105710508959B01E9
S1131C40AC010A2E06945795479537952795BA9572
S1131C50C9F7620F731F841F951FA01D08952F924B
S1131C603F924F925F926F927F928F929F92AF9228
S1131C70BF92CF92DF92EF92FF920F931F93CF9375
S1131C80DF93CDB7DEB7CA1BDB0B0FB6F894DEBF0C
S1131C900FBECDBF09942A88398848885F846E8432
S1131CA07D848C849B84AA84B984C884DF80EE807C
S1131CB0FD800C811B81AA81B981CE0FD11D0FB685
S1131CC0F894DEBF0FBECDBFED010895F894FFCFA9
S1131CD01E013501510167010A0A0D535953544538
S1131CE04D204552524F520A0D25730A0D000A0D1C
S1131CF053657269616C204672616D696E67204537
S1131D0072726F72000A0D53657269616C204461CE
S1131D107461204F76657272756E204572726F72AF
S1131D20000A0D53657269616C205061726974799F
S1131D30204572726F72000A0D53657269616C20DE
S1131D40545820627566206F766572666C6F7720D2
S1131D504572726F720050726F6772616D6D696E59
S1131D606720426F6172642025732D25730A0D006C
S1131D700D526573657474696E6720416C6C206FD5
S1131D806620454550524F4D20746F2025303278DF
S1131D90202D2025303364252520646F6E65000ACC
S1131DA00D4572617365204552522025780A0D0055
S1131DB0574F204E6F203D2025730A0D41737379D0
S1131DC02044657461696C73203D2025732D303186
S1131DD02D25730A0D000A0A0D4845582044554D17
S1131DE0500A0D0A0041646472203D202530347885
S1131DF03A20002530327820000A0D4461746120B5
S1131E0025303278207772697474656E20746F207F
S1131E106164647265737320253034780A0D000A96
S1131E200D4461746120253032782072656164202C
S1131E3066726F6D2061646472657373202530343B
S10B1E40780A0D000A0A0D00E6
S9030000FC
