S0130000544A3030303030365F53572E7372656344
S11300000C94BA050C94D7050C94D7050C94D70519
S11300100C94D7050C94D7050C94D7050C94D705EC
S11300200C94D7050C94D7050C94D7050C9477142D
S11300300C94D7050C94D7050C94D7050C94D705CC
S11300400C94D7050C94D7050C94B0060C94ED05CC
S11300500C94D7050C94D7050C94D7050C94D705AC
S11300600C94D7050C94D7050A0A0A0A0D506F722E
S11300707420457870616E646572204465627567AA
S11300800A0D3D3D3D3D3D3D3D3D3D3D3D3D3D3DFF
S11300903D3D3D3D3D0A0D50726573732027582741
S11300A020746F20457869740A0A0D47534E332033
S11300B047534E322047534E312047534E300A0D9A
S11300C0000A0A0A0A0D4445425547204D454E553B
S11300D00A0D3D3D3D3D3D3D3D3D3D3D3D3D3D0AE2
S11300E00D0A0D53656C65637420454550524F4DA0
S11300F020416464726573733A0A0D31202D2030F7
S11301007835303A204E657420436F6E6E656374A3
S11301106F720A0D32202D20307835323A20414456
S11301204320426F74746F6D2042640A0D33202D96
S113013020307835343A204E657420457874656EE5
S113014073696F6E0A0D34202D20307835363A20CD
S113015041444320546F702042640A0D35202D2001
S1130160307834313A20506F727420457870616E63
S113017064657220284857303030313132204F6E58
S11301806C79290A0D0A0D50726573732058207416
S11301906F20657869740A0A0D000A0A0A0A0D4577
S11301A04550524F4D2044656275670A0D3D3D3DF3
S11301B03D3D3D3D3D3D3D3D0A0A0D44202D20443D
S11301C06973706C61792053746F7265642044653F
S11301D07461696C730A0D48202D204865782044A9
S11301E0756D700A0D57202D2057726974650A0DBC
S11301F052202D20526573657420454550524F4D51
S113020020746F2030300A0D53202D205365742044
S1130210454550524F4D20746F2046460A0D4320E9
S11302202D20446973706C617920436865636B7336
S1130230756D730A0D58202D2052657475726E20E9
S1130240746F204465627567204D656E750A0A0DEA
S1130250000A0A0D202A2A2A20506C656173652041
S113026052652D456E746572207573696E67206ED4
S1130270756D657269632063686172616374657228
S113028073206F6E6C7920282730272D2739272972
S1130290202A2A2A0A0D000A0A0D202A2A2A205076
S11302A06C656173652052652D456E7465722075A9
S11302B073696E6720416C7068612D6E756D65722F
S11302C069632063686172616374657273206F6E21
S11302D06C7920282741272D275A272C20273027BF
S11302E02D27392729202A2A2A0A0D000A0A0D2037
S11302F02A2A2A20454550524F4D20524541442038
S11303004552524F52202A2A2A0A0A0D000A0D4445
S113031061746120726574656E74696F6E204368E0
S113032065636B204641494C454421210A0D000A6E
S11303300D4461746120726574656E74696F6E201A
S11303404F4B0A0A0D000A0D436865636B696E67BB
S1130350206461746120726574656E74696F6E0ADD
S11303600D506F776572696E67204F464620666F41
S1130370722033207365636F6E64730A0A0D005034
S11303804342204173737920532F4E203D20005067
S11303904342204173737920502F4E203D2000505A
S11303A0726F6475637420532F4E20203D200050DB
S11303B0726F6475637420502F4E20203D200055C9
S11303C06E646566696E6564000A0A0D2A2A2A202D
S11303D05741524E494E47202A2A2A0A0D43616C3E
S11303E063756C6174656420616E642053746F720C
S11303F0656420436865636B73756D204D61746338
S1130400680A0A0D43757272656E7420436F6E74C8
S1130410656E74730A0D2D2D2D2D2D2D2D2D2D2D45
S11304202D2D2D2D2D2D0A0D000A0A0D436865630F
S11304306B73756D206D69736D617463680A0D5318
S1130440657474696E6720757020454550524F4D30
S11304500A0D000A0A0D436865636B2048656164F0
S113046065722069732066697474656420636F72B1
S1130470726563746C790A0D507265737320277802
S11304802720746F20454E544552206B65792074A3
S11304906F2072657472790A0D000A0A0D4E6F742A
S11304A020456E6F75676820636861726163746567
S11304B0727320666F7220576F726B73204F726471
S11304C06572202D20312052657175697265640A48
S11304D00D506C656173652072657472790A0D0044
S11304E00A0A0D4E6F7420456E6F75676820636845
S11304F0617261637465727320656E74657265649C
S1130500202D20332052657175697265640A0D507F
S11305106C656173652072657472790A0D000A0D49
S11305205355434345535346554C4C5920436865F2
S1130530636B656420616E642050726F6772616DD5
S11305406D656420454550524F4D21210A0A0D52D4
S1130550656D6F766520426F61726420616E642000
S11305606170706C7920544553544544204D415278
S11305704B0A0A0D000A0A0A0D4175746F6D617405
S11305806963616C6C7920636865636B696E67206D
S1130590616E642050726F6772616D6D696E672061
S11305A0454550524F4D0A0D000A0A0A0D436F6E1D
S11305B06E6563742074686520626F61726420558F
S11305C06E646572205465737420746F207468655A
S11305D0204A69670A0D454E5355524520464C59E9
S11305E0494E47204C45414420495320434F4E4EE9
S11305F0454354454420746F204A554D5045520A92
S11306000A0D50726573732027582720746F206574
S1130610786974206F7220454E544552206B657979
S113062020746F2070726F636565640A0D000A0A96
S11306300A0D456E74657220746865204E65787481
S113064020626F61726427732053657269616C2044
S11306504E6F0A0D000A0A0A0D456E746572207405
S1130660686520626F6172642773205365726961E3
S11306706C204E6F2E0A0D2833204368617261632B
S11306807465727329206F722027582720746F2095
S1130690657869740A0D00507265737320275827B2
S11306A020746F2065786974206F7220454E54451C
S11306B052206B657920746F2070726F6365656476
S11306C00A0A0A0D000A0A0A0D436865636B20745E
S11306D0686520666F6C6C6F77696E6720646574FB
S11306E061696C732061726520636F7272656374F3
S11306F00A0A0D000A0A0A0D456E746572207468B0
S11307006520626F617264277320417373656D6243
S11307106C79205265766973696F6E204E6F206F15
S11307206620746865206261746368206F66206265
S11307306F6172647320556E6465722054657374BE
S11307400A0D2833204368617261637465727329EA
S11307500A0D000A0A0A0D456E74657220746865F4
S113076020576F726B73204F72646572204E6F2036
S113077028574F29206F662074686520626174636E
S113078068206F6620626F6172647320556E6465C1
S11307907220546573740A0D284D4158203D203150
S11307A0302043686172616374657273290A0D00B5
S11307B00A0A0A0D363736382D3031204E6574203A
S11307C041646170746572205043422073656C65A6
S11307D0637465640A0D000A0A0A0D363531392D31
S11307E03031204E657420436F6E6E6563746F7292
S11307F0205043422073656C65637465640A0D0080
S11308000A0A0D53656C65637420426F617264203B
S1130810556E6465722054657374202842555429BA
S11308200A0D3D3D3D3D3D3D3D3D3D3D3D3D3D3D57
S11308303D3D3D3D3D3D3D3D3D3D3D3D3D3D3D0A17
S11308400D31202D20363531392D3031202D204EDB
S1130850657420436F6E6E6563746F7220504342FB
S11308600A0D32202D20363736382D3031202D20F8
S11308704E65742041646170746572205043420A6D
S11308800D58202D204578697420746F20537461AD
S11308907274204D656E750A0D3C454E5445523EAA
S11308A02D20546F207265667265736820736372BD
S11308B065656E0A0A0D000A0A0D5374617274208C
S11308C04D454E550A0D3D3D3D3D3D3D3D3D3D3D76
S11308D03D3D0A0D54202D20426F617264207465E1
S11308E07374730A0D44202D204465627567204D8E
S11308F0656E750A0D3C454E5445523E2D20546F8D
S113090020726566726573682073637265656E0A2A
S11309100A0D000A0A0D53656C6563742046696EFE
S1130920616C204173737920547970650A0D3D3DE3
S11309303D3D3D3D3D3D3D3D3D3D3D3D3D3D3D3DE3
S11309403D3D3D3D0A0D4E202D204E65740A0D4C53
S1130950202D204C6567616379204E6574204164C5
S11309606170746F720A0D45202D204E6574204508
S11309707874656E73696F6E204361626C650A0DED
S11309803C454E5445523E2D20546F20726566728C
S11309906573682073637265656E0A0A0D004E659F
S11309A07420457874656E73696F6E2046696E6154
S11309B06C20417373656D626C79004E65742041DF
S11309C06461707465722046696E616C2041737352
S11309D0656D626C79004E65742046696E616C20A9
S11309E0417373656D626C79004E65742041646176
S11309F07074657220504342004E657420436F6EDC
S1130A006E6563746F72205043420020436F6D6DB6
S1130A10616E64206E6F7420696D706C656D656EB7
S1130A207465640A0D000A0A426F61726420546599
S1130A307374204669726D776172650A0D2A2A2AD9
S1130A402A2A2A2A2A2A2A2A2A2A2A2A2A2A2A2A02
S1130A502A2A2A0A0A0D000A0A0D2A2A2A20494E9D
S1130A6056414C49442054455354204A494720494F
S1130A7044204445544543544544202A2A2A0A0D17
S1130A80000A0A46696E616C2054657374204669D5
S1130A90726D776172650A0D2A2A2A2A2A2A2A2A5D
S1130AA02A2A2A2A2A2A2A2A2A2A2A0A0A0D000A49
S1130AB00A0D454547204E657420436F6E6E65638D
S1130AC0746F72202D20493243205465737420467C
S1130AD069726D776172650A0D3D3D3D3D3D3D3D59
S1130AE03D3D3D3D3D3D3D3D3D3D3D3D3D3D3D3D32
S1130AF03D3D3D3D3D3D3D3D3D3D3D3D3D3D0A0D85
S1130B004669726D776172652049443A20000A0A89
S1130B100A0A0A0A0A0A0A0A0A0D28632920436FE4
S1130B207079726967687420546865204D616773D1
S1130B3074696D20436F6D70616E79204C74642EFE
S1130B4020323032350A0A0D000A0A0A0A0A0A0A51
S1130B500A0A0A0A0A0A0A0A0D000A0D00544A304F
S1130B6030303030365F5357202D20566572205078
S1130B70312E310011241FBECFEFD8E0DEBFCDBF30
S1130B8013E0A0E0B1E0E0E7FFE202C005900D92BF
S1130B90A838B107D9F725E0A8E8B3E001C01D9251
S1130BA0AD37B207E1F70E94C3070C94B6170C9453
S1130BB000001092490410924804109247041092C5
S1130BC046041092C50087E68093C40086E08093B3
S1130BD0C20088E98093C10008951F920F920FB656
S1130BE00F9211248F939F93EF93FF939091470457
S1130BF080914604981306C08091C1008F7D809334
S1130C00C10011C0E0914604F0E0EE56FC4F808133
S1130C108093C600809146048F5F80934604843B92
S1130C2010F010924604FF91EF919F918F910F90D5
S1130C300FBE0F901F901895F8942091470430E050
S1130C40809146047894482F50E02417350710F417
S1130C502C543F4F8D54821B08951F93CF93DF93E1
S1130C60D82F192FC62F0E941C068C17E0F38091F1
S1130C7047042D2FED2FF12F9E2F921B9C1758F414
S1130C809191A82FB0E0AE56BC4F9C938F5F843BEC
S1130C9098F380E0F1CFF894809347048091C100E9
S1130CA085FD16C0E0914604F0E0EE56FC4F8081CD
S1130CB08093C600809146048F5F80934604843BF2
S1130CC010F0109246048091C10080628093C100AC
S1130CD0789484E0DF91CF911F910895CF93DF93AF
S1130CE0FC0101900020E9F73197EF01C81BD90BF3
S1130CF06C2F0E942D06843011F48C2F01C080E0EB
S1130D00DF91CF910895CF93C82F1092C1000E9414
S1130D10D905EC2FF0E0EE0FFF1FE050FF4F81816B
S1130D208F9380818F9388E091E09F938F9386E9DE
S1130D3094E09F938F930E94CC140F900F900F9088
S1130D400F900F900F9086E994E0CF910C946E066B
S1130D50209147049091460481E0291380E008958E
S1130D601F920F920FB60F9211242F933F934F931C
S1130D705F936F937F938F939F93AF93BF93EF93FF
S1130D80FF939091C0008091C600E0914904F0E087
S1130D90E857FC4F8083809149048F5F8093490416
S1130DA08A3010F010924904892F8C7159F094FF05
S1130DB002C080E005C093FF02C081E001C082E070
S1130DC00E948306FF91EF91BF91AF919F918F9104
S1130DD07F916F915F914F913F912F910F900FBE33
S1130DE00F901F90189530914904209148043217B0
S1130DF0A9F0F894E0914804F0E0E857FC4F208112
S1130E00FC012083809148048F5F809348048A30DA
S1130E1010F010924804789484E0089580E00895D6
S1130E20CF93DF931F92CDB7DEB78FEF9FEF209163
S1130E30BC002983298127FD02C00197C1F70F90C7
S1130E40DF91CF9108958CE08093B800ECEBF0E053
S1130E508081846080830895FF920F931F93CF93C2
S1130E60DF93C82F162FF42E052F84EA8093BC003D
S1130E700E941007CC0FC093BB0084E88093BC0091
S1130E800E941007CF2DD02FCE01810F911D8C0110
S1130E9084E8F82EC017D10741F089918093BB00F4
S1130EA0F092BC000E941007F5CF8091B90094E93C
S1130EB09093BC00DF91CF911F910F91FF90089503
S1130EC0AF92BF92CF92DF92EF92FF920F931F9354
S1130ED0CF93DF93C82F062FF42E152F84EA809327
S1130EE0BC000E941007CC0FC160C093BB0084E813
S1130EF08093BC000E941007CF2DD12F10E0E12C6D
S1130F00F12C680181E0C81AD10884ECB82E94E869
S1130F10A92EE016F10691F0CE14DF0419F4A09284
S1130F20BC0002C0B092BC000E9410078091BB00BC
S1130F3088838FEFE81AF80A2196EBCF84E980932F
S1130F40BC00DF91CF911F910F91FF90EF90DF9044
S1130F50CF90BF90AF900895813011F4289A0895EE
S1130F602898089584E08BB98AB1886D8AB952981B
S1130F705B985B9A5B985B9A5B985B9A5B98209A08
S1130F8080E00C94AC070E94B2070E94D9050E942D
S1130F9023070E9447140E94BC130E941414FDCF1F
S1130FA0811102C0229806C0229A613011F42A9A53
S1130FB001C02A9883B184700895CF93DF93C9B197
S1130FC0C470D4E08AE090E00E9452140E946F142E
S1130FD08823E1F389B18470C81307C0D15091F715
S1130FE081E0C11103C080E001C082E0DF91CF91B4
S1130FF008952BB12F7030E1839FC0011124822BFF
S11310008BB9089590ED980F9A3058F0982F9F7DE2
S113101091549A3130F091E08D3209F090E0892FAB
S1131020089581E0089589E49BE00E943A140E94A7
S11310306E0685EC96E00E943A140E946E0687E9DB
S113104096E090938C0480938B0484E39DE09093CA
S11310508E0480938D0482ED98E0909390048093A5
S11310608F0480E694E09F938F9384E694E09F93AB
S11310708F9389E694E09F938F9386E891E09F9302
S11310808F9386E994E09F938F930E94CC1486E912
S113109094E00E946E068DB79EB70A960FB6F89438
S11310A09EBF0FBE8DBF80914C04882319F089EE3A
S11310B099E002C089EF99E00E943A149F938F93BC
S11310C089EA91E09F938F9386E994E09F938F93AD
S11310D00E94CC140F900F900F900F900F900F90D0
S11310E086E994E00C946E068F929F92AF92BF9221
S11310F0CF92DF92EF92FF920F931F93CF93DF93E0
S1131100CDB7DEB761970FB6F894DEBF0FBECDBF83
S1131110982EA62E6A017901062F172F882483940E
S1131120880E202F802F8A1990E08C159D0538F5A4
S11311300F3F110519F010F0B82C01C0B92C298308
S1131140F701E80FF91F80818A83AE014F5F5F4F7B
S113115061E08B2D0E942C07AE014F5F5F4F62E070
S11311608B2D0E942C07AE014F5F5F4F61E08B2DEA
S11311700E942C078832B9F70F5F1F4FD2CF6196B8
S11311800FB6F894DEBF0FBECDBFDF91CF911F9194
S11311900F91FF90EF90DF90CF90BF90AF909F9012
S11311A08F900895CF93DF9380918B0490918C045A
S11311B0009771F10E942E14EC01833B910510F00D
S11311C0C2EBD0E00E941C0690E08C179D07D0F380
S11311D0BE0180918B0490918C040E941C14209178
S11311E08B0430918C042C0F3D1F30938C0420937E
S11311F08B046C2F0E942D06E0918B04F0918C04DB
S1131200E491E1110DC010928C0410928B0408C07B
S113121080918D0490918E049093900480938F0418
S1131220DF91CF910895AF92BF92CF92DF92EF9268
S1131230FF921F93CF93DF93CDB7DEB761970FB6BD
S1131240F894DEBF0FBECDBF182F7A0169016F3F3E
S1131250710511F008F01F5F698388EEA82E83E002
S1131260B82EAE014F5F5F4F61E0812F0E942C07C3
S1131270883261F081E0A81AB10899F78CEE92E007
S11312800E943A140E946E0680E01BC0AE014E5FBD
S11312905F4F6E2D812F0E94600720E0822F90E027
S11312A08E159F0568F4F601E80FF91FA2E0B0E07F
S11312B0AC0FBD1FA80FB91F8C9180832F5FEECF99
S11312C081E061960FB6F894DEBF0FBECDBFDF910B
S11312D0CF911F91FF90EF90DF90CF90BF90AF9090
S11312E00895CF92DF92EF92FF920F931F93CF93C3
S11312F07B016A019A01AB01BC0180914F040E94F9
S11313001309C0E08C2F90E08601080F191FF80123
S11313108E159F0570F48081811102C0C1110AC02D
S11313200E940208811103C0F801108204C0CF5F3B
S1131330E9CF108281E0CF911F910F91FF90EF9040
S1131340DF90CF900895CF93DF9300D01F92CDB755
S1131350DEB79E012F5F3F4F42E050E06EEF70E03A
S113136080914F040E94130989819A8198278927C3
S113137098270F900F900F90DF91CF910895AF921F
S1131380BF92CF92DF92EF92FF920F931F93CF936E
S1131390DF93CDB7DEB762970FB6F894DEBF0FBE0A
S11313A0CDBF198200E010E0E12CF12C5E0141E197
S11313B0A40EB11C9E012F5F3F4F40E150E0B701E6
S11313C080914F040E941309FE0131968191080F08
S11313D0111DAE16BF06D1F750E1E50EF11CE11464
S11313E082E0F80639F70E94A309292FA801481BB7
S11313F05109CA01C22ED12C8C199D098095909552
S113140062960FB6F894DEBF0FBECDBFDF91CF91C9
S11314101F910F91FF90EF90DF90CF90BF90AF900E
S113142008957F928F929F92AF92BF92CF92DF9254
S1131430EF92FF920F931F93CF93DF931F92CDB739
S1131440DEB7782E898300E010E0E12CF12C9FEACE
S1131450C92E91E0D92E26E9A22E24E0B22E48010D
S1131460892C992486940E94A8068823E1F3C40158
S113147001969F938F9389811F928F93DF92CF92CE
S1131480BF92AF920E94CC1486E994E00E946E064B
S11314909E012F5F3F4F41E050E0B70180914F0420
S11314A00E9474089E012F5F3F4F41E050E0B70156
S11314B080914F040E9413090FB6F894DEBF0FBE4B
S11314C0CDBF89817816E1F00E94A8068823E1F354
S11314D089811F928F938EED91E09F938F9386E97C
S11314E094E09F938F930E94CC1486E994E00E9429
S11314F06E060F900F900F900F900F900F900AC0F0
S11315009FEFE91AF90A0C591F4F011588EC1807C7
S113151009F0A5CF0E94A8068823E1F30F90DF917C
S1131520CF911F910F91FF90EF90DF90CF90BF90DC
S1131530AF909F908F907F9008950F931F93CF93B8
S1131540DF93EB018A019A01AB01BC0180914F0446
S11315500E9413098823A1F080E0282F30E0F801CD
S1131560E20FF31F2C173D0748F4908190539A30F3
S113157018F0108280E004C08F5FEFCF108281E00A
S1131580DF91CF911F910F910895FF920F931F93B5
S1131590CF93DF9300D000D0CDB7DEB78AE59BE0D0
S11315A00E943A140E946E060E94A3099F938F938F
S11315B08EED92E09F938F9306E914E01F930F93AF
S11315C00E94CC14C8010E946E060E94BF09809339
S11315D04D0490934E049F938F938FEE91E09F93CD
S11315E08F931F930F930E94CC14C8010E946E0620
S11315F08AE59BE00E943A140E946E060FB6F894A6
S1131600DEBF0FBECDBF0E94A8068823E1F38FEA98
S113161093E00E943A140E946E068FEB93E00E94BE
S11316203A148C0146E954E064E070E080E090E014
S11316300E949D0A8823F1F08DE2F82EF0929A041C
S11316404BE954E062E070E084E090E00E949D0A7F
S1131650882381F0F0929D044EE954E063E070E049
S113166086E090E00E947109882321F01092A10481
S113167006E914E0C8010E946E068AE59BE00E9418
S11316803A140E946E060E94A8068823E1F38FE9AB
S113169093E00E943A140E946E068FEB93E00E943E
S11316A03A148C0146E954E064E070E089E090E08B
S11316B00E947109882389F08DE280939A044BE992
S11316C054E06DE070E084E090E00E9471098823AA
S11316D021F01092A80406E914E0C8010E946E06E5
S11316E08AE59BE00E943A140E946E060E94A806B6
S11316F08823E1F38FE893E00E943A140E946E0677
S11317008FEB93E00E943A148C0146E954E06CE0BC
S113171070E082EE90E00E947109882311F006E9DE
S113172014E0C8010E946E068AE59BE00E943A1408
S11317300E946E060E94A8068823E1F38FE793E0D7
S11317400E943A140E946E068FEB93E00E943A14B2
S11317508C0146E954E06BE070E08FEE90E00E946B
S113176071098823D1F06CE072E086E994E00E946C
S1131770B114AE014F5F5F4F64E070E08AEF90E018
S11317800E947109882349F0BE016F5F7F4F86E98B
S113179094E00E94B11406E914E0C8010E946E06A8
S11317A08AE59BE00E943A140E946E060F900F9007
S11317B00F900F90DF91CF911F910F91FF9008959B
S11317C0CF93DF931F92CDB7DEB7CE0101960E946F
S11317D0F306882381F089818D3039F48AE59BE012
S11317E00E943A140E946E0605C061E0CE01019683
S11317F00E942D0689810F90DF91CF9108950E9458
S1131800E00B882309F46CC08E3471F028F485341D
S1131810E1F08C3489F04BC08C3671F08E3621F0B7
S1131820853609F044C011C080E580934F041092BE
S11318304C0486ED99E010C080E580934F0481E06C
S113184080934C048BEB99E007C084E580934F04AC
S113185010924C048EE999E00E943A149F938F935E
S11318608EE092E09F938F9386E994E09F938F9309
S11318700E94CC1486E994E00E946E0683E199E00C
S113188090938C0480938B048FEF9BE090938E0451
S113189080938D0482ED98E09093900480938F045C
S11318A00F900F900F900F900F900F9019C08BE036
S11318B09AE00E943A140E946E0683E199E09093A4
S11318C08C0480938B048FEF9BE090938E04809321
S11318D08D0482ED98E09093900480938F04089592
S11318E008950E94E00B882369F18D3051F018F4BB
S11318F08A3039F00FC0883511F0883759F40C94C8
S1131900130885E795E090938C0480938B0488E218
S113191092E10EC087E996E00E943A140E946E0696
S113192089EA95E090938C0480938B0481E79CE092
S113193090938E0480938D0482ED98E090939004AC
S113194080938F0408950E94E00B882309F48BC0D0
S11319508D3071F018F48A3059F014C0883511F0C4
S1131960883781F48091750481117DC00C9413082B
S11319709091750480917404981708F074C080EEF7
S113198094E056C090ED980F9A3008F04FC0E09163
S11319907504AE2FB0E0AA58BB4F8C93EF5FE09371
S11319A0750480917404E8135EC0F0E0EA58FB4FBC
S11319B0108266E774E08CE594E00E94C51489E423
S11319C09BE00E943A140E946E068CE594E09F937B
S11319D08F9389E694E09F938F9380E292E09F93A4
S11319E08F9386E994E09F938F930E94CC1486E9A9
S11319F094E00E946E0689EA95E090938C048093AB
S1131A008B0481E79CE090938E0480938D0482ED97
S1131A1098E09093900480938F048DB79EB70896B6
S1131A200FB6F8949EBF0FBE8DBF089581E592E076
S1131A300E943A140E946E061092750483E080930B
S1131A40740485E596E090938C0480938B0483EA78
S1131A509CE090938E0480938D0482ED98E09093A3
S1131A60900480938F0408950E94E00B882309F466
S1131A703FC08D30B9F018F48A30A1F021C0883508
S1131A8011F08837E9F489E49BE00E943A140E943B
S1131A906E0687EB98E090938C0480938B048FEA16
S1131AA091E11CC01092750483E08093740485E571
S1131AB096E090938C0480938B0483EA9CE00EC0A0
S1131AC087E996E00E943A140E946E0687E996E040
S1131AD090938C0480938B0484E39DE090938E0414
S1131AE080938D0482ED98E09093900480938F040A
S1131AF00895CF930E94E00BC82F882309F473C084
S1131B008D3029F118F48A3011F12AC0883511F08A
S1131B10883731F580917504811112C087EB98E004
S1131B2090938C0480938B048FEA91E190938E04BC
S1131B3080938D0482ED98E09093900480938F04B9
S1131B4089E49BE00E943A14CF910C946E06E091D4
S1131B50750480917404E817B0F480EE94E028C012
S1131B608C2F0E940208882309F1E0917504AE2F9E
S1131B70B0E0AA58BB4FCC93EF5FE093750480911B
S1131B807404E81330C0F0E0EA58FB4F108266E7B3
S1131B9074E080E694E00E94C51489E49BE00E940E
S1131BA03A140E946E06CF910C94130887E992E0D0
S1131BB00E943A140E946E061092750483E080938A
S1131BC0740484EF96E090938C0480938B0489E7EB
S1131BD09DE090938E0480938D0482ED98E0909321
S1131BE0900480938F04CF910895CF93DF930E9444
S1131BF0E00BC82F882309F496C08D3039F118F40E
S1131C008A3021F14CC0883519F0883709F047C073
S1131C1080917504811112C087EB98E090938C0435
S1131C2080938B048FEA91E190938E0480938D04CA
S1131C3082ED98E09093900480938F0489E49BE074
S1131C400E943A14DF91CF910C946E06C0917504F2
S1131C50C11103C08AE994E04BC0EC2FF0E0EA58CC
S1131C60FB4F108266E774E089E694E00E94C51495
S1131C70CA3038F4EC2FF0E0E759FB4F1082CF5F05
S1131C80F7CF1092750483E08093740484EF96E098
S1131C9090938C0480938B0489E79DE03AC08C2F49
S1131CA00E940208882311F1E0917504D1E0DE0F4F
S1131CB0D0937504F0E0EA58FB4FC083809174041C
S1131CC0D81331C0ED2FF0E0EA58FB4F108266E7DD
S1131CD074E089E694E00E94C514DA3090F6ED2FA2
S1131CE0F0E0E759FB4F1082DF5FF7CF87E992E01E
S1131CF00E943A140E946E06109275048AE0809342
S1131D00740483E597E090938C0480938B0485EFAF
S1131D109DE090938E0480938D0482ED98E09093DF
S1131D20900480938F04DF91CF910895CF93DF9334
S1131D300E94E00B882309F45BC0823399F068F4B5
S1131D408133F1F561E572E084E694E00E94C51404
S1131D5010924C0487ED97E010C0883541F1883724
S1131D6031F12EC066E572E084E694E00E94C51469
S1131D7081E080934C0480EB97E00E943A14EC01DC
S1131D8089E49BE00E943A140E946E06CE010E94F0
S1131D906E06109275048AE08093740483E597E0DC
S1131DA090938C0480938B0485EF9DE017C087EBA0
S1131DB098E090938C0480938B048FEA91E10EC099
S1131DC08BE09AE00E943A140E946E0680E098E04C
S1131DD090938C0480938B0486E99EE090938E0408
S1131DE080938D0482ED98E09093900480938F0407
S1131DF0DF91CF910895CF93DF931F92CDB7DEB7D4
S1131E000E94E00B8823B9F0883511F0883799F4E3
S1131E1081EC90E090938C0480938B0486E79FE0A0
S1131E2090938E0480938D0482ED98E090939004B7
S1131E3080938F0457C00E946F14882309F452C002
S1131E40E0914A04F0E0E258FC4F808180934B0417
S1131E508F700E94F90788EB9BE00E945214AE0138
S1131E604F5F5F4F61E080914F040E946007809153
S1131E704B048983382F317081FB222720F982FBA0
S1131E80992790F983FB882780F91F923F931F922B
S1131E902F931F929F931F928F931F923F931F9292
S1131EA02F931F929F931F928F938BE592E09F93A2
S1131EB08F9386E994E09F938F930E94CC1486E9D4
S1131EC094E00E946E0680914A048F5F0FB6F894E6
S1131ED0DEBF0FBECDBF8A3018F480934A0402C01F
S1131EE010924A040F90DF91CF910895CF93DF931E
S1131EF01F92CDB7DEB781E00E94AC070E94E00BD1
S1131F00882309F46FC0843399F140F4823381F15A
S1131F1068F5813309F04EC080E52BC08835A1F106
S1131F20883791F1853309F045C0198281E48093A3
S1131F304F04AE014F5F5F4F61E00E942C0788E6BB
S1131F4090E090938C0480938B048BEF9EE09093AD
S1131F508E0480938D0482ED98E090939004809396
S1131F608F0488EC90E00E9452143CC084E501C0C8
S1131F7082E580934F048AE991E090938C048093E6
S1131F808B0486EF9FE024C087EB98E090938C0449
S1131F9080938B048FEA91E190938E0480938D0457
S1131FA082ED98E09093900480938F0480E00E94E7
S1131FB0AC0718C08BE09AE00E943A140E946E06A7
S1131FC081EC90E090938C0480938B0486E79FE0EF
S1131FD090938E0480938D0482ED98E09093900406
S1131FE080938F040F90DF91CF9108956F927F9229
S1131FF08F929F92AF92BF92CF92DF92EF92FF9215
S11320000F931F93CF93DF93CDB7DEB762970FB6CD
S1132010F894DEBF0FBECDBF0E94E00B882309F405
S113202089C1883509F458C1B0F4803509F450C128
S113203040F4843459F1883461F1833409F062C185
S11320408BC0833509F442C1873509F498C08235C1
S113205009F058C13DC1803709F43AC140F48436CF
S1132060A9F08836B1F0833609F04CC175C08337C6
S113207009F42CC120F4823709F42AC143C18737FB
S113208009F47DC0883709F427C13CC10E94C50A00
S11320903FC18DE992E00E946E06198200E010E0D3
S11320A09CEA692E92E0792E26E9C22E24E0D22EF3
S11320B03AEBA32E32E0B32E1F930F937F926F92CD
S11320C0DF92CF920E94CC1486E994E00E946E06BF
S11320D09E012F5F3F4F40E150E0B80180914F04D3
S11320E00E941309CE0101964C0186E9E82E84E092
S11320F0F82E0F900F900F900F900F900F90F40107
S113210081914F011F928F93BF92AF92FF92EF92F2
S11321100E94CC14F3E0EF0EF11C0F900F900F907F
S11321200F900F900F9086ECE81684E0F80639F7CC
S11321300E94A8068823E1F386E994E00E946E06D3
S11321408DE192E00E946E06005F1F4F011592E040
S1132150190709F0B1CFDCC00E94BF09182F092F5D
S11321600E94A309F82EE92E0E94A8068823E1F311
S1132170EF92FF920F931F9380EC92E095C08AE553
S113218089839E012F5F3F4F41E050E060E470E09F
S113219080914F040E9474080E94A8068823E1F3EA
S11321A01F9280E48F9389811F928F938BEF92E02B
S11321B09F938F9386E994E09F938F930E94CC140E
S11321C086E994E00E946E069E012F5F3F4F41E036
S11321D050E060E470E080914F040E9413090FB650
S11321E0F894DEBF0FBECDBF0E94A8068823E1F39A
S11321F01F9280E48F9389811F928F9381E293E0F1
S11322009F938F9386E994E09F938F930E94CC14BD
S113221086E994E00E946E0685EA89839E012F5F19
S11322203F4F41E050E06FE071E080914F040E9425
S113223074080FB6F894DEBF0FBECDBF0E94A80687
S11322408823E1F381E08F938FE08F9389811F923C
S11322508F938BEF92E09F938F9386E994E09F9303
S11322608F930E94CC1486E994E00E946E069E012E
S11322702F5F3F4F41E050E06FE071E080914F04E9
S11322800E9413090FB6F894DEBF0FBECDBF0E94A3
S1132290A8068823E1F381E08F938FE08F938981EF
S11322A01F928F9381E293E09F938F9386E994E04A
S11322B09F938F930E94CC1486E994E00E946E064B
S11322C00FB6F894DEBF0FBECDBF22C08FEF01C0A2
S11322D080E00E94110A1CC081EC90E090938C0471
S11322E080938B0486E79FE090938E0480938D0403
S11322F082ED98E09093900480938F0480E00E9494
S1132300AC0718C08BE09AE00E943A140E946E0653
S11323108AE991E090938C0480938B0486EF9FE08C
S113232090938E0480938D0482ED98E090939004B2
S113233080938F0462960FB6F894DEBF0FBECDBFB4
S1132340DF91CF911F910F91FF90EF90DF90CF908D
S1132350BF90AF909F908F907F906F9008950E9450
S1132360E00B882309F448C0843541F018F4843420
S113237099F02AC0843681F0843731F510927504BF
S11323808AE08093740480E098E090938C048093B6
S11323908B0486E99EE008C081EC90E090938C0465
S11323A080938B0486E79FE090938E0480938D0442
S11323B082ED98E09093900480938F0489E49BE0ED
S11323C00E943A140C946E068BE09AE00E943A1430
S11323D00E946E0687EB98E090938C0480938B04A4
S11323E08FEA91E190938E0480938D0482ED98E0BE
S11323F09093900480938F040895CF93DF931F925A
S1132400CDB7DEB7CE0101960E94F3068111FACF53
S11324100E94E00B89838D30A1F028F4882371F0A9
S11324208A3079F004C0883571F0883761F087E923
S113243096E00E943A140E946E06198289818823CC
S113244039F38AE001C088E70F90DF91CF910895B6
S1132450EF92FF920F931F93CF93DF9300D01F92BD
S1132460CDB7DEB789E49BE00E943A140E946E0661
S11324708CE594E09F938F9389E694E09F938F93E8
S113248086E493E09F938F9386E994E09F938F93E0
S11324900E94CC1486E994E00E946E0681E00E94BA
S11324A0AC0788EE93E00E9452140FB6F894DEBF96
S11324B00FBECDBF0E946F148823E1F300E613E042
S11324C086E9E82E84E0F82E199939C083E594E072
S11324D00E943A140E946E0683B186701F928F93F5
S11324E01F930F93FF92EF920E94CC1486E994E01D
S11324F00E946E060E94FD110F900F900F900F9096
S11325000F900F90883701F71092750483E0809341
S1132510740485E596E090938C0480938B0483EA9D
S11325209CE090938E0480938D0482ED98E09093C8
S1132530900480938F0480E00E94AC0713C11A9921
S1132540C5CF60E081E00E94D00780E580934F040E
S11325500E94BF0990934E0480934D040E94A309E6
S113256020914D0430914E048217930739F089E28B
S113257094E00E943A140E946E0619C089EC93E01C
S11325800E943A140E946E060E94C50A8AE59BE0E6
S11325900E943A140E946E0687E996E00E943A145B
S11325A00E946E060E94FD11883709F4ADCF80E0C9
S11325B00E94110A80E694E09F938F9384E694E04E
S11325C09F938F9385E793E09F938F9380E594E0A7
S11325D09F938F930E94CC1420E534E04CE050E0AC
S11325E062EE70E080914F040E94740829E634E0A2
S11325F04BE050E06FEE70E080914F040E9474084D
S11326002CE534E044E050E06AEF70E080914F0440
S11326100E9474080E94BF0980934D0490934E0455
S113262099838A839E012F5F3F4F42E050E06EEF13
S113263070E080914F040E94740886E493E00E9445
S11326403A140E946E0680E00E94AC0788EB9BE07F
S11326500E9452140FB6F894DEBF0FBECDBF0E9485
S11326606F148823E1F381E00E94AC0761E081E00C
S11326700E94D00784E580934F0446E954E06CE05F
S113268070E082EE90E00E947109882309F446C04C
S113269060E574E086E994E00E94BC14892BF1F5AE
S11326A046E954E06BE070E08FEE90E00E9471091F
S11326B08823A1F169E674E086E994E00E94BC14E1
S11326C0892B61F546E954E064E070E08AEF90E01C
S11326D00E947109882311F16CE574E086E994E0A5
S11326E00E94BC14892BD1F40E94BF0990934E041C
S11326F080934D040E94A30920914D0430914E040F
S11327008217930759F48FE293E00E943A140E94CF
S11327106E060E94C50A8EE195E002C08DE093E04A
S11327200E943A140E946E0680E00E94AC0760E0AA
S113273080E00E94D0071092750483E080937404B3
S11327408EE296E090938C0480938B0483EA9CE061
S113275090938E0480938D0482ED98E0909390047E
S113276080938F040F900F900F90DF91CF911F9162
S11327700F91FF90EF90089589E49BE00E943A1432
S11327800E946E068EE09BE00E943A140E946E0640
S11327908FEA9AE00E943A140E946E060E94AE14D8
S11327A00E943A140E946E068AE59BE00E943A1445
S11327B00E946E060E94DD0790E0009779F481E89C
S11327C09AE00E943A140E946E0683E199E0909385
S11327D08C0480938B048FEF9BE01BC0029759F409
S11327E087E59AE00E943A140E946E0610929004C3
S11327F010928F04089586E29AE00E943A140E948F
S11328006E0687EB98E090938C0480938B048FEA98
S113281091E190938E0480938D0482ED98E09093DF
S1132820900480938F040895E0918F04F0919004B4
S1132830309709F009940895A8ECB4E020E030E062
S11328402617370741F0FC01E20FF31FE491ED93E3
S11328502F5F3F4FF5CF88EC94E008959C0180E012
S113286090E0F901E80FF91FE491EE2311F00196CD
S1132870F8CF0895CF93DF93EC010E942E14BC018E
S11328806F5F7F4FCE01DF91CF910C941C14109297
S1132890950410929404109293041092920410924E
S11328A09104089590939504809394041092930452
S11328B01092920410928500109284008AEF90E0A6
S11328C09093890080938800EFE6F0E08081826035
S11328D08083E1E8F0E080818360808308958091C3
S11328E09104882319F01092910481E008951F92B5
S11328F00F920FB60F9211242F933F938F939F93B0
S11329008091920490919304019690939304809300
S1132910920420919404309195048217930759F4FA
S11329201092810080916F008D7F80936F0081E011
S1132930809391040AC08091880090918900865008
S11329409F4F90938900809388009F918F913F912E
S11329502F910F900FBE0F901F9018958DE59BE05F
S11329600895FB01DC010D900020E9F71197019017
S11329700D920020E1F70895FB01DC018D91019097
S113298080190110D9F3990B0895FB01DC01019022
S11329900D920020E1F70895AEE0B0E0E2EDF4E13D
S11329A00C948D170D891E8986E08C831A83098304
S11329B08FEF9FE79E838D83AE01475E5F4F6F89E4
S11329C0788DCE0101960E94EE14EF81F885E00F18
S11329D0F11F10822E96E4E00C94A917ABE0B0E04E
S11329E0E4EFF4E10C947F176C017B018A01FC0194
S11329F017821682838181FFCCC1CE0101963C01EE
S1132A00F6019381F70193FD859193FF81917F01F5
S1132A10882309F4BAC1853239F493FD859193FF73
S1132A2081917F01853229F4B60190E00E94E51678
S1132A30E7CF912C212C312CFFE1F315D8F08B3208
S1132A4079F038F4803279F08332A1F4232D2061B7
S1132A501DC08D3261F0803369F4232D216016C0CE
S1132A60832D8260382EE32DE4603E2E2AC0F32DA0
S1132A70F8601DC037FC2DC020ED280F2A3040F02F
S1132A808E32B9F436FC81C1232D2064322E19C054
S1132A9036FE06C08AE0989E200D1124922E11C0A5
S1132AA0EAE02E9E200D1124222EF32DF0623F2EFB
S1132AB008C08C3621F4832D8068382E02C08836F5
S1132AC041F4F70193FD859193FF81917F01811179
S1132AD0B3CF982F9F7D9554933028F40C5F1F4FEC
S1132AE09FE399830DC0833631F0833771F08335CA
S1132AF009F059C021C0F801808189830E5F1F4FFE
S1132B0088248394912C530113C02801F2E04F0EC2
S1132B10511CF801A080B18036FE03C0692D70E01D
S1132B2002C06FEF7FEFC5010E94DA164C018201EB
S1132B30F32DFF773F2E16C0280122E0420E511CD0
S1132B40F801A080B18036FE03C0692D70E002C098
S1132B506FEF7FEFC5010E94CF164C01F32DF06893
S1132B603F2E820133FC1BC0822D90E0881699060B
S1132B70B0F4B60180E290E00E94E5162A94F4CF06
S1132B80F50137FC859137FE81915F01B60190E034
S1132B900E94E51621102A9421E0821A91088114DA
S1132BA0910471F7E8C0843611F0893641F5F801D3
S1132BB037FE07C060817181828193810C5F1F4F52
S1132BC008C060817181072E000C880B990B0E5F81
S1132BD01F4FF32DFF763F2E97FF09C090958095E8
S1132BE0709561957F4F8F4F9F4FF0683F2E2AE07D
S1132BF030E0A3010E942117882E861845C085372E
S1132C0031F4232D2F7EB22E2AE030E025C0932DFF
S1132C10997FB92E8F36C1F018F4883579F0B5C094
S1132C20803719F0883721F0B0C0E92FE061BE2E5B
S1132C30B4FE0DC0FB2DF460BF2E09C034FE0AC0E3
S1132C40292F2660B22E06C028E030E005C020E11E
S1132C5030E002C020E132E0F801B7FE07C0608135
S1132C607181828193810C5F1F4F06C060817181E5
S1132C7080E090E00E5F1F4FA3010E942117882E71
S1132C808618FB2DFF773F2E36FE0DC0232D2E7F99
S1132C90A22E891458F434FE0BC032FC09C0832DD3
S1132CA08E7EA82E05C0B82CA32C03C0B82C01C05E
S1132CB0B92CA4FE0FC0FE01E80DF11D8081803304
S1132CC021F49A2D997EA92E09C0A2FE06C0B394C0
S1132CD0B39404C08A2D867809F0B394A3FC11C080
S1132CE0A0FE06C0B21488F4280C922C9B180EC0C7
S1132CF0B21460F4B60180E290E00E94E516B39449
S1132D00F7CFB21418F42B1802C0982C212CA4FE6F
S1132D1010C0B60180E390E00E94E516A2FE17C041
S1132D20A1FC03C088E790E002C088E590E0B6010A
S1132D300CC08A2D867859F0A1FE02C08BE201C036
S1132D4080E2A7FC8DE2B60190E00E94E5168914AA
S1132D5038F4B60180E390E00E94E5169A94F7CF28
S1132D608A94F301E80DF11D8081B60190E00E9480
S1132D70E5168110F5CF222009F442CEB60180E297
S1132D8090E00E94E5162A94F6CFF6018681978199
S1132D9002C08FEF9FEF2B96E2E10C949B17FC018E
S1132DA00590615070400110D8F7809590958E0F72
S1132DB09F1F0895FC016150704001900110D8F7E5
S1132DC0809590958E0F9F1F08950F931F93CF9317
S1132DD0DF93FB01238121FD03C08FEF9FEF2CC004
S1132DE022FF16C04681578124813581421753073B
S1132DF044F4A081B1819D012F5F3F4F3183208333
S1132E008C93268137812F5F3F4F3783268314C0ED
S1132E108B01EC01FB010084F185E02D0995892BE0
S1132E20E1F6D80116968D919C9117970196179605
S1132E309C938E931697CE01DF91CF911F910F91A2
S1132E400895FA01AA27283051F1203181F1E8943C
S1132E506F936E7F6E5F7F4F8F4F9F4FAF4FB1E089
S1132E603ED0B4E03CD0670F781F891F9A1FA11D84
S1132E70680F791F8A1F911DA11D6A0F711D811D85
S1132E80911DA11D20D009F468943F912AE0269F4A
S1132E9011243019305D3193DEF6CF010895462FA9
S1132EA04770405D4193B3E00FD0C9F7F6CF462F8A
S1132EB04F70405D4A3318F0495D31FD40524193F3
S1132EC002D0A9F7EACFB4E0A695979587957795B0
S1132ED06795BA95C9F700976105710508959B0137
S1132EE0AC010A2E06945795479537952795BA95C0
S1132EF0C9F7620F731F841F951FA01D08952F9299
S1132F003F924F925F926F927F928F929F92AF9275
S1132F10BF92CF92DF92EF92FF920F931F93CF93C2
S1132F20DF93CDB7DEB7CA1BDB0B0FB6F894DEBF59
S1132F300FBECDBF09942A88398848885F846E847F
S1132F407D848C849B84AA84B984C884DF80EE80C9
S1132F50FD800C811B81AA81B981CE0FD11D0FB6D2
S1132F60F894DEBF0FBECDBFED010895F894FFCFF6
S1132F701E013501510167010A0A0D535953544585
S1132F804D204552524F520A0D25730A0D000A0D69
S1132F9053657269616C204672616D696E67204584
S1132FA072726F72000A0D53657269616C2044611C
S1132FB07461204F76657272756E204572726F72FD
S1132FC0000A0D53657269616C20506172697479ED
S1132FD0204572726F72000A0D53657269616C202C
S1132FE0545820627566206F766572666C6F772020
S1132FF04572726F7200574F204E6F2020203D2083
S113300025730A0D41737379204E6F203D2025737B
S11330102D30312D257320200025730A0A0D000D53
S1133020526573657474696E6720416C6C206F66B9
S113303020454550524F4D20746F20253032782062
S11330402D2025303364252520646F6E65000A0D1C
S11330504572617365204552522025780A0D00435C
S1133060616C63756C6174656420436865636B733C
S1133070756D203D20253034780A0D002D000A0A94
S11330800D25732053656C65637465640A0A0D002D
S11330900A0A426F6172642049443A2025732D253F
S11330A0732069732073656C656374656420666F4F
S11330B0722070726F6772616D6D696E670A0A0DB6
S11330C0003635313900363736380020253031782E
S11330D020202020253031782020202025303178F0
S11330E0202020202530317820202020202D20442D
S11330F06174612052656164203D2025303178255A
S113310030317825303178253031780D000A0A0DB8
S11331104845582044554D500A0D0A0041646472D4
S1133120203D20253034783A2000253032782000A4
S11331300A0D43616C63756C617465642043686552
S1133140636B73756D203D20253034780A0D5374FC
S11331506F72656420436865636B73756D2020200E
S113316020203D20253034780A0D000A0D44617476
S1133170612025303278207772697474656E20740A
S11331806F206164647265737320253034780A0D8E
S1133190000A0D4461746120253032782072656123
S11331A0642066726F6D2061646472657373202598
S11331B03034780A0D0050726F6772616D6D696EFC
S11331C06720426F6172642025732D25730A0D00F8
S11331D048656164657220506F7274203D2025300B
S11331E032780A0D0025732D30312D25730000012E
S10B31F00204080F0E0D0B0789
S9030000FC
