:100000000C944D0D0C946A0D0C946A0D0C946A0DB1
:100010000C946A0D0C946A0D0C946A0D0C946A0D84
:100020000C946A0D0C946A0D0C946A0D0C9429239F
:100030000C946A0D0C946A0D0C946A0D0C946A0D64
:100040000C946A0D0C946A0D0C94430E0C94800D64
:100050000C946A0D0C946A0D0C946A0D0C946A0D44
:100060000C946A0D0C946A0D3237303436330A0D15
:100070004E6574204964656E74696669636174696C
:100080006F6E20546573740A0D3D3D3D3D3D3D3D11
:100090003D3D3D3D3D3D3D3D3D3D3D3D3D3D3D3D90
:1000A0000A0D42697433203D2047534E332C2042C1
:1000B000697432203D2047534E322C2042697431FE
:1000C000203D2047534E312C2042697430203D2082
:1000D00047534E300A0A0D4F555420202020494ED8
:1000E0000A0D000A0A0A0A0D506F727420457870D2
:1000F000616E6465722044656275670A0D3D3D3D21
:100100003D3D3D3D3D3D3D3D3D3D3D3D3D3D3D3D1F
:100110000A0D50726573732027582720746F20458D
:100120007869740A0A0D47534E332047534E3220E4
:1001300047534E312047534E300A0D000A0A0A0A2F
:100140000D4445425547204D454E550A0D3D3D3D18
:100150003D3D3D3D3D3D3D0A0D0A0D53656C6563DA
:100160007420454550524F4D20416464726573734D
:100170003A0A0D31202D20307835303A204E657402
:1001800020436F6E6E6563746F722F4E65742041ED
:100190006461707465720A0D32202D20307835321A
:1001A0003A2041444320426F74746F6D2042640AC8
:1001B0000D33202D20307835343A204E657420459B
:1001C0007874656E73696F6E0A0D34202D20307857
:1001D00035363A2041444320546F702042640A0D62
:1001E00035202D20307834313A20506F72742045FC
:1001F0007870616E6465722028363736382D30315C
:10020000204F6E6C79290A0D0A0D507265737320A8
:100210005820746F20657869740A0A0D000A0A0A6A
:100220000A0D454550524F4D2044656275670A0DD1
:100230003D3D3D3D3D3D3D3D3D3D3D3D0A0A0D447D
:10024000202D20446973706C61792053746F72653E
:10025000642044657461696C730A0D48202D204840
:1002600065782044756D700A0D57202D20577269EE
:1002700074650A0D52202D20526573657420454522
:1002800050524F4D20746F2030300A0D53202D20D6
:1002900053657420454550524F4D20746F2046469B
:1002A0000A0D43202D20446973706C6179204368E6
:1002B00065636B73756D730A0D50202D2050726F3E
:1002C0006772616D20426F61726420446574616978
:1002D0006C730A0D58202D2052657475726E20744F
:1002E0006F204465627567204D656E750A0A0D00C2
:1002F0000A0A0D2021212120506C6561736520526E
:10030000652D456E746572207573696E67206E7514
:100310006D6572696320636861726163746572738D
:10032000206F6E6C7920282730272D273927292028
:100330002121210A0D000A0A0D2021212120506CC3
:10034000656173652052652D456E74657220757305
:10035000696E6720416C7068612D6E756D6572699C
:10036000632063686172616374657273206F6E6C81
:100370007920282741272D275A272C202730272D61
:1003800027392729202121210A0D000A0A0D2021C1
:10039000212120454550524F4D2052454144204592
:1003A00052524F52202121210A0A0D000A0D4461A8
:1003B000746120726574656E74696F6E2043686540
:1003C000636B204641494C454421210A0D000A0D2A
:1003D0004461746120726574656E74696F6E204F3C
:1003E0004B0A0A0D000A0D436865636B696E67204E
:1003F0006461746120726574656E74696F6E0A0D54
:10040000506F776572696E67204F464620666F723F
:100410002033207365636F6E64730A0A0D005043C6
:1004200042204173737920532F4E203D20005043CA
:1004300042204173737920502F4E203D200050728E
:100440006F6475637420532F4E20203D200050723E
:100450006F6475637420502F4E20203D2000556E30
:10046000646566696E6564000A0A0D2121212057C2
:1004700041524E494E47202121210A0D43616C63B0
:10048000756C6174656420616E642053746F72656D
:100490006420436865636B73756D204D6174636898
:1004A0000A0A0D000A0A0D21212120436865636BA9
:1004B00073756D206D69736D6174636820212121EE
:1004C0000A0D53657474696E672075702045455038
:1004D000524F4D0A0D000A0A0D2121212043686563
:1004E000636B204865616465722069732066697476
:1004F00074656420636F72726563746C7920212166
:10050000210A0D50726573732027782720746F209D
:10051000454E544552206B657920746F2072657486
:1005200072790A0D000A0A0D212121204E6F7420D4
:10053000456E6F7567682063686172616374657288
:100540007320666F7220576F726B73204F726465F1
:1005500072202D20312052657175697265642021E9
:1005600021210A0D506C6561736520726574727982
:100570000A0D000A0A0D212121204E6F20636861B7
:100580007261637465727320656E74657265642050
:100590002D206D6178696D756D206F662031322078
:1005A0005265717569726564202121210A0D506CB4
:1005B000656173652072657472790A0D000A0A0D0F
:1005C000212121204E6F7420456E6F75676820636E
:1005D00068617261637465727320656E74657265BB
:1005E00064202D2033205265717569726564202165
:1005F00021210A0D506C65617365207265747279F2
:100600000A0D000A0A0D212121204E6F7420456E2B
:100610006F756768206368617261637465727320C7
:10062000656E7465726564202D2034205265717585
:1006300069726564202121210A0D506C6561736522
:100640002072657472790A0D002121212121212156
:100650002121212121212121212121210A0D2121B5
:10066000212054455354204641494C4544202121E2
:10067000210A0D2121212121212121212121212195
:100680002121212121210A0A0D52656D6F766520F5
:10069000426F61726420616E642071756172616E77
:1006A00074696E65206F7220726574657374206260
:1006B0006F6172640A0A0D000A0A0D2A2A2A2A2A80
:1006C0002A2A2A2A2A2A2A2A2A2A2A2A2A2A0A0DC7
:1006D0002A2A2A205445535420504153534544203C
:1006E0002A2A2A0A0D2A2A2A2A2A2A2A2A2A2A2AA7
:1006F0002A2A2A2A2A2A2A2A0A0A0D52656D6F7680
:100700006520426F61726420616E64206170706C5C
:100710007920544553544544204D41524B0A0A0D0B
:10072000000A0D212121204E4554204944454E54B4
:10073000494649434154494F4E205445535420465D
:1007400041494C4544202121210A0D5072657373A3
:100750002027582720746F2065786974206F7220D5
:10076000454E544552206B657920746F2052657454
:1007700072790A0D000A0D537563636573736675AC
:100780006C6C7920436865636B656420616E6420DE
:1007900050726F6772616D6D656420454550524FB0
:1007A0004D21210A0D000A0A0A0D4175746F6D6111
:1007B000746963616C6C7920636865636B696E67EB
:1007C00020616E642050726F6772616D6D696E6733
:1007D00020454550524F4D0A0D000A0A0A0D436F3D
:1007E0006E6E656374207468652041646170746521
:1007F0007220626F61726420556E64657220546568
:10080000737420746F20746865204A69670A0D50FC
:10081000726573732027582720746F206578697478
:10082000206F7220454E544552206B657920746FBD
:100830002070726F636565640A0D000A0A0A0D4331
:100840006F6E6E6563742074686520626F61726498
:1008500020556E646572205465737420746F207423
:100860006865204A69670A0D454E53555245204632
:100870004C59494E47204C45414420495320434F51
:100880004E4E454354454420746F204A554D5045C3
:10089000520A0A0D50726573732027582720746F0F
:1008A0002065786974206F7220454E544552206B44
:1008B000657920746F2070726F636565640A0D003E
:1008C0000A0A0A0D456E74657220746865204E65CB
:1008D000787420626F617264277320536572696156
:1008E0006C204E6F0A0D000A0A0A0D456E7465727F
:1008F0002074686520626F6172642773205365728B
:1009000069616C204E6F2E0A0D2833204368617296
:1009100061637465727329206F72202758272074D1
:100920006F20657869740A0D005072657373202713
:10093000582720746F2065786974206F7220454EA7
:10094000544552206B657920746F2070726F636517
:1009500065640A0A0A0D000A0A0A0D436865636B9A
:100960002074686520666F6C6C6F77696E672064B1
:10097000657461696C732061726520636F72726562
:1009800063740A0A0D000A0A0A0D456E7465722026
:1009900074686520626F61726427732041737365A8
:1009A0006D626C79205265766973696F6E204E6F47
:1009B000206F6620746865206261746368206F66CA
:1009C00020626F6172647320556E64657220546595
:1009D00073740A0D28332043686172616374657211
:1009E00073290A0D000A0A0A0D456E746572207497
:1009F000686520576F726B73204F72646572204E6A
:100A00006F2028574F29206F662074686520626127
:100A1000746368206F6620626F6172647320556E24
:100A200064657220546573740A0D284D4158203D49
:100A30002031302043686172616374657273290AE2
:100A40000D000A0A0A0D363736382D3031204E6532
:100A50007420416461707465722050434220736554
:100A60006C65637465640A0D000A0A0A0D36353137
:100A7000392D3031204E657420436F6E6E6563747E
:100A80006F72205043422073656C65637465640A1D
:100A90000D000A0A0D53656C65637420426F617224
:100AA0006420556E64657220546573742028425525
:100AB00054290A0D3D3D3D3D3D3D3D3D3D3D3D3DC6
:100AC0003D3D3D3D3D3D3D3D3D3D3D3D3D3D3D3D56
:100AD0003D0A0D31202D20363531392D3031202D74
:100AE000204E657420436F6E6E6563746F72205084
:100AF00043420A0D32202D20363736382D30312032
:100B00002D204E65742041646170746572205043DD
:100B1000420A0D58202D204578697420746F2053A7
:100B200074617274204D656E750A0D3C454E5445D6
:100B3000523E2D20546F2072656672657368207373
:100B4000637265656E0A0A0D000A0A0D53746172BC
:100B500074204D454E550A0D3D3D3D3D3D3D3D3DCD
:100B60003D3D0A0D54202D20426F61726420746552
:100B70007374730A0D44202D204465627567204DFF
:100B8000656E750A0D56202D2056696577205374C1
:100B90006F72656420496E666F0A0D3C454E544580
:100BA000523E2D20546F2072656672657368207303
:100BB000637265656E0A0A0D000A0A0A0D21212179
:100BC000204E6F20417373656D626C7920446574AB
:100BD0006563746564202121210A0A0D000A0A0A4E
:100BE0000D426F6172642054797065206973204EE4
:100BF000455420455854454E4445520A0A0D000AB2
:100C00000A0A0D426F61726420547970652069731D
:100C1000204E455420434F4E4E4543544F520A0AEE
:100C20000D000A0A0A0D417373656D626C792054D8
:100C3000797065206973204E455420434F4E4E45D0
:100C400043544F522F414441505445520A0D000A1B
:100C50000A0A0D417373656D626C79205479706571
:100C6000206973204E455420455854454E44455202
:100C70000A0A0D000A0A0A0D485950455254524FAB
:100C80004E4943532041646170746572204E4F5445
:100C9000206669747465640A0D4669742061646134
:100CA0007074657220616E64207468656E20726570
:100CB0007472790A0A0D002121212121212121218B
:100CC000212121212121212121210A0D2121212040
:100CD00054455354204641494C4544202121210A82
:100CE0000D21212121212121212121212121212108
:100CF000212121210A0A0D52656D6F76652041730D
:100D000073656D626C7920616E64207175617261CA
:100D10006E74696E65206F72207265746573740AF3
:100D20000A0D50726573732027454E544552272093
:100D3000746F2070726F6772616D20612046696EFA
:100D4000616C20617373656D626C79206F662074CD
:100D500068652073616D6520747970650A0D507245
:100D60006573732027582720746F20657869742075
:100D7000746F207374617274206D656E750A0D0056
:100D80000A0D212121204E4554204944454E544905
:100D90004649434154494F4E2054455354204641FF
:100DA000494C4544202121210A0D5072657373205E
:100DB00027582720746F2065786974206F7220454A
:100DC0004E544552206B657920746F2052657472C1
:100DD000790A0D000A0A0D2A2A2A2046696E616CDA
:100DE00020417373656D626C7920737563636573FD
:100DF0007366756C6C792050726F6772616D6D658A
:100E000064202A2A2A0A0A0D23232320436F6E6EA8
:100E100065637420746865204C656761637920415F
:100E200064617074657220656E64206F66207468FA
:100E3000652046696E616C20417373656D626C79E3
:100E400020746F207468652054657374204A696744
:100E5000202323230A0D507265737320616E79205D
:100E60006B6579207768656E2072656164790A0D1B
:100E7000000A0A0D23232320436F6E6E65637420DE
:100E80007468652046696E616C20417373656D629C
:100E90006C7920746F207468652054657374204ADF
:100EA0006967202323230A0A0D000A0A0A0D21215B
:100EB00021204641494C454420544F2050524F4731
:100EC00052414D2044455441494C53202121210A8F
:100ED0000D436865636B3A0A0D2020202A5468652B
:100EE000207468652066696E616C20617373656D3E
:100EF000626C79207479706520697320636F7272F7
:100F00006563740A0D2020202A546865204173739C
:100F1000656D626C7920697320636F7272656374AA
:100F20006C792066697474656420746F20746865D8
:100F30002054657374204A69670A0A0D50726573FC
:100F4000732027454E5445522720746F2052455434
:100F5000525920206F662027582720746F2065780B
:100F6000697420746F207374617274206D656E757E
:100F70000A0D000A0A0A0D2A2A2A2A2A2A2A2A2AB5
:100F80002A2A2A2A2A2A2A2A2A2A2A2A2A2A2A2AC1
:100F90002A2A2A2A2A2A2A2A2A2A2A2A2A2A2A2AB1
:100FA0002A2A2A2A2A0A0D2A2A2A2046696E616CD0
:100FB00020417373656D626C79207375636365732B
:100FC0007366756C6C792050726F6772616D6D65B8
:100FD00064202A2A2A0A0D2A2A2A2A2A2A2A2A2A7E
:100FE0002A2A2A2A2A2A2A2A2A2A2A2A2A2A2A2A61
:100FF0002A2A2A2A2A2A2A2A2A2A2A2A2A2A2A2A51
:101000002A2A2A2A2A0A0D436865636B20746865B8
:101010002064657461696C2073686F776E206F6EF1
:10102000207468652073637265656E206172652047
:10103000636F72726563740A0D52656D6F76652019
:1010400054657374656420417373656D626C7920B7
:10105000616E6420636F6D706C6574652074686583
:10106000206E65636573736172792050617065727B
:10107000776F726B0A0A0D50726573732027454EA5
:101080005445522720746F2070726F6772616D2013
:10109000612046696E616C20617373656D626C7965
:1010A000206F66207468652073616D6520747970A7
:1010B000650A0D50726573732027582720746F20BE
:1010C0006578697420746F207374617274206D6523
:1010D0006E750A0D000A0A0A0D2A2A2A2A2A2A2AC5
:1010E0002A2A2A2A2A2A2A2A2A2A2A2A2A2A2A2A60
:1010F0002A2A2A2A2A2A2A2A2A2A2A2A2A2A2A2A50
:101100002A2A2A2A2A2A2A2A2A2A2A2A2A2A2A2A3F
:101110002A2A0A0D2A2A2A2046696E616C20417308
:1011200073656D626C79207375636365737366753F
:101130006C6C792050726F6772616D6D65642061AF
:101140006E6420546573746564202A2A2A0A0D2A65
:101150002A2A2A2A2A2A2A2A2A2A2A2A2A2A2A2AEF
:101160002A2A2A2A2A2A2A2A2A2A2A2A2A2A2A2ADF
:101170002A2A2A2A2A2A2A2A2A2A2A2A2A2A2A2ACF
:101180002A2A2A2A2A2A2A2A0A0A0D436865636B10
:10119000207468652064657461696C2073686F777A
:1011A0006E2061626F76652061726520636F727276
:1011B0006563740A0D52656D6F76652054657374AE
:1011C000656420417373656D626C7920616E642083
:1011D000636F6D706C65746520746865206E6563FF
:1011E000657373617279205061706572776F726B8D
:1011F0000A0A0D50726573732027454E54455227D5
:1012000020746F2070726F6772616D206120466973
:101210006E616C20617373656D626C79206F6620FE
:101220007468652073616D6520747970650A0D506E
:10123000726573732027582720746F20657869744E
:1012400020746F207374617274206D656E750A0D61
:101250000031303A20323536204368616E6E656C5D
:10126000204D6963726F63656C2047656F646573B9
:1012700069632053656E736F72204E6574732031FD
:101280002E3000393A20313238204368616E6E6565
:101290006C204D6963726F63656C2047656F646590
:1012A0007369632053656E736F72204E657473208B
:1012B000312E3000373A203332204368616E6E653C
:1012C0006C204D6963726F63656C2047656F646560
:1012D0007369632053656E736F72204E657473205B
:1012E000312E3000363A20323536204368616E6E3A
:1012F000656C20487964726F63656C2047656F6424
:10130000657369632053656E736F72204E657473E5
:1013100020312E3000353A20313238204368616E5A
:101320006E656C20487964726F63656C2047656FE9
:1013300064657369632053656E736F72204E6574C4
:101340007320312E3000343A203634204368616EE9
:101350006E656C20487964726F63656C2047656FB9
:1013600064657369632053656E736F72204E657494
:101370007320312E3000333A203332204368616EBF
:101380006E656C20487964726F63656C2047656F89
:1013900064657369632053656E736F72204E657464
:1013A0007320312E3000323A2032353620436861C6
:1013B0006E6E656C2047656F646573696320536565
:1013C0006E736F72204E65747320322E7800313A3E
:1013D00020313238204368616E6E656C2047656F3E
:1013E00064657369632053656E736F72204E657414
:1013F0007320322E7800303A203634204368616EF4
:101400006E656C2047656F64657369632053656E14
:10141000736F72204E65747320322E78000A0A0AA8
:101420000D53656C65637420746865204E65742087
:1014300053697A652049442066726F6D207468652F
:1014400020666F6C6C6F77696E67206C6973740AC5
:101450000A0D202020204944202020202020202068
:10146000202020202020202044455343524950541E
:10147000494F4E0A0D2D2D2D2D2D2D2D2D2D2D2D80
:101480002D2D2D2D2D2D2D2D2D2D2D2D2D2D2D2D8C
:101490002D2D2D2D2D2D2D2D2D2D2D2D2D2D2D2D7C
:1014A0002D2D2D2D2D2D2D2D2D2D0A0D30202D20C6
:1014B000302020363420204368616E6E656C2047F2
:1014C000656F64657369632053656E736F72204E38
:1014D00065747320322E780A0D31202D20312020A2
:1014E000313238204368616E6E656C2047656F64E9
:1014F000657369632053656E736F72204E657473F4
:1015000020322E780A0D32202D203220203235361E
:10151000204368616E6E656C2047656F6465736912
:10152000632053656E736F72204E65747320322E84
:10153000780A0D33202D20332020333220204368B9
:10154000616E6E656C20487964726F63656C2047CC
:10155000656F64657369632053656E736F72204EA7
:1015600065747320312E300A0D34202D2034202054
:10157000363420204368616E6E656C204879647251
:101580006F63656C2047656F64657369632053659D
:101590006E736F72204E65747320312E300A0D35D4
:1015A000202D20352020313238204368616E6E6551
:1015B0006C20487964726F63656C2047656F646561
:1015C0007369632053656E736F72204E6574732068
:1015D000312E300A0D36202D20362020323536208F
:1015E0004368616E6E656C20487964726F63656CE8
:1015F0002047656F64657369632053656E736F720E
:10160000204E65747320312E300A0D37202D20377F
:101610002020333220204368616E6E656C204D6956
:1016200063726F63656C2047656F646573696320DF
:1016300053656E736F72204E65747320312E300ABD
:101640000D38202D20382020363420204368616E4C
:101650006E656C204D6963726F63656C2047656FC2
:1016600064657369632053656E736F72204E657491
:101670007320312E300A0D39202D203920203132AF
:1016800038204368616E6E656C204D6963726F63CC
:10169000656C2047656F64657369632053656E737D
:1016A0006F72204E65747320312E300A0D61202D2B
:1016B00020313020323536204368616E6E656C20F3
:1016C0004D6963726F63656C2047656F646573690C
:1016D000632053656E736F72204E65747320312ED4
:1016E000300A0D000A0A0A0D456E7465722074688E
:1016F000652053657269616C206E6F2E206F6620C5
:101700007468652046696E616C20417373656D6213
:101710006C7920756E64657220746573740A0D2887
:101720004D4158203D20313220436861726163741D
:10173000657273290A0D004E4554204144415054AE
:10174000455220415353454D424C59004E4554207B
:10175000455854454E53494F4E20415353454D42F1
:101760004C59004E455420415353454D424C59006D
:101770000A0A0A0D456E74657220746865205072FD
:101780006F647563742773205265766973696F6E31
:10179000202D203320436861726163746572732069
:1017A00028652E672E20303041290A0D000A0A0DC7
:1017B000456E746572207468652050726F6475633D
:1017C000742050617274204E756D626572202D20F8
:1017D00034204E756D657269632063686172616360
:1017E000746572730A0D000A0A0D21212120494EE9
:1017F00056414C494420454E545259202D20506C9E
:10180000656173652052657472790A0D000A0A0DCC
:1018100046696E616C2054657374205374617274F0
:10182000204D656E750A0D3D3D3D3D3D3D3D3D3DC7
:101830003D3D3D3D3D3D3D3D3D3D3D3D0A0A0D5358
:10184000656C656374207468652050726F6475639D
:101850007420547970650A0D31202D204E45542096
:10186000417373656D626C790A0D32202D204E45EF
:101870005420457874656E73696F6E0A0D33202DA0
:10188000204E455420416461707465720A0A0D56F9
:10189000202D20566965772053746F726564204946
:1018A0006E666F0A0D000A0D43757272656E7420C4
:1018B000454550524F4D20436F6E74656E74730AE8
:1018C0000D3D3D3D3D3D3D3D3D3D3D3D3D3D3D3D78
:1018D0003D3D3D3D3D3D3D3D0A0A0D004E657420B8
:1018E0004164617074657220504342004E657420FB
:1018F000436F6E6E6563746F7220504342002043E5
:101900006F6D6D616E64206E6F7420696D706C65B3
:101910006D656E7465640A0D000A0A426F61726437
:101920002054657374204669726D776172650A0D83
:101930002D2D2D2D2D2D2D2D2D2D2D2D2D2D2D2DD7
:101940002D2D2D0A0A0D000A0A0D21212120494EB4
:1019500056414C49442054455354204A4947204954
:1019600044204445544543544544202121210A0D37
:10197000000A0A46696E616C2054657374204669DA
:10198000726D776172650A0D2D2D2D2D2D2D2D2D4A
:101990002D2D2D2D2D2D2D2D2D2D2D0A0D002A2AED
:1019A0002A2A2A2A2A2A2A2A2A2A2A2A2A2A2A2A97
:1019B0002A2A2A2A2A2A2A2A2A2A2A2A2A2A2A2A87
:1019C0002A2A2A2A2A2A2A2A2A2A2A2A0A0D7C206C
:1019D000436F7079726967687428632920323032E6
:1019E0003620546865204D61677374696D20436FBC
:1019F0006D70616E79204C74642E207C200A0D7C01
:101A000020454547204E657420436F6E6E656374B4
:101A10006F722F41646170746572202D205465735C
:101A200074204669726D7761726520207C0A0D2AE8
:101A30002A2A2A2A2A2A2A2A2A2A2A2A2A2A2A2A06
:101A40002A2A2A2A2A2A2A2A2A2A2A2A2A2A2A2AF6
:101A50002A2A2A2A2A2A2A2A2A2A2A2A2A0A0A0D43
:101A60004669726D776172652049443A20000A0A1E
:101A70000A0A0A0A0A0A0A0A0A0A0A0A0A0D000ACD
:101A80000D00544A3030303030365F5357202D200F
:101A90005665722042312E38000011241FBECFEF50
:101AA000D8E0DEBFCDBF14E0A0E0B1E0E4EDFCE49F
:101AB00002C005900D92AA3BB107D9F726E0AAEB28
:101AC000B4E001C01D92A13DB207E1F70E94FD11F3
:101AD0000C9468260C94000010927B0510927A05F5
:101AE00010927905109278051092C50087E68093D0
:101AF000C40086E08093C20088E98093C100089505
:101B00001F920F920FB60F9211248F939F93EF9312
:101B1000FF939091790580917805981306C0809184
:101B2000C1008F7D8093C10011C0E0917805F0E085
:101B3000EC53FB4F80818093C600809178058F5FC6
:101B400080937805843B10F010927805FF91EF9117
:101B50009F918F910F900FBE0F901F901895F89442
:101B60002091790530E0809178057894482F50E0F5
:101B70002417350710F42C543F4F8D54821B0895C1
:101B80001F93CF93DF93D82F192FC62F0E94AF0D2D
:101B90008C17E0F3809179052D2FED2FF12F9E2FDB
:101BA000921B9C1758F49191A82FB0E0AC53BB4FF7
:101BB0009C938F5F843B98F380E0F1CFF8948093FF
:101BC00079058091C10085FD16C0E0917805F0E0AF
:101BD000EC53FB4F80818093C600809178058F5F26
:101BE00080937805843B10F0109278058091C100B5
:101BF00080628093C100789484E0DF91CF911F913F
:101C00000895CF93DF93FC0101900020E9F731970D
:101C1000EF01C81BD90B6C2F0E94C00D843011F44A
:101C20008C2F01C080E0DF91CF910895CF93C82F12
:101C30001092C1000E946C0DEC2FF0E0EE0FFF1F20
:101C4000E050FF4F81818F9380818F9383E191E0FA
:101C50009F938F938AEE95E09F938F930E947E23AC
:101C60000F900F900F900F900F900F908AEE95E0CD
:101C7000CF910C94010E209179059091780581E027
:101C8000291380E008951F920F920FB60F9211242E
:101C90002F933F934F935F936F937F938F939F9374
:101CA000AF93BF93EF93FF939091C0008091C600D4
:101CB000E0917B05F0E0E654FB4F808380917B054B
:101CC0008F5F80937B058A3010F010927B05892FFF
:101CD0008C7159F094FF02C080E005C093FF02C0F0
:101CE00081E001C082E00E94160EFF91EF91BF914A
:101CF000AF919F918F917F916F915F914F913F91A4
:101D00002F910F900FBE0F901F90189530917B056B
:101D100020917A053217A9F0F894E0917A05F0E065
:101D2000E654FB4F2081FC01208380917A058F5F70
:101D300080937A058A3010F010927A05789484E0C6
:101D4000089580E00895CF93DF931F92CDB7DEB75B
:101D5000CE0101960E94860E21E030E0811102C082
:101D600020E030E0C9010F90DF91CF910895AF924C
:101D7000BF92CF92DF92EF92FF921F93CF93DF93A8
:101D8000CDB7DEB761970FB6F894DEBF0FBECDBFFB
:101D9000182F7A0169016F3F710511F008F01F5F7C
:101DA000698388EEA82E83E0B82EAE014F5F5F4FA7
:101DB00061E0812F0E944111883251F081E0A81A20
:101DC000B10899F78BE893E00E94411380E01BC0B3
:101DD000AE014E5F5F4F6E2D812F0E94751120E086
:101DE000822F90E08E159F0568F4F601E80FF91F29
:101DF000A2E0B0E0AC0FBD1FA80FB91F8C9180838B
:101E00002F5FEECF81E061960FB6F894DEBF0FBE74
:101E1000CDBFDF91CF911F91FF90EF90DF90CF90DA
:101E2000BF90AF9008956F927F928F929F92AF92E2
:101E3000BF92CF92DF92EF92FF920F931F93CF93B7
:101E4000DF93CDB7DEB761970FB6F894DEBF0FBE54
:101E5000CDBF882E962E6A017901062F172F772481
:101E60007394780E202F802F891990E08C159D0592
:101E7000A0F50F3F110519F010F0672C01C0682C78
:101E80002983F701E80FF91F80818A83AE014F5F34
:101E90005F4F61E0862D0E944111AE014F5F5F4FA1
:101EA00062E0862D0E944111AA24AA94B12CAE01B1
:101EB0004F5F5F4F61E0862D0E944111883219F417
:101EC0000F5F1F4FCFCF81E0A81AB10881F781E9DA
:101ED00091E00E94010E80E001C081E061960FB6A2
:101EE000F894DEBF0FBECDBFDF91CF911F910F9150
:101EF000FF90EF90DF90CF90BF90AF909F908F902A
:101F00007F906F9008956F927F928F929F92AF9281
:101F1000BF92CF92DF92EF92FF920F931F93CF93D6
:101F2000DF931F92CDB7DEB7782E662E698300E06F
:101F300010E0E12CF12C92EBC92E91E0D92E2AEE83
:101F4000A22E25E0B22E4801892C992486940E9465
:101F50003B0E8823E1F3C40101969F938F938981FF
:101F60001F928F93DF92CF92BF92AF920E947E23F7
:101F70008AEE95E00E94010E9E012F5F3F4F41E0E7
:101F800050E0B701872D0E94130F9E012F5F3F4F36
:101F900041E050E0B701872D0E94B70E0FB6F894CC
:101FA000DEBF0FBECDBF89816816E1F00E943B0EF7
:101FB0008823E1F389811F928F9381EE91E09F93B3
:101FC0008F938AEE95E09F938F930E947E238AEEF3
:101FD00095E00E94010E0F900F900F900F900F90C0
:101FE0000F900AC09FEFE91AF90A0C591F4F01150B
:101FF00088EC180709F0A7CF0E943B0E8823E1F375
:102000000F90DF91CF911F910F91FF90EF90DF9094
:10201000CF90BF90AF909F908F907F906F900895DA
:102020005F926F927F928F929F92AF92BF92CF9268
:10203000DF92EF92FF920F931F93CF93DF93CDB771
:10204000DEB762970FB6F894DEBF0FBECDBF582E35
:1020500082EF91E00E94010E198200E010E091E011
:10206000692E92E0792E2AEEC22E25E0D22E3FE094
:10207000A32E32E0B32E1F930F937F926F92DF92C5
:10208000CF920E947E238AEE95E00E94010E9E016F
:102090002F5F3F4F40E150E0B801852D0E94B70E01
:1020A000CE0101964C018AEEE82E85E0F82E0F90C5
:1020B0000F900F900F900F900F90F40181914F01AE
:1020C0001F928F93BF92AF92FF92EF920E947E2356
:1020D000F3E0EF0EF11C0F900F900F900F900F9008
:1020E0000F908AE1E81686E0F80639F70E943B0E69
:1020F0008823E1F38AEE95E00E94010E8BE292E0E4
:102100000E94010E005F1F4F011592E0190709F0B0
:10211000B2CF62960FB6F894DEBF0FBECDBFDF918F
:10212000CF911F910F91FF90EF90DF90CF90BF90D4
:10213000AF909F908F907F906F905F900895CF9316
:10214000DF9300D01F92CDB7DEB79E012F5F3F4FC8
:1021500042E050E06EEF70E00E94B70E89819A81F4
:102160009827892798270F900F900F90DF91CF9194
:1021700008958F929F92BF92CF92DF92EF92FF923B
:102180000F931F93CF93DF93CDB7DEB762970FB650
:10219000F894DEBF0FBECDBFB82E198200E010E06C
:1021A000E12CF12C4E0141E1840E911C9E012F5F28
:1021B0003F4F40E150E0B7018B2D0E94B70EFE016A
:1021C00031968191080F111D8E169F06D1F750E1AF
:1021D000E50EF11CE11482E0F80641F78B2D0E9418
:1021E0009F10292FA801481B5109CA01C22ED12CCA
:1021F0008C199D098095909562960FB6F894DEBF74
:102200000FBECDBFDF91CF911F910F91FF90EF9047
:10221000DF90CF90BF909F908F900895CF93DF93E2
:1022200000D01F92CDB7DEB779836A839E012F5FFE
:102230003F4F42E050E06EEF70E00E94130F0F90AE
:102240000F900F90DF91CF910895CF93DF931F925E
:10225000CDB7DEB78FEF9FEF2091BC002983298196
:1022600027FD02C00197C1F70F90DF91CF9108952C
:102270008CE08093B800ECEBF0E080818460808398
:102280000895FF920F931F93CF93DF93C82F162FBC
:10229000F42E052F84EA8093BC000E942511CC0FF8
:1022A000C093BB0084E88093BC000E942511CF2D11
:1022B000D02FCE01810F911D8C0184E8F82EC0171C
:1022C000D10741F089918093BB00F092BC000E943D
:1022D0002511F5CF8091B90094E99093BC00DF916E
:1022E000CF911F910F91FF900895AF92BF92CF921F
:1022F000DF92EF92FF920F931F93CF93DF93C82F3C
:10230000062FF42E152F84EA8093BC000E9425111D
:10231000CC0FC160C093BB0084E88093BC000E94D6
:102320002511CF2DD12F10E0E12CF12C680181E097
:10233000C81AD10884ECB82E94E8A92EE016F1064C
:1023400091F0CE14DF0419F4A092BC0002C0B09248
:10235000BC000E9425118091BB0088838FEFE81A92
:10236000F80A2196EBCF84E98093BC00DF91CF91EE
:102370001F910F91FF90EF90DF90CF90BF90AF90A3
:1023800008951F93CF93DF931F92CDB7DEB7182F19
:102390001982AE014F5F5F4F61E00E944111AE01B3
:1023A0004F5F5F4F61E0812F0E94411191E08832C1
:1023B00009F090E0892F0F90DF91CF911F91089540
:1023C000813011F4289A0895289808958CE08BB9EB
:1023D0008AB1806F8AB98BB18F708BB9389A8AB104
:1023E000837F8AB94098409A4098409A4098409A92
:1023F0004098209A80E00C94E0110E94E6110E941F
:102400006C0D0E9438110E94F0220E9464130E94F9
:102410003913FDCF811102C0229805C0229A613084
:1024200011F42A9A01C02A9883B184700895CF9339
:10243000DF93C9B1C470D4E08AE090E00E94FB222F
:102440000E941A238823E1F389B18470C81307C05E
:10245000D15091F781E0C11103C080E001C082E05A
:10246000DF91CF9108952BB12F7030E1839FC00190
:102470001124822B8BB9089589B183FB882780F9B9
:1024800091E08927089590ED980F9A3058F0982F91
:102490009F7D91549A3130F091E08D3209F090E0B7
:1024A000892F089581E00895CF92DF92EF92FF92F5
:1024B0000F931F93CF937B016A019A01AB01BC017B
:1024C00080918B050E94B70EC0E08C2F90E08601B2
:1024D000080F191FF8018E159F0570F48081811176
:1024E00002C0C1110AC00E944312811103C0F80149
:1024F000108204C0CF5FE9CF108281E0CF911F919D
:102500000F91FF90EF90DF90CF90089585E192E0DA
:102510000E94010E83EB95E09F938F9387EB95E0EC
:102520009F938F938EE292E09F938F938CE895E038
:102530009F938F930E947E232CE835E04CE050E07F
:1025400062EE70E080918B050E94130F2CEB35E05A
:102550004CE050E06EEE70E080918B050E94130F0E
:102560002FEA35E044E050E06AEF70E080918B059F
:102570000E94130F80918B050E94B91090938905DA
:10258000809388052DB73EB7285F3F4F0FB6F8946C
:102590003EBF0FBE2DBFBC0180918B050C940E1168
:1025A000CF93DF938091DF059091E005009771F163
:1025B0000E94D722EC01833B910510F0C2EBD0E0E2
:1025C0000E94AF0D90E08C179D07D0F3BE01809163
:1025D000DF059091E0050E94C5222091DF05309132
:1025E000E0052C0F3D1F3093E0052093DF056C2F95
:1025F0000E94C00DE091DF05F091E005E491E1114A
:102600000DC01092E0051092DF0508C08091E10531
:102610009091E2059093E4058093E305DF91CF91DB
:1026200008950F931F93CF93DF93EB018A019A01D3
:10263000AB01BC0180918B050E94B70E8823A1F0ED
:1026400080E0282F30E0F801E20FF31F2C173D0740
:1026500048F4908190539A3018F0108280E004C0C2
:102660008F5FEFCF108281E0DF91CF911F910F91AB
:102670000895E091E305F091E405309709F009949D
:1026800008950F931F93CF93DF938C010E943B0E0D
:102690008823E1F3C091E305D091E4051093E005B0
:1026A0000093DF058091DF059091E005892B19F0FB
:1026B0000E94D012F7CFD093E405C093E305DF91D9
:1026C000CF911F910F9108958EE69AE10E944113D8
:1026D0008EE999E10E9441130E9460230E944113F8
:1026E0008FE79AE10E9441130E941712809385059B
:1026F00081110DC081E799E10E9441138DE098E1BD
:102700009093E0058093DF058CEC9DE117C082304B
:1027100049F487E499E10E9441131092E405109274
:10272000E305089589E199E10E94411389E49BE062
:102730009093E0058093DF0583E999E19093E205AA
:102740008093E10580ED92E19093E4058093E305A9
:1027500008958EE69AE10E94411387E599E00E9470
:10276000411389E299E09093E0058093DF0582EAC6
:1027700097E19093E2058093E10580ED92E19093DB
:10278000E4058093E30583EB95E09F938F9387EBBC
:1027900095E09F938F938CEB95E09F938F9387E3C6
:1027A00092E09F938F938AEE95E09F938F930E9480
:1027B0007E238AEE95E00E94010E8DB79EB70A96A1
:1027C0000FB6F8949EBF0FBE8DBF809187058823FA
:1027D00019F08CED98E102C08CEE98E10E94E322A2
:1027E0009F938F9382E894E09F938F938AEE95E076
:1027F0009F938F930E947E230F900F900F900F90C6
:102800000F900F908AEE95E00C94010E9F92AF927C
:10281000BF92CF92DF92EF92FF920F931F93CF93CD
:10282000DF9300D0CDB7DEB719828EE690E00E942C
:10283000411381E480938B05AE014F5F5F4F61E0F0
:102840000E94411188EC90E00E94222310927C05A6
:102850009924939424E6E22E22E0F22E0AEE15E06B
:1028600037E7C32E32E0D32EE0917C05EA3008F042
:1028700073C0F0E0E756FB4F808180937D058F7039
:102880000E94331284E690E00E942223AE014E5F44
:102890005F4F61E080918B050E9475118A818F7076
:1028A0008A8390917D05891305C09FE5A92E92E04A
:1028B000B92E05C08AE5A82E82E0B82E912C80E0C2
:1028C0000E94331280917D05982F91701F929F93E3
:1028D00081FB992790F91F929F9382FB992790F98A
:1028E0001F929F9383FB882780F91F928F93FF92FB
:1028F000EF921F930F930E947E238AEE95E00E9431
:10290000010E8A81BF92AF92982F91701F929F9370
:1029100081FB992790F91F929F9382FB992790F949
:102920001F929F9383FB882780F91F928F93DF92DA
:10293000CF921F930F930E947E238AEE95E00E9410
:10294000010E80917C058F5F80937C050FB6F89413
:10295000DEBF0FBECDBF88CF892D0F900F90DF91C6
:10296000CF911F910F91FF90EF90DF90CF90BF908C
:10297000AF909F9008951F93CF93DF931F92CDB791
:10298000DEB7182FCE0101960E94860E882381F0B3
:10299000112369F089818D3029F48FE79AE10E9433
:1029A000411305C061E0CE0101960E94C00D8981EE
:1029B0000F90DF91CF911F910895CF93DF931F92D6
:1029C000CDB7DEB781E00E94BB148823D1F08835F3
:1029D00011F08837B1F480E00E9433128CE391E06B
:1029E0009093E0058093DF058FE995E19093E205F0
:1029F0008093E10580ED92E19093E4058093E305F7
:102A000062C00E941A23882309F45DC0E0917C050E
:102A1000F0E0E756FB4F808180937D058F700E9428
:102A2000331288EB9BE00E94FB22AE014F5F5F4FA9
:102A300061E080918B050E947511998180917D05DF
:102A4000292F21701F922F9391FB222720F91F928B
:102A50002F9392FB222720F91F922F9393FB992704
:102A600090F91F929F93982F91701F929F9381FBD3
:102A7000992790F91F929F9382FB992790F91F92B3
:102A80009F9383FB882780F91F928F938FE892E0B2
:102A90009F938F938AEE95E09F938F930E947E235E
:102AA0008AEE95E00E94010E80917C058F5F0FB643
:102AB000F894DEBF0FBECDBF8A3018F480937C053A
:102AC00002C010927C050F90DF91CF910895CF93B3
:102AD00080E00E94BB14C82F882379F188E690E03B
:102AE0000E94E322FC0180ED8C0F8A30B0F49091BB
:102AF000C905E90FF11D8081C8130FC081E0890F5E
:102B00008093C9058630C8F08CE391E09093E0058E
:102B10008093DF058FE995E106C01092E0051092E1
:102B2000DF058CEC9DE19093E2058093E10580ED5B
:102B300092E19093E4058093E305CF9108951F936C
:102B4000CF93DF931F92CDB7DEB781E00E94E011F3
:102B500060E080E00E940A1281E00E94BB1488239A
:102B600009F491C0843311F160F4823389F0C0F428
:102B7000813309F049C060E081E00E940A1280E5DB
:102B80000CC08835F1F18837E1F1853389F03CC01C
:102B900060E081E00E940A1282E580938B0541C0CB
:102BA00061E081E00E940A1284E5F7CF61E0F1CF95
:102BB00011E410938B0581E40E94C111882389F1EF
:102BC000198210938B05AE014F5F5F4F61E081E486
:102BD0000E94411183EE90E09093E0058093DF0521
:102BE0008DED94E19093E2058093E10580ED92E113
:102BF0009093E4058093E30588EC90E00E94FB222B
:102C000042C08EE69AE115C08EEF98E10E94411312
:102C10008CE391E09093E0058093DF058FE995E1E7
:102C200028C080918B050E94C11181111AC089EBC7
:102C30009BE00E94411389E49BE09093E005809320
:102C4000DF0583E999E19093E2058093E10580ED4A
:102C500092E19093E4058093E30580E00E94E01107
:102C600012C08DE192E09093E0058093DF058FE53F
:102C70009AE19093E2058093E10580ED92E19093D3
:102C8000E4058093E3050F90DF91CF911F910895A4
:102C9000CF93DF9381E00E94BB14882309F45CC0CA
:102CA0008233A1F070F4813309F040C061ED72E02D
:102CB00087EB95E00E9477231092870589E69AE0DA
:102CC00010C0883531F1883721F130C066ED72E0EF
:102CD00087EB95E00E94772381E08093870582E46B
:102CE0009AE00E94E322EC018EE69AE10E944113F1
:102CF000CE010E94010E1092C9058BE08093C80599
:102D000085EE99E09093E0058093DF058FEA96E1E8
:102D100019C08EE69AE10E94411389E49BE09093EA
:102D2000E0058093DF0583E999E10CC08EEF98E11F
:102D30000E94411382E99AE09093E0058093DF05B9
:102D400088E496E19093E2058093E10580ED92E1BD
:102D50009093E4058093E305DF91CF910895CF939D
:102D600081E00E94BB14C82F882309F476C08D30FF
:102D700049F018F48A3031F01DC0883551F0883799
:102D800041F018C08091C90581113AC085E295E0F3
:102D900027C08091C90581110DC08EE69AE10E947D
:102DA000411389E49BE09093E0058093DF0583E97C
:102DB00099E149C08C2F0E944312882379F0E09159
:102DC000C90581E08E0F8093C905F0E0E653FA4F04
:102DD000C0839091C805891798F43FC086E393E0BB
:102DE0000E9441131092C9058BE08093C80585EEBF
:102DF00099E09093E0058093DF058FEA96E123C088
:102E0000C091C905EC2FF0E0E653FA4F10826AEC4E
:102E100075E08CEB95E00E947723CB3038F4EC2FF3
:102E2000F0E0E454FA4F1082CF5FF7CF1092C9055B
:102E300083E08093C80586E899E09093E00580934D
:102E4000DF058FE297E19093E2058093E10580ED45
:102E500092E19093E4058093E305CF910895CF9399
:102E600081E00E94BB14C82F882309F469C08D300B
:102E700049F018F48A3031F020C0883569F088377D
:102E800059F01BC09091C9058091C805981708F0AA
:102E900044C08DEB95E027C08091C90581110DC01C
:102EA0008EE69AE10E94411389E49BE09093E0054D
:102EB0008093DF0583E999E125C08C2F0E9443129E
:102EC000882379F08091C905E82FF0E0E653FA4FA6
:102ED000C0838F5F8093C9059091C8058917E8F476
:102EE0002FC086E393E00E9441131092C90583E04E
:102EF0008093C80586E899E09093E0058093DF050C
:102F00008FE297E19093E2058093E10580ED92E1F5
:102F10009093E4058093E30513C0E091C905F0E0C8
:102F2000E653FA4F10826AEC75E083EB95E00E945D
:102F300077238EE69AE10E944113CF910C94A91356
:102F4000CF91089581E00E94BB148823D9F18D3080
:102F5000A9F018F48A3091F01FC0883511F0883735
:102F6000D9F48EE69AE10E94411389E49BE09093A4
:102F7000E0058093DF0583E999E11AC01092C90545
:102F800083E08093C80587EE98E09093E0058093F6
:102F9000DF058FEB9BE10CC087EE97E10E944113A8
:102FA00089E299E09093E0058093DF0582EA97E15A
:102FB0009093E2058093E10580ED92E19093E40522
:102FC0008093E305089581E00E94BB14882369F192
:102FD0008D3051F018F48A3039F00FC0883511F077
:102FE000883759F40C94A91386EA97E09093E0058A
:102FF0008093DF058BE59CE10EC089E299E00E9499
:10300000411380917E0590917F059093E005809318
:10301000DF0583EE97E19093E2058093E10580ED73
:1030200092E19093E4058093E3050895CF93DF93B5
:103030001F92CDB7DEB7CE0101960E94860E811198
:10304000FACF81E00E94BB1489838D3091F028F47F
:10305000882361F08A3069F004C0883561F08837D0
:1030600051F089E299E00E944113198289818823F5
:1030700041F38AE001C088E70F90DF91CF91089576
:10308000EF92FF920F931F93CF93DF9300D000D066
:10309000CDB7DEB78FE79AE10E94411386EA98E147
:1030A0000E94411380918B050E949F109F938F93E4
:1030B0008CE293E09F938F930AEE15E01F930F939A
:1030C0000E947E23C8010E94010E80918B050E9400
:1030D000B91080938805909389059F938F938BED0A
:1030E00092E09F938F931F930F930E947E23C801BA
:1030F0000E94010E8FE79AE10E9441130FB6F894E7
:10310000DEBF0FBECDBF0E943B0E8823E1F38EE4ED
:1031100094E00E9441138EE594E00E94E3227C013A
:103120004AEE55E064E070E080E090E00E94111308
:10313000882309F11DE21093EE054FEE55E062E0A1
:1031400070E084E090E00E9411138823A1F01093B6
:10315000F10542EF55E063E070E086E090E00E9408
:103160005412882341F01092F50511E09AEEE92EF1
:1031700095E0F92E01C010E0C7010E94010E8FE713
:103180009AE10E944113112311F19E012F5F3F4FDD
:1031900041E050E062E270E080918B050E94B70E42
:1031A0008981803819F487E397E113C08091800505
:1031B000882319F08CE497E10CC0E0918105F0E0E0
:1031C000EE0FFF1FED55FB4F8081918102C08EE510
:1031D00094E00E94E3229F938F9388EF92E09F9365
:1031E0008F938AEE95E09F938F930E947E238AEEC1
:1031F00095E00E94010E0F900F900F900F900F908E
:103200000F900E943B0E8823E1F38EE394E00E942E
:1032100041138EE594E00E94E3228C014AEE55E0D2
:103220006DE070E089E090E00E945412882389F0FC
:103230008DE28093F70548EF55E06DE070E084E0A3
:1032400090E00E945412882321F0109205060AEEA5
:1032500015E0C8010E94010E8FE79AE10E94411318
:103260000E943B0E8823E1F38EE294E00E9441131A
:103270008EE594E00E94E3228C014AEE55E06CE07A
:1032800070E082EE90E00E945412882311F00AEE62
:1032900015E0C8010E94010E8FE79AE10E944113D8
:1032A0000E943B0E8823E1F38EE194E00E944113DB
:1032B0008EE594E00E94E3228C014AEE55E06CE03A
:1032C00070E08EEE90E00E9454128823D1F06CE002
:1032D00073E08AEE95E00E946323AE014F5F5F4F7B
:1032E00064E070E08AEF90E00E945412882349F075
:1032F000BE016F5F7F4F8AEE95E00E9463230AEE66
:1033000015E0C8010E94010E8FE79AE10E94411367
:103310000F900F900F900F90DF91CF911F910F9111
:10332000FF90EF900895CF93DF93809185058111F1
:1033300012C08DE098E19093E0058093DF058CEC5E
:103340009DE19093E2058093E10580ED92E19093F9
:10335000E4058093E30581E00E94BB14882309F40F
:10336000ABC0863509F446C028F4843449F184356D
:1033700049F08CC0843731F08637E1F1843609F0AA
:1033800085C01EC01092C9058BE08093C8058EE6EB
:103390009AE10E94411382E99AE09093E0058093BC
:1033A000DF0588E496E19093E2058093E10580EDE6
:1033B00092E19093E4058093E305109286057CC02A
:1033C0008EE69AE10E9441138CE391E09093E00530
:1033D0008093DF058FE995E19093E2058093E10505
:1033E00080ED92E19093E4058093E30581E0809382
:1033F000860562C08EE69AE10E9441131092800514
:1034000081E00E94E01184E690E00E94222380E5A2
:1034100080938B058FEF9BE00E94E322EC0180916B
:103420008B050E94C111811115C084E580938B0525
:103430000E94C111882349F081E0809380058DEDC1
:103440009BE00E94E322EC0105C089EB9BE00E9417
:10345000411305C0CE010E94010E0E94401889E46C
:103460009BE09093E0058093DF0583E999E19093D9
:10347000E2058093E10580ED92E19093E40580936D
:10348000E30580E0DF91CF910C94E0118EEF98E19D
:103490000E94411389E49BE09093E0058093DF054F
:1034A00083E999E19093E2058093E10580ED92E153
:1034B0009093E4058093E305DF91CF910895EF9217
:1034C000FF920F931F93CF93DF93CDB7DEB7629731
:1034D0000FB6F894DEBF0FBECDBF81E00E94BB14D3
:1034E000882309F43FC1883509F410C1A8F4803558
:1034F00009F4FAC040F4843449F1883451F183343A
:1035000009F01AC12BC0833509F4E6C08735E9F10B
:10351000823509F011C1E2C0803709F4E5C040F4FA
:103520008436A1F08836A9F0833609F005C116C0AB
:10353000833709F4D1C020F4823709F4CFC0FCC02E
:10354000873719F1883709F4E1C0F6C00E944018A6
:10355000F7C080918B050E941010F2C080918B05FE
:103560000E94B910182F092F80918B050E949F107F
:10357000F82EE92E0E943B0E8823E1F3EF92FF9292
:103580000F931F938EE093E095C08AE589839E0197
:103590002F5F3F4F41E050E060E470E080918B0589
:1035A0000E94130F0E943B0E8823E1F31F9280E4D8
:1035B0008F9389811F928F9389E493E09F938F93D8
:1035C0008AEE95E09F938F930E947E238AEE95E08A
:1035D0000E94010E9E012F5F3F4F41E050E060E4EA
:1035E00070E080918B050E94B70E0FB6F894DEBF95
:1035F0000FBECDBF0E943B0E8823E1F31F9280E4F3
:103600008F9389811F928F938FE693E09F938F937F
:103610008AEE95E09F938F930E947E238AEE95E039
:103620000E94010E85EA89839E012F5F3F4F41E092
:1036300050E06FE071E080918B050E94130F0FB690
:10364000F894DEBF0FBECDBF0E943B0E8823E1F38E
:1036500081E08F938FE08F9389811F928F9389E40C
:1036600093E09F938F938AEE95E09F938F930E94B0
:103670007E238AEE95E00E94010E9E012F5F3F4F50
:1036800041E050E06FE071E080918B050E94B70E41
:103690000FB6F894DEBF0FBECDBF0E943B0E88234D
:1036A000E1F381E08F938FE08F9389811F928F9355
:1036B0008FE693E09F938F938AEE95E09F938F938D
:1036C0000E947E238AEE95E00E94010E0FB6F894C8
:1036D000DEBF0FBECDBF34C06FEF01C060E0809190
:1036E0008B050E94830F2CC01092C9058BE080933C
:1036F000C8058EE69AE10E94411382E99AE0909310
:10370000E0058093DF0588E496E122C08CE391E038
:103710009093E0058093DF058FE995E19093E205B2
:103720008093E10580ED92E19093E4058093E305B9
:1037300080E00E94E01116C08EEF98E10E944113D4
:103740008DE192E09093E0058093DF058FE59AE1AB
:103750009093E2058093E10580ED92E19093E4057A
:103760008093E30562960FB6F894DEBF0FBECDBF1F
:10377000DF91CF911F910F91FF90EF90089581E01D
:103780000E94BB14882309F495C08D3071F018F4A1
:103790008A3059F014C0883511F0883781F480914F
:1037A000C905811187C00C94A9139091C905809116
:1037B000C805981708F07EC08DEB95E062C090EDCB
:1037C000980F9A3008F05BC0E091C905AE2FB0E0C9
:1037D000A653BA4F8C93EF5FE093C9058091C8055B
:1037E000E81368C0F0E0E653FA4F10826AEC75E027
:1037F0008FEA95E00E9477238EE69AE10E944113BA
:103800008FEA95E09F938F938CEB95E09F938F9336
:1038100084E993E09F938F938AEE95E09F938F9333
:103820000E947E238AEE95E00E94010E8DB79EB71E
:1038300008960FB6F8949EBF0FBE8DBF8091860587
:10384000882329F00E9486120E9440180DC08091A2
:103850008705882319F08AED97E002C08BE398E092
:1038600090937F0580937E0580917E0590917F05E2
:103870009093E0058093DF0583EE97E111C080EF20
:1038800092E00E9441131092C90583E08093C8051D
:1038900087EE98E09093E0058093DF058FEB9BE146
:1038A0009093E2058093E10580ED92E19093E40529
:1038B0008093E30508950F931F93CF93DF938EE6D4
:1038C0009AE10E9441138FEA95E09F938F938CEBCE
:1038D00095E09F938F9385EC93E09F938F938AEE6F
:1038E00095E09F938F930E947E238AEE95E00E943D
:1038F000010E81E00E94E01188EE93E00E94FB221D
:103900008DB79EB708960FB6F8949EBF0FBE8DBFB9
:103910000E941A238823E1F3809187058823E9F028
:1039200060E081E00E940A1280E580938B050E948E
:10393000B910909389058093880580918B050E942A
:103940009F1020918805309189058217930759F1BE
:1039500084EA94E00E94411339C0CFEDD3E00AEE2F
:1039600015E019991DC086ED94E00E94411383B1C2
:1039700086701F928F93DF93CF931F930F930E94B4
:103980007E238AEE95E00E94010E0E9416180F9089
:103990000F900F900F900F900F90883711F7A2C0E3
:1039A0001A99E1CFBDCF88E694E00E9441130E94AE
:1039B00040188FE79AE10E94411389E299E00E9442
:1039C00041130E941618883709F48CC060E080917A
:1039D0008B050E94830F0E94861285EE93E00E9461
:1039E000411380E00E94E01188EB9BE00E94FB22E3
:1039F0000E941A238823E1F381E00E94E011809164
:103A00008705811107C061E081E00E940A1284E508
:103A100080938B054AEE55E06CE070E082EE90E01A
:103A20000E945412882309F47BC06CE875E08AEE8A
:103A300095E00E946E23892B09F072C04AEE55E092
:103A40006CE070E08EEE90E00E945412882309F43E
:103A500067C06CEB75E08AEE95E00E946E23892BBF
:103A600009F05EC04AEE55E064E070E08AEF90E055
:103A70000E945412882309F453C06FEA75E08AEE5D
:103A800095E00E946E23892B09F04AC080918B0536
:103A90000E94B910909389058093880580918B05C9
:103AA0000E949F1020918805309189058217930705
:103AB000B9F539C08EE69AE10E9441130E940614BE
:103AC00081113FC081E297E00E9441130E941618C5
:103AD000883781F78EE69AE10E94411389E496E0E7
:103AE0000E9441131092C90583E08093C80587EEB8
:103AF00098E09093E0058093DF058FEB9BE1909336
:103B0000E2058093E10580ED92E19093E4058093D6
:103B1000E30580E0DF91CF911F910F910C94E011AC
:103B20008CEA93E008C08EEC93E00E9441130E945F
:103B3000401885E797E00E94411380918705811125
:103B4000BDCF80E00E94E01160E080E00E940A1298
:103B50008EE69AE10E94411388EB96E00E944113A1
:103B60001092C90583E08093C80580EC98E090939B
:103B7000E0058093DF058FEB9BE19093E205809356
:103B8000E10580ED92E19093E4058093E305DF91F8
:103B9000CF911F910F910895CF93DF9380E00E9402
:103BA000BB14882309F4C4C08333C9F1B8F481334A
:103BB00039F1823309F0A6C081E0809384052CE4BA
:103BC00037E1309383052093820510928705809317
:103BD000800561E00E940A1284E53AC0863509F446
:103BE00047C0863709F444C0843409F08BC0109272
:103BF000C9051092E0051092DF0587E695E18EC0B9
:103C00001092840583E697E1909383058093820563
:103C1000109287051092800560E081E016C00E9436
:103C20003C12811103C084E79CE06EC082E0809367
:103C3000840587E397E1909383058093820581E073
:103C4000809387051092800560E00E940A1280E54B
:103C500080938B051092C90584E08093C8058DEA96
:103C600097E19093E0058093DF058BE99EE156C0D4
:103C70008EE69AE10E94411381E00E94E01184E601
:103C800090E00E94222380E580938B0582E29CE0F5
:103C90000E94E322EC0180918B050E94C1118111E9
:103CA00015C084E580938B050E94C111882349F0DB
:103CB0008FE49CE00E94E322EC0181E08093800588
:103CC00005C089EB9BE00E94411305C0CE010E9414
:103CD000010E0E9440188DE098E19093E0058093DA
:103CE000DF058CEC9DE19093E2058093E10580ED8A
:103CF00092E19093E4058093E30580E0DF91CF911A
:103D00000C94E01187EE97E10E9441138DE098E159
:103D10009093E0058093DF058CEC9DE19093E205A4
:103D20008093E10580ED92E19093E4058093E305B3
:103D3000DF91CF91089581E00E94BB14882309F49C
:103D400063C08D30C9F018F48A30B1F018C08835DE
:103D500011F08837A1F48091C905811104C08EE665
:103D60009AE10E9441138DE098E19093E0058093E1
:103D7000DF058CEC9DE13EC083E096E02CC090ED29
:103D8000980F9A3030F5E091C905AE2FB0E0A653F8
:103D9000BA4F8C93EF5FE093C9058091C805E8178F
:103DA00098F1F0E0E653FA4F10826AEC75E08DE985
:103DB00095E00E9477231092C90583E08093C8059F
:103DC00080E797E19093E0058093DF058BEF90E229
:103DD00011C080EF92E00E9441131092C90584E067
:103DE0008093C8058DEA97E19093E0058093DF0505
:103DF0008BE99EE19093E2058093E10580ED92E1ED
:103E00009093E4058093E305089581E00E94BB143C
:103E10008823D9F18D30A9F018F48A3091F01FC0B1
:103E2000883511F08837D9F48EE69AE10E94411363
:103E30008DE098E19093E0058093DF058CEC9DE1A7
:103E40001AC01092C9058CE08093C80584EE96E1F3
:103E50009093E0058093DF058DEB91E20CC087EE37
:103E600097E10E94411389E299E09093E0058093E5
:103E7000DF0585E09FE19093E2058093E10580ED09
:103E800092E19093E4058093E305089581E00E9418
:103E9000BB14882309F425C18D3011F118F48A3040
:103EA000F9F011C0883511F0883769F48EE69AE18F
:103EB0000E9441138DE098E19093E0058093DF0527
:103EC0008CEC9DE104C187EE97E10E94411389E2E9
:103ED00099E09093E0058093DF0585E09FE1F7C0CE
:103EE0008EE69AE10E94411381E00E94E01184E68F
:103EF00090E00E94222380918205909183050E9488
:103F0000E3229F938F9384EF93E09F938F938AEEA6
:103F100095E09F938F930E947E238AEE95E00E9406
:103F2000010E2DE935E044E050E060E070E0809162
:103F30008B050E94130F0F900F900F900F900F9012
:103F40000F9081110BC00E94E0118AEA9EE09093CD
:103F5000E0058093DF0589E892E2B9C024E134E00E
:103F600042E050E064E070E080918B050E94130F06
:103F700029E935E043E050E066E070E080918B0590
:103F80000E94130F22EA35E04DE050E069E070E056
:103F900080918B050E94130F21E835E041E050E04D
:103FA00062E270E080918B050E94130F809187057B
:103FB000811104C080918005882319F020E030E051
:103FC00005C02091810530E0285F3E4F41E050E080
:103FD00063E270E080918B050E94130F80918B0546
:103FE0000E94B9109093890580938805BC01809147
:103FF0008B050E940E110E94401880E00E94E01183
:1040000080918405823009F056C084ED9DE00E94C5
:1040100041130E94A30E892BE1F380918B058093BD
:104020008A0581E480938B0581E00E94E01184E69B
:1040300090E00E9422230E940614811130C080E883
:104040009DE00E9441130E941618883719F58EE6EC
:104050009AE10E9441131092C9058CE08093C80533
:1040600087EB9CE09093E0058093DF058FE392E27D
:104070009093E2058093E10580ED92E19093E40551
:104080008093E30580E00E94E01180918A0580938F
:104090008B0508958EE69AE10E944113CCCF809162
:1040A0008A0580938B050E94401880E00E94E011F1
:1040B00085ED90E106C080918A0580938B0583E7AA
:1040C0009FE09093E0058093DF058FE392E2909369
:1040D000E2058093E10580ED92E19093E405809301
:1040E000E3050895CF93DF9387E599E00E9441139C
:1040F00080918205909183050E94E3229F938F9384
:1041000087E194E09F938F93CAEED5E0DF93CF933E
:104110000E947E23CE010E94010E89E995E09F93C3
:104120008F938DE995E09F938F9381E394E09F9324
:104130008F93DF93CF930E947E23CE010E94010EC6
:104140008DB79EB70E960FB6F8949EBF0FBE8DBF6B
:1041500080918705882321F063E574E0CE0108C0D3
:1041600080918005882339F066E674E08AEE95E058
:104170000E9477231BC0E0918105F0E0EE0FFF1F46
:10418000ED55FB4F808191810E94E3229F938F9395
:104190008AE794E09F938F93DF93CF930E947E23CF
:1041A0000F900F900F900F900F900F908AEE95E068
:1041B0000E94010E82EA95E02091A2052223C1F01F
:1041C0009F938F9388E894E09F938F938AEE95E076
:1041D0009F938F930E947E230F900F900F900F90CC
:1041E0000F900F908AEE95E0DF91CF910C94010E25
:1041F000DF91CF910895CF9381E00E94BB14C82F27
:10420000882309F483C08D30A9F018F48A3091F026
:104210001AC0883511F08837B1F48EE69AE10E9411
:1042200041138DE098E19093E0058093DF058CECDD
:104230009DE162C09091C9058091C805981748F525
:104240008DEB95E016C08C2F0E944312882379F0E5
:104250008091C905E82FF0E0E653FA4FC0838F5FE5
:104260008093C9059091C805891798F44FC086E3DB
:1042700093E00E9441131092C90583E08093C80522
:1042800080E797E19093E0058093DF058BEF90E264
:1042900033C0E091C905F0E0E653FA4F10826AECB2
:1042A00075E089E995E00E9477238EE69AE10E9405
:1042B00041131092A20580918705811107C080915A
:1042C0008005882389F01092810503C080E88093DF
:1042D00081050E94722089E299E09093E005809325
:1042E000DF0585E09FE108C08DE194E19093E00552
:1042F0008093DF0588E891E29093E2058093E105E1
:1043000080ED92E19093E4058093E305CF910895C9
:1043100081E00E94BB14882379F190ED980F9A30C8
:1043200018F49093810514C08F7D813421F48AE0C4
:10433000809381050DC087EE97E10E9441138DE1C6
:1043400094E19093E0058093DF0588E891E20AC04C
:104350000E94722089E299E09093E0058093DF0546
:1043600085E09FE19093E2058093E10580ED92E185
:104370009093E4058093E3050895CF9381E00E9434
:10438000BB14C82F882309F478C08D30C9F018F405
:104390008A30B1F01CC0883511F08837C1F4E09143
:1043A000C905E1111BC08EE69AE10E9441138DE020
:1043B00098E19093E0058093DF058CEC9DE153C07C
:1043C0008091C905811129C083E795E016C08C2F23
:1043D0000E944312882379F0E091C90581E08E0F95
:1043E0008093C905F0E0E653FA4FC0839091C80569
:1043F000891798F442C086E393E00E94411310921B
:10440000C9058CE08093C80584EE96E19093E005A1
:104410008093DF058DEB91E226C0C091C905EC2F9A
:10442000F0E0E653FA4F10826AEC75E082EA95E01C
:104430000E947723CC3038F4EC2FF0E0EE55FA4FA1
:104440001082CF5FF7CFC093C9050E94722081E729
:104450009EE00E94411389E299E09093E0058093E9
:10446000DF0586E49FE19093E2058093E10580ED0E
:1044700092E19093E4058093E305CF91089581E064
:104480000E94BB14882309F443C08D30A9F018F4AE
:104490008A3091F029C0883511F0883729F58EE6E9
:1044A0009AE10E9441138DE098E19093E00580939A
:1044B000DF058CEC9DE122C08EE69AE10E9441135B
:1044C0000E94461F1092A2050E9472201092C905F8
:1044D0008CE08093C80584EE96E19093E00580938C
:1044E000DF058DEB91E20AC087EE97E10E94411350
:1044F0001092E0051092DF058FE392E29093E205BF
:104500008093E10580ED92E19093E4058093E305CB
:10451000089581E00E94BB148823B1F18D30A9F089
:1045200018F48A3091F01CC0883511F08837C1F436
:104530008EE69AE10E9441138DE098E19093E005A8
:104540008093DF058CEC9DE115C00E94722089E20A
:1045500099E09093E0058093DF0586E49FE10AC02F
:1045600087EE97E10E9441131092E0051092DF055B
:104570008FE392E29093E2058093E10580ED92E172
:104580009093E4058093E3050895ACE1B6E020E064
:1045900030E02617370741F0FC01E20FF31FE491EA
:1045A000ED932F5F3F4FF5CF8CE196E008959C018E
:1045B00080E090E0F901E80FF91FE491EE2311F09B
:1045C0000196F8CF0895CF93DF93EC010E94D72294
:1045D000BC016F5F7F4FCE01DF91CF910C94C5225C
:1045E0001092E9051092E8051092E7051092E60591
:1045F0001092E50508951092E5059093E9058093E2
:10460000E8051092E7051092E605109285001092D9
:1046100084008AEF90E09093890080938800EFE611
:10462000F0E0808182608083E1E8F0E08081836057
:10463000808308958091E505882319F01092E5059F
:1046400081E008950E94FB220E941A238823E1F34F
:1046500008951F920F920FB60F9211242F933F933C
:104660008F939F938091E6059091E7050196909333
:10467000E7058093E6052091E8053091E90582176A
:10468000930759F41092810080916F008D7F809381
:104690006F0081E08093E5050AC0809188009091C9
:1046A000890086509F4F90938900809388009F9146
:1046B0008F913F912F910F900FBE0F901F901895E3
:1046C00082E89AE10895FB01DC010D900020E9F7F2
:1046D000119701900D920020E1F70895FB01DC0194
:1046E0008D91019080190110D9F3990B0895FB0168
:1046F000DC0101900D920020E1F70895AEE0B0E0FA
:10470000E4E8F3E20C943F260D891E8986E08C8351
:104710001A8309838FEF9FE79E838D83AE01475EE7
:104720005F4F6F89788DCE0101960E94A023EF81A3
:10473000F885E00FF11F10822E96E4E00C945B26C2
:10474000ABE0B0E0E6EAF3E20C9431266C017B01C9
:104750008A01FC0117821682838181FFCCC1CE01C0
:1047600001963C01F6019381F70193FD859193FF3A
:1047700081917F01882309F4BAC1853239F493FD10
:10478000859193FF81917F01853229F4B60190E0F4
:104790000E949725E7CF912C212C312CFFE1F315B6
:1047A000D8F08B3279F038F4803279F08332A1F48A
:1047B000232D20611DC08D3261F0803369F4232DDB
:1047C000216016C0832D8260382EE32DE4603E2EDA
:1047D0002AC0F32DF8601DC037FC2DC020ED280F36
:1047E0002A3040F08E32B9F436FC81C1232D20648A
:1047F000322E19C036FE06C08AE0989E200D112484
:10480000922E11C0EAE02E9E200D1124222EF32DAF
:10481000F0623F2E08C08C3621F4832D8068382E3C
:1048200002C0883641F4F70193FD859193FF819191
:104830007F018111B3CF982F9F7D9554933028F439
:104840000C5F1F4F9FE399830DC0833631F0833790
:1048500071F0833509F059C021C0F8018081898346
:104860000E5F1F4F88248394912C530113C028019D
:10487000F2E04F0E511CF801A080B18036FE03C05B
:10488000692D70E002C06FEF7FEFC5010E948C259B
:104890004C018201F32DFF773F2E16C0280122E044
:1048A000420E511CF801A080B18036FE03C0692D74
:1048B00070E002C06FEF7FEFC5010E9481254C01BF
:1048C000F32DF0683F2E820133FC1BC0822D90E057
:1048D00088169906B0F4B60180E290E00E94972510
:1048E0002A94F4CFF50137FC859137FE81915F0161
:1048F000B60190E00E94972521102A9421E0821AA7
:1049000091088114910471F7E8C0843611F089365A
:1049100041F5F80137FE07C0608171818281938182
:104920000C5F1F4F08C060817181072E000C880B3F
:10493000990B0E5F1F4FF32DFF763F2E97FF09C097
:1049400090958095709561957F4F8F4F9F4FF06840
:104950003F2E2AE030E0A3010E94D325882E86183E
:1049600045C0853731F4232D2F7EB22E2AE030E06A
:1049700025C0932D997FB92E8F36C1F018F4883554
:1049800079F0B5C0803719F0883721F0B0C0E92F31
:10499000E061BE2EB4FE0DC0FB2DF460BF2E09C039
:1049A00034FE0AC0292F2660B22E06C028E030E06F
:1049B00005C020E130E002C020E132E0F801B7FE9E
:1049C00007C060817181828193810C5F1F4F06C097
:1049D0006081718180E090E00E5F1F4FA3010E9413
:1049E000D325882E8618FB2DFF773F2E36FE0DC06F
:1049F000232D2E7FA22E891458F434FE0BC032FCD6
:104A000009C0832D8E7EA82E05C0B82CA32C03C010
:104A1000B82C01C0B92CA4FE0FC0FE01E80DF11D99
:104A20008081803321F49A2D997EA92E09C0A2FE9F
:104A300006C0B394B39404C08A2D867809F0B39469
:104A4000A3FC11C0A0FE06C0B21488F4280C922C5E
:104A50009B180EC0B21460F4B60180E290E00E9490
:104A60009725B394F7CFB21418F42B1802C0982CE2
:104A7000212CA4FE10C0B60180E390E00E9497258F
:104A8000A2FE17C0A1FC03C088E790E002C088E541
:104A900090E0B6010CC08A2D867859F0A1FE02C0C4
:104AA0008BE201C080E2A7FC8DE2B60190E00E949B
:104AB0009725891438F4B60180E390E00E94972589
:104AC0009A94F7CF8A94F301E80DF11D8081B60125
:104AD00090E00E9497258110F5CF222009F442CE64
:104AE000B60180E290E00E9497252A94F6CFF60165
:104AF0008681978102C08FEF9FEF2B96E2E10C94A5
:104B00004D26FC010590615070400110D8F780954A
:104B100090958E0F9F1F0895FC0161507040019089
:104B20000110D8F7809590958E0F9F1F08950F93D1
:104B30001F93CF93DF93FB01238121FD03C08FEFF0
:104B40009FEF2CC022FF16C04681578124813581FA
:104B50004217530744F4A081B1819D012F5F3F4F5D
:104B6000318320838C93268137812F5F3F4F37839A
:104B7000268314C08B01EC01FB010084F185E02D3C
:104B80000995892BE1F6D80116968D919C9117977E
:104B9000019617969C938E931697CE01DF91CF9135
:104BA0001F910F910895FA01AA27283051F1203161
:104BB00081F1E8946F936E7F6E5F7F4F8F4F9F4FB1
:104BC000AF4FB1E03ED0B4E03CD0670F781F891FF3
:104BD0009A1FA11D680F791F8A1F911DA11D6A0FC1
:104BE000711D811D911DA11D20D009F468943F9174
:104BF0002AE0269F11243019305D3193DEF6CF0173
:104C00000895462F4770405D4193B3E00FD0C9F738
:104C1000F6CF462F4F70405D4A3318F0495D31FDA5
:104C20004052419302D0A9F7EACFB4E0A6959795F8
:104C3000879577956795BA95C9F7009761057105CE
:104C400008959B01AC010A2E069457954795379518
:104C50002795BA95C9F7620F731F841F951FA01D72
:104C600008952F923F924F925F926F927F928F9210
:104C70009F92AF92BF92CF92DF92EF92FF920F93EB
:104C80001F93CF93DF93CDB7DEB7CA1BDB0B0FB6F5
:104C9000F894DEBF0FBECDBF09942A8839884888B2
:104CA0005F846E847D848C849B84AA84B984C88448
:104CB000DF80EE80FD800C811B81AA81B981CE0F3F
:104CC000D11D0FB6F894DEBF0FBECDBFED01089524
:044CD000F894FFCF86
:104CD400290140015C0172013F7FFF1F3F7FFF1FDD
:104CE4003F7FFF0A0A0D53595354454D20455252F4
:104CF4004F520A0D25730A0D000A0D53657269613E
:104D04006C204672616D696E67204572726F720025
:104D14000A0D53657269616C2044617461204F7699
:104D2400657272756E204572726F72000A0D53655A
:104D34007269616C20506172697479204572726F76
:104D440072000A0D53657269616C205458206275B3
:104D540066206F766572666C6F77204572726F722B
:104D6400000A0A0D21212120454550524F4D20575C
:104D740072697465204572726F72202121210A0ABA
:104D84000D000D526573657474696E6720416C6C17
:104D9400206F6620454550524F4D20746F202530BA
:104DA4003278202D2025303364252520646F6E65EC
:104DB400000A0D4572617365204552522025780A18
:104DC4000D000A0A0D4845582044554D500A0D0A55
:104DD4000041646472203D20253034783A20002557
:104DE40030327820000A0A0D5570646174696E6768
:104DF40020454550524F4D2021210A0A0D002573AC
:104E04002D30312D257300574F204E6F2020203D2B
:104E14002025730A0D41737379204E6F203D2025A0
:104E2400732D30312D25732020004641494C00500C
:104E3400415353002530317825303178253031788D
:104E440025303178202000253031782530317825FF
:104E540030317825303178202D2025730A0D00203B
:104E64002530317820202020253031782020202042
:104E74002530317820202020253031782020202032
:104E8400202D20446174612052656164203D2025F9
:104E94003031782530317825303178253031780D2E
:104EA400003635313900363736380043616C637566
:104EB4006C6174656420436865636B73756D203D34
:104EC40020253034780A0D004E45542049442020D2
:104ED40020202020203D2025730A0D002D000A0DDE
:104EE40043616C63756C6174656420436865636BCE
:104EF40073756D203D20253034780A0D53746F721C
:104F0400656420436865636B73756D2020202020E1
:104F14003D20253034780A0D000A0D446174612067
:104F240025303278207772697474656E20746F202E
:104F34006164647265737320253034780A0D000A45
:104F44000D446174612025303278207265616420DB
:104F540066726F6D206164647265737320253034EA
:104F6400780A0D000A0A426F6172642049443A20AB
:104F740025732D25732069732073656C65637465CF
:104F84006420666F722070726F6772616D6D696EF6
:104F9400670A0A0D0050726F6772616D6D696E6702
:104FA40020426F6172642025732D25730A0D004819
:104FB400656164657220506F7274203D2025303223
:104FC400780A0D000A0A0D50726F6772616D6D697F
:104FD4006E672044657461696C7320666F72202566
:104FE400730A0D0030300046696E616C20417373A2
:104FF400656D626C7920547970653A2025730A0DC9
:105004000046696E616C20417373656D626C792032
:105014004E756D6265723A2025732D30302D2573DF
:105024000A0D004E65742049443A204144415054CD
:1050340045520A0A0D004E65742049443A204558E9
:1050440054454E4445520A0A0D004E6574204944A5
:105054003A2025730A0A0D0053657269616C204E6B
:105064006F3A2025730A0A0D0000010204080F0E8E
:105074000D0B07F613CE13A613761346131513E47C
:0A50840012B41283128312511200BD
:00000001FF
