:100000000C94620E0C947F0E0C947F0E0C947F0E59
:100010000C947F0E0C947F0E0C947F0E0C947F0E2C
:100020000C947F0E0C947F0E0C947F0E0C9417256D
:100030000C947F0E0C947F0E0C947F0E0C947F0E0C
:100040000C947F0E0C947F0E0C94580F0C94950E0C
:100050000C947F0E0C947F0E0C947F0E0C947F0EEC
:100060000C947F0E0C947F0E3637303800323730C8
:100070003436330A0D4E6574204964656E746966C2
:1000800069636174696F6E20546573740A0D3D3D38
:100090003D3D3D3D3D3D3D3D3D3D3D3D3D3D3D3D90
:1000A0003D3D3D3D3D0A0D42697433203D2047539F
:1000B0004E332C2042697432203D2047534E322C5F
:1000C0002042697431203D2047534E312C20426933
:1000D0007430203D2047534E300A0A0D4F555420AE
:1000E000202020494E0A0D000A0D4E6574204164FF
:1000F000617074657220426F61726420546573741C
:100100000A0D3D3D3D3D3D3D3D3D3D3D3D3D3D3D82
:100110003D3D3D3D3D3D3D3D3D0A0D202A20456E86
:10012000737572652074686520442D737562205064
:100130004342204173737920416461707465722079
:10014000697320636F6E6E656374656420746F20DD
:100150007468652054657374204A69670A0D202A03
:1001600020456E73757265207468652031303020CB
:1001700057617920436F6E6E6563746F7220697387
:1001800020636F6E6E656374656420746F204A33FC
:10019000206F6E20746865204255540A0D202A2075
:1001A000456E737572652074686520342C20746503
:1001B00073742070696E73206F6E207468652044BC
:1001C0002D7375622050434220417373792041643E
:1001D00061707465722061726520636F6E6E656315
:1001E0007465640A0D202020746F20746865206196
:1001F0007070726F70726961746520736F636B6584
:100200007473206F6E20746865204879706572740D
:10021000726F6E69637320636F6E6E6563746F7265
:10022000206F6E20746865204255540A0D50726527
:1002300073732027582720746F2045786974206FC6
:100240007220707265737320454E54455220746F4E
:100250002070726F636565640A0A0D000A0A0A0A53
:100260000D506F727420457870616E646572204421
:10027000656275670A0D3D3D3D3D3D3D3D3D3D3D62
:100280003D3D3D3D3D3D3D3D3D0A0D507265737325
:100290002027582720746F2045786974206F7220BA
:1002A000707265737320535041434542415220742C
:1002B0006F20706175736520616E6420726573755F
:1002C0006D650A0A0D47534E332047534E3220477F
:1002D000534E312047534E300A0D000A0A0A0A0DC8
:1002E0004445425547204D454E550A0D3D3D3D3D47
:1002F0003D3D3D3D3D3D0A0D0A0D53656C65637402
:1003000020454550524F4D20416464726573733AE5
:100310000A0D31202D20307835303A204E6574207A
:10032000436F6E6E6563746F722F4E657420416407
:1003300061707465720A0D32202D20307835323AA2
:100340002041444320426F74746F6D2042640A0D53
:1003500033202D20307835343A204E65742045788E
:1003600074656E73696F6E0A0D34202D20307835F8
:10037000363A2041444320546F702042640A0D35C0
:10038000202D20307834313A20506F727420457817
:1003900070616E6465722028363736392D30312011
:1003A0002620363737302D3031290A0D0A0D50728C
:1003B000657373205820746F20657869740A0A0D7C
:1003C000000A0A0A0A0D454550524F4D2044656205
:1003D00075670A0D3D3D3D3D3D3D3D3D3D3D3D3D4E
:1003E0000A0A0D44202D20446973706C61792053F2
:1003F000746F7265642044657461696C730A0D489A
:10040000202D204865782044756D700A0D57202DE9
:100410002057726974650A0D52202D20526573654C
:100420007420454550524F4D20746F2030300A0DD6
:1004300053202D2053657420454550524F4D207454
:100440006F2046460A0D43202D20446973706C616D
:100450007920436865636B73756D730A0D50202DA9
:100460002050726F6772616D20426F617264204428
:10047000657461696C730A0D58202D20526574757E
:10048000726E20746F204465627567204D656E75CD
:100490000A0A0D000A0A0D2021212120506C6561F5
:1004A00073652052652D456E746572207573696E93
:1004B00067206E756D657269632063686172616340
:1004C00074657273206F6E6C7920282730272D2772
:1004D000392729202121210A0D000A0A0D20212176
:1004E0002120506C656173652052652D456E7465E1
:1004F00072207573696E6720416C7068612D6E752E
:100500006D6572696320636861726163746572739B
:10051000206F6E6C7920282741272D275A272C2001
:100520002730272D27392729202121210A0D000ACC
:100530000A0D2021212120454550524F4D20524582
:100540004144204552524F52202121210A0A0D00D8
:100550000A0D2121212121212121212121212121B6
:10056000212121212121212121212121212121217B
:1005700021212121210A0D212121204461746120A2
:10058000726574656E74696F6E20436865636B2075
:100590004641494C4544202121210A0D2121212198
:1005A000212121212121212121212121212121213B
:1005B0002121212121212121212121212121210A42
:1005C0000A0D52656D6F766520426F61726420611D
:1005D0006E642071756172616E74696E650A0A0DD0
:1005E000000A0D4461746120726574656E74696FF0
:1005F0006E204F4B0A0A0D000A0D436865636B6954
:100600006E67206461746120726574656E74696FD1
:100610006E0A0D506F776572696E67204F464620EF
:10062000666F722033207365636F6E64730A0A0D00
:1006300000504342204173737920532F4E203D20B8
:1006400000504342204173737920502F4E203D20AB
:100650000050726F6475637420532F4E20203D202C
:100660000050726F6475637420502F4E20203D201F
:1006700000556E646566696E6564000A0A0D212185
:1006800021205741524E494E47202121210A0D4336
:10069000616C63756C6174656420616E6420537471
:1006A0006F72656420436865636B73756D204D617F
:1006B0007463680A0A0D000A0A0D2121212043688B
:1006C00065636B73756D206D69736D61746368200C
:1006D0002121210A0D53657474696E67207570209D
:1006E000454550524F4D0A0D000A0A0D2121212087
:1006F000436865636B204865616465722069732097
:1007000066697474656420636F72726563746C7972
:10071000202121210A0D507265737320277827202C
:10072000746F20454E544552206B657920746F20BC
:1007300072657472790A0D000A0A0D212121204E7A
:100740006F7420456E6F75676820636861726163BE
:100750007465727320666F7220576F726B73204FCF
:1007600072646572202D203120746F203131205247
:1007700065717569726564202121210A0D506C65CF
:100780006173652072657472790A0D000A0A0D2181
:100790002121204E6F2063686172616374657273FA
:1007A00020656E7465726564202D206D6178696DB9
:1007B000756D206F662031322052657175697265E2
:1007C00064202121210A0D506C65617365207265DA
:1007D0007472790A0D000A0A0D212121204E6F74CE
:1007E00020456E6F75676820636861726163746528
:1007F000727320656E7465726564202D20332052FB
:1008000065717569726564202121210A0D506C653E
:100810006173652072657472790A0D000A0A0D21F0
:100820002121204E6F7420456E6F756768206368C4
:10083000617261637465727320656E74657265645C
:10084000202D203420526571756972656420212144
:10085000210A0D506C656173652072657472790AA6
:100860000D002121212121212121212121212121AD
:1008700021212121210A0D212121205445535420D9
:100880004641494C4544202121210A0D21212121A5
:100890002121212121212121212121212121210A5F
:1008A0000A0D52656D6F766520426F61726420613A
:1008B0006E642071756172616E74696E65206F720D
:1008C0002072657465737420626F6172640A0A0D28
:1008D000000A0A0D2A2A2A2A2A2A2A2A2A2A2A2AFF
:1008E0002A2A2A2A2A2A2A0A0D2A2A2A2054455341
:1008F0005420504153534544202A2A2A0A0D2A2ABB
:100900002A2A2A2A2A2A2A2A2A2A2A2A2A2A2A2A47
:100910002A0A0A0D52656D6F766520426F61726416
:1009200020616E64206170706C7920544553544589
:1009300044204D41524B0A0A0D000A0D212121206D
:100940004E4554204944454E544946494341544933
:100950004F4E2054455354204641494C4544202194
:1009600021210A0A0D456E7375726520436F6E6E04
:10097000656374696F6E20746F204C65676163797D
:1009800020436F6E6E6563746F7220697320636FAE
:1009900072726563740A0D5072657373202758274D
:1009A00020746F2065786974206F7220454E54451D
:1009B00052206B657920746F2052657472790A0D2C
:1009C000000A0D5375636365737366756C6C7920EB
:1009D000436865636B656420616E642050726F6765
:1009E00072616D6D656420454550524F4D21210A5D
:1009F0000D000A0A0A0D4175746F6D6174696361B7
:100A00006C6C7920636865636B696E6720616E64E6
:100A10002050726F6772616D6D696E672045455039
:100A2000524F4D0A0D000A0A0A0D436F6E6E656340
:100A30007420746865204164617074657220626F0F
:100A400061726420556E64657220546573742074FD
:100A50006F20746865204A69670A0D507265737368
:100A60002027582720746F2065786974206F7220C2
:100A7000454E544552206B657920746F2070726F1B
:100A8000636565640A0D000A0A0A0D436F6E6E65A0
:100A900063742074686520626F61726420556E64AF
:100AA0006572205465737420746F20746865204AE1
:100AB00069670A0D454E5355524520464C59494EDB
:100AC00047204C45414420495320434F4E4E454317
:100AD00054454420746F204A554D5045520A0A0D22
:100AE00050726573732027582720746F20657869CA
:100AF00074206F7220454E544552206B65792074E6
:100B00006F2070726F636565640A0D000A0A0A0D32
:100B1000456E74657220746865204E657874206235
:100B20006F61726427732053657269616C204E6F28
:100B30000A0D000A0A0A0D456E7465722074686514
:100B400020626F61726427732053657269616C2043
:100B50004E6F2E0A0D2833204368617261637465FD
:100B6000727329206F722027582720746F206578B0
:100B700069740A0D0050726573732027582720741A
:100B80006F2065786974206F7220454E544552205D
:100B90006B657920746F2070726F636565640A0AF3
:100BA0000A0D000A0A0A0D436865636B20746865C4
:100BB00020666F6C6C6F77696E672064657461691D
:100BC0006C732061726520636F72726563740A0AC8
:100BD0000D000A0A0A0D456E74657220746865205E
:100BE000626F617264277320417373656D626C7903
:100BF000205265766973696F6E204E6F206F662094
:100C0000746865206261746368206F6620626F613A
:100C100072647320556E64657220546573740A0D96
:100C200028332043686172616374657273290A0D09
:100C3000000A0A0A0D456E746572207468652057B3
:100C40006F726B73204F72646572204E6F2028574D
:100C50004F29206F66207468652062617463682084
:100C60006F6620626F6172647320556E64657220D6
:100C7000546573740A0D284D4158203D20313120B0
:100C800043686172616374657273290A0D000A0D0D
:100C9000363531392D3031204E657420436F6E6EFC
:100CA0006563746F72205043422073656C65637492
:100CB00065640A0D000A0A0D53656C656374204271
:100CC0006F61726420556E64657220546573742080
:100CD00028425554290A0D3D3D3D3D3D3D3D3D3D9C
:100CE0003D3D3D3D3D3D3D3D3D3D3D3D3D3D3D3D34
:100CF0003D3D3D3D0A0D31202D20363531392D3019
:100D000031202D204E657420436F6E6E6563746FC5
:100D100072205043420A0D32202D20363736392DAD
:100D200030312F363737302D3031202D20323536C7
:100D30002F313238204E65742041646170746572C1
:100D4000205043420A0D58202D20457869742074A4
:100D50006F205374617274204D656E750A0D3C45A9
:100D60004E5445523E2D20546F2072656672657355
:100D7000682073637265656E0A0A0D000A0A0D53D6
:100D800074617274204D454E550A0D3D3D3D3D3D0B
:100D90003D3D3D3D3D0A0D54202D20426F61726462
:100DA0002074657374730A0D44202D2044656275A8
:100DB00067204D656E750A0D56202D2056696577A2
:100DC0002053746F72656420496E666F0A0D3C454E
:100DD0004E5445523E2D20546F20726566726573E5
:100DE000682073637265656E0A0A0D000A0A0A0DAF
:100DF000212121204E6F20417373656D626C792033
:100E00004465746563746564202121210A0A0D001C
:100E10000A0A0A0D426F6172642054797065206974
:100E200073204E455420414441505445520A0A0D06
:100E3000000A0A0A0D426F617264205479706520BD
:100E40006973204E455420455854454E4445520A36
:100E50000A0D000A0A0A0D426F617264205479700B
:100E600065206973204E455420434F4E4E454354F0
:100E70004F520A0A0D000A0A0A0D417373656D622A
:100E80006C792054797065206973204E45540A0DA1
:100E9000000A0A0A0D417373656D626C79205479FA
:100EA000706520697320414441505445520A0D0039
:100EB0000A0A0A0D417373656D626C79205479706A
:100EC00065206973204E455420455854454E44458D
:100ED0005220504E20363730382D30300A0A0D005F
:100EE0000A0A0A0D485950455254524F4E4943532D
:100EF0002041646170746572204E4F54206669749D
:100F00007465640A0D466974206164617074657269
:100F100020616E64207468656E2072657472790A4F
:100F20000A0D0021212121212121212121212121FD
:100F30002121212121210A0D212121205445535411
:100F4000204641494C4544202121210A0D212121DF
:100F50002121212121212121212121212121212181
:100F60000A0A0D52656D6F766520417373656D6277
:100F70006C7920616E642071756172616E74696E46
:100F800065206F72207265746573740A0A0D000A19
:100F90000D212121204E4554204944454E544946B7
:100FA00049434154494F4E205445535420464149EA
:100FB0004C4544202121210A0A0D456E7375726546
:100FC00020436F6E6E656374696F6E20746F204C82
:100FD000656761637920436F6E6E6563746F72201D
:100FE000697320636F72726563740A0D5072657362
:100FF000732027582720746F2065786974206F72DA
:1010000020454E544552206B657920746F205265FF
:101010007472790A0D000A0A0D2A2A2A2046696E7E
:10102000616C20417373656D626C792073756363C5
:1010300065737366756C6C792050726F6772616D41
:101040006D6564202A2A2A0A0A0D23232320436F70
:101050006E6E65637420746865204C6567616379A2
:10106000204164617074657220656E64206F662033
:101070007468652046696E616C20417373656D62AA
:101080006C7920746F207468652054657374204AED
:101090006967202323230A0D507265737320616EE4
:1010A00079206B6579207768656E20726561647957
:1010B0000A0D000A0A0D23232320436F6E6E656319
:1010C00074207468652046696E616C204173736595
:1010D0006D626C7920746F20746865205465737438
:1010E000204A6967202323230A0A0D000A0A0A0DF1
:1010F000212121204641494C454420544F20505243
:101100004F4752414D2044455441494C53202121E1
:10111000210A0D436865636B3A0A0D202A20546842
:1011200065207468652066696E616C206173736503
:101130006D626C79207479706520697320636F72B9
:10114000726563740A0D202A205468652041737308
:10115000656D626C7920697320636F727265637468
:101160006C792066697474656420746F2074686596
:101170002054657374204A69670A0A0D50726573BA
:10118000732027454E5445522720746F20524554F2
:10119000525920206F722027582720746F206578BD
:1011A0006974200A0D000A0A0A0D2A2A2A2A2A2A04
:1011B0002A2A2A2A2A2A2A2A2A2A2A2A2A2A2A2A8F
:1011C0002A2A2A2A2A2A2A2A2A2A2A2A2A2A2A2A7F
:1011D0002A2A2A2A2A2A2A2A0A0D2A2A2A2046695B
:1011E0006E616C20417373656D626C7920737563F9
:1011F0006365737366756C6C792050726F6772618A
:101200006D6D6564202A2A2A0A0D2A2A2A2A2A2A8A
:101210002A2A2A2A2A2A2A2A2A2A2A2A2A2A2A2A2E
:101220002A2A2A2A2A2A2A2A2A2A2A2A2A2A2A2A1E
:101230002A2A2A2A2A2A2A2A0A0D436865636B2049
:101240007468652064657461696C2073686F776E7B
:10125000206F6E207468652073637265656E20610F
:10126000726520636F72726563740A0D52656D6FEB
:1012700076652054657374656420417373656D628F
:101280006C7920616E6420636F6D706C657465208D
:10129000746865206E65636573736172792050614F
:1012A000706572776F726B0A0A0D507265737320E6
:1012B00027454E5445522720746F2070726F677215
:1012C000616D20612046696E616C20617373656D8C
:1012D000626C79206F66207468652073616D65208B
:1012E000747970650A0D5072657373202758272032
:1012F000746F206578697420746F207374617274E0
:10130000206D656E750A0D000A0A0A0D2A2A2A2A1E
:101310002A2A2A2A2A2A2A2A2A2A2A2A2A2A2A2A2D
:101320002A2A2A2A2A2A2A2A2A2A2A2A2A2A2A2A1D
:101330002A2A2A2A2A2A2A2A2A2A2A2A2A2A2A2A0D
:101340002A2A2A2A2A0A0D2A2A2A2046696E616C2C
:1013500020417373656D626C792073756363657387
:101360007366756C6C792050726F6772616D6D6514
:101370006420616E6420546573746564202A2A2A8F
:101380000A0D2A2A2A2A2A2A2A2A2A2A2A2A2A2AFA
:101390002A2A2A2A2A2A2A2A2A2A2A2A2A2A2A2AAD
:1013A0002A2A2A2A2A2A2A2A2A2A2A2A2A2A2A2A9D
:1013B0002A2A2A2A2A2A2A2A2A2A2A0A0A0D436893
:1013C00065636B207468652064657461696C207363
:1013D000686F776E2061626F766520617265206349
:1013E0006F72726563740A0D52656D6F7665205475
:1013F000657374656420417373656D626C792061F7
:101400006E6420636F6D706C657465207468652010
:101410006E65636573736172792050617065727770
:101420006F726B0A0A0D50726573732027454E5414
:1014300045522720746F2070726F6772616D206152
:101440002046696E616C20617373656D626C7920F2
:101450006F66207468652073616D652074797065AE
:101460000A0D50726573732027582720746F20650A
:1014700078697420746F207374617274206D656E66
:10148000750A0D0031303A20323536204368616EDE
:101490006E656C204D6963726F63656C2047656F84
:1014A00064657369632053656E736F72204E657453
:1014B0007320312E3000393A2031323820436861B0
:1014C0006E6E656C204D6963726F63656C20476555
:1014D0006F64657369632053656E736F72204E6528
:1014E000747320312E3000373A2033322043686144
:1014F0006E6E656C204D6963726F63656C20476525
:101500006F64657369632053656E736F72204E65F7
:10151000747320312E3000363A203235362043683D
:10152000616E6E656C20487964726F63656C2047EC
:10153000656F64657369632053656E736F72204EC7
:1015400065747320312E3000353A20313238204313
:1015500068616E6E656C20487964726F63656C209B
:1015600047656F64657369632053656E736F72209E
:101570004E65747320312E3000343A2036342043C7
:1015800068616E6E656C20487964726F63656C206B
:1015900047656F64657369632053656E736F72206E
:1015A0004E65747320312E3000333A20333220439D
:1015B00068616E6E656C20487964726F63656C203B
:1015C00047656F64657369632053656E736F72203E
:1015D0004E65747320312E3000323A203235362079
:1015E0004368616E6E656C2047656F6465736963FF
:1015F0002053656E736F72204E65747320322E789F
:1016000000313A20313238204368616E6E656C20BB
:1016100047656F64657369632053656E736F7220ED
:101620004E65747320322E7800303A2036342043D1
:1016300068616E6E656C2047656F646573696320D1
:1016400053656E736F72204E65747320322E78006E
:101650000A0A0A0D53656C65637420746865204E30
:1016600065742053697A652049442066726F6D2045
:1016700074686520666F6C6C6F77696E67206C6943
:1016800073740A0A0D2020202049442020202020A5
:101690002020202020202020202020444553435279
:1016A000495054494F4E0A0D2D2D2D2D2D2D2D2DE8
:1016B0002D2D2D2D2D2D2D2D2D2D2D2D2D2D2D2D5A
:1016C0002D2D2D2D2D2D2D2D2D2D2D2D2D2D2D2D4A
:1016D0002D2D2D2D2D2D2D2D2D2D2D2D2D0A0D307A
:1016E000202D203009363420204368616E6E656CF1
:1016F0002047656F64657369632053656E736F720D
:10170000204E65747320322E780A0D31202D203141
:1017100009313238204368616E6E656C2047656F11
:1017200064657369632053656E736F72204E6574D0
:101730007320322E780A0D32202D203209323536B0
:10174000204368616E6E656C2047656F64657369E0
:10175000632053656E736F72204E65747320322E52
:10176000780A0D33202D203309333220204368615D
:101770006E6E656C20487964726F63656C20476596
:101780006F64657369632053656E736F72204E6575
:10179000747320312E300A0D34202D203409363454
:1017A00020204368616E6E656C20487964726F63B7
:1017B000656C2047656F64657369632053656E735C
:1017C0006F72204E65747320312E300A0D35202D36
:1017D000203509313238204368616E6E656C2048CF
:1017E0007964726F63656C2047656F6465736963C4
:1017F0002053656E736F72204E65747320312E30E6
:101800000A0D36202D203609323536204368616EA8
:101810006E656C20487964726F63656C2047656FF4
:1018200064657369632053656E736F72204E6574CF
:101830007320312E300A0D37202D20370933322006
:10184000204368616E6E656C204D6963726F6365DD
:101850006C2047656F64657369632053656E736FB1
:1018600072204E65747320312E300A0D38202D20E1
:101870003809363420204368616E6E656C204D69EE
:1018800063726F63656C2047656F6465736963207D
:1018900053656E736F72204E65747320312E300A5B
:1018A0000D39202D203909313238204368616E6EA0
:1018B000656C204D6963726F63656C2047656F646A
:1018C000657369632053656E736F72204E65747320
:1018D00020312E300A0D61202D203130093235366D
:1018E000204368616E6E656C204D6963726F63653D
:1018F0006C2047656F64657369632053656E736F11
:1019000072204E65747320312E300A0D000A0A0AC7
:101910000D456E7465722074686520536572696147
:101920006C206E6F2E206F66207468652046696E8D
:10193000616C20417373656D626C7920756E6465AE
:101940007220746573740A0D284D4158203D203172
:10195000322043686172616374657273290A0D00F5
:101960004E45542041444150544552204153534523
:101970004D424C59004E455420455854454E53490C
:101980004F4E20415353454D424C59004E45542033
:10199000415353454D424C59000A0A0A0D456E7495
:1019A0006572207468652050726F64756374277364
:1019B000205265766973696F6E202D20332043684D
:1019C00061726163746572732028652E672E203002
:1019D0003041290A0D000A0A0D456E7465722074A3
:1019E00068652050726F6475637420506172742052
:1019F0004E756D626572202D2034204E756D6572B6
:101A0000696320636861726163746572730A0D00B3
:101A10000A0A0D21212120494E56414C49442045B6
:101A20004E545259202D20506C65617365205265CB
:101A30007472790A0D000A0A0D46696E616C2054B1
:101A4000657374205374617274204D656E750A0D50
:101A50003D3D3D3D3D3D3D3D3D3D3D3D3D3D3D3DB6
:101A60003D3D3D3D3D0A0A0D53656C656374207430
:101A700068652050726F6475637420547970650ACC
:101A80000D31202D204E455420417373656D626CDD
:101A9000790A0D32202D204E455420457874656E0C
:101AA00073696F6E0A0D33202D204E45542041641A
:101AB00061707465720A0A0D56202D20566965778B
:101AC0002053746F72656420496E666F0A0D000AB8
:101AD0000D43757272656E7420454550524F4D200E
:101AE000436F6E74656E74730A0D3D3D3D3D3D3D23
:101AF0003D3D3D3D3D3D3D3D3D3D3D3D3D3D3D3D16
:101B00003D0A0A0D004E657420416461707465726F
:101B100020504342004E657420436F6E6E656374BF
:101B20006F72205043420020436F6D6D616E6420E0
:101B30006E6F7420696D706C656D656E7465640A96
:101B40000D000A0A426F6172642054657374204666
:101B500069726D776172650A0D2D2D2D2D2D2D2D3C
:101B60002D2D2D2D2D2D2D2D2D2D2D2D0A0A0D0038
:101B70000A0A0D21212120494E56414C4944205446
:101B8000455354204A49472049442044455445433D
:101B9000544544202121210A0D000A0A46696E613C
:101BA0006C2054657374204669726D776172650AA2
:101BB0000D2D2D2D2D2D2D2D2D2D2D2D2D2D2D2D75
:101BC0002D2D2D2D0A0D002A2A2A2A2A2A2A2A2AD0
:101BD0002A2A2A2A2A2A2A2A2A2A2A2A2A2A2A2A65
:101BE0002A2A2A2A2A2A2A2A2A2A2A2A2A2A2A2A55
:101BF0002A2A2A2A2A0A0D7C20436F707972696783
:101C00006874286329203230323620546865204DAC
:101C100061677374696D20436F6D70616E79204CDC
:101C200074642E207C200A0D7C20454547204E659B
:101C30007420436F6E6E6563746F722F41646170C0
:101C4000746572202D2054657374204669726D7717
:101C500061726520207C0A0D2A2A2A2A2A2A2A2A29
:101C60002A2A2A2A2A2A2A2A2A2A2A2A2A2A2A2AD4
:101C70002A2A2A2A2A2A2A2A2A2A2A2A2A2A2A2AC4
:101C80002A2A2A2A2A2A0A0A0D4669726D7761725F
:101C9000652049443A20000A0A0A0A0A0A0A0A0A7E
:101CA0000A0A0A0A0A0A0D000A0D00544A303030A6
:101CB0003030365F5357202D205665722042312E2A
:101CC0003132000011241FBECFEFD8E0DEBFCDBF00
:101CD00014E0A0E0B1E0E0EBF0E502C005900D9269
:101CE000A63BB107D9F726E0A6EBB4E001C01D92F0
:101CF000AE3CB207E1F70E9412130C9456280C94E4
:101D000000001092770510927605109275051092DA
:101D100074051092C50087E68093C40086E0809326
:101D2000C20088E98093C10008951F920F920FB6F8
:101D30000F9211248F939F93EF93FF9390917505CA
:101D400080917405981306C08091C1008F7D8093A7
:101D5000C10011C0E0917405F0E0E054FB4F8081B8
:101D60008093C600809174058F5F80937405843BD7
:101D700010F010927405FF91EF919F918F910F9049
:101D80000FBE0F901F901895F8942091750530E0C4
:101D9000809174057894482F50E02417350710F48B
:101DA0002C543F4F8D54821B08951F93CF93DF9384
:101DB000D82F192FC62F0E94C40E8C17E0F38091E4
:101DC00075052D2FED2FF12F9E2F921B9C1758F488
:101DD0009191A82FB0E0A054BB4F9C938F5F843BA0
:101DE00098F380E0F1CFF894809375058091C1005D
:101DF00085FD16C0E0917405F0E0E054FB4F808152
:101E00008093C600809174058F5F80937405843B36
:101E100010F0109274058091C10080628093C1001F
:101E2000789484E0DF91CF911F910895CF93DF9351
:101E3000FC0101900020E9F73197EF01C81BD90B95
:101E40006C2F0E94D50E843011F48C2F01C080E0DD
:101E5000DF91CF910895CF93C82F1092C1000E94B7
:101E6000810EEC2FF0E0EE0FFF1FE050FF4F81815D
:101E70008F9380818F9383E191E09F938F9387EE7F
:101E800095E09F938F930E946C250F900F900F9079
:101E90000F900F900F9087EE95E0CF910C94160F56
:101EA000209175059091740581E0291380E00895D3
:101EB0001F920F920FB60F9211242F933F934F93BF
:101EC0005F936F937F938F939F93AF93BF93EF93A2
:101ED000FF939091C0008091C600E0917705F0E0FB
:101EE000EA54FB4F8083809177058F5F809377055D
:101EF0008A3010F010927705892F8C7159F094FF79
:101F000002C080E005C093FF02C081E001C082E012
:101F10000E942B0FFF91EF91BF91AF919F918F91F5
:101F20007F916F915F914F913F912F910F900FBED5
:101F30000F901F90189530917705209176053217F4
:101F4000A9F0F894E0917605F0E0EA54FB4F208187
:101F5000FC012083809176058F5F809376058A301F
:101F600010F010927605789484E0089580E008954A
:101F7000CF93DF931F92CDB7DEB7CE0101960E94BB
:101F80009B0F21E030E0811102C020E030E0C90168
:101F90000F90DF91CF910895AF92BF92CF92DF92D1
:101FA000EF92FF921F93CF93DF93CDB7DEB7619788
:101FB0000FB6F894DEBF0FBECDBF182F7A016901AE
:101FC0006F3F710511F008F01F5F698388EEA82E3E
:101FD00083E0B82EAE014F5F5F4F61E0812F0E941A
:101FE0005612883251F081E0A81AB10899F78FE2B1
:101FF00095E00E94561480E01BC0AE014E5F5F4F1B
:102000006E2D812F0E948A1220E0822F90E08E1583
:102010009F0568F4F601E80FF91FA2E0B0E0AC0FED
:10202000BD1FA80FB91F8C9180832F5FEECF81E079
:1020300061960FB6F894DEBF0FBECDBFDF91CF9192
:102040001F91FF90EF90DF90CF90BF90AF900895D9
:102050006F927F928F929F92AF92BF92CF92DF92B8
:10206000EF92FF920F931F93CF93DF93CDB7DEB71D
:1020700061970FB6F894DEBF0FBECDBF882E962EA7
:102080006A017901062F172F77247394780E202F79
:10209000802F891990E08C159D05A0F50F3F110543
:1020A00019F010F0672C01C0682C2983F701E80FA4
:1020B000F91F80818A83AE014F5F5F4F61E0862DFB
:1020C0000E945612AE014F5F5F4F62E0862D0E9464
:1020D0005612AA24AA94B12CAE014F5F5F4F61E063
:1020E000862D0E945612883219F40F5F1F4FCFCFF2
:1020F00081E0A81AB10881F781E991E00E94160FEA
:1021000080E001C081E061960FB6F894DEBF0FBE9B
:10211000CDBFDF91CF911F910F91FF90EF90DF9096
:10212000CF90BF90AF909F908F907F906F900895C9
:102130006F927F928F929F92AF92BF92CF92DF92D7
:10214000EF92FF920F931F93CF93DF931F92CDB720
:10215000DEB7782E662E698300E010E0E12CF12CCA
:1021600092EBC92E91E0D92E27EEA22E25E0B22EB9
:102170004801892C992486940E94500F8823E1F30A
:10218000C40101969F938F9389811F928F93DF9251
:10219000CF92BF92AF920E946C2587EE95E00E948D
:1021A000160F9E012F5F3F4F41E050E0B701872D92
:1021B0000E9428109E012F5F3F4F41E050E0B70181
:1021C000872D0E94CC0F0FB6F894DEBF0FBECDBF97
:1021D00089816816E1F00E94500F8823E1F389811C
:1021E0001F928F9381EE91E09F938F9387EE95E0FE
:1021F0009F938F930E946C2587EE95E00E94160FA7
:102200000F900F900F900F900F900F900AC09FEFBC
:10221000E91AF90A0C591F4F011588EC180709F043
:10222000A7CF0E94500F8823E1F30F90DF91CF9149
:102230001F910F91FF90EF90DF90CF90BF90AF90E4
:102240009F908F907F906F9008955F926F927F9292
:102250008F929F92AF92BF92CF92DF92EF92FF92B6
:102260000F931F93CF93DF93CDB7DEB762970FB66F
:10227000F894DEBF0FBECDBF582E82EF91E00E94D2
:10228000160F198200E010E091E0692E92E0792E9D
:1022900027EEC22E25E0D22E3FE0A32E32E0B32E51
:1022A0001F930F937F926F92DF92CF920E946C25C3
:1022B00087EE95E00E94160F9E012F5F3F4F40E191
:1022C00050E0B801852D0E94CC0FCE0101964C0143
:1022D00087EEE82E85E0F82E0F900F900F900F906C
:1022E0000F900F90F40181914F011F928F93BF9235
:1022F000AF92FF92EF920E946C25F3E0EF0EF11C7B
:102300000F900F900F900F900F900F9087E1E816AD
:1023100086E0F80639F70E94500F8823E1F387EE34
:1023200095E00E94160F8BE292E00E94160F005F6C
:102330001F4F011592E0190709F0B2CF62960FB650
:10234000F894DEBF0FBECDBFDF91CF911F910F91EB
:10235000FF90EF90DF90CF90BF90AF909F908F90C5
:102360007F906F905F900895CF93DF9300D01F927E
:10237000CDB7DEB79E012F5F3F4F42E050E06EEFDA
:1023800070E00E94CC0F89819A819827892798272D
:102390000F900F900F90DF91CF9108958F929F92A1
:1023A000BF92CF92DF92EF92FF920F931F93CF9342
:1023B000DF93CDB7DEB762970FB6F894DEBF0FBEDE
:1023C000CDBFB82E198200E010E0E12CF12C4E01B7
:1023D00041E1840E911C9E012F5F3F4F40E150E090
:1023E000B7018B2D0E94CC0FFE0131968191080F11
:1023F000111D8E169F06D1F750E1E50EF11CE11478
:1024000082E0F80641F78B2D0E94B411292FA80114
:10241000481B5109CA01C22ED12C8C199D098095E7
:10242000909562960FB6F894DEBF0FBECDBFDF91D8
:10243000CF911F910F91FF90EF90DF90CF90BF90C1
:102440009F908F900895CF93DF9300D01F92CDB7C8
:10245000DEB779836A839E012F5F3F4F42E050E0F1
:102460006EEF70E00E9428100F900F900F90DF9198
:10247000CF910895CF93DF931F92CDB7DEB78FEF43
:102480009FEF2091BC002983298127FD02C001977D
:10249000C1F70F90DF91CF9108958CE08093B80041
:1024A000ECEBF0E08081846080830895FF920F93CD
:1024B0001F93CF93DF93C82F162FF42E052F84EA96
:1024C0008093BC000E943A12CC0FC093BB0084E8FA
:1024D0008093BC000E943A12CF2DD02FCE01810FE5
:1024E000911D8C0184E8F82EC017D10741F0899125
:1024F0008093BB00F092BC000E943A12F5CF80910D
:10250000B90094E99093BC00DF91CF911F910F9196
:10251000FF900895AF92BF92CF92DF92EF92FF9219
:102520000F931F93CF93DF93C82F062FF42E152FF1
:1025300084EA8093BC000E943A12CC0FC160C09321
:10254000BB0084E88093BC000E943A12CF2DD12FAB
:1025500010E0E12CF12C680181E0C81AD10884EC6C
:10256000B82E94E8A92EE016F10691F0CE14DF04FF
:1025700019F4A092BC0002C0B092BC000E943A12B2
:102580008091BB0088838FEFE81AF80A2196EBCF81
:1025900084E98093BC00DF91CF911F910F91FF9050
:1025A000EF90DF90CF90BF90AF9008951F93CF939F
:1025B000DF931F92CDB7DEB7182F1982AE014F5FA0
:1025C0005F4F61E00E945612AE014F5F5F4F61E0C6
:1025D000812F0E94561291E0883209F090E0892FF5
:1025E0000F90DF91CF911F910895813011F4289AB7
:1025F0000895289808958CE08BB98AB1806F8AB9C4
:102600008BB18F708BB9389A8AB1837F8AB9409821
:10261000409A4098409A4098409A4098209A80E08A
:102620000C94F5120E94FB120E94810E0E944D1222
:102630000E94DE240E9479140E944E14FDCF811165
:1026400002C0229805C0229A613011F42A9A01C072
:102650002A9883B184700895CF93DF93C9B1C47071
:10266000D4E08AE090E00E94E9240E9408258823B3
:10267000E1F389B18470C81307C0D15091F781E0AC
:10268000C11103C080E001C082E0DF91CF910895C5
:102690002BB12F7030E1839FC0011124822B8BB9A5
:1026A000089589B183FB882780F991E089270895EF
:1026B00090ED980F9A3058F0982F9F7D91549A3151
:1026C00030F091E08D3209F090E0892F089581E09B
:1026D0000895CF92DF92EF92FF920F931F93CF93C3
:1026E0007B016A019A01AB01BC01809188050E94BF
:1026F000CC0FC0E08C2F90E08601080F191FF80165
:102700008E159F0570F48081811102C0C1110AC02D
:102710000E945813811103C0F801108204C0CF5FDA
:10272000E9CF108281E0CF911F910F91FF90EF9040
:10273000DF90CF90089585E192E00E94160F80EB24
:1027400095E09F938F9384EB95E09F938F938EE218
:1027500092E09F938F9389E895E09F938F930E94D7
:102760006C2529E835E04CE050E062EE70E08091A5
:1027700088050E94281029EB35E04CE050E06EEE11
:1027800070E0809188050E9428102CEA35E044E032
:1027900050E06AEF70E0809188050E9428108091D7
:1027A00088050E94CE1190938605809385052DB7EC
:1027B0003EB7285F3F4F0FB6F8943EBF0FBE2DBF08
:1027C000BC01809188050C942312CF93DF938091F4
:1027D000DC059091DD05009771F10E94C524EC01A4
:1027E000833B910510F0C2EBD0E00E94C40E90E054
:1027F0008C179D07D0F3BE018091DC059091DD051B
:102800000E94B3242091DC053091DD052C0F3D1F83
:102810003093DD052093DC056C2F0E94D50EE091EE
:10282000DC05F091DD05E491E1110DC01092DD05AC
:102830001092DC0508C08091DE059091DF05909331
:10284000E1058093E005DF91CF9108950F931F93E9
:10285000CF93DF93EB018A019A01AB01BC01809118
:1028600088050E94CC0F8823A1F080E0282F30E05B
:10287000F801E20FF31F2C173D0748F490819053A5
:102880009A3018F0108280E004C08F5FEFCF108282
:1028900081E0DF91CF911F910F910895E091E005C4
:1028A000F091E105309709F0099408950F931F9373
:1028B000CF93DF938C010E94500F8823E1F3C091E6
:1028C000E005D091E1051093DD050093DC058091D2
:1028D000DC059091DD05892B19F00E94E513F7CFF7
:1028E000D093E105C093E005DF91CF911F910F9147
:1028F000089587E99CE10E94561487EC9BE10E94B1
:1029000056140E944E250E94561488EA9CE10E94AB
:1029100056140E942C138093820581110DC08AE900
:102920009BE10E94561486E39AE19093DD05809323
:10293000DC0582E79FE117C0823049F480E79BE124
:102940000E9456141092E1051092E005089582E469
:102950009BE10E9456148CE79DE09093DD058093E7
:10296000DC058AE49BE19093DF058093DE0585EE2C
:1029700093E19093E1058093E00508958F929F92F3
:10298000BF92CF92DF92EF92FF920F931F93CF935C
:10299000DF9300D0CDB7DEB71A8283E790E00E94C4
:1029A000561481E40E94D612882309F493C081E46E
:1029B00080938805AE014E5F5F4F61E00E94561222
:1029C00088EC90E00E94102510927905BB24B39406
:1029D00021E4E22E22E0F22E07EE15E034E5C32ECC
:1029E00032E0D32EE0917905EA3008F074C0F0E0CF
:1029F000EB56FB4F808180937A058F700E944813BD
:102A000084E690E00E941025AE014F5F5F4F61E0C9
:102A1000809188050E948A1289818F7089839091A4
:102A20007A05891305C09CE3892E92E0992E05C092
:102A300087E3882E82E0982EB12C80E00E94481314
:102A400080917A05982F91701F929F9381FB99270F
:102A500090F91F929F9382FB992790F91F929F9361
:102A600083FB882780F91F928F93FF92EF921F9329
:102A70000F930E946C2587EE95E00E94160F8981C6
:102A80009F928F92982F91701F929F9381FB99270D
:102A900090F91F929F9382FB992790F91F929F9321
:102AA00083FB882780F91F928F93DF92CF921F9329
:102AB0000F930E946C2587EE95E00E94160F80917F
:102AC00079058F5F809379050FB6F894DEBF0FBE4E
:102AD000CDBF88CFB12C8B2D0F900F90DF91CF9170
:102AE0001F910F91FF90EF90DF90CF90BF909F903C
:102AF0008F90089587E99CE10E94561483EA9BE039
:102B00000E94561485E79BE09093DD058093DC05D9
:102B100083E899E19093DF058093DE0585EE93E1EC
:102B20009093E1058093E00580EB95E09F938F9370
:102B300084EB95E09F938F9389EB95E09F938F9320
:102B40008CE692E09F938F9387EE95E09F938F930F
:102B50000E946C2587EE95E00E94160F8DB79EB7F8
:102B60000A960FB6F8949EBF0FBE8DBF8091840564
:102B7000882319F085E09BE102C085E19BE10E947A
:102B8000D1249F938F938EE794E09F938F9387EE4A
:102B900095E09F938F930E946C250F900F900F905C
:102BA0000F900F900F9087EE95E00C94160F1F93E7
:102BB000CF93DF931F92CDB7DEB7182FCE010196CA
:102BC0000E949B0F882381F0112369F089818D3049
:102BD00029F488EA9CE10E94561405C061E0CE0108
:102BE00001960E94D50E89810F90DF91CF911F91A0
:102BF0000895CF93DF931F92CDB7DEB780E00E9498
:102C0000D715882379F1883529F0883719F0803273
:102C100049F516C080E00E9448138BED92E0909336
:102C2000DD058093DC0580ED96E19093DF058093D0
:102C3000DE0585EE93E19093E1058093E00574C095
:102C400080917805882339F088EE93E00E94E9248A
:102C50001092780507C00E9408258823E1F381E0DF
:102C6000809378050E940825882309F45DC0E091CF
:102C70007905F0E0EB56FB4F808180937A058F70E9
:102C80000E94481388EE93E00E94E924AE014F5F52
:102C90005F4F61E0809188050E948A12998180913E
:102CA0007A05292F21701F922F9391FB222720F95B
:102CB0001F922F9392FB222720F91F922F9393FBB1
:102CC000992790F91F929F93982F91701F929F932D
:102CD00081FB992790F91F929F9382FB992790F986
:102CE0001F929F9383FB882780F91F928F938FE811
:102CF00092E09F938F9387EE95E09F938F930E942E
:102D00006C2587EE95E00E94160F809179058F5F04
:102D10000FB6F894DEBF0FBECDBF8A3018F4809393
:102D2000790502C0109279050F90DF91CF91089537
:102D3000CF9380E00E94D715C82F882379F18DE6C4
:102D400090E00E94D124FC0180ED8C0F8A30B0F419
:102D50009091C605E90FF11D8081C8130FC081E075
:102D6000890F8093C6058630C8F08BED92E0909372
:102D7000DD058093DC0580ED96E106C01092DD054F
:102D80001092DC0582E79FE19093DF058093DE05DA
:102D900085EE93E19093E1058093E005CF9108954E
:102DA0001F93CF93DF931F92CDB7DEB781E00E94D0
:102DB000F51260E080E00E941F1381E00E94D715A9
:102DC000882309F4A5C0843321F160F4823399F09B
:102DD000D0F4813309F05DC060E081E00E941F13F0
:102DE00080E50EC0883509F451C0883709F44EC01B
:102DF000853389F04EC060E081E00E941F1382E5B8
:102E00008093880553C061E081E00E941F1384E530
:102E1000F7CF61E0F1CF11E41093880581E40E94BF
:102E2000D612882309F442C00E94511381110DC0AB
:102E300080EE9EE00E9456148CE79DE09093DD05A5
:102E40008093DC058AE49BE159C0198210938805C0
:102E5000AE014F5F5F4F61E081E40E9456128CE546
:102E600092E09093DD058093DC0589EF95E19093E6
:102E7000DF058093DE0585EE93E19093E105809375
:102E8000E00588EC90E00E94E92442C087E99CE1DB
:102E900015C087E29BE10E9456148BED92E090935F
:102EA000DD058093DC0580ED96E128C080918805E2
:102EB0000E94D61281111AC08CEE9DE00E94561419
:102EC0008CE79DE09093DD058093DC058AE49BE12F
:102ED0009093DF058093DE0585EE93E19093E10505
:102EE0008093E00580E00E94F51212C081EC93E02F
:102EF0009093DD058093DC0583E29CE19093DF05F0
:102F00008093DE0585EE93E19093E1058093E005E3
:102F10000F90DF91CF911F91089581E00E94D71506
:102F2000882309F45BC0823349F118F5813309F035
:102F30003FC062ED72E084EB95E00E94652510923F
:102F4000840587E99CE10E9456148EE89CE00E946B
:102F5000D1240E94160F1092C6058BE08093C50500
:102F600081E39CE09093DD058093DC0580E998E1A6
:102F70002BC0883581F0883771F01AC087E99CE151
:102F80000E94561488EE90E09093DD058093DC0556
:102F900089E198E119C087E99CE10E9456148CE709
:102FA0009DE09093DD058093DC058AE49BE10CC0F5
:102FB00087E29BE10E94561485EB9CE09093DD052F
:102FC0008093DC058DE897E19093DF058093DE0523
:102FD00085EE93E19093E1058093E0050895CF930A
:102FE000DF931F92CDB7DEB7CE0101960E949B0FF3
:102FF0008111FACF81E00E94D71589838D3091F03D
:1030000028F4882361F08A3069F004C0883561F0C3
:10301000883751F085E79BE00E9456141982898118
:10302000882341F38AE001C088E70F90DF91CF91B8
:1030300008950E94EF17883769F487E99CE10E94A0
:10304000561485EB9CE09093DD058093DC058DE8BC
:1030500097E118C081E00E94F51284E690E00E949A
:10306000102581E40E94D612811117C08CEE9DE0DC
:103070000E94561488EE90E09093DD058093DC0565
:1030800089E198E19093DF058093DE0585EE93E179
:103090009093E1058093E00508950E9451138823E1
:1030A00029F30E94BE14811122C08AE399E00E9494
:1030B00056140E94EF178837D1F487E99CE10E94EB
:1030C000561482E698E00E94561485EB9CE090939B
:1030D000DD058093DC058DE897E19093DF05809313
:1030E000DE0585EE93E19093E1058093E00581EDA7
:1030F00098E00E94561485EB9CE09093DD05809348
:10310000DC058DE897E19093DF058093DE0585EE81
:1031100093E19093E1058093E00580E00C94F51233
:10312000CF9381E00E94D715C82F882309F476C079
:103130008D3049F018F48A3031F01DC0883551F0D7
:10314000883741F018C08091C60581113AC088E3E4
:1031500097E027C08091C60581110DC087E99CE1E9
:103160000E9456148CE79DE09093DD058093DC056A
:103170008AE49BE149C08C2F0E945813882379F080
:10318000E091C60581E08E0F8093C605F0E0E9531B
:10319000FA4FC0839091C505891798F43FC08AED16
:1031A00094E00E9456141092C6058BE08093C505EA
:1031B00081E39CE09093DD058093DC0580E998E154
:1031C00023C0C091C605EC2FF0E0E953FA4F1082FE
:1031D00067EC75E089EB95E00E946525CB3038F40B
:1031E000EC2FF0E0E754FA4F1082CF5FF7CF109248
:1031F000C60583E08093C50582ED9BE09093DD05D5
:103200008093DC0580E199E19093DF058093DE05F2
:1032100085EE93E19093E1058093E005CF910895C9
:10322000CF9381E00E94D715C82F882309F469C085
:103230008D3049F018F48A3031F020C0883569F0BB
:10324000883759F01BC09091C6058091C505981725
:1032500008F044C086ED97E027C08091C605811133
:103260000DC087E99CE10E9456148CE79DE0909385
:10327000DD058093DC058AE49BE125C08C2F0E944C
:103280005813882379F08091C605E82FF0E0E953C0
:10329000FA4FC0838F5F8093C6059091C50589174B
:1032A000E8F42FC08AED94E00E9456141092C605EF
:1032B00083E08093C50582ED9BE09093DD058093CC
:1032C000DC0580E199E19093DF058093DE0585EED2
:1032D00093E19093E1058093E00513C0E091C6056A
:1032E000F0E0E953FA4F108267EC75E080EB95E06F
:1032F0000E94652587E99CE10E945614CF910C94A9
:103300007A15CF91089581E00E94D7158823D9F1CD
:103310008D30A9F018F48A3091F01FC0883511F073
:103320008837D9F487E99CE10E9456148CE79DE028
:103330009093DD058093DC058AE49BE11AC010922E
:10334000C60583E08093C50583E39BE09093DD058C
:103350008093DC0583E89DE10CC080E19AE10E9446
:10336000561485E79BE09093DD058093DC0583E8A8
:1033700099E19093DF058093DE0585EE93E19093CC
:10338000E1058093E005089581E00E94D715882328
:1033900069F18D3051F018F48A3039F00FC088355A
:1033A00011F0883759F40C947A1582EF99E09093D4
:1033B000DD058093DC058FE19EE10EC085E79BE093
:1033C0000E94561480917B0590917C059093DD05B9
:1033D0008093DC0584EC99E19093DF058093DE0512
:1033E00085EE93E19093E1058093E0050895EF92D7
:1033F000FF920F931F93CF93DF9300D000D0CDB7F0
:10340000DEB788EA9CE10E9456148FEC9AE10E9494
:103410005614809188050E94B4119F938F9388E27F
:1034200093E09F938F9307EE15E01F930F930E94F5
:103430006C25C8010E94160F809188050E94CE114C
:1034400080938505909386059F938F9387ED92E0F7
:103450009F938F931F930F930E946C25C8010E9426
:10346000160F88EA9CE10E9456140FB6F894DEBF4E
:103470000FBECDBF0E94500F8823E1F381E696E096
:103480000E94561481E796E00E94D1247C0147EE09
:1034900055E064E070E080E090E00E94261488230C
:1034A00009F11DE21093EB054CEE55E062E070E08F
:1034B00084E090E00E9426148823A1F01093EE058A
:1034C0004FEE55E063E070E086E090E00E94691303
:1034D000882341F01092F20511E097EEE92E95E075
:1034E000F92E01C010E0C7010E94160F88EA9CE186
:1034F0000E945614112311F19E012F5F3F4F41E0AE
:1035000050E066E170E0809188050E94CC0F8981CF
:10351000803819F480E699E113C080917D058823F5
:1035200019F085E799E10CC0E0917E05F0E0EE0F1F
:10353000FF1FE156FB4F8081918102C081E796E039
:103540000E94D1249F938F9384EF92E09F938F9357
:1035500087EE95E09F938F930E946C2587EE95E010
:103560000E94160F0F900F900F900F900F900F90DA
:103570000E94500F8823E1F381E596E00E945614E3
:1035800081E796E00E94D1248C0147EE55E06DE082
:1035900070E089E090E00E946913882389F08DE251
:1035A0008093F40545EF55E06DE070E084E090E035
:1035B0000E946913882321F01092020607EE15E09D
:1035C000C8010E94160F88EA9CE10E9456140E94CE
:1035D000500F8823E1F381E496E00E94561481E7BE
:1035E00096E00E94D1248C0147EE55E06CE070E03B
:1035F00082EE90E00E946913882311F007EE15E037
:10360000C8010E94160F88EA9CE10E9456140E948D
:10361000500F8823E1F381E396E00E94561481E77E
:1036200096E00E94D1248C0147EE55E06CE070E0FA
:103630008EEE90E00E9469138823D1F068E073E079
:1036400087EE95E00E945125AE014F5F5F4F64E029
:1036500070E08AEF90E00E946913882349F0BE0170
:103660006F5F7F4F87EE95E00E94512507EE15E0D2
:10367000C8010E94160F88EA9CE10E9456140F9020
:103680000F900F900F90DF91CF911F910F91FF90AE
:10369000EF900895CF93DF9380918205811112C03E
:1036A00086E39AE19093DD058093DC0582E79FE154
:1036B0009093DF058093DE0585EE93E19093E1051D
:1036C0008093E00581E00E94D715882309F4B8C0F3
:1036D000863509F446C028F4843449F1843549F02C
:1036E00099C0843731F08637E1F1843609F092C011
:1036F0001EC01092C6058BE08093C50587E99CE14A
:103700000E94561485EB9CE09093DD058093DC05C8
:103710008DE897E19093DF058093DE0585EE93E1D8
:103720009093E1058093E0051092830589C087E9B5
:103730009CE10E9456148BED92E09093DD058093FE
:10374000DC0580ED96E19093DF058093DE0585EE44
:1037500093E19093E1058093E00581E080938305F8
:103760006FC087E99CE10E94561410927D0581E0AC
:103770000E94F51284E690E00E94102580E5809377
:10378000880583E59EE00E94D124EC0180918805A4
:103790000E94D612811122C084E5809388050E9480
:1037A000D612882349F081E080937D0581E39EE075
:1037B0000E94D124EC0112C081E4809388050E940C
:1037C000D612882331F081E08093840580E19EE069
:1037D00002C08CEE9DE00E94561405C0CE010E94EE
:1037E000160F0E94F7198CE79DE09093DD058093FA
:1037F000DC058AE49BE19093DF058093DE0585EE8E
:1038000093E19093E1058093E00580E0DF91CF9113
:103810000C94F51287E29BE10E9456148CE79DE020
:103820009093DD058093DC058AE49BE19093DF05AE
:103830008093DE0585EE93E19093E1058093E005AA
:10384000DF91CF910895EF92FF920F931F93CF9343
:10385000DF93CDB7DEB762970FB6F894DEBF0FBE29
:10386000CDBF81E00E94D715882309F43FC1883578
:1038700009F410C1A8F4803509F4FAC040F4843486
:1038800049F1883451F1833409F01AC12BC08335D2
:1038900009F4E6C08735E9F1823509F011C1E2C0CB
:1038A000803709F4E5C040F48436A1F08836A9F0E9
:1038B000833609F005C116C0833709F4D1C020F45E
:1038C000823709F4CFC0FCC0873719F1883709F473
:1038D000E1C0F6C00E94F719F7C0809188050E94E8
:1038E0002511F2C0809188050E94CE11182F092F52
:1038F000809188050E94B411F82EE92E0E94500F85
:103900008823E1F3EF92FF920F931F938AE093E0F5
:1039100095C08AE589839E012F5F3F4F41E050E0CB
:1039200060E470E0809188050E9428100E94500F8A
:103930008823E1F31F9280E48F9389811F928F93F4
:1039400085E493E09F938F9387EE95E09F938F9309
:103950000E946C2587EE95E00E94160F9E012F5F56
:103960003F4F41E050E060E470E0809188050E94A4
:10397000CC0F0FB6F894DEBF0FBECDBF0E94500F24
:103980008823E1F31F9280E48F9389811F928F93A4
:103990008BE693E09F938F9387EE95E09F938F93B1
:1039A0000E946C2587EE95E00E94160F85EA8983B8
:1039B0009E012F5F3F4F41E050E06FE071E080914A
:1039C00088050E9428100FB6F894DEBF0FBECDBF49
:1039D0000E94500F8823E1F381E08F938FE08F9353
:1039E00089811F928F9385E493E09F938F9387EE55
:1039F00095E09F938F930E946C2587EE95E00E943F
:103A0000160F9E012F5F3F4F41E050E06FE071E0E5
:103A1000809188050E94CC0F0FB6F894DEBF0FBED0
:103A2000CDBF0E94500F8823E1F381E08F938FE098
:103A30008F9389811F928F938BE693E09F938F934F
:103A400087EE95E09F938F930E946C2587EE95E01B
:103A50000E94160F0FB6F894DEBF0FBECDBF34C064
:103A60006FEF01C060E0809188050E9498102CC023
:103A70001092C6058BE08093C50587E99CE10E9402
:103A8000561485EB9CE09093DD058093DC058DE872
:103A900097E122C08BED92E09093DD058093DC05E9
:103AA00080ED96E19093DF058093DE0585EE93E14E
:103AB0009093E1058093E00580E00E94F51216C026
:103AC00087E29BE10E94561481EC93E09093DD0520
:103AD0008093DC0583E29CE19093DF058093DE0513
:103AE00085EE93E19093E1058093E00562960FB631
:103AF000F894DEBF0FBECDBFDF91CF911F910F9124
:103B0000FF90EF90089581E00E94D715882309F473
:103B100095C08D3071F018F48A3059F014C0883592
:103B200011F0883781F48091C605811187C00C940B
:103B30007A159091C6058091C505981708F07EC04A
:103B400086ED97E062C090ED980F9A3008F05BC068
:103B5000E091C605AE2FB0E0A953BA4F8C93EF5F4A
:103B6000E093C6058091C505E81368C0F0E0E9530D
:103B7000FA4F108267EC75E08CEA95E00E946525AB
:103B800087E99CE10E9456148CEA95E09F938F93FD
:103B900089EB95E09F938F9380E993E09F938F93B8
:103BA00087EE95E09F938F930E946C2587EE95E0BA
:103BB0000E94160F8DB79EB708960FB6F8949EBF59
:103BC0000FBE8DBF80918305882329F00E949B132F
:103BD0000E94F7190DC080918405882319F086E2B0
:103BE0009AE002C087E89AE090937C0580937B0579
:103BF00080917B0590917C059093DD058093DC0599
:103C000084EC99E111C084E994E00E94561410926A
:103C1000C60583E08093C50583E39BE09093DD05B3
:103C20008093DC0583E89DE19093DF058093DE05BA
:103C300085EE93E19093E1058093E00508950F935D
:103C40001F93CF93DF9387E99CE10E9456148CEA7F
:103C500095E09F938F9389EB95E09F938F9381ECF1
:103C600093E09F938F9387EE95E09F938F930E94AD
:103C70006C2587EE95E00E94160F81E00E94F512F8
:103C800088EE93E00E94E9248DB79EB708960FB6A0
:103C9000F8949EBF0FBE8DBF0E9408258823E1F3D4
:103CA000809184058823F1F060E081E00E941F1379
:103CB00080E5809388050E94CE11909386058093BD
:103CC0008505809188050E94B41120918505309169
:103CD00086058217930709F448C087EB96E00E9497
:103CE000561455C0CBEDD3E007EE15E019993AC054
:103CF00089EE96E00E94561483B186701F928F93CE
:103D0000DF93CF931F930F930E946C2587EE95E06E
:103D10000E94160F0E94EF170F900F900F900F90B8
:103D20000F900F90883711F71092C60583E08093AB
:103D3000C50583E39BE09093DD058093DC0583E874
:103D40009DE19093DF058093DE0585EE93E19093EE
:103D5000E1058093E00580E0DF91CF911F910F9105
:103D60000C94F5121A99C4CF9FCF8BE796E00E946E
:103D700056140E94F71988EA9CE10E94561485E7C0
:103D80009BE00E9456140E94EF17883769F260E0AA
:103D9000809188050E9498100E949B1388EF95E0FF
:103DA0000E94561480E00E94F51288EB9BE00E946E
:103DB000E9240E9408258823E1F381E00E94F5129E
:103DC00080918405811107C061E081E00E941F138A
:103DD00084E58093880547EE55E06CE070E082EE64
:103DE00090E00E946913882309F43FC069E875E0F8
:103DF00087EE95E00E945C25892BB9F547EE55E0EA
:103E00006CE070E08EEE90E00E946913882369F107
:103E100069EB75E087EE95E00E945C25892B29F51A
:103E200047EE55E064E070E08AEF90E00E9469138D
:103E30008823D9F06CEA75E087EE95E00E945C2556
:103E4000892B99F4809188050E94CE119093860564
:103E500080938505809188050E94B4112091850585
:103E6000309186058217930789F1C1E080E00E94B6
:103E7000F51260E080E00E941F1387E99CE10E9438
:103E80005614CC2319F080E595E002C081ED98E04E
:103E90000E9456141092C60583E08093C5058CE0FD
:103EA0009BE09093DD058093DC0583E89DE1909392
:103EB000DF058093DE0585EE93E19093E105809325
:103EC000E005DF91CF911F910F91089581EE95E06C
:103ED0000E9456140E94F71981EC99E00E94561432
:103EE000C0E0C4CFCF93DF9380E00E94D715882332
:103EF00009F4F6C08333C9F1B8F4813339F1823360
:103F000009F0CAC081E08093810525E739E130934B
:103F1000800520937F051092840580937D0561E0E4
:103F20000E941F1384E53AC0863509F459C08637CC
:103F300009F456C0843409F0AFC01092C60510923F
:103F4000DD051092DC0588E996E1C0C0109281057C
:103F50008CE899E19093800580937F051092840509
:103F600010927D0560E081E016C00E94511381111E
:103F700003C080EE9EE092C082E08093810580E6DF
:103F800099E19093800580937F0581E0809384057B
:103F900010927D0560E00E941F1380E580938805E4
:103FA00080917D05882309F484C080EB9EE00E9407
:103FB000561488E690E00E94D124BC018AE995E07D
:103FC0000E9465251092C60583E08093C50589E9A6
:103FD00099E19093DD058093DC0585EE92E276C051
:103FE00087E99CE10E94561481E00E94F51284E664
:103FF00090E00E94102580E58093880586E79EE08A
:104000000E94D124EC01809188050E94D612811172
:1040100015C084E5809388050E94D612882349F054
:1040200080EB9EE00E94D124EC0181E080937D052D
:1040300017C08CEE9DE00E94561417C081E4809357
:1040400088050E94D612882341F081E08093840580
:1040500081E99EE00E94D124EC0180E580938805EF
:10406000CE010E94160F0E94F71986E39AE1909301
:10407000DD058093DC0582E79FE19093DF05809367
:10408000DE0585EE93E19093E1058093E00580E005
:10409000DF91CF910C94F51280E19AE10E945614C1
:1040A00086E39AE19093DD058093DC0582E79FE14A
:1040B0000DC01092C60584E08093C50586ED99E198
:1040C0009093DD058093DC0583E790E29093DF0514
:1040D0008093DE0585EE93E19093E1058093E00502
:1040E000DF91CF91089581E00E94D715882309F4CC
:1040F00063C08D30C9F018F48A30B1F018C088352B
:1041000011F08837A1F48091C605811104C087E9B8
:104110009CE10E94561486E39AE19093DD0580931A
:10412000DC0582E79FE13EC08CE198E02CC090ED79
:10413000980F9A3030F5E091C605AE2FB0E0A95344
:10414000BA4F8C93EF5FE093C6058091C505E817E1
:1041500098F1F0E0E953FA4F108267EC75E08AE9D4
:1041600095E00E9465251092C60583E08093C50501
:1041700089E999E19093DD058093DC0585EE92E273
:1041800011C084E994E00E9456141092C60584E0A0
:104190008093C50586ED99E19093DD058093DC055C
:1041A00083E790E29093DF058093DE0585EE93E14F
:1041B0009093E1058093E005089581E00E94D71572
:1041C0008823D9F18D30A9F018F48A3091F01FC0FE
:1041D000883511F08837D9F487E99CE10E9456149C
:1041E00086E39AE19093DD058093DC0582E79FE109
:1041F0001AC01092C6058CE08093C5058DE099E148
:104200009093DD058093DC0587EA93E20CC080E1A2
:104210009AE10E94561485E79BE09093DD05809318
:10422000DC058DED90E29093DF058093DE0585EE51
:1042300093E19093E1058093E0050895CF93DF9398
:104240001F92CDB7DEB781E00E94D715882309F40D
:104250002FC18D3011F118F48A30F9F011C0883572
:1042600011F0883769F487E99CE10E94561486E3CF
:104270009AE19093DD058093DC0582E79FE10EC112
:1042800080E19AE10E94561485E79BE09093DD055A
:104290008093DC058DED90E201C187E99CE10E94ED
:1042A000561481E00E94F51284E690E00E941025E9
:1042B00080917F05909180050E94D1249F938F93D8
:1042C00080EF93E09F938F9387EE95E09F938F937A
:1042D0000E946C2587EE95E00E94160F2AE935E0D2
:1042E00044E050E060E070E0809188050E94281072
:1042F0000F900F900F900F900F900F9081110BC0A7
:104300000E94F5128CEE90E19093DD058093DC0520
:1043100083E794E2C3C020E134E042E050E064E08F
:1043200070E0809188050E94281026E935E043E07E
:1043300050E066E070E0809188050E9428102FE927
:1043400035E04DE050E069E070E0809188050E9422
:10435000281080918405882331F080E889839E01AC
:104360002F5F3F4F02C02EE735E041E050E066E1AD
:1043700070E0809188050E94281080918405811149
:1043800004C080917D05882329F019829E012F5F4A
:104390003F4F05C020917E0530E0285F3E4F41E051
:1043A00050E067E170E0809188050E9428108091BC
:1043B00088050E94CE119093860580938505BC01E7
:1043C000809188050E9423120E94F71980E00E94C4
:1043D000F512809188058093870580918105823050
:1043E00009F054C086E190E10E9456140E94B80F73
:1043F000892BE1F381E48093880581E00E94F51226
:1044000084E690E00E9410250E94BE14811134C001
:104410008FE89FE00E9456140E94EF17883739F505
:1044200087E99CE10E9456141092C6058CE08093A7
:10443000C50583E29FE00E94561486E39AE19093BB
:10444000DD058093DC0582E79FE19093DF05809393
:10445000DE0585EE93E19093E1058093E00580E031
:104460000E94F512809187058093880521C087E915
:104470009CE10E945614C8CF8091870580938805DF
:1044800080E00E94F51288E093E102C086EA91E1A3
:104490009093DD058093DC0589E294E29093DF053B
:1044A0008093DE0585EE93E19093E1058093E0052E
:1044B0000F90DF91CF910895CF93DF9383EA9BE034
:1044C0000E94561480917F05909180050E94D1240E
:1044D0009F938F9383E194E09F938F93C7EED5E0F2
:1044E000DF93CF930E946C25CE010E94160F86E9C0
:1044F00095E09F938F938AE995E09F938F938DE248
:1045000094E09F938F93DF93CF930E946C25CE010D
:104510000E94160F8DB79EB70E960FB6F8949EBFE9
:104520000FBE8DBF80918405882321F06FE474E075
:10453000CE0108C080917D05882339F062E674E0E1
:1045400087EE95E00E9465251BC0E0917E05F0E0B6
:10455000EE0FFF1FE156FB4F808191810E94D12415
:104560009F938F9386E794E09F938F93DF93CF93EE
:104570000E946C250F900F900F900F900F900F904E
:1045800087EE95E00E94160F8FE995E020919F0538
:104590002223C1F09F938F9384E894E09F938F939D
:1045A00087EE95E09F938F930E946C250F900F905C
:1045B0000F900F900F900F9087EE95E0DF91CF91C5
:1045C0000C94160FDF91CF910895CF9381E00E9454
:1045D000D715C82F882309F483C08D30A9F018F4AB
:1045E0008A3091F01AC0883511F08837B1F487E924
:1045F0009CE10E94561486E39AE19093DD05809336
:10460000DC0582E79FE162C09091C6058091C505F7
:10461000981748F586ED97E016C08C2F0E94581326
:10462000882379F08091C605E82FF0E0E953FA4F2E
:10463000C0838F5F8093C6059091C505891798F454
:104640004FC08AED94E00E9456141092C60583E094
:104650008093C50589E999E19093DD058093DC0598
:1046600085EE92E233C0E091C605F0E0E953FA4FDF
:10467000108267EC75E086E995E00E94652587E980
:104680009CE10E94561410929F058091840581112F
:1046900007C080917D05882389F010927E0503C0B4
:1046A00080E880937E050E945C2285E79BE09093E2
:1046B000DD058093DC058DED90E208C080E596E194
:1046C0009093DD058093DC0582E793E29093DF050C
:1046D0008093DE0585EE93E19093E1058093E005FC
:1046E000CF91089581E00E94D715882379F190ED4C
:1046F000980F9A3018F490937E0514C08F7D813402
:1047000021F48AE080937E050DC080E19AE10E9449
:10471000561480E596E19093DD058093DC0582E7F1
:1047200093E20AC00E945C2285E79BE09093DD053E
:104730008093DC058DED90E29093DF058093DE059C
:1047400085EE93E19093E1058093E0050895CF9382
:1047500081E00E94D715C82F882309F478C08D30D6
:10476000C9F018F48A30B1F01CC0883511F08837D0
:10477000C1F4E091C605E1111BC087E99CE10E94EC
:10478000561486E39AE19093DD058093DC0582E779
:104790009FE153C08091C605811129C08CE897E044
:1047A00016C08C2F0E945813882379F0E091C6051B
:1047B00081E08E0F8093C605F0E0E953FA4FC08385
:1047C0009091C505891798F442C08AED94E00E9443
:1047D00056141092C6058CE08093C5058DE099E1D2
:1047E0009093DD058093DC0587EA93E226C0C091B3
:1047F000C605EC2FF0E0E953FA4F108267EC75E044
:104800008FE995E00E946525CC3038F4EC2FF0E07C
:10481000E156FA4F1082CF5FF7CFC093C6050E94D2
:104820005C2283EB90E10E94561485E79BE0909315
:10483000DD058093DC058EE191E29093DF058093A6
:10484000DE0585EE93E19093E1058093E005CF913D
:10485000089581E00E94D715882309F443C08D3064
:10486000A9F018F48A3091F029C0883511F0883702
:1048700029F587E99CE10E94561486E39AE190931A
:10488000DD058093DC0582E79FE122C087E99CE19A
:104890000E9456140E941E2110929F050E945C22C5
:1048A0001092C6058CE08093C5058DE099E1909348
:1048B000DD058093DC0587EA93E20AC080E19AE196
:1048C0000E9456141092DD051092DC0589E294E2F4
:1048D0009093DF058093DE0585EE93E19093E105EB
:1048E0008093E005089581E00E94D7158823D1F1D7
:1048F0008D30C9F018F48A30B1F020C0883511F03D
:104900008837E1F487E99CE10E94561483E29FE036
:104910000E94561486E39AE19093DD058093DC05AE
:1049200082E79FE115C00E945C2285E79BE090939F
:10493000DD058093DC058EE191E20AC080E19AE119
:104940000E9456141092DD051092DC0589E294E273
:104950009093DF058093DE0585EE93E19093E1056A
:104960008093E0050895A9E1B6E020E030E0261745
:10497000370741F0FC01E20FF31FE491ED932F5F45
:104980003F4FF5CF89E196E008959C0180E090E0EB
:10499000F901E80FF91FE491EE2311F00196F8CF29
:1049A0000895CF93DF93EC010E94C524BC016F5F93
:1049B0007F4FCE01DF91CF910C94B3241092E60586
:1049C0001092E5051092E4051092E3051092E205BD
:1049D00008951092E2059093E6058093E505109204
:1049E000E4051092E30510928500109284008AEF8E
:1049F00090E09093890080938800EFE6F0E080815A
:104A000082608083E1E8F0E08081836080830895A4
:104A10008091E205882319F01092E20581E0089563
:104A20000E94E9240E9408258823E1F308951F923B
:104A30000F920FB60F9211242F933F938F939F9352
:104A40008091E3059091E40501969093E4058093AD
:104A5000E3052091E5053091E6058217930759F4A7
:104A60001092810080916F008D7F80936F0081E0B4
:104A70008093E2050AC08091880090918900865059
:104A80009F4F90938900809388009F918F913F91D1
:104A90002F910F900FBE0F901F9018958BEA9CE1FD
:104AA0000895FB01DC010D900020E9F711970190BA
:104AB0000D920020E1F70895FB01DC018D9101903A
:104AC00080190110D9F3990B0895FB01DC010190C5
:104AD0000D920020E1F70895AEE0B0E0E2E7F5E2E4
:104AE0000C942D280D891E8986E08C831A830983F6
:104AF0008FEF9FE79E838D83AE01475E5F4F6F8987
:104B0000788DCE0101960E948E25EF81F885E00F09
:104B1000F11F10822E96E4E00C944928ABE0B0E03F
:104B2000E4E9F5E20C941F286C017B018A01FC0189
:104B300017821682838181FFCCC1CE0101963C0190
:104B4000F6019381F70193FD859193FF81917F0198
:104B5000882309F4BAC1853239F493FD859193FF16
:104B600081917F01853229F4B60190E00E9485276A
:104B7000E7CF912C212C312CFFE1F315D8F08B32AB
:104B800079F038F4803279F08332A1F4232D20615A
:104B90001DC08D3261F0803369F4232D216016C071
:104BA000832D8260382EE32DE4603E2E2AC0F32D43
:104BB000F8601DC037FC2DC020ED280F2A3040F0D2
:104BC0008E32B9F436FC81C1232D2064322E19C0F7
:104BD00036FE06C08AE0989E200D1124922E11C048
:104BE000EAE02E9E200D1124222EF32DF0623F2E9E
:104BF00008C08C3621F4832D8068382E02C0883698
:104C000041F4F70193FD859193FF81917F0181111B
:104C1000B3CF982F9F7D9554933028F40C5F1F4F8E
:104C20009FE399830DC0833631F0833771F083356C
:104C300009F059C021C0F801808189830E5F1F4FA0
:104C400088248394912C530113C02801F2E04F0E65
:104C5000511CF801A080B18036FE03C0692D70E0C0
:104C600002C06FEF7FEFC5010E947A274C018201DD
:104C7000F32DFF773F2E16C0280122E0420E511C73
:104C8000F801A080B18036FE03C0692D70E002C03B
:104C90006FEF7FEFC5010E946F274C01F32DF06885
:104CA0003F2E820133FC1BC0822D90E088169906AE
:104CB000B0F4B60180E290E00E9485272A94F4CFF8
:104CC000F50137FC859137FE81915F01B60190E0D7
:104CD0000E94852721102A9421E0821A91088114CC
:104CE000910471F7E8C0843611F0893641F5F80176
:104CF00037FE07C060817181828193810C5F1F4FF5
:104D000008C060817181072E000C880B990B0E5F23
:104D10001F4FF32DFF763F2E97FF09C0909580958A
:104D2000709561957F4F8F4F9F4FF0683F2E2AE01F
:104D300030E0A3010E94C127882E861845C0853720
:104D400031F4232D2F7EB22E2AE030E025C0932DA2
:104D5000997FB92E8F36C1F018F4883579F0B5C037
:104D6000803719F0883721F0B0C0E92FE061BE2EFE
:104D7000B4FE0DC0FB2DF460BF2E09C034FE0AC086
:104D8000292F2660B22E06C028E030E005C020E1C1
:104D900030E002C020E132E0F801B7FE07C06081D8
:104DA0007181828193810C5F1F4F06C06081718188
:104DB00080E090E00E5F1F4FA3010E94C127882E64
:104DC0008618FB2DFF773F2E36FE0DC0232D2E7F3C
:104DD000A22E891458F434FE0BC032FC09C0832D76
:104DE0008E7EA82E05C0B82CA32C03C0B82C01C001
:104DF000B92CA4FE0FC0FE01E80DF11D80818033A7
:104E000021F49A2D997EA92E09C0A2FE06C0B39462
:104E1000B39404C08A2D867809F0B394A3FC11C022
:104E2000A0FE06C0B21488F4280C922C9B180EC069
:104E3000B21460F4B60180E290E00E948527B3943A
:104E4000F7CFB21418F42B1802C0982C212CA4FE12
:104E500010C0B60180E390E00E948527A2FE17C033
:104E6000A1FC03C088E790E002C088E590E0B601AD
:104E70000CC08A2D867859F0A1FE02C08BE201C0D9
:104E800080E2A7FC8DE2B60190E00E94852789149C
:104E900038F4B60180E390E00E9485279A94F7CF1A
:104EA0008A94F301E80DF11D8081B60190E00E9423
:104EB00085278110F5CF222009F442CEB60180E289
:104EC00090E00E9485272A94F6CFF601868197818B
:104ED00002C08FEF9FEF2B96E2E10C943B28FC0180
:104EE0000590615070400110D8F7809590958E0F15
:104EF0009F1F0895FC016150704001900110D8F788
:104F0000809590958E0F9F1F08950F931F93CF93B9
:104F1000DF93FB01238121FD03C08FEF9FEF2CC0A6
:104F200022FF16C0468157812481358142175307DD
:104F300044F4A081B1819D012F5F3F4F31832083D5
:104F40008C93268137812F5F3F4F3783268314C090
:104F50008B01EC01FB010084F185E02D0995892B83
:104F6000E1F6D80116968D919C91179701961796A8
:104F70009C938E931697CE01DF91CF911F910F9145
:104F80000895FA01AA27283051F1203181F1E894DF
:104F90006F936E7F6E5F7F4F8F4F9F4FAF4FB1E02C
:104FA0003ED0B4E03CD0670F781F891F9A1FA11D27
:104FB000680F791F8A1F911DA11D6A0F711D811D28
:104FC000911DA11D20D009F468943F912AE0269FED
:104FD00011243019305D3193DEF6CF010895462F4C
:104FE0004770405D4193B3E00FD0C9F7F6CF462F2D
:104FF0004F70405D4A3318F0495D31FD4052419396
:1050000002D0A9F7EACFB4E0A69597958795779552
:105010006795BA95C9F700976105710508959B01D9
:10502000AC010A2E06945795479537952795BA9562
:10503000C9F7620F731F841F951FA01D08952F923B
:105040003F924F925F926F927F928F929F92AF9218
:10505000BF92CF92DF92EF92FF920F931F93CF9365
:10506000DF93CDB7DEB7CA1BDB0B0FB6F894DEBFFC
:105070000FBECDBF09942A88398848885F846E8422
:105080007D848C849B84AA84B984C884DF80EE806C
:10509000FD800C811B81AA81B981CE0FD11D0FB675
:1050A000F894DEBF0FBECDBFED010895F894FFCF99
:1050B000290140015C0172013F7FFF1F3F7FFF1FFD
:1050C0003F7FFF0A0A0D53595354454D2045525214
:1050D0004F520A0D25730A0D000A0D53657269615E
:1050E0006C204672616D696E67204572726F720046
:1050F0000A0D53657269616C2044617461204F76BA
:10510000657272756E204572726F72000A0D53657A
:105110007269616C20506172697479204572726F96
:1051200072000A0D53657269616C205458206275D3
:1051300066206F766572666C6F77204572726F724B
:10514000000A0A0D21212120454550524F4D20577C
:1051500072697465204572726F72202121210A0ADA
:105160000D000D526573657474696E6720416C6C37
:10517000206F6620454550524F4D20746F202530DA
:105180003278202D2025303364252520646F6E650C
:10519000000A0D4572617365204552522025780A38
:1051A0000D000A0A0D4845582044554D500A0D0A75
:1051B0000041646472203D20253034783A20002577
:1051C00030327820000A0A0D5570646174696E6788
:1051D00020454550524F4D2021210A0A0D002573CC
:1051E0002D30312D2573004641494C005041535319
:1051F000002530317825303178253031782530312F
:1052000078202000253031782530317825303178EC
:1052100025303178202D2025730A0D00574F204E60
:105220006F2020203D2025730A0D41737379204E95
:105230006F203D2025732D30312D25732020002037
:105240002530317820202020253031782020202062
:105250002530317820202020253031782020202052
:10526000202D20446174612052656164203D202519
:105270003031782530317825303178253031780A51
:105280000D00363531390043616C63756C617465AE
:105290006420436865636B73756D203D2025303451
:1052A000780A0D004E45542049442020202020201B
:1052B000203D2025730A0D002D000A0D43616C630B
:1052C000756C6174656420436865636B73756D20EC
:1052D0003D20253034780A0D53746F726564204385
:1052E0006865636B73756D20202020203D2025307C
:1052F00034780A0D000A0D4461746120253032783B
:10530000207772697474656E20746F2061646472B2
:1053100065737320253034780A0D000A0D446174DA
:1053200061202530327820726561642066726F6D6D
:10533000206164647265737320253034780A0D002F
:105340000A0A426F6172642049443A2025732D2570
:10535000732069732073656C656374656420666F80
:10536000722070726F6772616D6D696E670A0A0DE7
:105370000050726F6772616D6D696E6720426F6178
:1053800072642025732D25730A0D004865616465DC
:105390007220506F7274203D20253032780A0D0043
:1053A0000A0A0D50726F6772616D6D696E672044F5
:1053B000657461696C7320666F722025730A0D0035
:1053C00030300046696E616C20417373656D626CAC
:1053D0007920547970653A2025730A0D0046696E6C
:1053E000616C20417373656D626C79204E756D62DE
:1053F00065723A2025732D30302D25730A0D004E2D
:1054000065742049443A20414441505445520A0AA7
:105410000D004E65742049443A20455854454E4489
:1054200045520A0A0D004E65742049443A202573FE
:105430000A0A0D0053657269616C204E6F3A20258F
:10544000730A0A0D0000010204080F0E0D0B072954
:10545000160116D915A915791548151715E714B6AB
:0654600014B614841400D0
:00000001FF
