:100000000C94F70E0C94140F0C94140F0C94140F02
:100010000C94140F0C94140F0C94140F0C94140FD4
:100020000C94140F0C94140F0C94140F0C94272799
:100030000C94140F0C94140F0C94140F0C94140FB4
:100040000C94140F0C94140F0C94ED0F0C942A0FB5
:100050000C94140F0C94140F0C94140F0C94140F94
:100060000C94140F0C94140F36373038003237309C
:100070003436330A0D53656C6563742044657461CE
:10008000696C20546F2050726F6772616D0A0D3D6C
:100090003D3D3D3D3D3D3D3D3D3D3D3D3D3D3D3D90
:1000A0003D3D3D3D3D3D3D0A0D31202D2050726FBF
:1000B00064756374206E756D6265722C20636F6465
:1000C00065202620526576202839204368617273A6
:1000D000290A0D32202D2053657269616C206E75DE
:1000E0006D62657220283132206368617273206D01
:1000F0006178290A0D33202D204E65742049442053
:10010000283120636861723A203020746F204129C1
:100110000A0D34202D205043422041737379205022
:100120004E2F436F646520262052657620283920A3
:100130006368617273290A0D35202D2050434220D7
:100140004173737920576F726B73204F72646572BD
:10015000204E6F2E20283131206368617273206D2C
:100160006178290A0D36202D2050434220417373B7
:10017000792053657269616C204E6F2E20283320E0
:100180006368617273290A0A0D000A0D4E657420B6
:100190004964656E74696669636174696F6E205441
:1001A0006573740A0D3D3D3D3D3D3D3D3D3D3D3D4D
:1001B0003D3D3D3D3D3D3D3D3D3D3D3D0A0D4269A1
:1001C0007433203D2047534E332C20426974322033
:1001D0003D2047534E322C2042697431203D204748
:1001E000534E312C2042697430203D2047534E300D
:1001F0000A0A0D4F555420202020494E0A0D000AAE
:100200000D4E6574204164617074657220426F61A7
:10021000726420546573740A0D3D3D3D3D3D3D3D86
:100220003D3D3D3D3D3D3D3D3D3D3D3D3D3D3D3DFE
:100230000A0D202A20456E7375726520746865204A
:10024000442D7375622050434220417373792041DD
:1002500064617074657220697320636F6E6E65638C
:1002600074656420746F207468652054657374200D
:100270004A69670A0D202A20456E737572652074DD
:100280006865203130302057617920436F6E6E658C
:1002900063746F7220697320636F6E6E656374653B
:1002A0006420746F204A33206F6E2074686520428A
:1002B00055540A0D202A20456E73757265207468A6
:1002C0006520342C20746573742070696E73206F00
:1002D0006E2074686520442D73756220504342205F
:1002E0004173737920416461707465722061726535
:1002F00020636F6E6E65637465640A0D2020207440
:100300006F2074686520617070726F7072696174BB
:100310006520736F636B657473206F6E20746865FE
:1003200020487970657274726F6E69637320636FB1
:100330006E6E6563746F72206F6E20746865204204
:1003400055540A0D50726573732027582720746F17
:100350002045786974206F72207072657373204530
:100360004E54455220746F2070726F636565640A45
:100370000A0D000A0A0A0A0D506F7274204578703F
:10038000616E6465722044656275670A0D3D3D3D8E
:100390003D3D3D3D3D3D3D3D3D3D3D3D3D3D3D3D8D
:1003A0000A0D50726573732027582720746F2045FB
:1003B000786974206F722070726573732053504196
:1003C000434542415220746F20706175736520610E
:1003D0006E6420726573756D650A0A0D47534E335E
:1003E0002047534E322047534E312047534E300A58
:1003F0000D000A0A0A0A0D4445425547204D454E54
:10040000550A0D3D3D3D3D3D3D3D3D3D3D0A0D0AFD
:100410000D53656C65637420454550524F4D204126
:100420006464726573733A0A0D31202D203078357B
:10043000303A204E657420436F6E6E6563746F7240
:100440002F4E657420416461707465720A0D32200C
:100450002D20307835323A2041444320426F747465
:100460006F6D2042640A0D33202D20307835343AE8
:10047000204E657420457874656E73696F6E0A0D41
:1004800034202D20307835363A2041444320546FB3
:10049000702042640A0D35202D20307834313A2006
:1004A000506F727420457870616E646572202836D2
:1004B0003736392D3031202620363737302D303140
:1004C000290A0D0A0D5072657373205820746F202D
:1004D000657869740A0A0D000A0A0A0A0D45455032
:1004E000524F4D2044656275670A0D3D3D3D3D3DCF
:1004F0003D3D3D3D3D3D3D0A0A0D44202D204469D2
:1005000073706C61792053746F72656420446574F4
:1005100061696C730A0D48202D2048657820447568
:100520006D700A0D57202D2057726974650A0D529F
:10053000202D20526573657420454550524F4D2043
:10054000746F2030300A0D53202D205365742045E0
:100550004550524F4D20746F2046460A0D43202DC2
:1005600020446973706C617920436865636B7375AF
:100570006D730A0D50202D2050726F6772616D20CF
:10058000426F6172642044657461696C730A0D582E
:10059000202D2052657475726E20746F2044656240
:1005A0007567204D656E750A0A0D000A0A0D202137
:1005B000212120506C656173652052652D456E7454
:1005C0006572207573696E67206E756D65726963FB
:1005D0002063686172616374657273206F6E6C79F9
:1005E00020282730272D27392729202121210A0DCE
:1005F000000A0A0D2021212120506C6561736520BD
:1006000052652D456E746572207573696E67204161
:100610006C7068612D6E756D6572696320636861C9
:1006200072616374657273206F6E6C792028274144
:10063000272D275A272C202730272D2739272920F7
:100640002121210A0D000A0A0D20212121204545E2
:1006500050524F4D2052454144204552524F522056
:100660002121210A0A0D000A0D2121212121212108
:10067000212121212121212121212121212121216A
:100680002121212121212121212121210A0D212185
:1006900021204461746120726574656E74696F6EA7
:1006A00020436865636B204641494C454420212125
:1006B000210A0D2121212121212121212121212155
:1006C000212121212121212121212121212121211A
:1006D0002121212121210A0A0D52656D6F766520A5
:1006E000426F61726420616E642071756172616E27
:1006F00074696E650A0A0D000A0D44617461207206
:100700006574656E74696F6E204F4B0A0A0D000A9E
:100710000D436865636B696E672064617461207264
:100720006574656E74696F6E0A0D506F77657269D6
:100730006E67204F464620666F72203320736563D4
:100740006F6E64730A0A0D0050434220417373793F
:1007500020532F4E203D2000504342204173737997
:1007600020502F4E203D200050726F64756374201E
:10077000532F4E20203D200050726F64756374200B
:10078000502F4E20203D2000556E646566696E65D1
:1007900064000A0A0D212121205741524E494E473B
:1007A000202121210A0D43616C63756C61746564BD
:1007B00020616E642053746F7265642043686563C2
:1007C0006B73756D204D617463680A0A0D000A0A27
:1007D0000D21212120436865636B73756D206D6960
:1007E000736D61746368202121210A0D536574744F
:1007F000696E6720757020454550524F4D0A0D00B7
:100800000A0A0D21212120436865636B2048656138
:100810006465722069732066697474656420636F0F
:1008200072726563746C79202121210A0D50726502
:1008300073732027782720746F20454E544552202B
:100840006B657920746F2072657472790A0D000AE5
:100850000A0D212121204E6F7420456E6F75676847
:10086000206368617261637465727320666F7220C1
:10087000576F726B73204F72646572202D20312088
:10088000746F203131205265717569726564202161
:1008900021210A0D506C656173652072657472794F
:1008A0000A0D000A0A0D212121204E6F2063686184
:1008B0007261637465727320656E7465726564201D
:1008C0002D206D6178696D756D206F662031322045
:1008D0005265717569726564202121210A0D506C81
:1008E000656173652072657472790A0D000A0A0DDC
:1008F000212121204E6F7420456E6F75676820633B
:1009000068617261637465727320656E7465726587
:1009100064202D2033205265717569726564202131
:1009200021210A0D506C65617365207265747279BE
:100930000A0D000A0A0D212121204E6F7420456EF8
:100940006F75676820636861726163746572732094
:10095000656E7465726564202D2034205265717552
:1009600069726564202121210A0D506C65617365EF
:100970002072657472790A0D002121212121212123
:100980002121212121212121212121210A0D212182
:10099000212054455354204641494C4544202121AF
:1009A000210A0D2121212121212121212121212162
:1009B0002121212121210A0A0D52656D6F766520C2
:1009C000426F61726420616E642071756172616E44
:1009D00074696E65206F722072657465737420622D
:1009E0006F6172640A0A0D000A0A0D2A2A2A2A2A4D
:1009F0002A2A2A2A2A2A2A2A2A2A2A2A2A2A0A0D94
:100A00002A2A2A2054455354205041535345442008
:100A10002A2A2A0A0D2A2A2A2A2A2A2A2A2A2A2A73
:100A20002A2A2A2A2A2A2A2A0A0A0D52656D6F764C
:100A30006520426F61726420616E64206170706C29
:100A40007920544553544544204D41524B0A0A0DD8
:100A5000000A0D212121204E4554204944454E5481
:100A6000494649434154494F4E205445535420462A
:100A700041494C4544202121210A0A0D456E7375D8
:100A8000726520436F6E6E656374696F6E20746F5C
:100A9000204C656761637920436F6E6E6563746F88
:100AA0007220697320636F72726563740A0D5072ED
:100AB0006573732027582720746F20657869742028
:100AC0006F7220454E544552206B657920746F201B
:100AD00052657472790A0D000A0D5375636365736C
:100AE0007366756C6C7920436865636B656420611F
:100AF0006E642050726F6772616D6D65642045454C
:100B000050524F4D21210A0D000A0A0A0D417574F9
:100B10006F6D61746963616C6C7920636865636B88
:100B2000696E6720616E642050726F6772616D6DCF
:100B3000696E6720454550524F4D0A0D000A0A0A5A
:100B40000D436F6E6E656374207468652041646147
:100B50007074657220626F61726420556E64657294
:100B6000205465737420746F20746865204A696727
:100B70000A0D50726573732027582720746F206503
:100B8000786974206F7220454E544552206B657908
:100B900020746F2070726F636565640A0D000A0A25
:100BA0000A0D436F6E6E6563742074686520626F12
:100BB00061726420556E646572205465737420748C
:100BC0006F20746865204A69670A0D454E53555277
:100BD0004520464C59494E47204C454144204953F5
:100BE00020434F4E4E454354454420746F204A5590
:100BF0004D5045520A0A0D507265737320275827CD
:100C000020746F2065786974206F7220454E5445BA
:100C100052206B657920746F2070726F6365656414
:100C20000A0D000A0A0A0D456E7465722074686523
:100C3000204E65787420626F61726427732053655B
:100C40007269616C204E6F0A0D000A0A0A0D456E2A
:100C50007465722074686520626F61726427732006
:100C600053657269616C204E6F2E0A0D2833204344
:100C700068617261637465727329206F72202758EE
:100C80002720746F20657869740A0D0050726573AF
:100C9000732027582720746F2065786974206F723D
:100CA00020454E544552206B657920746F20707238
:100CB0006F636565640A0A0A0D000A0A0A0D436833
:100CC00065636B2074686520666F6C6C6F77696E06
:100CD000672064657461696C732061726520636F5D
:100CE00072726563740A0A0D000A0A0A0D456E7471
:100CF00065722074686520626F6172642773204199
:100D00007373656D626C79205265766973696F6E75
:100D1000204E6F206F66207468652062617463687E
:100D2000206F6620626F6172647320556E64657215
:100D300020546573740A0D2833204368617261631F
:100D400074657273290A0D000A0A0A0D456E7465EE
:100D5000722074686520576F726B73204F726465E0
:100D600072204E6F2028574F29206F6620746865C7
:100D7000206261746368206F6620626F61726473C1
:100D800020556E64657220546573740A0D284D41B8
:100D900058203D203131204368617261637465726F
:100DA00073290A0D000A0D363531392D3031204EA8
:100DB000657420436F6E6E6563746F72205043429A
:100DC0002073656C65637465640A0D000A0A0D532F
:100DD000656C65637420426F61726420556E646552
:100DE0007220546573742028425554290A0D3D3DE4
:100DF0003D3D3D3D3D3D3D3D3D3D3D3D3D3D3D3D23
:100E00003D3D3D3D3D3D3D3D3D3D3D0A0D31202DAE
:100E100020363531392D3031202D204E6574204358
:100E20006F6E6E6563746F72205043420A0D3220FC
:100E30002D20363736392D30312F363737302D309B
:100E400031202D203235362F313238204E65742036
:100E500041646170746572205043420A0D58202D20
:100E6000204578697420746F205374617274204D2A
:100E7000656E750A0D3C454E5445523E2D20546F0B
:100E800020726566726573682073637265656E0AA9
:100E90000A0D000A0A0D5374617274204D454E55B7
:100EA0000A0D3D3D3D3D3D3D3D3D3D3D0A0D54203E
:100EB0002D20426F6172642074657374730A0D444F
:100EC000202D204465627567204D656E750A0D56AC
:100ED000202D20566965772053746F726564204910
:100EE0006E666F0A0D3C454E5445523E2D20546FA0
:100EF00020726566726573682073637265656E0A39
:100F00000A0D000A0A0A0D212121204E6F2041738B
:100F100073656D626C7920446574656374656420E3
:100F20002121210A0A0D000A0A0A0D426F6172642A
:100F30002054797065206973204E45542041444106
:100F4000505445520A0A0D000A0A0A0D426F617296
:100F5000642054797065206973204E4554204558AB
:100F600054454E4445520A0A0D000A0A0A0D426FC2
:100F70006172642054797065206973204E45542055
:100F8000434F4E4E4543544F520A0A0D000A0A0A77
:100F90000D417373656D626C7920547970652069B9
:100FA00073204E45540A0D000A0A0A0D41737365F9
:100FB0006D626C79205479706520697320414441D9
:100FC000505445520A0D000A0A0A0D417373656DAB
:100FD000626C792054797065206973204E455420E5
:100FE000455854454E44455220504E2036373038EF
:100FF0002D30300A0A0D000A0A0A0D485950455290
:1010000054524F4E494353204164617074657220BD
:101010004E4F54206669747465640A0D46697420E5
:101020006164617074657220616E64207468656EBD
:101030002072657472790A0A0D0021212121212173
:10104000212121212121212121212121210A0D21BB
:1010500021212054455354204641494C45442021E8
:1010600021210A0D2121212121212121212121219B
:10107000212121212121210A0A0D52656D6F7665FA
:1010800020417373656D626C7920616E64207175A7
:101090006172616E74696E65206F7220726574652D
:1010A00073740A0A0D000A0D212121204E45542097
:1010B0004944454E54494649434154494F4E2054B2
:1010C000455354204641494C4544202121210A0AD8
:1010D0000D456E7375726520436F6E6E656374693E
:1010E0006F6E20746F204C656761637920436F6E6B
:1010F0006E6563746F7220697320636F72726563CB
:10110000740A0D50726573732027582720746F205E
:1011100065786974206F7220454E544552206B6586
:101120007920746F2052657472790A0D000A0A0DD5
:101130002A2A2A2046696E616C20417373656D62AC
:101140006C79207375636365737366756C6C792055
:1011500050726F6772616D6D6564202A2A2A0A0ACF
:101160000D23232320436F6E6E65637420746865BE
:10117000204C6567616379204164617074657220F9
:10118000656E64206F66207468652046696E616CC8
:1011900020417373656D626C7920746F207468658B
:1011A0002054657374204A6967202323230A0D5055
:1011B0007265737320616E79206B6579207768653D
:1011C0006E2072656164790A0D000A0A0D232323DB
:1011D00020436F6E6E656374207468652046696E87
:1011E000616C20417373656D626C7920746F20743B
:1011F00068652054657374204A6967202323230A95
:101200000A0D000A0A0A0D212121204641494C45B8
:101210004420544F2050524F4752414D2044455492
:1012200041494C53202121210A0D436865636B3AE3
:101230000A0D202A20546865207468652066696E4E
:10124000616C20617373656D626C7920747970656F
:1012500020697320636F72726563740A0D202A20FF
:1012600054686520417373656D626C7920697320E1
:10127000636F72726563746C7920666974746564F7
:1012800020746F207468652054657374204A696700
:101290000A0A0D50726573732027454E5445522734
:1012A00020746F20524554525920206F72202758C5
:1012B0002720746F2065786974200A0D000A0A0AD5
:1012C0000D2A2A2A2A2A2A2A2A2A2A2A2A2A2A2A9B
:1012D0002A2A2A2A2A2A2A2A2A2A2A2A2A2A2A2A6E
:1012E0002A2A2A2A2A2A2A2A2A2A2A2A2A2A2A0A7E
:1012F0000D2A2A2A2046696E616C20417373656D40
:10130000626C79207375636365737366756C6C7951
:101310002050726F6772616D6D6564202A2A2A0AF7
:101320000D2A2A2A2A2A2A2A2A2A2A2A2A2A2A2A3A
:101330002A2A2A2A2A2A2A2A2A2A2A2A2A2A2A2A0D
:101340002A2A2A2A2A2A2A2A2A2A2A2A2A2A2A0A1D
:101350000D436865636B207468652064657461691A
:101360006C2073686F776E206F6E207468652073D1
:10137000637265656E2061726520636F727265636A
:10138000740A0D52656D6F766520546573746564DB
:1013900020417373656D626C7920616E6420636FA8
:1013A0006D706C65746520746865206E6563657327
:1013B00073617279205061706572776F726B0A0A7F
:1013C0000D50726573732027454E54455227207483
:1013D0006F2070726F6772616D20612046696E6167
:1013E0006C20617373656D626C79206F6620746820
:1013F000652073616D6520747970650A0D507265A2
:1014000073732027582720746F20657869742074BF
:101410006F207374617274206D656E750A0D000A19
:101420000A0A0D2A2A2A2A2A2A2A2A2A2A2A2A2A79
:101430002A2A2A2A2A2A2A2A2A2A2A2A2A2A2A2A0C
:101440002A2A2A2A2A2A2A2A2A2A2A2A2A2A2A2AFC
:101450002A2A2A2A2A2A2A2A2A2A2A2A0A0D2A2A29
:101460002A2046696E616C20417373656D626C79E8
:10147000207375636365737366756C6C7920507245
:101480006F6772616D6D656420616E642054657371
:10149000746564202A2A2A0A0D2A2A2A2A2A2A2A34
:1014A0002A2A2A2A2A2A2A2A2A2A2A2A2A2A2A2A9C
:1014B0002A2A2A2A2A2A2A2A2A2A2A2A2A2A2A2A8C
:1014C0002A2A2A2A2A2A2A2A2A2A2A2A2A2A2A2A7C
:1014D0002A2A0A0A0D436865636B207468652064D4
:1014E000657461696C2073686F776E2061626F76D6
:1014F000652061726520636F72726563740A0D52B4
:10150000656D6F76652054657374656420417373EF
:10151000656D626C7920616E6420636F6D706C65BF
:10152000746520746865206E656365737361727994
:10153000205061706572776F726B0A0A0D50726588
:1015400073732027454E5445522720746F207072C4
:101550006F6772616D20612046696E616C206173F6
:1015600073656D626C79206F6620746865207361A5
:101570006D6520747970650A0D507265737320274C
:10158000582720746F206578697420746F207374F5
:10159000617274206D656E750A0D0031303A20322B
:1015A0003536204368616E6E656C204D6963726FDD
:1015B00063656C2047656F64657369632053656E6E
:1015C000736F72204E65747320312E3000393A20CB
:1015D000313238204368616E6E656C204D696372EC
:1015E0006F63656C2047656F64657369632053653D
:1015F0006E736F72204E65747320312E3000373A4F
:10160000203332204368616E6E656C204D696372D1
:101610006F63656C2047656F64657369632053650C
:101620006E736F72204E65747320312E3000363A1F
:1016300020323536204368616E6E656C20487964CF
:10164000726F63656C2047656F64657369632053CF
:10165000656E736F72204E65747320312E300035C5
:101660003A20313238204368616E6E656C204879CB
:1016700064726F63656C2047656F6465736963208E
:1016800053656E736F72204E65747320312E300077
:10169000343A203634204368616E6E656C20487998
:1016A00064726F63656C2047656F6465736963205E
:1016B00053656E736F72204E65747320312E300047
:1016C000333A203332204368616E6E656C2048796E
:1016D00064726F63656C2047656F6465736963202E
:1016E00053656E736F72204E65747320312E300017
:1016F000323A20323536204368616E6E656C204781
:10170000656F64657369632053656E736F72204EF5
:1017100065747320322E7800313A203132382043FC
:1017200068616E6E656C2047656F646573696320E0
:1017300053656E736F72204E65747320322E78007D
:10174000303A203634204368616E6E656C20476500
:101750006F64657369632053656E736F72204E65A5
:10176000747320322E780062202D204E6574204143
:10177000646174707465720A0D000A0A0A0D53657B
:101780006C65637420746865204E65742053697AB3
:10179000652049442066726F6D2074686520666F0D
:1017A0006C6C6F77696E67206C6973740A0A0D2020
:1017B00020202049442020202020202020202020DC
:1017C00020202020204445534352495054494F4E35
:1017D0000A0D2D2D2D2D2D2D2D2D2D2D2D2D2D2D7C
:1017E0002D2D2D2D2D2D2D2D2D2D2D2D2D2D2D2D29
:1017F0002D2D2D2D2D2D2D2D2D2D2D2D2D2D2D2D19
:101800002D2D2D2D2D2D2D0A0D30202D203009367A
:101810003420204368616E6E656C2047656F646597
:101820007369632053656E736F72204E6574732005
:10183000322E780A0D31202D2031093132382043E3
:1018400068616E6E656C2047656F646573696320BF
:1018500053656E736F72204E65747320322E780A52
:101860000D32202D203209323536204368616E6EEC
:10187000656C2047656F64657369632053656E739B
:101880006F72204E65747320322E780A0D33202D2E
:10189000203309333220204368616E6E656C204826
:1018A0007964726F63656C2047656F646573696303
:1018B0002053656E736F72204E65747320312E3025
:1018C0000A0D34202D203409363420204368616EFF
:1018D0006E656C20487964726F63656C2047656F34
:1018E00064657369632053656E736F72204E65740F
:1018F0007320312E300A0D35202D20350931323834
:10190000204368616E6E656C20487964726F636510
:101910006C2047656F64657369632053656E736FF0
:1019200072204E65747320312E300A0D36202D2022
:101930003609323536204368616E6E656C20487911
:1019400064726F63656C2047656F646573696320BB
:1019500053656E736F72204E65747320312E300A9A
:101960000D37202D203709333220204368616E6EF9
:10197000656C204D6963726F63656C2047656F64A9
:10198000657369632053656E736F72204E6574735F
:1019900020312E300A0D38202D20380936342020F1
:1019A0004368616E6E656C204D6963726F63656C30
:1019B0002047656F64657369632053656E736F724A
:1019C000204E65747320312E300A0D39202D2039B8
:1019D00009313238204368616E6E656C204D696351
:1019E000726F63656C2047656F646573696320532C
:1019F000656E736F72204E65747320312E300A0D40
:101A000061202D20313009323536204368616E6EF9
:101A1000656C204D6963726F63656C2047656F6408
:101A2000657369632053656E736F72204E657473BE
:101A300020312E300A0D000A0A0A0D456E746572B7
:101A4000207468652053657269616C206E6F2E206A
:101A50006F66207468652046696E616C20417373FF
:101A6000656D626C7920756E64657220746573743F
:101A70000A0D284D4158203D2031322043686172C3
:101A8000616374657273290A0D004E455420414408
:101A9000415054455220415353454D424C59004EFC
:101AA000455420455854454E53494F4E20415353B9
:101AB000454D424C59004E455420415353454D42EB
:101AC0004C59000A0A0A0D456E74657220746865E7
:101AD0002050726F64756374277320526576697342
:101AE000696F6E202D2033204368617261637465D5
:101AF00072732028652E672E20303041290A0D0090
:101B00000A0A0D456E746572207468652050726F04
:101B1000647563742050617274204E756D626572D5
:101B2000202D2034204E756D6572696320636861D5
:101B3000726163746572730A0D000A0A0D21212116
:101B400020494E56414C494420454E545259202D6F
:101B500020506C656173652052657472790A0D00BE
:101B60000A0A0D46696E616C2054657374205374C3
:101B7000617274204D656E750A0D3D3D3D3D3D3DE4
:101B80003D3D3D3D3D3D3D3D3D3D3D3D3D3D3D0AB8
:101B90000A0D53656C656374207468652050726F1C
:101BA0006475637420547970650A0D31202D204EC0
:101BB000455420417373656D626C790A0D32202D96
:101BC000204E455420457874656E73696F6E0A0D1A
:101BD00033202D204E455420416461707465720A93
:101BE0000A0D56202D20566965772053746F726553
:101BF0006420496E666F0A0D000A0D4375727265A6
:101C00006E7420454550524F4D20436F6E74656E83
:101C100074730A0D3D3D3D3D3D3D3D3D3D3D3D3DEA
:101C20003D3D3D3D3D3D3D3D3D3D3D0A0A0D004EA6
:101C30006574204164617074657220504342004EA7
:101C4000657420436F6E6E6563746F7220504342FB
:101C50000020436F6D6D616E64206E6F7420696D3E
:101C6000706C656D656E7465640A0D000A0A426FDA
:101C70006172642054657374204669726D77617275
:101C8000650A0D2D2D2D2D2D2D2D2D2D2D2D2D2D8F
:101C90002D2D2D2D2D2D0A0A0D000A0A0D21212191
:101CA00020494E56414C49442054455354204A49FA
:101CB000472049442044455445435445442021216C
:101CC000210A0D000A0A46696E616C20546573741E
:101CD000204669726D776172650A0D2D2D2D2D2DAF
:101CE0002D2D2D2D2D2D2D2D2D2D2D2D2D2D0A0D67
:101CF000002A2A2A2A2A2A2A2A2A2A2A2A2A2A2A6E
:101D00002A2A2A2A2A2A2A2A2A2A2A2A2A2A2A2A33
:101D10002A2A2A2A2A2A2A2A2A2A2A2A2A2A2A0A43
:101D20000D7C20436F70797269676874286329207D
:101D30003230323620546865204D61677374696DA6
:101D400020436F6D70616E79204C74642E207C206E
:101D50000A0D7C20454547204E657420436F6E6E0A
:101D60006563746F722F41646170746572202D20F9
:101D700054657374204669726D7761726520207CAA
:101D80000A0D2A2A2A2A2A2A2A2A2A2A2A2A2A2AF0
:101D90002A2A2A2A2A2A2A2A2A2A2A2A2A2A2A2AA3
:101DA0002A2A2A2A2A2A2A2A2A2A2A2A2A2A2A2A93
:101DB0000A0A0D4669726D776172652049443A20BE
:101DC000000A0A0A0A0A0A0A0A0A0A0A0A0A0A0A7D
:101DD0000D000A0D00544A3030303030365F535712
:101DE000202D205665722042312E313300001124FF
:101DF0001FBECFEFD8E0DEBFCDBF14E0A0E0B1E062
:101E0000EEEEF4E502C005900D92A63BB107D9F7BE
:101E100026E0A6EBB4E001C01D92AE3CB207E1F7AC
:101E20000E94CD130C94752A0C9400001092770533
:101E30001092760510927505109274051092C500E7
:101E400087E68093C40086E08093C20088E980938F
:101E5000C10008951F920F920FB60F9211248F9315
:101E60009F93EF93FF93909175058091740598135C
:101E700006C08091C1008F7D8093C10011C0E091A8
:101E80007405F0E0E054FB4F80818093C6008091A0
:101E900074058F5F80937405843B10F01092740575
:101EA000FF91EF919F918F910F900FBE0F901F9018
:101EB0001895F8942091750530E080917405789418
:101EC000482F50E02417350710F42C543F4F8D5401
:101ED000821B08951F93CF93DF93D82F192FC62FFE
:101EE0000E94590F8C17E0F3809175052D2FED2F6F
:101EF000F12F9E2F921B9C1758F49191A82FB0E0C0
:101F0000A054BB4F9C938F5F843B98F380E0F1CF4C
:101F1000F894809375058091C10085FD16C0E0910D
:101F20007405F0E0E054FB4F80818093C6008091FF
:101F300074058F5F80937405843B10F010927405D4
:101F40008091C10080628093C100789484E0DF9129
:101F5000CF911F910895CF93DF93FC010190002052
:101F6000E9F73197EF01C81BD90B6C2F0E946A0F5C
:101F7000843011F48C2F01C080E0DF91CF9108955F
:101F8000CF93C82F1092C1000E94160FEC2FF0E0E3
:101F9000EE0FFF1FE050FF4F81818F9380818F9361
:101FA00083E191E09F938F9387EE95E09F938F93CA
:101FB0000E948B270F900F900F900F900F900F9013
:101FC00087EE95E0CF910C94AB0F20917505909121
:101FD000740581E0291380E008951F920F920FB6D7
:101FE0000F9211242F933F934F935F936F937F939F
:101FF0008F939F93AF93BF93EF93FF939091C00004
:102000008091C600E0917705F0E0EA54FB4F8083B1
:10201000809177058F5F809377058A3010F010925A
:102020007705892F8C7159F094FF02C080E005C0BC
:1020300093FF02C081E001C082E00E94C00FFF91C7
:10204000EF91BF91AF919F918F917F916F915F9130
:102050004F913F912F910F900FBE0F901F901895A9
:1020600030917705209176053217A9F0F894E09128
:102070007605F0E0EA54FB4F2081FC01208380913B
:1020800076058F5F809376058A3010F01092760582
:10209000789484E0089580E00895CF93DF931F92B1
:1020A000CDB7DEB7CE0101960E94301021E030E0BE
:1020B000811102C020E030E0C9010F90DF91CF9183
:1020C0000895AF92BF92CF92DF92EF92FF921F934B
:1020D000CF93DF93CDB7DEB761970FB6F894DEBF2D
:1020E0000FBECDBF182F7A0169016F3F710511F046
:1020F00008F01F5F698388EEA82E83E0B82EAE013A
:102100004F5F5F4F61E0812F0E941113883251F0C1
:1021100081E0A81AB10899F786E496E00E941115AB
:1021200080E01BC0AE014E5F5F4F6E2D812F0E947D
:10213000451320E0822F90E08E159F0568F4F6018C
:10214000E80FF91FA2E0B0E0AC0FBD1FA80FB91F48
:102150008C9180832F5FEECF81E061960FB6F8946B
:10216000DEBF0FBECDBFDF91CF911F91FF90EF90EB
:10217000DF90CF90BF90AF9008956F927F928F9233
:102180009F92AF92BF92CF92DF92EF92FF920F9306
:102190001F93CF93DF93CDB7DEB761970FB6F89457
:1021A000DEBF0FBECDBF882E962E6A017901062FA5
:1021B000172F77247394780E202F802F891990E0A1
:1021C0008C159D05A0F50F3F110519F010F0672C37
:1021D00001C0682C2983F701E80FF91F80818A83E9
:1021E000AE014F5F5F4F61E0862D0E941113AE017B
:1021F0004F5F5F4F62E0862D0E941113AA24AA94BC
:10220000B12CAE014F5F5F4F61E0862D0E9411132C
:10221000883219F40F5F1F4FCFCF81E0A81AB108A1
:1022200081F781E991E00E94AB0F80E001C081E07D
:1022300061960FB6F894DEBF0FBECDBFDF91CF9190
:102240001F910F91FF90EF90DF90CF90BF90AF90D4
:102250009F908F907F906F9008954F925F926F92B2
:102260007F928F929F92AF92BF92CF92DF92EF9226
:10227000FF920F931F93CF93DF93CDB7DEB7A29753
:102280000FB6F894DEBF0FBECDBF582E462E5E01AE
:1022900082E1A80EB11CCE018296F50141928E1703
:1022A0009F07E1F7E12CF12CC12CD12C92EB692E88
:1022B00091E0792E27EE822E25E0922E8701012FC4
:1022C000112706950E94E50F8823E1F30F5F1F4F4A
:1022D0001F930F93BF92AF927F926F929F928F92B4
:1022E0000E948B2787EE95E00E94AB0F950140E19D
:1022F00050E0B601852D0E94BD109E012F5F3F4F1B
:1023000040E150E0B601852D0E946110FE0131963A
:102310000FB6F894DEBF0FBECDBF00E010E0819194
:10232000481611F10E94E50F8823E1F3E1E0F0E0A7
:10233000EC0FFD1FE00FF11F80811F928F9381EE44
:1023400091E09F938F9387EE95E09F938F930E94E8
:102350008B2787EE95E00E94AB0F0F900F900F90A8
:102360000F900F900F9015C00F5F1F4F0031110598
:10237000B1F690E1C90ED11C80ECE81A89EFF80A99
:10238000E11498ECF90609F099CF0E94E50F882333
:10239000E1F3A2960FB6F894DEBF0FBECDBFDF917A
:1023A000CF911F910F91FF90EF90DF90CF90BF9052
:1023B000AF909F908F907F906F905F904F90089517
:1023C0005F926F927F928F929F92AF92BF92CF92C5
:1023D000DF92EF92FF920F931F93CF93DF93CDB7CE
:1023E000DEB762970FB6F894DEBF0FBECDBF582E92
:1023F00082EF91E00E94AB0F198200E010E091E0C3
:10240000692E92E0792E27EEC22E25E0D22E3FE0F3
:10241000A32E32E0B32E1F930F937F926F92DF9221
:10242000CF920E948B2787EE95E00E94AB0F9E0112
:102430002F5F3F4F40E150E0B801852D0E946110B1
:10244000CE0101964C0187EEE82E85E0F82E0F9024
:102450000F900F900F900F900F90F40181914F010A
:102460001F928F93BF92AF92FF92EF920E948B27A1
:10247000F3E0EF0EF11C0F900F900F900F900F9064
:102480000F9087E1E81686E0F80639F70E94E50F1D
:102490008823E1F387EE95E00E94AB0F8BE292E098
:1024A0000E94AB0F005F1F4F011592E0190709F062
:1024B000B2CF62960FB6F894DEBF0FBECDBFDF91EC
:1024C000CF911F910F91FF90EF90DF90CF90BF9031
:1024D000AF909F908F907F906F905F900895CF9373
:1024E000DF9300D01F92CDB7DEB79E012F5F3F4F25
:1024F00042E050E06EEF70E00E94611089819A81A5
:102500009827892798270F900F900F90DF91CF91F0
:1025100008958F929F92BF92CF92DF92EF92FF9297
:102520000F931F93CF93DF93CDB7DEB762970FB6AC
:10253000F894DEBF0FBECDBFB82E198200E010E0C8
:10254000E12CF12C4E0141E1840E911C9E012F5F84
:102550003F4F40E150E0B7018B2D0E946110FE011A
:1025600031968191080F111D8E169F06D1F750E10B
:10257000E50EF11CE11482E0F80641F78B2D0E9474
:102580006F12292FA801481B5109CA01C22ED12C54
:102590008C199D098095909562960FB6F894DEBFD0
:1025A0000FBECDBFDF91CF911F910F91FF90EF90A4
:1025B000DF90CF90BF909F908F900895CF93DF933F
:1025C00000D01F92CDB7DEB779836A839E012F5F5B
:1025D0003F4F42E050E06EEF70E00E94BD100F9060
:1025E0000F900F90DF91CF910895CF93DF931F92BB
:1025F000CDB7DEB78FEF9FEF2091BC0029832981F3
:1026000027FD02C00197C1F70F90DF91CF91089588
:102610008CE08093B800ECEBF0E0808184608083F4
:102620000895FF920F931F93CF93DF93C82F162F18
:10263000F42E052F84EA8093BC000E94F512CC0F83
:10264000C093BB0084E88093BC000E94F512CF2D9C
:10265000D02FCE01810F911D8C0184E8F82EC01778
:10266000D10741F089918093BB00F092BC000E9499
:10267000F512F5CF8091B90094E99093BC00DF91F9
:10268000CF911F910F91FF900895AF92BF92CF927B
:10269000DF92EF92FF920F931F93CF93DF93C82F98
:1026A000062FF42E152F84EA8093BC000E94F512A9
:1026B000CC0FC160C093BB0084E88093BC000E9433
:1026C000F512CF2DD12F10E0E12CF12C680181E023
:1026D000C81AD10884ECB82E94E8A92EE016F106A9
:1026E00091F0CE14DF0419F4A092BC0002C0B092A5
:1026F000BC000E94F5128091BB0088838FEFE81A1E
:10270000F80A2196EBCF84E98093BC00DF91CF914A
:102710001F910F91FF90EF90DF90CF90BF90AF90FF
:1027200008951F93CF93DF931F92CDB7DEB7182F75
:102730001982AE014F5F5F4F61E00E941113AE013D
:102740004F5F5F4F61E0812F0E94111391E088324B
:1027500009F090E0892F0F90DF91CF911F9108959C
:10276000813011F4289A0895289808958CE08BB947
:102770008AB1806F8AB98BB18F708BB9389A8AB160
:10278000837F8AB94098409A4098409A4098409AEE
:102790004098209A80E00C94B0130E94B6130E94D7
:1027A000160F0E9408130E94EE260E9434150E9404
:1027B0000915FDCF811102C0229805C0229A61300F
:1027C00011F42A9A01C02A9883B184700895CF9396
:1027D000DF93C9B1C470D4E08AE090E00E94F9268A
:1027E0000E9418278823E1F389B18470C81307C0B9
:1027F000D15091F781E0C11103C080E001C082E0B7
:10280000DF91CF9108952BB12F7030E1839FC001EC
:102810001124822B8BB9089589B183FB882780F915
:1028200091E08927089590ED980F9A3058F0982FED
:102830009F7D91549A3130F091E08D3209F090E013
:10284000892F089581E00895CF92DF92EF92FF9251
:102850000F931F93CF937B016A019A01AB01BC01D7
:10286000809188050E946110C0E08C2F90E0860165
:10287000080F191FF8018E159F0570F480818111D2
:1028800002C0C1110AC00E941314811103C0F801D3
:10289000108204C0CF5FE9CF108281E0CF911F91F9
:1028A0000F91FF90EF90DF90CF90089585E192E037
:1028B0000E94AB0F80EB95E09F938F9384EB95E0A4
:1028C0009F938F938EE292E09F938F9389E895E098
:1028D0009F938F930E948B2729E835E04CE050E0CE
:1028E00062EE70E0809188050E94BD1029EB35E012
:1028F0004CE050E06EEE70E0809188050E94BD10C3
:102900002CEA35E044E050E06AEF70E08091880501
:102910000E94BD10809188050E94891290938605BF
:10292000809385052DB73EB7285F3F4F0FB6F894CB
:102930003EBF0FBE2DBFBC01809188050C94DE12F6
:10294000CF93DF938091DC059091DD05009771F1C5
:102950000E94D526EC01833B910510F0C2EBD0E03C
:102960000E94590F90E08C179D07D0F3BE01809113
:10297000DC059091DD050E94C3262091DC05309195
:10298000DD052C0F3D1F3093DD052093DC056C2FFA
:102990000E946A0FE091DC05F091DD05E491E11100
:1029A0000DC01092DD051092DC0508C08091DE0597
:1029B0009091DF059093E1058093E005DF91CF9141
:1029C00008950F931F93CF93DF93EB018A019A0130
:1029D000AB01BC01809188050E9461108823A1F0A1
:1029E00080E0282F30E0F801E20FF31F2C173D079D
:1029F00048F4908190539A3018F0108280E004C01F
:102A00008F5FEFCF108281E0DF91CF911F910F9107
:102A10000895E091E005F091E105309709F00994FF
:102A200008950F931F93CF93DF938C010E94E50FBE
:102A30008823E1F3C091E005D091E1051093DD0515
:102A40000093DC058091DC059091DD05892B19F060
:102A50000E94A014F7CFD093E105C093E005DF9169
:102A6000CF911F910F91089581EC9DE10E94111566
:102A700081EF9CE10E9411150E945E270E941115B2
:102A800082ED9DE10E9411150E94E713809382055B
:102A900081110DC084EC9CE10E94111580E69BE140
:102AA0009093DD058093DC0582E891E217C08230C7
:102AB00049F48AE99CE10E9411151092E1051092F7
:102AC000E00508958CE69CE10E94111583E99EE0E3
:102AD0009093DD058093DC0589E39CE19093DF050D
:102AE0008093DE0580EA94E19093E1058093E00510
:102AF00008958F929F92BF92CF92DF92EF92FF92B2
:102B00000F931F93CF93DF9300D0CDB7DEB71A8218
:102B10008AE891E00E94111581E40E9491138823B4
:102B200009F493C081E480938805AE014E5F5F4F46
:102B300061E00E94111388EC90E00E94202710921F
:102B40007905BB24B39421E4E22E22E0F22E07EEB5
:102B500015E034E5C32E32E0D32EE0917905EA305A
:102B600008F074C0F0E0EB56FB4F808180937A054B
:102B70008F700E94031484E690E00E942027AE012B
:102B80004F5F5F4F61E0809188050E944513898106
:102B90008F70898390917A05891305C09CE3892EF3
:102BA00092E0992E05C087E3882E82E0982EB12C02
:102BB00080E00E94031480917A05982F91701F92F3
:102BC0009F9381FB992790F91F929F9382FB9927EE
:102BD00090F91F929F9383FB882780F91F928F9310
:102BE000FF92EF921F930F930E948B2787EE95E041
:102BF0000E94AB0F89819F928F92982F91701F92A4
:102C00009F9381FB992790F91F929F9382FB9927AD
:102C100090F91F929F9383FB882780F91F928F93CF
:102C2000DF92CF921F930F930E948B2787EE95E040
:102C30000E94AB0F809179058F5F809379050FB665
:102C4000F894DEBF0FBECDBF88CFB12C8B2D0F9077
:102C50000F90DF91CF911F910F91FF90EF90DF9038
:102C6000CF90BF909F908F90089581EC9DE10E943E
:102C700011158AEB9CE00E9411158CE89CE0909362
:102C8000DD058093DC0584E79AE19093DF0580936E
:102C9000DE0580EA94E19093E1058093E00580EB06
:102CA00095E09F938F9384EB95E09F938F9389EBAF
:102CB00095E09F938F938CE692E09F938F9387EE9E
:102CC00095E09F938F930E948B2787EE95E00E945B
:102CD000AB0F8DB79EB70A960FB6F8949EBF0FBE86
:102CE0008DBF80918405882319F08FE29CE102C09A
:102CF0008FE39CE10E94E1269F938F938EE794E0FF
:102D00009F938F9387EE95E09F938F930E948B27DD
:102D10000F900F900F900F900F900F9087EE95E00F
:102D20000C94AB0F1F93CF93DF931F92CDB7DEB7F9
:102D3000182FCE0101960E943010882381F01123B4
:102D400069F089818D3029F482ED9DE10E94111591
:102D500005C061E0CE0101960E946A0F89810F9043
:102D6000DF91CF911F910895CF93DF931F92CDB73D
:102D7000DEB780E00E949216882379F1883529F029
:102D8000883719F0803249F516C080E00E9403149C
:102D900082EF93E09093DD058093DC058BE897E16B
:102DA0009093DF058093DE0580EA94E19093E1053E
:102DB0008093E00574C080917805882339F088EE0F
:102DC00093E00E94F9261092780507C00E94182708
:102DD0008823E1F381E0809378050E9418278823F7
:102DE00009F45DC0E0917905F0E0EB56FB4F80817E
:102DF00080937A058F700E94031488EE93E00E94FE
:102E0000F926AE014F5F5F4F61E0809188050E9417
:102E10004513998180917A05292F21701F922F9354
:102E200091FB222720F91F922F9392FB222720F952
:102E30001F922F9393FB992790F91F929F93982F9E
:102E400091701F929F9381FB992790F91F929F93F6
:102E500082FB992790F91F929F9383FB882780F923
:102E60001F928F938FE892E09F938F9387EE95E068
:102E70009F938F930E948B2787EE95E00E94AB0F64
:102E8000809179058F5F0FB6F894DEBF0FBECDBF7E
:102E90008A3018F48093790502C0109279050F905A
:102EA000DF91CF910895CF9380E00E949216C82FB2
:102EB000882379F18DE690E00E94E126FC0180ED07
:102EC0008C0F8A30B0F49091C605E90FF11D808116
:102ED000C8130FC081E0890F8093C6058630C8F003
:102EE00082EF93E09093DD058093DC058BE897E11A
:102EF00006C01092DD051092DC0582E891E2909305
:102F0000DF058093DE0580EA94E19093E1058093EC
:102F1000E005CF9108951F93CF93DF931F92CDB714
:102F2000DEB781E00E94B01360E080E00E94DA1317
:102F300081E00E949216882309F4A5C0843321F110
:102F400060F4823399F0D0F4813309F05DC060E021
:102F500081E00E94DA1380E50EC0883509F451C083
:102F6000883709F44EC0853389F04EC060E081E0B7
:102F70000E94DA1382E58093880553C061E081E006
:102F80000E94DA1384E5F7CF61E0F1CF11E41093EA
:102F9000880581E40E949113882309F442C00E94AD
:102FA0000C1481110DC087EF9FE00E94111583E979
:102FB0009EE09093DD058093DC0589E39CE159C098
:102FC000198210938805AE014F5F5F4F61E081E485
:102FD0000E94111383E793E09093DD058093DC0555
:102FE00084EB96E19093DF058093DE0580EA94E11F
:102FF0009093E1058093E00588EC90E00E94F9262B
:1030000042C081EC9DE115C081E59CE10E94111553
:1030100082EF93E09093DD058093DC058BE897E1E8
:1030200028C0809188050E94911381111AC083E005
:103030009FE00E94111583E99EE09093DD05809347
:10304000DC0589E39CE19093DF058093DE0580EA4F
:1030500094E19093E1058093E00580E00E94B01335
:1030600012C088ED94E09093DD058093DC0582E149
:103070009DE19093DF058093DE0580EA94E19093D3
:10308000E1058093E0050F90DF91CF911F910895A6
:10309000FF920F931F93CF93DF938C01D62FF42EC3
:1030A00082ED9DE10E941115C0E0CD17D0F481E0C2
:1030B0000E9492168823D9F3F801EC0FF11D80834A
:1030C000C11102C0883799F0FF2021F08A3061F0E9
:1030D0008D3051F00E941314811101C0C150CF5F97
:1030E000E4CFF801EC0FF11D108280E001C081E017
:1030F000DF91CF911F910F91FF90089581E00E9481
:103100009216882309F45BC0823349F118F58133A4
:1031100009F03FC062ED72E084EB95E00E947527F4
:103120001092840581EC9DE10E94111585EA9DE0D5
:103130000E94E1260E94AB0F1092C6058BE080939F
:10314000C50588E49DE09093DD058093DC0581E86A
:1031500099E12BC0883581F0883771F01AC081EC75
:103160009DE10E9411158FEF91E09093DD05809312
:10317000DC058AE099E119C081EC9DE10E941115FE
:1031800083E99EE09093DD058093DC0589E39CE173
:103190000CC081E59CE10E9411158CEC9DE09093A0
:1031A000DD058093DC058EE798E19093DF05809341
:1031B000DE0580EA94E19093E1058093E0050895AF
:1031C000CF93DF931F92CDB7DEB7CE0101960E9459
:1031D00030108111FACF81E00E94921689838D30E0
:1031E00091F028F4882361F08A3069F004C08835B2
:1031F00061F0883751F08CE89CE00E94111519822B
:103200008981882341F38AE001C088E70F90DF912C
:10321000CF9108950E94E018883769F481EC9DE110
:103220000E9411158CEC9DE09093DD058093DC05E8
:103230008EE798E118C081E00E94B01384E690E028
:103240000E94202781E40E949113811117C083E01E
:103250009FE00E9411158FEF91E09093DD05809320
:10326000DC058AE099E19093DF058093DE0580EA32
:1032700094E19093E1058093E00508950E940C1479
:10328000882329F30E947915811122C081E59AE0F3
:103290000E9411150E94E0188837D1F481EC9DE15D
:1032A0000E94111589E799E00E9411158CEC9DE0B0
:1032B0009093DD058093DC058EE798E19093DF0520
:1032C0008093DE0580EA94E19093E1058093E00528
:1032D00088EE99E00E9411158CEC9DE09093DD053D
:1032E0008093DC058EE798E19093DF058093DE05FF
:1032F00080EA94E19093E1058093E00580E00C94EE
:10330000B013CF9381E00E949216C82F882309F44E
:1033100076C08D3049F018F48A3031F01DC0883500
:1033200051F0883741F018C08091C60581113AC02C
:103330008FE498E027C08091C60581110DC081EC13
:103340009DE10E94111583E99EE09093DD05809335
:10335000DC0589E39CE149C08C2F0E94131488236B
:1033600079F0E091C60581E08E0F8093C605F0E00C
:10337000E953FA4FC0839091C505891798F43FC06F
:1033800081EF95E00E9411151092C6058BE08093A5
:10339000C50588E49DE09093DD058093DC0581E818
:1033A00099E123C0C091C605EC2FF0E0E953FA4F34
:1033B000108267EC75E089EB95E00E947527CB30B1
:1033C00038F4EC2FF0E0E754FA4F1082CF5FF7CFDC
:1033D0001092C60583E08093C50589EE9CE090932A
:1033E000DD058093DC0581E09AE19093DF05809311
:1033F000DE0580EA94E19093E1058093E005CF91AA
:103400000895CF9381E00E949216C82F882309F473
:1034100069C08D3049F018F48A3031F020C0883509
:1034200069F0883759F01BC09091C6058091C50599
:10343000981708F044C08DEE98E027C08091C6052B
:1034400081110DC081EC9DE10E94111583E99EE080
:103450009093DD058093DC0589E39CE125C08C2FEA
:103460000E941314882379F08091C605E82FF0E0BC
:10347000E953FA4FC0838F5F8093C6059091C505CD
:103480008917E8F42FC081EF95E00E941115109282
:10349000C60583E08093C50589EE9CE09093DD0529
:1034A0008093DC0581E09AE19093DF058093DE054F
:1034B00080EA94E19093E1058093E00513C0E091E8
:1034C000C605F0E0E953FA4F108267EC75E080EB37
:1034D00095E00E94752781EC9DE10E941115CF9126
:1034E0000C943516CF91089581E00E94921688239E
:1034F000D9F18D30A9F018F48A3091F01FC08835C9
:1035000011F08837D9F481EC9DE10E94111583E90F
:103510009EE09093DD058093DC0589E39CE11AC071
:103520001092C60583E08093C5058AE49CE09093E1
:10353000DD058093DC0583E99FE10CC08AE39BE114
:103540000E9411158CE89CE09093DD058093DC05CA
:1035500084E79AE19093DF058093DE0580EA94E1A9
:103560009093E1058093E005089581E00E94921612
:10357000882369F18D3051F018F48A3039F00FC08A
:10358000883511F0883759F40C94351689E09BE0A2
:103590009093DD058093DC058FE290E20EC08CE80D
:1035A0009CE00E94111580917B0590917C05909381
:1035B000DD058093DC0585EB9AE19093DF05809330
:1035C000DE0580EA94E19093E1058093E00508959B
:1035D000EF92FF920F931F93CF93DF9300D000D011
:1035E000CDB7DEB782ED9DE10E94111589EF9BE119
:1035F0000E941115809188050E946F129F938F93EE
:1036000088E293E09F938F9307EE15E01F930F934B
:103610000E948B27C8010E94AB0F809188050E94F1
:10362000891280938505909386059F938F9387EDEC
:1036300092E09F938F931F930F930E948B27C80153
:103640000E94AB0F82ED9DE10E9411150FB6F89418
:10365000DEBF0FBECDBF0E94E50F8823E1F388E7F0
:1036600097E00E94111588E897E00E94E1267C010E
:1036700047EE55E064E070E080E090E00E94E114E5
:10368000882309F11DE21093EB054CEE55E062E052
:1036900070E084E090E00E94E1148823A1F0109390
:1036A000EE054FEE55E063E070E086E090E00E94AA
:1036B0002414882341F01092F20511E097EEE92ED0
:1036C00095E0F92E01C010E0C7010E94AB0F82ED1A
:1036D0009DE10E941115112301F19E012F5F3F4FC3
:1036E00041E050E066E170E0809188050E94611041
:1036F000E981E03819F48AE89AE111C080917D05EA
:10370000882319F08FE99AE10AC0F0E0EE0FFF1F5D
:10371000E156FB4F8081918102C088E897E00E94CA
:10372000E1269F938F9384EF92E09F938F9387EE90
:1037300095E09F938F930E948B2787EE95E00E94E0
:10374000AB0F0F900F900F900F900F900F900E9463
:10375000E50F8823E1F388E697E00E94111588E8D9
:1037600097E00E94E1268C0147EE55E06DE070E0A5
:1037700089E090E00E942414882389F08DE28093F0
:10378000F40545EF55E06DE070E084E090E00E94C4
:103790002414882321F01092020607EE15E0C801D8
:1037A0000E94AB0F82ED9DE10E9411150E94E50F72
:1037B0008823E1F388E597E00E94111588E897E0F7
:1037C0000E94E1268C0147EE55E06CE070E082EE4D
:1037D00090E00E942414882311F007EE15E0C80140
:1037E0000E94AB0F82ED9DE10E9411150E94E50F32
:1037F0008823E1F388E497E00E94111588E897E0B8
:103800000E94E1268C0147EE55E06CE070E08EEE00
:1038100090E00E9424148823D1F068E073E087EEE2
:1038200095E00E946127AE014F5F5F4F64E070E05A
:103830008AEF90E00E942414882349F0BE016F5F54
:103840007F4F87EE95E00E94612707EE15E0C801E3
:103850000E94AB0F82ED9DE10E9411150F900F9019
:103860000F900F90DF91CF911F910F91FF90EF90EC
:103870000895CF93DF9380918205811112C080E675
:103880009BE19093DD058093DC0582E891E29093C3
:10389000DF058093DE0580EA94E19093E105809353
:1038A000E00581E00E949216882309F4B8C08635AD
:1038B00009F446C028F4843449F1843549F099C0AC
:1038C000843731F08637E1F1843609F092C01EC0AA
:1038D0001092C6058BE08093C50581EC9DE10E94A6
:1038E00011158CEC9DE09093DD058093DC058EE74F
:1038F00098E19093DF058093DE0580EA94E1909350
:10390000E1058093E0051092830589C081EC9DE17B
:103910000E94111582EF93E09093DD058093DC0502
:103920008BE897E19093DF058093DE0580EA94E1D0
:103930009093E1058093E00581E0809383056FC05B
:1039400081EC9DE10E94111510927D0581E00E949D
:10395000B01384E690E00E94202780E580938805DC
:103960008AE69FE00E94E126EC01809188050E9492
:103970009113811122C084E5809388050E949113E0
:10398000882349F081E080937D0588E49FE00E94D0
:10399000E126EC0112C081E4809388050E94911316
:1039A000882331F081E08093840587E29FE002C0A4
:1039B00083E09FE00E94111505C0CE010E94AB0F6D
:1039C0000E94E81A83E99EE09093DD058093DC0570
:1039D00089E39CE19093DF058093DE0580EA94E122
:1039E0009093E1058093E00580E0DF91CF910C9406
:1039F000B01381E59CE10E94111583E99EE090934C
:103A0000DD058093DC0589E39CE19093DF058093DD
:103A1000DE0580EA94E19093E1058093E005DF9173
:103A2000CF910895EF92FF920F931F93CF93DF935F
:103A3000CDB7DEB762970FB6F894DEBF0FBECDBF2D
:103A400081E00E949216882309F43FC1883509F469
:103A500010C1A8F4803509F4FAC040F4843449F167
:103A6000883451F1833409F01AC12BC0833509F42D
:103A7000E6C08735E9F1823509F011C1E2C080372F
:103A800009F4E5C040F48436A1F08836A9F0833605
:103A900009F005C116C0833709F4D1C020F482377C
:103AA00009F4CFC0FCC0873719F1883709F4E1C0A9
:103AB000F6C00E94E81AF7C0809188050E94E011C4
:103AC000F2C0809188050E948912182F092F8091D9
:103AD00088050E946F12F82EE92E0E94E50F8823B8
:103AE000E1F3EF92FF920F931F938AE093E095C06A
:103AF0008AE589839E012F5F3F4F41E050E060E4FB
:103B000070E0809188050E94BD100E94E50F882317
:103B1000E1F31F9280E48F9389811F928F9385E454
:103B200093E09F938F9387EE95E09F938F930E94EE
:103B30008B2787EE95E00E94AB0F9E012F5F3F4FD2
:103B400041E050E060E470E0809188050E946110DF
:103B50000FB6F894DEBF0FBECDBF0E94E50F8823DD
:103B6000E1F31F9280E48F9389811F928F938BE6FC
:103B700093E09F938F9387EE95E09F938F930E949E
:103B80008B2787EE95E00E94AB0F85EA89839E0123
:103B90002F5F3F4F41E050E06FE071E0809188057A
:103BA0000E94BD100FB6F894DEBF0FBECDBF0E94BD
:103BB000E50F8823E1F381E08F938FE08F93898174
:103BC0001F928F9385E493E09F938F9387EE95E008
:103BD0009F938F930E948B2787EE95E00E94AB0FF7
:103BE0009E012F5F3F4F41E050E06FE071E0809118
:103BF00088050E9461100FB6F894DEBF0FBECDBFDE
:103C00000E94E50F8823E1F381E08F938FE08F938B
:103C100089811F928F938BE693E09F938F9387EE1A
:103C200095E09F938F930E948B2787EE95E00E94EB
:103C3000AB0F0FB6F894DEBF0FBECDBF34C06FEF31
:103C400001C060E0809188050E942D112CC0109267
:103C5000C6058BE08093C50581EC9DE10E9411159E
:103C600083E790E09093DD058093DC0582E79EE199
:103C700022C082EF93E09093DD058093DC058BE812
:103C800097E19093DF058093DE0580EA94E19093BD
:103C9000E1058093E00580E00E94B01316C081E545
:103CA0009CE10E94111588ED94E09093DD058093CE
:103CB000DC0582E19DE19093DF058093DE0580EADB
:103CC00094E19093E1058093E00562960FB6F89435
:103CD000DEBF0FBECDBFDF91CF911F910F91FF903F
:103CE000EF900895EF92FF920F931F93CF93DF937E
:103CF000CDB7DEB72F970FB6F894DEBF0FBECDBF9E
:103D0000FE0131967E018FE0E80EF11C8F011192C9
:103D1000EE16FF06E1F781E00E949216882309F46F
:103D2000F5C0843309F47EC038F48233A1F108F081
:103D30003FC0813369F0CDC0863309F4AEC008F4CA
:103D40009FC0883509F4BCC0883709F4B9C0C1C028
:103D500040E069E0C8010E9448188111B1C0980193
:103D600044E050E060E070E0809188050E94BD1062
:103D70009E012B5F3F4F42E050E064E070E0809195
:103D800088050E94BD109E01295F3F4F43E050E02F
:103D900066E070E08EC041E06CE0C8010E94481807
:103DA00081118EC098014DE050E069E070E081C063
:103DB0008AE797E10E94111587E697E10E941115A5
:103DC00040E061E0C8010E944818182F898190EDF9
:103DD000980F9A3010F49F870AC08F7D813411F4B8
:103DE0008AE004C0823409F069C080E88F879701B7
:103DF00041E050E066E170E0809188050E94BD10CE
:103E00002F852B3020F430E0285F3E4F02C01F8604
:103E1000970141E050E067E170E0809188050E94E1
:103E2000BD104CC040E069E0C8010E9448188111F3
:103E300047C044E050E0B80187EE95E00E947C273F
:103E40001DE21093EB0542E050E0BE016B5F7F4F37
:103E50008CEE95E00E947C271093EE0544E050E044
:103E6000BE01695F7F4F8FEE95E00E947C27109224
:103E7000F30527EE35E04CE050E062EE70E019C04B
:103E800041E06BE0C8010E944818811119C09801F7
:103E90004CE050E06EEE70E00CC040E063E0C80122
:103EA0000E94481881110CC0980144E050E06AEF6C
:103EB00070E0809188050E94BD100BC0112349F06D
:103EC00088ED94E09093DD058093DC0582E19DE12F
:103ED00013C0809188050E948912BC0180918805D9
:103EE0000E94DE120E94E81A83E790E09093DD05BD
:103EF0008093DC0582E79EE19093DF058093DE05E9
:103F000080EA94E19093E1058093E0052F960FB647
:103F1000F894DEBF0FBECDBFDF91CF911F910F91FF
:103F2000FF90EF90089581E00E949216882309F493
:103F300095C08D3071F018F48A3059F014C088356E
:103F400011F0883781F48091C605811187C00C94E7
:103F500035169091C6058091C505981708F07EC06A
:103F60008DEE98E062C090ED980F9A3008F05BC03B
:103F7000E091C605AE2FB0E0A953BA4F8C93EF5F26
:103F8000E093C6058091C505E81368C0F0E0E953E9
:103F9000FA4F108267EC75E08CEA95E00E94752775
:103FA00081EC9DE10E9411158CEA95E09F938F931F
:103FB00089EB95E09F938F9380E993E09F938F9394
:103FC00087EE95E09F938F930E948B2787EE95E075
:103FD0000E94AB0F8DB79EB708960FB6F8949EBFA0
:103FE0000FBE8DBF80918305882329F00E9456144F
:103FF0000E94E81A0DC080918405882319F08DE392
:104000009BE002C08EE99BE090937C0580937B054A
:1040100080917B0590917C059093DD058093DC0574
:1040200085EB9AE111C08BEA95E00E941115109280
:10403000C60583E08093C5058AE49CE09093DD0586
:104040008093DC0583E99FE19093DF058093DE0593
:1040500080EA94E19093E1058093E00508950F9341
:104060001F93CF93DF9381EC9DE10E9411158CEAA1
:1040700095E09F938F9389EB95E09F938F9381ECCD
:1040800093E09F938F9387EE95E09F938F930E9489
:104090008B2787EE95E00E94AB0F81E00E94B01362
:1040A00088EE93E00E94F9268DB79EB708960FB66A
:1040B000F8949EBF0FBE8DBF0E9418278823E1F39E
:1040C000809184058823F1F060E081E00E94DA139A
:1040D00080E5809388050E948912909386058093DD
:1040E0008505809188050E946F1220918505309189
:1040F00086058217930709F448C08EEC97E00E946A
:10410000111555C0CBEDD3E007EE15E019993AC073
:1041100080E098E00E94111583B186701F928F9302
:10412000DF93CF931F930F930E948B2787EE95E029
:104130000E94AB0F0E94E0180F900F900F900F900D
:104140000F900F90883711F71092C60583E0809387
:10415000C5058AE49CE09093DD058093DC0583E946
:104160009FE19093DF058093DE0580EA94E19093D0
:10417000E1058093E00580E0DF91CF911F910F91E1
:104180000C94B0131A99C4CF9FCF82E997E00E9494
:1041900011150E94E81A82ED9DE10E9411158CE82C
:1041A0009CE00E9411150E94E018883769F260E0D7
:1041B000809188050E942D110E9456148FE097E08F
:1041C0000E94111580E00E94B01388EB9BE00E94D2
:1041D000F9260E9418278823E1F381E00E94B0139A
:1041E00080918405811107C061E081E00E94DA13AB
:1041F00084E58093880547EE55E06CE070E082EE40
:1042000090E00E942414882309F43FC069E875E017
:1042100087EE95E00E946C27892BB9F547EE55E0B3
:104220006CE070E08EEE90E00E942414882369F127
:1042300069EB75E087EE95E00E946C27892B29F5E4
:1042400047EE55E064E070E08AEF90E00E942414AD
:104250008823D9F06CEA75E087EE95E00E946C2720
:10426000892B99F4809188050E9489129093860584
:1042700080938505809188050E946F1220918505A5
:10428000309186058217930789F1C1E080E00E9492
:10429000B01360E080E00E94DA1381EC9DE10E949F
:1042A0001115CC2319F087E696E002C088EE99E05C
:1042B0000E9411151092C60583E08093C50583E224
:1042C0009CE09093DD058093DC0583E99FE190936A
:1042D000DF058093DE0580EA94E19093E105809309
:1042E000E005DF91CF911F910F91089588EF96E03F
:1042F0000E9411150E94E81A88ED9AE00E9411159B
:10430000C0E0C4CFCF93DF9380E00E949216882351
:1043100009F4F6C08333C9F1B8F4813339F182333B
:1043200009F0CAC081E0809381052FE93AE130931A
:10433000800520937F051092840580937D0561E0C0
:104340000E94DA1384E53AC0863509F459C08637ED
:1043500009F456C0843409F0AFC01092C60510921B
:10436000DD051092DC0583E597E1C0C01092810560
:1043700086EB9AE19093800580937F0510928405E7
:1043800010927D0560E081E016C00E940C1481113E
:1043900003C087EF9FE092C082E0809381058AE8A6
:1043A0009AE19093800580937F0581E08093840556
:1043B00010927D0560E00E94DA1380E58093880505
:1043C00080917D05882309F484C087EC9FE00E94DA
:1043D000111588E690E00E94E126BC018AE995E08B
:1043E0000E9475271092C60583E08093C50583EC73
:1043F0009AE19093DD058093DC0585EF94E276C029
:1044000081EC9DE10E94111581E00E94B01384E6C9
:1044100090E00E94202780E5809388058DE89FE04A
:104420000E94E126EC01809188050E949113811180
:1044300015C084E5809388050E949113882349F074
:1044400087EC9FE00E94E126EC0181E080937D05EE
:1044500017C083E09FE00E94111517C081E480938C
:1044600088050E949113882341F081E080938405A0
:1044700088EA9FE00E94E126EC0180E580938805B0
:10448000CE010E94AB0F0E94E81A80E69BE1909358
:10449000DD058093DC0582E891E29093DF0580934F
:1044A000DE0580EA94E19093E1058093E00580E0E9
:1044B000DF91CF910C94B0138AE39BE10E94111518
:1044C00080E69BE19093DD058093DC0582E891E234
:1044D0000DC01092C60584E08093C50580E09BE185
:1044E0009093DD058093DC0583E892E29093DF05ED
:1044F0008093DE0580EA94E19093E1058093E005E6
:10450000DF91CF91089581E00E949216882309F4EB
:1045100063C08D30C9F018F48A30B1F018C0883506
:1045200011F08837A1F48091C605811104C081EC97
:104530009DE10E94111580E69BE19093DD0580933B
:10454000DC0582E891E23EC083E399E02CC090ED67
:10455000980F9A3030F5E091C605AE2FB0E0A95320
:10456000BA4F8C93EF5FE093C6058091C505E817BD
:1045700098F1F0E0E953FA4F108267EC75E08AE9B0
:1045800095E00E9475271092C60583E08093C505CB
:1045900083EC9AE19093DD058093DC0585EF94E24E
:1045A00011C08BEA95E00E9411151092C60584E0B7
:1045B0008093C50580E09BE19093DD058093DC0549
:1045C00083E892E29093DF058093DE0580EA94E130
:1045D0009093E1058093E005089581E00E94921692
:1045E0008823D9F18D30A9F018F48A3091F01FC0DA
:1045F000883511F08837D9F481EC9DE10E941115BE
:1046000080E69BE19093DD058093DC0582E891E2F2
:104610001AC01092C6058CE08093C50587E39AE125
:104620009093DD058093DC0587EB95E20CC08AE36F
:104630009BE10E9411158CE89CE09093DD0580932E
:10464000DC058DEE92E29093DF058093DE0580EA33
:1046500094E19093E1058093E0050895CF93DF9373
:104660001F92CDB7DEB781E00E949216882309F42D
:104670002FC18D3011F118F48A30F9F011C088354E
:1046800011F0883769F481EC9DE10E94111580E6F4
:104690009BE19093DD058093DC0582E891E20EC1F9
:1046A0008AE39BE10E9411158CE89CE09093DD0564
:1046B0008093DC058DEE92E201C181EC9DE10E94C8
:1046C000111581E00E94B01384E690E00E9420273B
:1046D00080917F05909180050E94E1269F938F93A2
:1046E00080EF93E09F938F9387EE95E09F938F9356
:1046F0000E948B2787EE95E00E94AB0F2AE935E0F8
:1047000044E050E060E070E0809188050E94BD10B8
:104710000F900F900F900F900F900F9081110BC082
:104720000E94B01383E092E19093DD058093DC0555
:1047300083E896E2C3C020E134E042E050E064E068
:1047400070E0809188050E94BD1026E935E043E0C5
:1047500050E066E070E0809188050E94BD102FE96E
:1047600035E04DE050E069E070E0809188050E94FE
:10477000BD1080918405882331F080E889839E01F3
:104780002F5F3F4F02C02EE735E041E050E066E189
:1047900070E0809188050E94BD1080918405811190
:1047A00004C080917D05882329F019829E012F5F26
:1047B0003F4F05C020917E0530E0285F3E4F41E02D
:1047C00050E067E170E0809188050E94BD10809103
:1047D00088050E9489129093860580938505BC0107
:1047E000809188050E94DE120E94E81A80E00E94F3
:1047F000B013809188058093870580918105823070
:1048000009F054C08DE291E10E9411150E944D10F3
:10481000892BE1F381E48093880581E00E94B01345
:1048200084E690E00E9420270E947915811134C00F
:1048300086EA90E10E9411150E94E018883739F548
:1048400081EC9DE10E9411151092C6058CE08093C9
:10485000C5058AE390E10E94111580E69BE19093E3
:10486000DD058093DC0582E891E29093DF0580937B
:10487000DE0580EA94E19093E1058093E00580E015
:104880000E94B013809187058093880521C081EC38
:104890009DE10E941115C8CF8091870580938805FE
:1048A00080E00E94B0138FE194E102C08DEB92E1B1
:1048B0009093DD058093DC0589E396E29093DF0514
:1048C0008093DE0580EA94E19093E1058093E00512
:1048D0000F90DF91CF910895CF93DF938AEB9CE007
:1048E0000E94111580917F05909180050E94E1261C
:1048F0009F938F9383E194E09F938F93C7EED5E0CE
:10490000DF93CF930E948B27CE010E94AB0F86E9E5
:1049100095E09F938F938AE995E09F938F938DE223
:1049200094E09F938F93DF93CF930E948B27CE01C8
:104930000E94AB0F8DB79EB70E960FB6F8949EBF30
:104940000FBE8DBF80918405882321F06FE474E051
:10495000CE0108C080917D05882339F062E674E0BD
:1049600087EE95E00E9475271BC0E0917E05F0E080
:10497000EE0FFF1FE156FB4F808191810E94E126DF
:104980009F938F9386E794E09F938F93DF93CF93CA
:104990000E948B270F900F900F900F900F900F9009
:1049A00087EE95E00E94AB0F8FE995E020919F057F
:1049B0002223C1F09F938F9384E894E09F938F9379
:1049C00087EE95E09F938F930E948B270F900F9017
:1049D0000F900F900F900F9087EE95E0DF91CF91A1
:1049E0000C94AB0FDF91CF910895CF9381E00E949B
:1049F0009216C82F882309F483C08D30A9F018F4CB
:104A00008A3091F01AC0883511F08837B1F481EC02
:104A10009DE10E94111580E69BE19093DD05809356
:104A2000DC0582E891E262C09091C6058091C505DF
:104A3000981748F58DEE98E016C08C2F0E9413143D
:104A4000882379F08091C605E82FF0E0E953FA4F0A
:104A5000C0838F5F8093C6059091C505891798F430
:104A60004FC081EF95E00E9411151092C60583E0BA
:104A70008093C50583EC9AE19093DD058093DC0576
:104A800085EF94E233C0E091C605F0E0E953FA4FB8
:104A9000108267EC75E086E995E00E94752781EC4D
:104AA0009DE10E94111510929F058091840581114E
:104AB00007C080917D05882389F010927E0503C090
:104AC00080E880937E050E946C248CE89CE09093A3
:104AD000DD058093DC058DEE92E208C08AE797E160
:104AE0009093DD058093DC0582E895E29093DF05E5
:104AF0008093DE0580EA94E19093E1058093E005E0
:104B0000CF91089581E00E949216882379F190ED6B
:104B1000980F9A3018F490937E0514C08F7D8134DD
:104B200021F48AE080937E050DC08AE39BE10E9418
:104B300011158AE797E19093DD058093DC0582E803
:104B400095E20AC00E946C248CE89CE09093DD05FD
:104B50008093DC058DEE92E29093DF058093DE0575
:104B600080EA94E19093E1058093E0050895CF9366
:104B700081E00E949216C82F882309F478C08D30F6
:104B8000C9F018F48A30B1F01CC0883511F08837AC
:104B9000C1F4E091C605E1111BC081EC9DE10E94CA
:104BA000111580E69BE19093DD058093DC0582E89A
:104BB00091E253C08091C605811129C083EA98E033
:104BC00016C08C2F0E941314882379F0E091C6053B
:104BD00081E08E0F8093C605F0E0E953FA4FC08361
:104BE0009091C505891798F442C081EF95E00E9425
:104BF00011151092C6058CE08093C50587E39AE1F4
:104C00009093DD058093DC0587EB95E226C0C0918B
:104C1000C605EC2FF0E0E953FA4F108267EC75E01F
:104C20008FE995E00E947527CC3038F4EC2FF0E046
:104C3000E156FA4F1082CF5FF7CFC093C6050E94AE
:104C40006C248AEC91E10E9411158CE89CE0909311
:104C5000DD058093DC058EE293E29093DF0580937F
:104C6000DE0580EA94E19093E1058093E005CF9121
:104C7000089581E00E949216882309F443C08D3084
:104C8000A9F018F48A3091F029C0883511F08837DE
:104C900029F581EC9DE10E94111580E69BE190933E
:104CA000DD058093DC0582E891E222C081EC9DE184
:104CB0000E9411150E942E2310929F050E946C24C1
:104CC0001092C6058CE08093C50587E39AE1909326
:104CD000DD058093DC0587EB95E20AC08AE39BE162
:104CE0000E9411151092DD051092DC0589E396E211
:104CF0009093DF058093DE0580EA94E19093E105CF
:104D00008093E005089581E00E9492168823D1F1F6
:104D10008D30C9F018F48A30B1F020C0883511F018
:104D20008837E1F481EC9DE10E9411158AE390E15E
:104D30000E94111580E69BE19093DD058093DC05D0
:104D400082E891E215C00E946C248CE89CE090936C
:104D5000DD058093DC058EE293E20AC08AE39BE1E5
:104D60000E9411151092DD051092DC0589E396E290
:104D70009093DF058093DE0580EA94E19093E1054E
:104D80008093E0050895A9E1B6E020E030E0261721
:104D9000370741F0FC01E20FF31FE491ED932F5F21
:104DA0003F4FF5CF89E196E008959C0180E090E0C7
:104DB000F901E80FF91FE491EE2311F00196F8CF05
:104DC0000895CF93DF93EC010E94D526BC016F5F5D
:104DD0007F4FCE01DF91CF910C94C3261092E60550
:104DE0001092E5051092E4051092E3051092E20599
:104DF00008951092E2059093E6058093E5051092E0
:104E0000E4051092E30510928500109284008AEF69
:104E100090E09093890080938800EFE6F0E0808135
:104E200082608083E1E8F0E0808183608083089580
:104E30008091E205882319F01092E20581E008953F
:104E40000E94F9260E9418278823E1F308951F92F3
:104E50000F920FB60F9211242F933F938F939F932E
:104E60008091E3059091E40501969093E405809389
:104E7000E3052091E5053091E6058217930759F483
:104E80001092810080916F008D7F80936F0081E090
:104E90008093E2050AC08091880090918900865035
:104EA0009F4F90938900809388009F918F913F91AD
:104EB0002F910F900FBE0F901F90189585ED9DE1DB
:104EC0000895FB01DC010D900020E9F71197019096
:104ED0000D920020E1F70895FB01DC018D91019016
:104EE00080190110D9F3990B0895FB01DC010190A1
:104EF0000D920020E1F70895FB01DC014150504084
:104F000048F001900D920020C9F701C01D92415058
:104F10005040E0F70895AEE0B0E0E1E9F7E20C942C
:104F20004C2A0D891E8986E08C831A8309838FEFB2
:104F30009FE79E838D83AE01475E5F4F6F89788DBB
:104F4000CE0101960E94AD27EF81F885E00FF11F99
:104F500010822E96E4E00C94682AABE0B0E0E3EB1C
:104F6000F7E20C943E2A6C017B018A01FC01178256
:104F70001682838181FFCCC1CE0101963C01F601EE
:104F80009381F70193FD859193FF81917F018823A0
:104F900009F4BAC1853239F493FD859193FF81916B
:104FA0007F01853229F4B60190E00E94A429E7CF61
:104FB000912C212C312CFFE1F315D8F08B3279F0B4
:104FC00038F4803279F08332A1F4232D20611DC0A2
:104FD0008D3261F0803369F4232D216016C0832D5A
:104FE0008260382EE32DE4603E2E2AC0F32DF86057
:104FF0001DC037FC2DC020ED280F2A3040F08E3226
:10500000B9F436FC81C1232D2064322E19C036FE3E
:1050100006C08AE0989E200D1124922E11C0EAE06D
:105020002E9E200D1124222EF32DF0623F2E08C05B
:105030008C3621F4832D8068382E02C0883641F4E6
:10504000F70193FD859193FF81917F018111B3CF8A
:10505000982F9F7D9554933028F40C5F1F4F9FE34A
:1050600099830DC0833631F0833771F0833509F0B1
:1050700059C021C0F801808189830E5F1F4F8824A9
:105080008394912C530113C02801F2E04F0E511C60
:10509000F801A080B18036FE03C0692D70E002C027
:1050A0006FEF7FEFC5010E9499294C018201F32D1A
:1050B000FF773F2E16C0280122E0420E511CF80156
:1050C000A080B18036FE03C0692D70E002C06FEF92
:1050D0007FEFC5010E948E294C01F32DF0683F2E11
:1050E000820133FC1BC0822D90E088169906B0F433
:1050F000B60180E290E00E94A4292A94F4CFF50141
:1051000037FC859137FE81915F01B60190E00E94E6
:10511000A42921102A9421E0821A91088114910473
:1051200071F7E8C0843611F0893641F5F80137FE91
:1051300007C060817181828193810C5F1F4F08C01D
:1051400060817181072E000C880B990B0E5F1F4F39
:10515000F32DFF763F2E97FF09C0909580957095AF
:1051600061957F4F8F4F9F4FF0683F2E2AE030E0D0
:10517000A3010E94E029882E861845C0853731F4A6
:10518000232D2F7EB22E2AE030E025C0932D997F6B
:10519000B92E8F36C1F018F4883579F0B5C0803754
:1051A00019F0883721F0B0C0E92FE061BE2EB4FEBF
:1051B0000DC0FB2DF460BF2E09C034FE0AC0292F9C
:1051C0002660B22E06C028E030E005C020E130E0C5
:1051D00002C020E132E0F801B7FE07C060817181B2
:1051E000828193810C5F1F4F06C06081718180E0D6
:1051F00090E00E5F1F4FA3010E94E029882E8618C1
:10520000FB2DFF773F2E36FE0DC0232D2E7FA22EC5
:10521000891458F434FE0BC032FC09C0832D8E7EF5
:10522000A82E05C0B82CA32C03C0B82C01C0B92CE3
:10523000A4FE0FC0FE01E80DF11D8081803321F432
:105240009A2D997EA92E09C0A2FE06C0B394B394EC
:1052500004C08A2D867809F0B394A3FC11C0A0FE87
:1052600006C0B21488F4280C922C9B180EC0B214FD
:1052700060F4B60180E290E00E94A429B394F7CFD5
:10528000B21418F42B1802C0982C212CA4FE10C0C4
:10529000B60180E390E00E94A429A2FE17C0A1FC01
:1052A00003C088E790E002C088E590E0B6010CC03A
:1052B0008A2D867859F0A1FE02C08BE201C080E2FF
:1052C000A7FC8DE2B60190E00E94A429891438F46D
:1052D000B60180E390E00E94A4299A94F7CF8A94C3
:1052E000F301E80DF11D8081B60190E00E94A42930
:1052F0008110F5CF222009F442CEB60180E290E081
:105300000E94A4292A94F6CFF6018681978102C0D3
:105310008FEF9FEF2B96E2E10C945A2AFC01059047
:10532000615070400110D8F7809590958E0F9F1FA7
:105330000895FC016150704001900110D8F78095EC
:1053400090958E0F9F1F08950F931F93CF93DF9318
:10535000FB01238121FD03C08FEF9FEF2CC022FFB3
:1053600016C046815781248135814217530744F482
:10537000A081B1819D012F5F3F4F318320838C93AA
:10538000268137812F5F3F4F3783268314C08B01DF
:10539000EC01FB010084F185E02D0995892BE1F6F4
:1053A000D80116968D919C911797019617969C930C
:1053B0008E931697CE01DF91CF911F910F91089593
:1053C000FA01AA27283051F1203181F1E8946F9336
:1053D0006E7F6E5F7F4F8F4F9F4FAF4FB1E03ED0DC
:1053E000B4E03CD0670F781F891F9A1FA11D680F7A
:1053F000791F8A1F911DA11D6A0F711D811D911DAD
:10540000A11D20D009F468943F912AE0269F112421
:105410003019305D3193DEF6CF010895462F477085
:10542000405D4193B3E00FD0C9F7F6CF462F4F70E0
:10543000405D4A3318F0495D31FD4052419302D03E
:10544000A9F7EACFB4E0A6959795879577956795E4
:10545000BA95C9F700976105710508959B01AC01E4
:105460000A2E06945795479537952795BA95C9F70B
:10547000620F731F841F951FA01D08952F923F92E6
:105480004F925F926F927F928F929F92AF92BF9254
:10549000CF92DF92EF92FF920F931F93CF93DF9300
:1054A000CDB7DEB7CA1BDB0B0FB6F894DEBF0FBE5D
:1054B000CDBF09942A88398848885F846E847D84AA
:1054C0008C849B84AA84B984C884DF80EE80FD80AC
:1054D0000C811B81AA81B981CE0FD11D0FB6F89422
:0E54E000DEBF0FBECDBFED010895F894FFCFE3
:1054EE00290140015C0172013F7FFF1F3F7FFF1FBB
:1054FE003F7FFF0A0A0D53595354454D20455252D2
:10550E004F520A0D25730A0D000A0D53657269611B
:10551E006C204672616D696E67204572726F720003
:10552E000A0D53657269616C2044617461204F7677
:10553E00657272756E204572726F72000A0D536538
:10554E007269616C20506172697479204572726F54
:10555E0072000A0D53657269616C20545820627591
:10556E0066206F766572666C6F77204572726F7209
:10557E00000A0A0D21212120454550524F4D20573A
:10558E0072697465204572726F72202121210A0A98
:10559E000D000D526573657474696E6720416C6CF5
:1055AE00206F6620454550524F4D20746F20253098
:1055BE003278202D2025303364252520646F6E65CA
:1055CE00000A0D4572617365204552522025780AF6
:1055DE000D000A0A0D4845582044554D500A0D0A33
:1055EE000041646472203D20253034783A20002535
:1055FE0030327820000A0A0D5570646174696E6746
:10560E0020454550524F4D2021210A0A0D00257389
:10561E002D30312D2573004641494C0050415353D6
:10562E0000253031782530317825303178253031EC
:10563E0078202000253031782530317825303178AA
:10564E0025303178202D2025730A0D00574F204E1E
:10565E006F2020203D2025730A0D41737379204E53
:10566E006F203D2025732D30312D257320200020F5
:10567E002530317820202020253031782020202020
:10568E002530317820202020253031782020202010
:10569E00202D20446174612052656164203D2025D7
:1056AE003031782530317825303178253031780A0F
:1056BE000D00363531390043616C63756C6174656C
:1056CE006420436865636B73756D203D202530340F
:1056DE00780A0D004E4554204944202020202020D9
:1056EE00203D2025730A0D002D000A0D43616C63C9
:1056FE00756C6174656420436865636B73756D20AA
:10570E003D20253034780A0D53746F726564204342
:10571E006865636B73756D20202020203D20253039
:10572E0034780A0D000A0D446174612025303278F8
:10573E00207772697474656E20746F206164647270
:10574E0065737320253034780A0D000A0D44617498
:10575E0061202530327820726561642066726F6D2B
:10576E00206164647265737320253034780A0D00ED
:10577E000A0A426F6172642049443A2025732D252E
:10578E00732069732073656C656374656420666F3E
:10579E00722070726F6772616D6D696E670A0A0DA5
:1057AE000050726F6772616D6D696E6720426F6136
:1057BE0072642025732D25730A0D0048656164659A
:1057CE007220506F7274203D20253032780A0D0001
:1057DE000A0A0D50726F6772616D6D696E672044B3
:1057EE00657461696C7320666F722025730A0D00F3
:1057FE0030300046696E616C20417373656D626C6A
:10580E007920547970653A2025730A0D0046696E29
:10581E00616C20417373656D626C79204E756D629B
:10582E0065723A2025732D30302D25730A0D004EEA
:10583E0065742049443A20414441505445520A0A65
:10584E000D004E65742049443A20455854454E4447
:10585E0045520A0A0D004E65742049443A202573BC
:10586E000A0A0D0053657269616C204E6F3A20254D
:10587E00730A0A0D0000010204080F0E0D0B0740FB
:10588E00171817F016C01690165F162E16FE15CDA9
:06589E0015CD159B15005D
:00000001FF
