:100000000C94CE060C94EB060C94EB060C94EB06C9
:100010000C94EB060C94EB060C94EB060C94EB069C
:100020000C94EB060C94EB060C94EB060C94F9166E
:100030000C94EB060C94EB060C94EB060C94EB067C
:100040000C94EB060C94EB060C94C4070C9401077B
:100050000C94EB060C94EB060C94EB060C94EB065C
:100060000C94EB060C94EB060A0D506F727420454D
:100070007870616E64657220546573740A0D3D3D3D
:100080003D3D3D3D3D3D3D3D3D3D3D3D3D3D3D3DA0
:100090000A0D42697433203D2047534E332C2042D1
:1000A000697432203D2047534E322C20426974310E
:1000B000203D2047534E312C2042697430203D2092
:1000C00047534E300A0A0D4F555420202020494EE8
:1000D0000A0D000A0A0A0A0D506F727420457870E2
:1000E000616E6465722044656275670A0D3D3D3D31
:1000F0003D3D3D3D3D3D3D3D3D3D3D3D3D3D3D3D30
:100100000A0D50726573732027582720746F20459D
:100110007869740A0A0D47534E332047534E3220F4
:1001200047534E312047534E300A0D000A0A0A0A3F
:100130000D4445425547204D454E550A0D3D3D3D28
:100140003D3D3D3D3D3D3D3D3D3D0A0D0A0D536567
:100150006C65637420454550524F4D204164647274
:100160006573733A0A0D31202D20307835303A20EE
:100170004E657420436F6E6E6563746F722F4E65AB
:100180007420416461707465720A0D32202D203034
:100190007835323A2041444320426F74746F6D20A9
:1001A00042640A0D33202D20307835343A204E65D4
:1001B0007420457874656E73696F6E0A0D34202D56
:1001C00020307835363A2041444320546F70204225
:1001D000640A0D35202D20307834313A20506F726A
:1001E0007420457870616E646572202848573030FD
:1001F00030313132204F6E6C79290A0D0A0D507260
:10020000657373205820746F20657869740A0A0D2D
:10021000000A0A0A0A0D454550524F4D20446562B6
:1002200075670A0D3D3D3D3D3D3D3D3D3D3D3D0A32
:100230000A0D44202D20446973706C617920537439
:100240006F7265642044657461696C730A0D48209F
:100250002D204865782044756D700A0D57202D209B
:1002600057726974650A0D52202D205265736574AA
:1002700020454550524F4D20746F2030300A0D53A9
:10028000202D2053657420454550524F4D20746FEA
:100290002046460A0D43202D20446973706C617915
:1002A00020436865636B73756D730A0D50202D20B4
:1002B00050726F6772616D20426F61726420446595
:1002C0007461696C730A0D58202D20526574757223
:1002D0006E20746F204465627567204D656E750AE7
:1002E0000A0D000A0A0D2021212120506C6561733E
:1002F000652052652D456E746572207573696E6751
:10030000206E756D657269632063686172616374E4
:10031000657273206F6E6C7920282730272D27395E
:100320002729202121210A0D000A0A0D202121213F
:1003300020506C656173652052652D456E74657241
:10034000207573696E6720416C7068612D6E756DE4
:10035000657269632063686172616374657273209A
:100360006F6E6C7920282741272D275A272C2027AC
:1003700030272D27392729202121210A0D000A0A9B
:100380000D2021212120454550524F4D20524541FD
:1003900044204552524F52202121210A0A0D000AC1
:1003A0000D4461746120726574656E74696F6E20AE
:1003B000436865636B204641494C454421210A0D41
:1003C000000A0D4461746120726574656E74696F12
:1003D0006E204F4B0A0A0D000A0D436865636B6976
:1003E0006E67206461746120726574656E74696FF4
:1003F0006E0A0D506F776572696E67204F46462012
:10040000666F722033207365636F6E64730A0A0D22
:1004100000504342204173737920532F4E203D20DA
:1004200000504342204173737920502F4E203D20CD
:100430000050726F6475637420532F4E20203D204E
:100440000050726F6475637420502F4E20203D2041
:1004500000556E646566696E6564000A0A0D2121A7
:1004600021205741524E494E47202121210A0D4358
:10047000616C63756C6174656420616E6420537493
:100480006F72656420436865636B73756D204D61A1
:100490007463680A0A0D000A0A0D436865636B738A
:1004A000756D206D69736D617463680A0D536574B1
:1004B00074696E6720757020454550524F4D0A0D86
:1004C000000A0A0D436865636B20486561646572C4
:1004D0002069732066697474656420636F72726545
:1004E00063746C790A0D5072657373202778272026
:1004F000746F20454E544552206B657920746F20EF
:1005000072657472790A0D000A0A0D4E6F742045E7
:100510006E6F75676820636861726163746572737A
:1005200020666F7220576F726B73204F7264657212
:10053000202D20312052657175697265640A0D5055
:100540006C656173652072657472790A0D000A0A20
:100550000D4E6F7420456E6F756768206368617219
:1005600061637465727320656E7465726564202DB5
:1005700020332052657175697265640A0D506C658F
:100580006173652072657472790A0D000A0A0D4E56
:100590006F7420456E6F7567682063686172616370
:1005A0007465727320656E7465726564202D2034E5
:1005B0002052657175697265640A0D506C656173CE
:1005C000652072657472790A0D0021212121212193
:1005D000212121212121212121212121210A0D2136
:1005E00021212054455354204641494C4544202163
:1005F00021210A0D21212121212121212121212116
:10060000212121212121210A0A0D52656D6F766574
:1006100020426F61726420616E6420717561726145
:100620006E74696E65206F722072657465737420D4
:10063000626F6172640A0A0D000A0A0D2A2A2A2AC8
:100640002A2A2A2A2A2A2A2A2A2A2A2A2A2A2A0A2A
:100650000D2A2A2A205445535420504153534544CF
:10066000202A2A2A0A0D2A2A2A2A2A2A2A2A2A2A31
:100670002A2A2A2A2A2A2A2A2A0A0A0D52656D6F4C
:10068000766520426F61726420616E6420617070D3
:100690006C7920544553544544204D41524B0A0A2D
:1006A0000D000A0D21212120504F52542045585051
:1006B000414E4445522054455354204641494C45EF
:1006C00044202121210A0D50726573732027582779
:1006D00020746F2065786974206F7220454E5445F0
:1006E00052206B657920746F2052657472790A0DFF
:1006F000000A0D5375636365737366756C6C7920BE
:10070000436865636B656420616E642050726F6737
:1007100072616D6D656420454550524F4D21210A2F
:100720000D000A0A0A0D4175746F6D617469636189
:100730006C6C7920636865636B696E6720616E64B9
:100740002050726F6772616D6D696E67204545500C
:10075000524F4D0A0D000A0A0A0D436F6E6E656313
:100760007420746865204164617074657220626FE2
:1007700061726420556E64657220546573742074D0
:100780006F20746865204A69670A0D50726573733B
:100790002027582720746F2065786974206F722095
:1007A000454E544552206B657920746F2070726FEE
:1007B000636565640A0D000A0A0A0D436F6E6E6573
:1007C00063742074686520626F61726420556E6482
:1007D0006572205465737420746F20746865204AB4
:1007E00069670A0D454E5355524520464C59494EAE
:1007F00047204C45414420495320434F4E4E4543EA
:1008000054454420746F204A554D5045520A0A0DF4
:1008100050726573732027582720746F206578699C
:1008200074206F7220454E544552206B65792074B8
:100830006F2070726F636565640A0D000A0A0A0D05
:10084000456E74657220746865204E657874206208
:100850006F61726427732053657269616C204E6FFB
:100860000A0D000A0A0A0D456E74657220746865E7
:1008700020626F61726427732053657269616C2016
:100880004E6F2E0A0D2833204368617261637465D0
:10089000727329206F722027582720746F20657883
:1008A00069740A0D005072657373202758272074ED
:1008B0006F2065786974206F7220454E5445522030
:1008C0006B657920746F2070726F636565640A0AC6
:1008D0000A0D000A0A0A0D436865636B2074686597
:1008E00020666F6C6C6F77696E67206465746169F0
:1008F0006C732061726520636F72726563740A0A9B
:100900000D000A0A0A0D456E746572207468652030
:10091000626F617264277320417373656D626C79D5
:10092000205265766973696F6E204E6F206F662066
:10093000746865206261746368206F6620626F610D
:1009400072647320556E64657220546573740A0D69
:1009500028332043686172616374657273290A0DDC
:10096000000A0A0A0D456E7465722074686520627B
:100970006F617264277320417373656D626C7920B7
:100980004E6F206F66207468652062617463682012
:100990006F6620626F6172647320556E64657220A9
:1009A000546573740A0D283420436861726163745E
:1009B000657273290A0D000A0A0A0D456E74657284
:1009C0002074686520576F726B73204F7264657274
:1009D000204E6F2028574F29206F662074686520AD
:1009E0006261746368206F6620626F617264732055
:1009F000556E64657220546573740A0D284D415814
:100A0000203D2031302043686172616374657273E8
:100A1000290A0D000A0A0A0D363736382D303120E2
:100A20004E657420416461707465722050434220A9
:100A300073656C65637465640A0D000A0A0A0D36F5
:100A40003531392D3031204E657420436F6E6E651F
:100A500063746F72205043422073656C65637465E4
:100A6000640A0D000A0A0D53656C65637420426FB9
:100A700061726420556E6465722054657374202819
:100A8000425554290A0D3D3D3D3D3D3D3D3D3D3DD9
:100A90003D3D3D3D3D3D3D3D3D3D3D3D3D3D3D3D86
:100AA0003D3D3D0A0D31202D20363531392D303177
:100AB000202D204E657420436F6E6E6563746F72D7
:100AC000205043420A0D32202D20363736382D3043
:100AD00031202D204E657420416461707465722050
:100AE0005043420A0D58202D204578697420746FB8
:100AF000205374617274204D656E750A0D3C454E2D
:100B00005445523E2D20546F20726566726573689D
:100B10002073637265656E0A0A0D000A0A0D53742C
:100B2000617274204D454E550A0D3D3D3D3D3D3DA4
:100B30003D3D3D3D3D3D0A0D54202D20426F6172EB
:100B4000642074657374730A0D44202D204465621B
:100B50007567204D656E750A0D3C454E5445523EF5
:100B60002D20546F207265667265736820736372FE
:100B700065656E0A0A0D000A0A0D456E74657220DD
:100B800046696E616C20417373656D626C79204EAD
:100B9000756D6265720A0D2850726F6475637420FA
:100BA000436F6465202D2034204E756D6572696336
:100BB00020636861726163746572730A0D3C454E0F
:100BC0005445523E2D20546F2072656672657368DD
:100BD0002073637265656E0A0A0D000A0D43757213
:100BE00072656E7420454550524F4D20436F6E74B0
:100BF000656E74730A0D3D3D3D3D3D3D3D3D3D3DC2
:100C00003D3D3D3D3D3D3D3D3D3D3D3D3D0A0A0DAA
:100C1000004E6574204164617074657220504342D7
:100C2000004E657420436F6E6E6563746F72205062
:100C300043420020436F6D6D616E64206E6F7420BF
:100C4000696D706C656D656E7465640A0D000A0AE5
:100C5000426F6172642054657374204669726D77C7
:100C60006172650A0D2A2A2A2A2A2A2A2A2A2A2A67
:100C70002A2A2A2A2A2A2A2A2A2A2A0A0A0D000A7B
:100C80000A0D21212120494E56414C49442054450A
:100C90005354204A4947204944204445544543542D
:100CA0004544202121210A0D000A0A46696E616C23
:100CB0002054657374204669726D776172650A0D00
:100CC0002A2A2A2A2A2A2A2A2A2A2A2A2A2A2A2A84
:100CD0002A2A2A0A0A0D000A0A0D454547204E65B0
:100CE0007420436F6E6E6563746F72202D204932DD
:100CF000432054657374204669726D776172650A8A
:100D00000D3D3D3D3D3D3D3D3D3D3D3D3D3D3D3D43
:100D10003D3D3D3D3D3D3D3D3D3D3D3D3D3D3D3D03
:100D20003D3D3D3D3D3D0A0D4669726D7761726501
:100D30002049443A20000A0A0A0A0A0A0A0A0A0A48
:100D40000A0D28632920436F7079726967687420DF
:100D5000546865204D61677374696D20436F6D70D1
:100D6000616E79204C74642E20323032350A0A0DBF
:100D7000000A0A0A0A0A0A0A0A0A0A0A0A0A0A0ADD
:100D80000D000A0D00544A3030303030365F535772
:100D9000202D205665722050312E350011241FBEA3
:100DA000CFEFD8E0DEBFCDBF13E0A0E0B1E0E4E7D5
:100DB000F4E302C005900D92A43CB107D9F725E0F9
:100DC000A4ECB3E001C01D92A13CB207E1F70E9480
:100DD000DA080C94381A0C940000109285041092D2
:100DE000840410928304109282041092C50087E656
:100DF0008093C40086E08093C20088E98093C1009C
:100E000008951F920F920FB60F9211248F939F9304
:100E1000EF93FF939091830480918204981306C00E
:100E20008091C1008F7D8093C10011C0E091820448
:100E3000F0E0E253FC4F80818093C60080918204F1
:100E40008F5F80938204843B10F010928204FF91A4
:100E5000EF919F918F910F900FBE0F901F9018955B
:100E6000F8942091830430E0809182047894482F94
:100E700050E02417350710F42C543F4F8D54821B3B
:100E800008951F93CF93DF93D82F192FC62F0E9459
:100E900030078C17E0F3809183042D2FED2FF12F75
:100EA0009E2F921B9C1758F49191A82FB0E0A2534B
:100EB000BC4F9C938F5F843B98F380E0F1CFF89414
:100EC000809383048091C10085FD16C0E091820467
:100ED000F0E0E253FC4F80818093C6008091820451
:100EE0008F5F80938204843B10F010928204809183
:100EF000C10080628093C100789484E0DF91CF913B
:100F00001F910895CF93DF93FC0101900020E9F732
:100F10003197EF01C81BD90B6C2F0E944107843019
:100F200011F48C2F01C080E0DF91CF910895CF9311
:100F3000C82F1092C1000E94ED06EC2FF0E0EE0FDA
:100F4000FF1FE050FF4F81818F9380818F9388E056
:100F500091E09F938F938AED94E09F938F930E94EB
:100F60004E170F900F900F900F900F900F908AEDEB
:100F700094E0CF910C948207209183049091820495
:100F800081E0291380E008951F920F920FB60F920F
:100F900011242F933F934F935F936F937F938F937E
:100FA0009F93AF93BF93EF93FF939091C000809175
:100FB000C600E0918504F0E0EC53FC4F8083809103
:100FC00085048F5F809385048A3010F01092850429
:100FD000892F8C7159F094FF02C080E005C093FF07
:100FE00002C081E001C082E00E949707FF91EF916B
:100FF000BF91AF919F918F917F916F915F914F9131
:101000003F912F910F900FBE0F901F901895309128
:101010008504209184043217A9F0F894E0918404A7
:10102000F0E0EC53FC4F2081FC012083809184048C
:101030008F5F809384048A3010F010928404789437
:1010400084E0089580E00895CF93DF931F92CDB799
:10105000DEB78FEF9FEF2091BC002983298127FD08
:1010600002C00197C1F70F90DF91CF9108958CE0F6
:101070008093B800ECEBF0E0808184608083089579
:10108000FF920F931F93CF93DF93C82F162FF42E49
:10109000052F84EA8093BC000E942408CC0FC093E3
:1010A000BB0084E88093BC000E942408CF2DD02F81
:1010B000CE01810F911D8C0184E8F82EC017D10755
:1010C00041F089918093BB00F092BC000E942408FB
:1010D000F5CF8091B90094E99093BC00DF91CF9156
:1010E0001F910F91FF900895AF92BF92CF92DF9220
:1010F000EF92FF920F931F93CF93DF93C82F062F8A
:10110000F42E152F84EA8093BC000E942408CC0F93
:10111000C160C093BB0084E88093BC000E94240897
:10112000CF2DD12F10E0E12CF12C680181E0C81AFD
:10113000D10884ECB82E94E8A92EE016F10691F0BF
:10114000CE14DF0419F4A092BC0002C0B092BC001F
:101150000E9424088091BB0088838FEFE81AF80A68
:101160002196EBCF84E98093BC00DF91CF911F9152
:101170000F91FF90EF90DF90CF90BF90AF900895C8
:10118000813011F4289A08952898089584E08BB945
:101190008AB1886F8AB98BB18F708BB952985B987E
:1011A0005B9A5B985B9A5B985B9A5B98209A80E06D
:1011B0000C94C0080E94C6080E94ED060E943708E1
:1011C0000E94C0160E9435160E948D16FDCF811117
:1011D00002C0229806C0229A613011F42A9A01C0F6
:1011E0002A9883B184700895CF93DF93C9B1C470F6
:1011F000D4E08AE090E00E94CB160E94EA16882391
:10120000E1F389B18470C81307C0D15091F781E030
:10121000C11103C080E001C082E0DF91CF91089549
:101220002BB12F7030E1839FC0011124822B8BB929
:10123000089590ED980F9A3058F0982F9F7D915413
:101240009A3130F091E08D3209F090E0892F0895C5
:1012500081E0089581E79DE00E94B3160E94820715
:1012600083ED98E00E94B3160E94820785EA98E019
:101270009093D0048093CF048BED9EE09093D204A2
:101280008093D10489EE99E09093D4048093D304A1
:1012900084EA94E09F938F9388EA94E09F938F93DE
:1012A0008DEA94E09F938F9386E891E09F938F93CC
:1012B0008AED94E09F938F930E944E178AED94E0FD
:1012C0000E9482078DB79EB70A960FB6F8949EBF0C
:1012D0000FBE8DBF80918B04882319F081E19CE0C3
:1012E00002C081E29CE00E94B3169F938F9389EA2B
:1012F00091E09F938F938AED94E09F938F930E9448
:101300004E170F900F900F900F900F900F908AED47
:1013100094E00C9482078F929F92AF92BF92CF92EB
:10132000DF92EF92FF920F931F93CF93DF93CDB78E
:10133000DEB761970FB6F894DEBF0FBECDBF982E13
:10134000A62E6A017901062F172F88248394880E10
:10135000202F802F8A1990E08C159D0538F50F3FBE
:10136000110519F010F0B82C01C0B92C2983F70130
:10137000E80FF91F80818A83AE014F5F5F4F61E004
:101380008B2D0E944008AE014F5F5F4F62E08B2DB6
:101390000E944008AE014F5F5F4F61E08B2D0E94BD
:1013A00040088832B9F70F5F1F4FD2CF61960FB652
:1013B000F894DEBF0FBECDBFDF91CF911F910F918B
:1013C000FF90EF90DF90CF90BF90AF909F908F9065
:1013D0000895CF93DF938091CF049091D00400972C
:1013E00071F10E94A716EC01833B910510F0C2EB4E
:1013F000D0E00E94300790E08C179D07D0F3BE012B
:101400008091CF049091D0040E9495162091CF0432
:101410003091D0042C0F3D1F3093D0042093CF0483
:101420006C2F0E944107E091CF04F091D004E49129
:10143000E1110DC01092D0041092CF0408C0809129
:10144000D1049091D2049093D4048093D304DF917B
:10145000CF910895AF92BF92CF92DF92EF92FF9219
:101460001F93CF93DF93CDB7DEB761970FB6F89494
:10147000DEBF0FBECDBF182F7A0169016F3F710526
:1014800011F008F01F5F698388EEA82E83E0B82E64
:10149000AE014F5F5F4F61E0812F0E9440088832AC
:1014A00061F081E0A81AB10899F78EE793E00E94F5
:1014B000B3160E94820780E01BC0AE014E5F5F4FF3
:1014C0006E2D812F0E94740820E0822F90E08E15EF
:1014D0009F0568F4F601E80FF91FA2E0B0E0AC0F39
:1014E000BD1FA80FB91F8C9180832F5FEECF81E0C5
:1014F00061960FB6F894DEBF0FBECDBFDF91CF91DE
:101500001F91FF90EF90DF90CF90BF90AF90089524
:10151000CF92DF92EF92FF920F931F93CF937B01B5
:101520006A019A01AB01BC0180918E040E942A0AD3
:10153000C0E08C2F90E08601080F191FF8018E156E
:101540009F0570F48081811102C0C1110AC00E9400
:101550001909811103C0F801108204C0CF5FE9CFDF
:10156000108281E0CF911F910F91FF90EF90DF905B
:10157000CF900895CF93DF9300D01F92CDB7DEB701
:101580009E012F5F3F4F42E050E06EEF70E0809190
:101590008E040E942A0A89819A8198278927982790
:1015A0000F900F900F90DF91CF910895AF92BF925F
:1015B000CF92DF92EF92FF920F931F93CF93DF931F
:1015C000CDB7DEB762970FB6F894DEBF0FBECDBFC2
:1015D000198200E010E0E12CF12C5E0141E1A40E43
:1015E000B11C9E012F5F3F4F40E150E0B701809159
:1015F0008E040E942A0AFE0131968191080F111D66
:10160000AE16BF06D1F750E1E50EF11CE11482E001
:10161000F80639F70E94BA0A292FA801481B510978
:10162000CA01C22ED12C8C199D0980959095629685
:101630000FB6F894DEBF0FBECDBFDF91CF911F91E3
:101640000F91FF90EF90DF90CF90BF90AF900895F3
:10165000CF93DF9300D01F92CDB7DEB78FEA91E032
:101660000E94820784EA94E09F938F9388EA94E033
:101670009F938F9388EC91E09F938F938FE894E0F2
:101680009F938F930E944E172FE834E04CE050E078
:1016900062EE70E080918E040E948B092DEA34E0A6
:1016A0004BE050E06FEE70E080918E040E948B0959
:1016B00020EA34E044E050E06AEF70E080918E046C
:1016C0000E948B090E94D60A80938C0490938D040B
:1016D00099838A839E012F5F3F4F42E050E06EEF77
:1016E00070E080918E040E948B090FB6F894DEBFE3
:1016F0000FBECDBF0F900F900F90DF91CF91089547
:101700007F928F929F92AF92BF92CF92DF92EF9291
:10171000FF920F931F93CF93DF931F92CDB7DEB746
:10172000782E898300E010E0E12CF12C91EDC92E98
:1017300091E0D92E2AEDA22E24E0B22E4801892C68
:10174000992486940E94BC078823E1F3C401019682
:101750009F938F9389811F928F93DF92CF92BF9235
:10176000AF920E944E178AED94E00E9482079E017C
:101770002F5F3F4F41E050E0B70180918E040E94FF
:101780008B099E012F5F3F4F41E050E0B7018091F0
:101790008E040E942A0A0FB6F894DEBF0FBECDBF9A
:1017A00089817816E1F00E94BC078823E1F38981E2
:1017B0001F928F9380E092E09F938F938AED94E045
:1017C0009F938F930E944E178AED94E00E948207A8
:1017D0000F900F900F900F900F900F900AC09FEFF7
:1017E000E91AF90A0C591F4F011588EC180709F07E
:1017F000A5CF0E94BC078823E1F30F90DF91CF9122
:101800001F910F91FF90EF90DF90CF90BF90AF901E
:101810009F908F907F9008950F931F93CF93DF93A6
:10182000EB018A019A01AB01BC0180918E040E94F8
:101830002A0A8823A1F080E0282F30E0F801E20F87
:10184000F31F2C173D0748F4908190539A3018F0FD
:10185000108280E004C08F5FEFCF108281E0DF91C3
:10186000CF911F910F910895FF920F931F93CF93E4
:10187000DF9300D000D0CDB7DEB782E89DE00E94B4
:10188000B3160E9482078BED9BE00E94B3160E9464
:1018900082070E94BA0A9F938F938EEE92E09F93E5
:1018A0008F930AED14E01F930F930E944E17C80107
:1018B0000E9482070E94D60A80938C0490938D0424
:1018C0009F938F9381E192E09F938F931F930F9348
:1018D0000E944E17C8010E94820782E89DE00E9484
:1018E000B3160E9482070FB6F894DEBF0FBECDBFBD
:1018F0000E94BC078823E1F381E494E00E94B316C0
:101900000E94820781E594E00E94B3168C014AEDA3
:1019100054E064E070E080E090E00E940C0C8823CA
:10192000F1F08DE2F82EF092DE044FED54E062E02B
:1019300070E084E090E00E940C0C882381F0F0922B
:10194000E10442EE54E063E070E086E090E00E9443
:10195000880A882321F01092E5040AED14E0C801FA
:101960000E94820782E89DE00E94B3160E948207CF
:101970000E94BC078823E1F381E394E00E94B31640
:101980000E94820781E594E00E94B3168C014AED23
:1019900054E064E070E089E090E00E94880A8823C7
:1019A00089F08DE28093DE044FED54E06DE070E04D
:1019B00084E090E00E94880A882321F01092EC04D1
:1019C0000AED14E0C8010E94820782E89DE00E94AF
:1019D000B3160E9482070E94BC078823E1F381E2CC
:1019E00094E00E94B3160E94820781E594E00E9471
:1019F000B3168C014AED54E06CE070E082EE90E0AA
:101A00000E94880A882311F00AED14E0C8010E94A0
:101A1000820782E89DE00E94B3160E9482070E941E
:101A2000BC078823E1F381E194E00E94B3160E9491
:101A3000820781E594E00E94B3168C014AED54E0E0
:101A40006BE070E08FEE90E00E94880A8823D1F06E
:101A50006EE272E08AED94E00E943317AE014F5FB0
:101A60005F4F64E070E08AEF90E00E94880A88236C
:101A700049F0BE016F5F7F4F8AED94E00E943317FB
:101A80000AED14E0C8010E94820782E89DE00E94EE
:101A9000B3160E9482070F900F900F900F90DF9166
:101AA000CF911F910F91FF900895CF93DF931F92D5
:101AB000CDB7DEB7CE0101960E940708882381F0DA
:101AC00089818D3039F482E89DE00E94B3160E942E
:101AD000820705C061E0CE0101960E94410789811D
:101AE0000F90DF91CF9108950E94550D882309F43E
:101AF00074C08D3021F118F48A3009F127C088357F
:101B000011F0883719F58091B904811112C087E767
:101B10009BE09093D0048093CF048EEE9DE0909351
:101B2000D2048093D10489EE99E09093D4048093F9
:101B3000D30481E79DE00E94B3160C948207809144
:101B4000B90481114AC08CE895E02CC090ED980F43
:101B50009A3030F5E091B904AE2FB0E0A654BB4FF7
:101B60008C93EF5FE093B9048091B804E81335C01B
:101B7000F0E0E654FB4F10826AEB74E08BE994E0EE
:101B80000E9447171092B90483E08093B80482E062
:101B900099E09093D0048093CF0480E29FE013C03B
:101BA00083EE92E00E94B3160E9482071092B9045D
:101BB00084E08093B80481E699E09093D004809308
:101BC000CF0484E79DE09093D2048093D10489EE02
:101BD00099E09093D4048093D30408950E94550D06
:101BE0008823A9F01092B90484E08093B80410927D
:101BF000D0041092CF0484E79DE09093D2048093A8
:101C0000D10489EE99E09093D4048093D30408958D
:101C10000E94550D882379F18D3051F018F48A30E7
:101C200039F00FC0883511F0883759F40C942A091F
:101C300082E297E09093D0048093CF0480E094E117
:101C400010C085EA98E00E94B3160E948207809136
:101C50008804909189049093D0048093CF0488E005
:101C60009EE09093D2048093D10489EE99E0909302
:101C7000D4048093D30408950E94550D882309F459
:101C800099C08D3071F018F48A3059F014C088353D
:101C900011F0883781F48091B90481118BC00C94C4
:101CA0002A099091B9048091B804981708F082C06D
:101CB0008EE495E064C090ED980F9A3008F05DC016
:101CC000E091B904AE2FB0E0A654BB4F8C93EF5F08
:101CD000E093B9048091B804E8136CC0F0E0E654D6
:101CE000FB4F10826AEB74E080EA94E00E94471791
:101CF00081E79DE00E94B3160E94820780EA94E08B
:101D00009F938F938DEA94E09F938F9380E392E06B
:101D10009F938F938AED94E09F938F930E944E1729
:101D20008AED94E00E9482078DB79EB708960FB6A1
:101D3000F8949EBF0FBE8DBF80918A04882329F03E
:101D40000E94280B0E94340C0DC080918B048823C4
:101D500019F086E597E002C087EB97E0909389043D
:101D60008093880480918804909189049093D00492
:101D70008093CF0488E09EE013C083EE92E00E943F
:101D8000B3160E9482071092B90483E08093B804CE
:101D900083E698E09093D0048093CF048CE39EE098
:101DA0009093D2048093D10489EE99E09093D40467
:101DB0008093D30408950E94550D882309F43FC0F1
:101DC0008D30B9F018F48A30A1F021C0883511F0B7
:101DD0008837E9F481E79DE00E94B3160E948207EC
:101DE0008BE19BE09093D0048093CF0481E793E153
:101DF0001CC01092B90483E08093B80483E698E095
:101E00009093D0048093CF048CE39EE00EC085EACB
:101E100098E00E94B3160E94820785EA98E09093AA
:101E2000D0048093CF048BED9EE09093D2048093F6
:101E3000D10489EE99E09093D4048093D30408955B
:101E4000CF930E94550DC82F882309F477C08D3099
:101E500029F118F48A3011F12AC0883511F0883739
:101E600031F58091B904811112C08BE19BE0909310
:101E7000D0048093CF0481E793E19093D2048093C0
:101E8000D10489EE99E09093D4048093D30481E740
:101E90009DE00E94B316CF910C9482079091B904F3
:101EA0008091B8049817A8F58EE495E016C08C2FA1
:101EB0000E941909882379F08091B904E82FF0E095
:101EC000E654FB4FC0838F5F8093B9049091B804B0
:101ED0008917F8F433C089E293E00E94B3160E9498
:101EE00082071092B90483E08093B80482E099E0FD
:101EF0009093D0048093CF0480E29FE09093D2042B
:101F00008093D10489EE99E09093D4048093D30414
:101F100015C0E091B904F0E0E654FB4F10826AEB83
:101F200074E084EA94E00E94471781E79DE00E94F4
:101F3000B3160E948207CF910C942A09CF9108957D
:101F4000CF930E94550DC82F882309F483C08D308C
:101F500029F118F48A3011F128C0883511F088373A
:101F600021F58091B904811112C08BE19BE090931F
:101F7000D0048093CF0481E793E19093D2048093BF
:101F8000D10489EE99E09093D4048093D30481E73F
:101F90009DE00E94B316CF910C9482078091B90402
:101FA00081112BC088E095E016C08C2F0E94190982
:101FB000882379F0E091B90481E08E0F8093B90411
:101FC000F0E0E654FB4FC0839091B8048917A8F461
:101FD00041C089E293E00E94B3160E9482071092EA
:101FE000B9048AE08093B80487EB99E09093D00419
:101FF0008093CF0480EA9FE023C0C091B904EC2F06
:10200000F0E0E654FB4F10826AEB74E08DEA94E056
:102010000E944717CA3038F4EC2FF0E0E355FB4F2D
:102020001082CF5FF7CF1092B90483E08093B80499
:1020300082E099E09093D0048093CF0480E29FE007
:102040009093D2048093D10489EE99E09093D404C4
:102050008093D304CF910895CF93DF930E94550DC1
:10206000882309F45BC0823399F068F48133F1F579
:1020700061E672E088EA94E00E94471710928B04B0
:102080008BE39AE010C0883541F1883731F12EC0DA
:1020900066E672E088EA94E00E94471781E0809348
:1020A0008B0484E19AE00E94B316EC0181E79DE085
:1020B0000E94B3160E948207CE010E9482071092EE
:1020C000B9048AE08093B80487EB99E09093D00438
:1020D0008093CF0480EA9FE017C08BE19BE0909350
:1020E000D0048093CF0481E793E10EC083E39CE0AA
:1020F0000E94B3160E94820784E69AE09093D0046F
:102100008093CF048CE290E19093D2048093D10429
:1021100089EE99E09093D4048093D304DF91CF911A
:102120000895CF93DF931F92CDB7DEB70E94550D70
:102130008823D1F0883511F08837B1F480E00E940F
:1021400010098CE291E09093D0048093CF048AE14F
:1021500091E19093D2048093D10489EE99E0909319
:10216000D4048093D30462C00E94EA16882309F441
:102170005DC0E0918604F0E0E654FC4F80818093DE
:1021800087048F700E94100988EB9BE00E94CB1699
:10219000AE014F5F5F4F61E080918E040E94740832
:1021A000998180918704292F21701F922F9391FB91
:1021B000222720F91F922F9392FB222720F91F92AA
:1021C0002F9393FB992790F91F929F93982F9170CB
:1021D0001F929F9381FB992790F91F929F9382FBF7
:1021E000992790F91F929F9383FB882780F91F926C
:1021F0008F938BE692E09F938F938AED94E09F9369
:102200008F930E944E178AED94E00E94820780917E
:1022100086048F5F0FB6F894DEBF0FBECDBF8A3045
:1022200018F48093860402C0109286040F90DF9108
:10223000CF910895CF93DF931F92CDB7DEB781E0A2
:102240000E94C0080E94550D882309F46FC0843392
:1022500099F140F4823381F168F5813309F04EC081
:1022600080E52BC08835A1F1883791F1853309F0DD
:1022700045C0198281E480938E04AE014F5F5F4FA9
:1022800061E00E94400883ED90E09093D004809339
:10229000CF0481E990E19093D2048093D10489EE38
:1022A00099E09093D4048093D30488EC90E00E944A
:1022B000CB163CC084E501C082E580938E0481E1A9
:1022C00092E09093D0048093CF048AE991E124C0F6
:1022D0008BE19BE09093D0048093CF0481E793E15E
:1022E0009093D2048093D10489EE99E09093D40422
:1022F0008093D30480E00E94C00818C083E39CE070
:102300000E94B3160E9482078CE291E09093D00461
:102310008093CF048AE191E19093D2048093D10419
:1023200089EE99E09093D4048093D3040F90DF91C9
:10233000CF9108956F927F928F929F92AF92BF92AA
:10234000CF92DF92EF92FF920F931F93CF93DF9381
:10235000CDB7DEB762970FB6F894DEBF0FBECDBF24
:102360000E94550D882309F4A7C1883509F476C168
:10237000B0F4803509F454C140F4843459F1883400
:1023800061F1833409F080C18BC0833509F442C107
:10239000873509F498C0823509F076C13DC1803790
:1023A00009F43EC140F48436A9F08836B1F0833692
:1023B00009F06AC175C0833709F42CC120F4823753
:1023C00009F42AC161C1873709F47DC0883709F44F
:1023D00045C15AC10E94340C5DC18DEA92E00E9451
:1023E0008207198200E010E09CEB692E92E0792EC2
:1023F0002AEDC22E24E0D22E3AECA32E32E0B32EE8
:102400001F930F937F926F92DF92CF920E944E178D
:102410008AED94E00E9482079E012F5F3F4F40E1CA
:1024200050E0B80180918E040E942A0ACE010196E4
:102430004C018AEDE82E84E0F82E0F900F900F905B
:102440000F900F900F90F40181914F011F928F9385
:10245000BF92AF92FF92EF920E944E17F3E0EF0E01
:10246000F11C0F900F900F900F900F900F908AE03B
:10247000E81685E0F80639F70E94BC078823E1F3E7
:102480008AED94E00E94820785EC91E00E94820729
:10249000005F1F4F011592E0190709F0B1CFFAC094
:1024A0000E94D60A182F092F0E94BA0AF82EE92E88
:1024B0000E94BC078823E1F3EF92FF920F931F93D2
:1024C00080ED92E095C08AE589839E012F5F3F4FA2
:1024D00041E050E060E470E080918E040E948B093E
:1024E0000E94BC078823E1F31F9280E48F938981C7
:1024F0001F928F938BE093E09F938F938AED94E0EC
:102500009F938F930E944E178AED94E00E9482075A
:102510009E012F5F3F4F41E050E060E470E080910A
:102520008E040E942A0A0FB6F894DEBF0FBECDBFFC
:102530000E94BC078823E1F31F9280E48F93898176
:102540001F928F9381E393E09F938F938AED94E0A2
:102550009F938F930E944E178AED94E00E9482070A
:1025600085EA89839E012F5F3F4F41E050E06FE095
:1025700071E080918E040E948B090FB6F894DEBF43
:102580000FBECDBF0E94BC078823E1F381E08F938B
:102590008FE08F9389811F928F938BE093E09F93BD
:1025A0008F938AED94E09F938F930E944E178AED4C
:1025B00094E00E9482079E012F5F3F4F41E050E070
:1025C0006FE071E080918E040E942A0A0FB6F894A1
:1025D000DEBF0FBECDBF0E94BC078823E1F381E0C0
:1025E0008F938FE08F9389811F928F9381E393E084
:1025F0009F938F938AED94E09F938F930E944E1741
:102600008AED94E00E9482070FB6F894DEBF0FBEF9
:10261000CDBF40C08FEF01C080E00E94800B3AC068
:102620001092B9048AE08093B80484E69AE090930B
:10263000D0048093CF048CE290E19093D2048093F5
:10264000D10489EE99E09093D4048093D30481E778
:102650009DE00E94B3160E9482072EC08CE291E09A
:102660009093D0048093CF048AE191E19093D204B7
:102670008093D10489EE99E09093D4048093D3049D
:1026800080E00E94C00818C083E39CE00E94B3165B
:102690000E94820781E192E09093D0048093CF045E
:1026A0008AE991E19093D2048093D10489EE99E074
:1026B0009093D4048093D30462960FB6F894DEBF4F
:1026C0000FBECDBFDF91CF911F910F91FF90EF9083
:1026D000DF90CF90BF90AF909F908F907F906F9042
:1026E00008950E94550D882309F45EC0843541F099
:1026F00018F4843429F140C0843611F18437E1F5AF
:102700001092B9048AE08093B80484E69AE090932A
:10271000D0048093CF048CE290E19093D204809314
:10272000D10489EE99E09093D4048093D30481E797
:102730009DE00E94B3160E94820710928A040895B9
:102740008CE291E09093D0048093CF048AE191E1F0
:102750009093D2048093D10489EE99E09093D404AD
:102760008093D30481E79DE00E94B3160E94820704
:1027700081E080938A04089583E39CE00E94B3166D
:102780000E9482078BE19BE09093D0048093CF045A
:1027900081E793E19093D2048093D10489EE99E08C
:1027A0009093D4048093D3040895CF93DF931F9222
:1027B000CDB7DEB7CE0101960E9407088111FACF8E
:1027C0000E94550D89838D30A1F028F4882371F083
:1027D0008A3079F004C0883571F0883761F085EA75
:1027E00098E00E94B3160E9482071982898188238B
:1027F00039F38AE001C088E70F90DF91CF91089507
:102800008F929F92AF92BF92CF92DF92EF92FF9200
:102810000F931F93CF93DF9300D0CDB7DEB781E73F
:102820009DE00E94B3160E94820780EA94E09F9385
:102830008F938DEA94E09F938F9380E693E09F932C
:102840008F938AED94E09F938F930E944E178AEDA9
:1028500094E00E94820781E00E94C00888EE93E025
:102860000E94CB160FB6F894DEBF0FBECDBF0E94FC
:10287000EA168823E1F380918B048823E9F060E075
:1028800081E00E94E70880E580938E040E94D60ACA
:1028900090938D0480938C040E94BA0A20918C043A
:1028A00030918D048217930789F187E994E00E94A3
:1028B000B3160E94820743C00AE713E05AEDE52EE3
:1028C00054E0F52E19991FC081EC94E00E94B316D4
:1028D0000E94820783B186701F928F931F930F937C
:1028E000FF92EF920E944E178AED94E00E948207B9
:1028F0000E94D5130F900F900F900F900F900F9094
:10290000883701F7C8C01A99DFCFB9CF8BE594E0BB
:102910000E94B3160E9482070E94340C82E89DE058
:102920000E94B3160E94820785EA98E00E94B316BF
:102930000E9482070E94D513883709F4ACC080E05A
:102940000E94800B0E94280B88ED93E00E94B31632
:102950000E94820780E00E94C00888EB9BE00E94F2
:10296000CB160E94EA168823E1F381E00E94C0089A
:1029700080918B04811107C061E081E00E94E7082B
:1029800084E580938E044AED54E06CE070E082EEC2
:1029900090E00E94880A882309F498C06FE874E0E8
:1029A0008AED94E00E943E17892B09F08FC04AED12
:1029B00054E06BE070E08FEE90E00E94880A88237C
:1029C00009F484C06DEA74E08AED94E00E943E1739
:1029D000892B09F07BC04AED54E064E070E08AEF97
:1029E00090E00E94880A882309F470C060EA74E0CD
:1029F0008AED94E00E943E17892B09F067C00E947F
:102A0000D60A90938D0480938C040E94BA0A209178
:102A10008C0430918D048217930709F057C059C078
:102A200081E79DE00E94B3160E948207198288E622
:102A300090E00E94B3160E94820780928E04AE013D
:102A40004F5F5F4F61E081E40E94400888EC90E0B6
:102A50000E94F2161092860499249394E0918604C1
:102A6000EA3008F480C0911046C082EA96E00E94E5
:102A7000B3160E9482070E94D513883789F681E732
:102A80009DE00E94B3160E9482078AEC95E00E94A6
:102A9000B3160E9482071092B90483E08093B804B1
:102AA00083E698E09093D0048093CF048CE39EE07B
:102AB0009093D2048093D10489EE99E09093D4044A
:102AC0008093D30480E00E94C008C0C08FE993E0E7
:102AD0000AC081EC93E00E94B3160E9482070E9414
:102AE000340C81EF96E00E94B3160E948207809119
:102AF0008B0481112BC080E00E94C00860E080E060
:102B00000E94E70881E79DE00E94B3160E948207B9
:102B100089E396E00E94B3160E9482071092B904DE
:102B200083E08093B8048CE398E09093D004809382
:102B3000CF048CE39EE09093D2048093D10489EE7D
:102B400099E09093D4048093D30480C021E4822E32
:102B50003FE8E32E33E0F32E0AED14E042EAC42E00
:102B600043E0D42E63CFF0E0E654FC4F80818093A5
:102B700087048F700E94100984E690E00E94F2168C
:102B8000AE014E5F5F4F61E080918E040E94740839
:102B90008A818F708A8390918704891305C09BE591
:102BA000A92E93E0B92E05C086E5A82E83E0B82EA5
:102BB000912C80E00E94100980918704982F9170D9
:102BC0001F929F9381FB992790F91F929F9382FBFD
:102BD000992790F91F929F9383FB882780F91F9272
:102BE0008F93FF92EF921F930F930E944E178AEDDF
:102BF00094E00E9482078A81BF92AF92982F9170D1
:102C00001F929F9381FB992790F91F929F9382FBBC
:102C1000992790F91F929F9383FB882780F91F9231
:102C20008F93DF92CF921F930F930E944E178AEDDE
:102C300094E00E948207809186048F5F80938604CF
:102C40000FB6F894DEBF0FBECDBF08CF0F900F9028
:102C5000DF91CF911F910F91FF90EF90DF90CF9078
:102C6000BF90AF909F908F90089581E79DE00E9464
:102C7000B3160E94820786E39DE00E94B3160E946D
:102C8000820787ED9CE00E94B3160E9482070E9493
:102C900030170E94B3160E94820782E89DE00E94CE
:102CA000B3160E9482070E94F40890E0009779F41E
:102CB00089EA9CE00E94B3160E94820787E79BE0A6
:102CC0009093D0048093CF048EEE9DE01BC00297BA
:102CD00059F48FE79CE00E94B3160E94820710927D
:102CE000D4041092D30408958EE49CE00E94B3169D
:102CF0000E9482078BE19BE09093D0048093CF04E5
:102D000081E793E19093D2048093D10489EE99E016
:102D10009093D4048093D3040895E091D304F09168
:102D2000D404309709F009940895ACE0B5E020E0B0
:102D300030E02617370741F0FC01E20FF31FE49162
:102D4000ED932F5F3F4FF5CF8CE095E008959C0108
:102D500080E090E0F901E80FF91FE491EE2311F013
:102D60000196F8CF0895CF93DF93EC010E94A71648
:102D7000BC016F5F7F4FCE01DF91CF910C94951610
:102D80001092D9041092D8041092D7041092D6044D
:102D90001092D50408951092D5049093D90480938D
:102DA000D8041092D7041092D60410928500109285
:102DB00084008AEF90E09093890080938800EFE68A
:102DC000F0E0808182608083E1E8F0E080818360D0
:102DD000808308958091D504882319F01092D5043A
:102DE00081E008950E94CB160E94EA168823E1F341
:102DF00008951F920F920FB60F9211242F933F93B5
:102E00008F939F938091D6049091D70401969093CD
:102E1000D7048093D6042091D8043091D904821726
:102E2000930759F41092810080916F008D7F8093F9
:102E30006F0081E08093D5040AC080918800909152
:102E4000890086509F4F90938900809388009F91BE
:102E50008F913F912F910F900FBE0F901F9018955B
:102E600085E89DE00895FB01DC010D900020E9F765
:102E7000119701900D920020E1F70895FB01DC010C
:102E80008D91019080190110D9F3990B0895FB01E0
:102E9000DC0101900D920020E1F70895AEE0B0E072
:102EA000E4E5F7E10C940F1A0D891E8986E08C8306
:102EB0001A8309838FEF9FE79E838D83AE01475E60
:102EC0005F4F6F89788DCE0101960E947017EF8158
:102ED000F885E00FF11F10822E96E4E00C942B1A77
:102EE000ABE0B0E0E6E7F7E10C94011A6C017B017E
:102EF0008A01FC0117821682838181FFCCC1CE0139
:102F000001963C01F6019381F70193FD859193FFB2
:102F100081917F01882309F4BAC1853239F493FD88
:102F2000859193FF81917F01853229F4B60190E06C
:102F30000E946719E7CF912C212C312CFFE1F3156A
:102F4000D8F08B3279F038F4803279F08332A1F402
:102F5000232D20611DC08D3261F0803369F4232D53
:102F6000216016C0832D8260382EE32DE4603E2E52
:102F70002AC0F32DF8601DC037FC2DC020ED280FAE
:102F80002A3040F08E32B9F436FC81C1232D206402
:102F9000322E19C036FE06C08AE0989E200D1124FC
:102FA000922E11C0EAE02E9E200D1124222EF32D28
:102FB000F0623F2E08C08C3621F4832D8068382EB5
:102FC00002C0883641F4F70193FD859193FF81910A
:102FD0007F018111B3CF982F9F7D9554933028F4B2
:102FE0000C5F1F4F9FE399830DC0833631F0833709
:102FF00071F0833509F059C021C0F80180818983BF
:103000000E5F1F4F88248394912C530113C0280115
:10301000F2E04F0E511CF801A080B18036FE03C0D3
:10302000692D70E002C06FEF7FEFC5010E945C194F
:103030004C018201F32DFF773F2E16C0280122E0BC
:10304000420E511CF801A080B18036FE03C0692DEC
:1030500070E002C06FEF7FEFC5010E9451194C0173
:10306000F32DF0683F2E820133FC1BC0822D90E0CF
:1030700088169906B0F4B60180E290E00E946719C4
:103080002A94F4CFF50137FC859137FE81915F01D9
:10309000B60190E00E94671921102A9421E0821A5B
:1030A00091088114910471F7E8C0843611F08936D3
:1030B00041F5F80137FE07C06081718182819381FB
:1030C0000C5F1F4F08C060817181072E000C880BB8
:1030D000990B0E5F1F4FF32DFF763F2E97FF09C010
:1030E00090958095709561957F4F8F4F9F4FF068B9
:1030F0003F2E2AE030E0A3010E94A319882E8618F3
:1031000045C0853731F4232D2F7EB22E2AE030E0E2
:1031100025C0932D997FB92E8F36C1F018F48835CC
:1031200079F0B5C0803719F0883721F0B0C0E92FA9
:10313000E061BE2EB4FE0DC0FB2DF460BF2E09C0B1
:1031400034FE0AC0292F2660B22E06C028E030E0E7
:1031500005C020E130E002C020E132E0F801B7FE16
:1031600007C060817181828193810C5F1F4F06C00F
:103170006081718180E090E00E5F1F4FA3010E948B
:10318000A319882E8618FB2DFF773F2E36FE0DC023
:10319000232D2E7FA22E891458F434FE0BC032FC4E
:1031A00009C0832D8E7EA82E05C0B82CA32C03C089
:1031B000B82C01C0B92CA4FE0FC0FE01E80DF11D12
:1031C0008081803321F49A2D997EA92E09C0A2FE18
:1031D00006C0B394B39404C08A2D867809F0B394E2
:1031E000A3FC11C0A0FE06C0B21488F4280C922CD7
:1031F0009B180EC0B21460F4B60180E290E00E9409
:103200006719B394F7CFB21418F42B1802C0982C96
:10321000212CA4FE10C0B60180E390E00E94671943
:10322000A2FE17C0A1FC03C088E790E002C088E5B9
:1032300090E0B6010CC08A2D867859F0A1FE02C03C
:103240008BE201C080E2A7FC8DE2B60190E00E9413
:103250006719891438F4B60180E390E00E94671979
:103260009A94F7CF8A94F301E80DF11D8081B6019D
:1032700090E00E9467198110F5CF222009F442CE18
:10328000B60180E290E00E9467192A94F6CFF60119
:103290008681978102C08FEF9FEF2B96E2E10C941D
:1032A0001D1AFC010590615070400110D8F78095FF
:1032B00090958E0F9F1F0895FC0161507040019002
:1032C0000110D8F7809590958E0F9F1F08950F934A
:1032D0001F93CF93DF93FB01238121FD03C08FEF69
:1032E0009FEF2CC022FF16C0468157812481358173
:1032F0004217530744F4A081B1819D012F5F3F4FD6
:10330000318320838C93268137812F5F3F4F378312
:10331000268314C08B01EC01FB010084F185E02DB4
:103320000995892BE1F6D80116968D919C911797F6
:10333000019617969C938E931697CE01DF91CF91AD
:103340001F910F910895FA01AA27283051F12031D9
:1033500081F1E8946F936E7F6E5F7F4F8F4F9F4F29
:10336000AF4FB1E03ED0B4E03CD0670F781F891F6B
:103370009A1FA11D680F791F8A1F911DA11D6A0F39
:10338000711D811D911DA11D20D009F468943F91EC
:103390002AE0269F11243019305D3193DEF6CF01EB
:1033A0000895462F4770405D4193B3E00FD0C9F7B1
:1033B000F6CF462F4F70405D4A3318F0495D31FD1E
:1033C0004052419302D0A9F7EACFB4E0A695979571
:1033D000879577956795BA95C9F700976105710547
:1033E00008959B01AC010A2E069457954795379591
:1033F0002795BA95C9F7620F731F841F951FA01DEB
:1034000008952F923F924F925F926F927F928F9288
:103410009F92AF92BF92CF92DF92EF92FF920F9363
:103420001F93CF93DF93CDB7DEB7CA1BDB0B0FB66D
:10343000F894DEBF0FBECDBF09942A88398848882A
:103440005F846E847D848C849B84AA84B984C884C0
:10345000DF80EE80FD800C811B81AA81B981CE0FB7
:10346000D11D0FB6F894DEBF0FBECDBFED0108959C
:04347000F894FFCFFE
:103474001E013501510167010A0A0D535953544580
:103484004D204552524F520A0D25730A0D000A0D64
:1034940053657269616C204672616D696E6720457F
:1034A40072726F72000A0D53657269616C20446117
:1034B4007461204F76657272756E204572726F72F8
:1034C400000A0D53657269616C20506172697479E8
:1034D400204572726F72000A0D53657269616C2027
:1034E400545820627566206F766572666C6F77201B
:1034F4004572726F7200574F204E6F2020203D207E
:1035040025730A0D41737379204E6F203D20257376
:103514002D30312D257320200025730A0A0D000A51
:103524000A0D5570646174696E6720454550524FA9
:103534004D2021210A0A0D0025732D30312D2573CC
:10354400000D526573657474696E6720416C6C205C
:103554006F6620454550524F4D20746F2025303200
:1035640078202D2025303364252520646F6E650076
:103574000A0D4572617365204552522025780A0D63
:103584000043616C63756C617465642043686563B2
:103594006B73756D203D20253034780A0D002D00A5
:1035A4000A0A426F6172642049443A2025732D252A
:1035B400732069732073656C656374656420666F3A
:1035C400722070726F6772616D6D696E670A0A0DA1
:1035D4000036353139003637363800202530317819
:1035E40020202020253031782020202025303178DB
:1035F400202020202530317820202020202D204418
:103604006174612052656164203D20253031782544
:1036140030317825303178253031780D000A0A0DA3
:103624004845582044554D500A0D0A0041646472BF
:10363400203D20253034783A20002530327820008F
:103644000A0D43616C63756C61746564204368653D
:10365400636B73756D203D20253034780A0D5374E7
:103664006F72656420436865636B73756D202020F9
:1036740020203D20253034780A0D000A0D44617461
:10368400612025303278207772697474656E2074F5
:103694006F206164647265737320253034780A0D79
:1036A400000A0D446174612025303278207265610E
:1036B400642066726F6D2061646472657373202583
:1036C4003034780A0D004641494C005041535300B0
:1036D40050726F6772616D6D696E6720426F6172BF
:1036E400642025732D25730A0D0048656164657295
:1036F40020506F7274203D20253032780A0D002549
:1037040030317825303178253031782530317820C2
:103714002000253031782530317825303178253036
:103724003178202D2025730A0D0000010204080FB2
:043734000E0D0B0764
:00000001FF
