:100000000C948F040C94AC040C94AC040C94AC04CD
:100010000C94AC040C94AC040C94AC040C94AC04A0
:100020000C94AC040C94AC040C94AC040C9400122E
:100030000C94AC040C94AC040C94AC040C94AC0480
:100040000C94AC040C94AC040C9485050C94C20480
:100050000C94AC040C94AC040C94AC040C94AC0460
:100060000C94AC040C94AC040A0A0A0A0D53656C97
:1000700065637420454550524F4D2041646472655C
:1000800073733A0A0D31202D20307835303A204EE6
:10009000657420436F6E6E6563746F720A0D322053
:1000A0002D20307835323A2041444320426F747419
:1000B0006F6D2042640A0D33202D20307835343A9C
:1000C000204E657420457874656E73696F6E0A0DF5
:1000D00034202D20307835363A2041444320546F67
:1000E000702042640A0D0A0D507265737320582007
:1000F000746F20657869740A0A0D000A0A0A0A0DED
:10010000454550524F4D2044656275670A0D3D3D8F
:100110003D3D3D3D3D3D3D3D3D0A0A0D48202D20E4
:100120004865782044756D700A0D57202D20577250
:100130006974650A0D52202D20526573657420453F
:100140004550524F4D20746F2030300A0D53202DF2
:100150002053657420454550524F4D20746F204602
:10016000460A0D43202D20446973706C6179204349
:100170006865636B73756D730A0D58202D20526589
:100180007475726E20746F204465627567204D65CA
:100190006E750A0A0D000A0A0A0A0D4445425547BF
:1001A000204D454E550A0D3D3D3D3D3D3D3D3D3DBE
:1001B0003D3D3D3D0A0D45202D20454550524F4DBA
:1001C0002044656275670A0D58202D2045786974B2
:1001D00020746F205374617274204D656E750A0D22
:1001E000000A0A0D202A2A2A20506C6561736520B6
:1001F00052652D456E746572207573696E67206E49
:10020000756D65726963206368617261637465729C
:1002100073206F6E6C7920282730272D27392729E6
:10022000202A2A2A0A0D000A0A0D202A2A2A2050EA
:100230006C656173652052652D456E74657220751D
:1002400073696E6720416C7068612D6E756D6572A3
:1002500069632063686172616374657273206F6E95
:100260006C7920282741272D275A272C2027302733
:100270002D27392729202A2A2A0A0D000A0A0D20AB
:100280002A2A2A20454550524F4D205245414420AC
:100290004552524F52202A2A2A0A0A0D000A0D44BA
:1002A00061746120726574656E74696F6E20436855
:1002B00065636B204641494C454421210A0D000AE3
:1002C0000D4461746120726574656E74696F6E208F
:1002D0004F4B0A0A0D000A0D436865636B696E6730
:1002E000206461746120726574656E74696F6E0A52
:1002F0000D506F776572696E67204F464620666FB6
:10030000722033207365636F6E64730A0A0D0050A8
:100310004342204173737920532F4E203D200050DB
:100320004342204173737920502F4E203D200050CE
:10033000726F6475637420532F4E20203D2000504F
:10034000726F6475637420502F4E20203D2000553D
:100350006E646566696E6564000A0A0D2A2A2A20A1
:100360005741524E494E47202A2A2A0A0D43616CB2
:1003700063756C6174656420616E642053746F7280
:10038000656420436865636B73756D204D617463AC
:10039000680A0A0D43757272656E7420436F6E743D
:1003A000656E74730A0D2D2D2D2D2D2D2D2D2D2DBA
:1003B0002D2D2D2D2D2D0A0D000A0A0D4368656384
:1003C0006B73756D206D69736D617463680A0D538D
:1003D000657474696E6720757020454550524F4DA5
:1003E0000A0D000A0A0D436865636B204865616465
:1003F00065722069732066697474656420636F7226
:10040000726563746C790A0D507265737320277876
:100410002720746F2065786974206F7220616E796F
:10042000206B657920746F2072657472790A0D00F3
:100430000A0A0D4E6F7420456E6F756768206368F9
:10044000617261637465727320666F7220576F7298
:100450006B73204F72646572202D203120526571BC
:1004600075697265640A0D506C656173652072650B
:100470007472790A0D000A0A0D4E6F7420456E6F72
:100480007567682063686172616374657273206563
:100490006E7465726564202D203320526571756914
:1004A0007265640A0D506C656173652072657472C3
:1004B000790A0D000A0A0D4E6F7420456E6F75673C
:1004C00068206368617261637465727320656E741D
:1004D00065726564202D20342052657175697265DE
:1004E000640A0D506C656173652072657472790AD7
:1004F0000D000A0D5355434345535346554C4C5933
:1005000020436865636B656420616E642050726F80
:100510006772616D6D656420454550524F4D2121D4
:100520000A0A0D52656D6F766520426F6172642014
:10053000616E64206170706C792054455354454459
:10054000204D41524B0A0A0D000A0A0A0D417574EA
:100550006F6D61746963616C6C7920636865636B4E
:10056000696E6720616E642050726F6772616D6D95
:10057000696E6720454550524F4D0A0D000A0A0A20
:100580000D436F6E6E6563742074686520626F61E1
:10059000726420556E646572205465737420746FA4
:1005A00020746865204A69670A0D454E53555245C7
:1005B00020464C59494E47204C4541442049532040
:1005C000434F4E4E454354454420746F204A554D89
:1005D0005045520A0A0D5072657373202758272020
:1005E000746F2065786974206F7220454E544552AF
:1005F000206B657920746F2070726F636565640A83
:100600000D000A0A0A0D456E746572207468652033
:100610004E65787420626F6172642773205365722F
:1006200069616C204E6F0A0D000A0A0A0D456E744E
:1006300065722074686520626F617264277320534D
:10064000657269616C204E6F2E0A0D283320436855
:10065000617261637465727329206F722027582755
:1006600020746F20657869740A0D00507265737389
:100670002027582720746F2065786974206F7220B6
:10068000454E544552206B657920746F2070726F0F
:10069000636565640A0A0A0D000A0A0A0D43686563
:1006A000636B2074686520666F6C6C6F77696E672A
:1006B0002064657461696C732061726520636F7278
:1006C000726563740A0A0D000A0A0A0D456E7465A4
:1006D000722074686520626F6172642773204173B1
:1006E00073656D626C79205265766973696F6E20EF
:1006F0004E6F206F662074686520626174636820A5
:100700006F6620626F6172647320556E646572203B
:10071000546573740A0D28332043686172616374F1
:10072000657273290A0D000A0A0A0D456E74657216
:100730002074686520626F6172642773204173734F
:10074000656D626C79204E6F206F6620746865203D
:100750006261746368206F6620626F6172647320E7
:10076000556E64657220546573740A0D28342043F5
:10077000686172616374657273290A0D000A0A0A5E
:100780000D456E7465722074686520576F726B73C7
:10079000204F72646572204E6F2028574F29206FBA
:1007A0006620746865206261746368206F662062E9
:1007B0006F6172647320556E646572205465737442
:1007C0000A0D284D4158203D203130204368617288
:1007D000616374657273290A0D000A0A0D5374610E
:1007E0007274204D454E550A0D3D3D3D3D3D3D3D0C
:1007F0003D3D3D3D3D0A0D54202D20426F61726408
:100800002074657374730A0D44202D20446562754D
:1008100067204D656E750A0D3C454E5445523E2D80
:1008200020546F2072656672657368207363726509
:10083000656E0A0A0D0020436F6D6D616E64206E57
:100840006F7420696D706C656D656E7465640A0DFA
:10085000000A0A0D454547204E657420436F6E6EB1
:100860006563746F72202D204932432045455052F4
:100870004F4D2050726F6772616D6D65720A0D3D4C
:100880003D3D3D3D3D3D3D3D3D3D3D3D3D3D3D3D98
:100890003D3D3D3D3D3D3D3D3D3D3D3D3D3D3D3D88
:1008A0003D3D3D3D3D3D3D3D0A0D4669726D7761E3
:1008B00072652049443A20000A0A0A0A0A0A0A0A0A
:1008C0000A0A0A0D28632920436F707972696768E4
:1008D0007420546865204D61677374696D20436F9F
:1008E0006D70616E79204C74642E20323032350A7E
:1008F0000A0D000A0A0A0A0A0A0A0A0A0A0A0A0A5F
:100900000A0A0D000A0D00544A3030303030365F8C
:100910005357202D205665722050312E300011245F
:100920001FBECFEFD8E0DEBFCDBF13E0A0E0B1E047
:10093000E2E8FAE202C005900D92AC31B107D9F7B6
:1009400025E0ACE1B3E001C01D92AE30B207E1F7A3
:100950000E9493060C943F150C9400001092DD0346
:100960001092DC031092DB031092DA031092C500A0
:1009700087E68093C40086E08093C20088E9809374
:10098000C10008951F920F920FB60F9211248F93FA
:100990009F93EF93FF939091DB038091DA03981379
:1009A00006C08091C1008F7D8093C10011C0E0918D
:1009B000DA03F0E0EA5DFC4F80818093C60080910D
:1009C000DA038F5F8093DA03843B10F01092DA032E
:1009D000FF91EF919F918F910F900FBE0F901F90FD
:1009E0001895F8942091DB0330E08091DA03789435
:1009F000482F50E02417350710F42C543F4F8D54E6
:100A0000821B08951F93CF93DF93D82F192FC62FE2
:100A10000E94F1048C17E0F38091DB032D2FED2F62
:100A2000F12F9E2F921B9C1758F49191A82FB0E0A4
:100A3000AA5DBC4F9C938F5F843B98F380E0F1CF1D
:100A4000F8948093DB038091C10085FD16C0E0918E
:100A5000DA03F0E0EA5DFC4F80818093C60080916C
:100A6000DA038F5F8093DA03843B10F01092DA038D
:100A70008091C10080628093C100789484E0DF910E
:100A8000CF911F910895CF93DF93FC010190002037
:100A9000E9F73197EF01C81BD90B6C2F0E940205B3
:100AA000843011F48C2F01C080E0DF91CF91089544
:100AB000CF93C82F1092C1000E94AE04EC2FF0E03B
:100AC000EE0FFF1FE050FF4F81818F9380818F9346
:100AD00088E091E09F938F9387E294E09F938F93B8
:100AE0000E9455120F900F900F900F900F900F9043
:100AF00087E294E0CF910C9443052091DB03909121
:100B0000DA0381E0291380E008951F920F920FB657
:100B10000F9211242F933F934F935F936F937F9383
:100B20008F939F93AF93BF93EF93FF939091C000E8
:100B30008091C600E091DD03F0E0E45EFC4F80832D
:100B40008091DD038F5F8093DD038A3010F0109277
:100B5000DD03892F8C7159F094FF02C080E005C03D
:100B600093FF02C081E001C082E00E945805FF911E
:100B7000EF91BF91AF919F918F917F916F915F9115
:100B80004F913F912F910F900FBE0F901F9018958E
:100B90003091DD032091DC033217A9F0F894E09145
:100BA000DC03F0E0E45EFC4F2081FC0120838091B7
:100BB000DC038F5F8093DC038A3010F01092DC033B
:100BC000789484E0089580E00895CF93DF931F9296
:100BD000CDB7DEB78FEF9FEF2091BC00298329812D
:100BE00027FD02C00197C1F70F90DF91CF910895C3
:100BF0008CE08093B800ECEBF0E08081846080832F
:100C00000895FF920F931F93CF93DF93C82F162F52
:100C1000F42E052F84EA8093BC000E94E505CC0FDA
:100C2000C093BB0084E88093BC000E94E505CF2DF3
:100C3000D02FCE01810F911D8C0184E8F82EC017B2
:100C4000D10741F089918093BB00F092BC000E94D3
:100C5000E505F5CF8091B90094E99093BC00DF9150
:100C6000CF911F910F91FF900895AF92BF92CF92B5
:100C7000DF92EF92FF920F931F93CF93DF93C82FD2
:100C8000062FF42E152F84EA8093BC000E94E50500
:100C9000CC0FC160C093BB0084E88093BC000E946D
:100CA000E505CF2DD12F10E0E12CF12C680181E07A
:100CB000C81AD10884ECB82E94E8A92EE016F106E3
:100CC00091F0CE14DF0419F4A092BC0002C0B092DF
:100CD000BC000E94E5058091BB0088838FEFE81A75
:100CE000F80A2196EBCF84E98093BC00DF91CF9185
:100CF0001F910F91FF90EF90DF90CF90BF90AF903A
:100D00000895813011F4289A089528980895529AE8
:100D10005A985A9A5A985A9A5A985A9A5A98209A75
:100D200080E00C9481060E9487060E94AE040E9417
:100D3000F8050E94D0110E9466110E949D11FDCFFE
:100D4000811102C0229806C0229A613011F42A9AB9
:100D500001C02A9883B18470089590ED980F9A305D
:100D600058F0982F9F7D91549A3130F091E08D3258
:100D700009F090E0892F089581E0089583EF98E0CD
:100D80000E94C3110E94430589E996E00E94C311A5
:100D90000E9443058BE696E090931D0480931C040B
:100DA00081E49BE090931F0480931E048CE597E000
:100DB000909321048093200481EF93E09F938F937D
:100DC00085EF93E09F938F938AEF93E09F938F93A8
:100DD00086E891E09F938F9387E294E09F938F93AF
:100DE0000E9455128DB79EB70A960FB6F8949EBF13
:100DF0000FBE8DBF87E294E00C9443058F929F92C3
:100E0000AF92BF92CF92DF92EF92FF920F931F9318
:100E1000CF93DF93CDB7DEB761970FB6F894DEBFFF
:100E20000FBECDBF982EA62E6A017901062F172F6F
:100E300088248394880E202F802F8A1990E08C15A7
:100E40009D0538F50F3F110519F010F0B82C01C0C1
:100E5000B92C2983F701E80FF91F80818A83AE013D
:100E60004F5F5F4F61E08B2D0E940106AE014F5F27
:100E70005F4F62E08B2D0E940106AE014F5F5F4F16
:100E800061E08B2D0E9401068832B9F70F5F1F4F7A
:100E9000D2CF61960FB6F894DEBF0FBECDBFDF9103
:100EA000CF911F910F91FF90EF90DF90CF90BF9067
:100EB000AF909F908F900895CF93DF9380911C0403
:100EC00090911D04009771F10E94B711EC01833BD2
:100ED000910510F0C2EBD0E00E94F10490E08C1775
:100EE0009D07D0F3BE0180911C0490911D040E94C7
:100EF000A51120911C0430911D042C0F3D1F30932F
:100F00001D0420931C046C2F0E940205E0911C0418
:100F1000F0911D04E491E1110DC010921D04109296
:100F20001C0408C080911E0490911F04909321041A
:100F300080932004DF91CF910895AF92BF92CF921A
:100F4000DF92EF92FF921F93CF93DF93CDB7DEB77F
:100F500061970FB6F894DEBF0FBECDBF182F7A0190
:100F600069016F3F710511F008F01F5F698388EE1A
:100F7000A82E83E0B82EAE014F5F5F4F61E0812F56
:100F80000E940106883261F081E0A81AB10899F741
:100F90008CE792E00E94C3110E94430580E01BC0D1
:100FA000AE014E5F5F4F6E2D812F0E94350620E00F
:100FB000822F90E08E159F0568F4F601E80FF91F67
:100FC000A2E0B0E0AC0FBD1FA80FB91F8C918083C9
:100FD0002F5FEECF81E061960FB6F894DEBF0FBEB3
:100FE000CDBFDF91CF911F91FF90EF90DF90CF9019
:100FF000BF90AF900895CF93DF9300D01F92CDB7ED
:10100000DEB79E012F5F3F4F42E050E06EEF70E091
:101010008091E0030E949D0789819A819827892702
:1010200098270F900F900F90DF91CF910895AF9276
:10103000BF92CF92DF92EF92FF920F931F93CF93C5
:10104000DF93CDB7DEB762970FB6F894DEBF0FBE61
:10105000CDBF198200E010E0E12CF12C5E0141E1EE
:10106000A40EB11C9E012F5F3F4F40E150E0B7013D
:101070008091E0030E949D07FE0131968191080F47
:10108000111DAE16BF06D1F750E1E50EF11CE114BB
:1010900082E0F80639F70E94FB07292FA801481BB8
:1010A0005109CA01C22ED12C8C199D0980959095A9
:1010B00062960FB6F894DEBF0FBECDBFDF91CF9121
:1010C0001F910F91FF90EF90DF90CF90BF90AF9066
:1010D00008957F928F929F92AF92BF92CF92DF92AC
:1010E000EF92FF920F931F93CF93DF931F92CDB791
:1010F000DEB7782E898300E010E0E12CF12C9AEA2B
:10110000C92E91E0D92E27E2A22E24E0B22E48016A
:10111000892C992486940E947D058823E1F3C401DB
:1011200001969F938F9389811F928F93DF92CF9225
:10113000BF92AF920E94551287E294E00E9443054D
:101140009E012F5F3F4F41E050E0B7018091E003E7
:101150000E94FE069E012F5F3F4F41E050E0B70125
:101160008091E0030E949D070FB6F894DEBF0FBE8A
:10117000CDBF89817816E1F00E947D058823E1F3D7
:1011800089811F928F9389ED91E09F938F9387E2DE
:1011900094E09F938F930E94551287E294E00E94FF
:1011A00043050F900F900F900F900F900F900AC073
:1011B0009FEFE91AF90A0C591F4F011588EC18071F
:1011C00009F0A5CF0E947D058823E1F30F90DF9100
:1011D000CF911F910F91FF90EF90DF90CF90BF9034
:1011E000AF909F908F907F900895EF92FF920F9312
:1011F0001F93CF938B017A019A01AB01BC018091BF
:10120000E0030E949D07C0E08C2F90E0F701E80FFB
:10121000F91F8017910758F48081811102C0C11114
:1012200007C00E94AD06882321F0CF5FEDCF10826A
:1012300081E0CF911F910F91FF90EF9008950F9350
:101240001F93CF93DF93EB018A019A01AB01BC019D
:101250008091E0030E949D07882399F080E0282F69
:1012600030E0F801E20FF31F2C173D0730F49081B6
:1012700090539A3028F48F5FF2CF108281E001C042
:1012800080E0DF91CF911F910F910895FF920F930E
:101290001F93CF93DF9300D000D0CDB7DEB784E0AB
:1012A00099E00E94C3110E9443050E94FB079F938F
:1012B0008F938BE792E09F938F9307E214E01F9345
:1012C0000F930E945512C8010E9443050E941708FF
:1012D0008093DE039093DF039F938F938AEE91E0D8
:1012E0009F938F931F930F930E945512C8010E94E2
:1012F000430584E099E00E94C3110E9443050FB6A4
:10130000F894DEBF0FBECDBF0E947D058823E1F3B8
:101310008FE393E00E94C3110E9443058FE493E0A2
:101320000E94C3118C0147E254E064E070E080E069
:1013300090E00E941F098823F1F08DE2F82EF092D0
:101340002B044CE254E062E070E084E090E00E9404
:101350001F09882381F0F0922E044FE254E063E0ED
:1013600070E086E090E00E94F508882321F010925A
:10137000320407E214E0C8010E94430584E099E0CA
:101380000E94C3110E9443050E947D058823E1F35A
:101390008FE293E00E94C3110E9443058FE493E023
:1013A0000E94C3118C0147E254E064E070E089E0E0
:1013B00090E00E94F508882389F08DE280932B0449
:1013C0004CE254E06DE070E084E090E00E94F508AB
:1013D000882321F01092390407E214E0C8010E942A
:1013E000430584E099E00E94C3110E9443050E94D6
:1013F0007D058823E1F38FE193E00E94C3110E94F1
:1014000043058FE493E00E94C3118C0147E254E04E
:101410006CE070E082EE90E00E94F508882311F005
:1014200007E214E0C8010E94430584E099E00E94AD
:10143000C3110E9443050E947D058823E1F38FE0DC
:1014400093E00E94C3110E9443058FE493E00E9441
:10145000C31147E254E06BE070E08FEE90E00E9431
:10146000F5088823C1F067E072E087E294E00E940B
:101470003A12AE014F5F5F4F64E070E08AEF90E098
:101480000E94F508882339F0BE016F5F7F4F87E225
:1014900094E00E943A1287E294E00E94430584E0BF
:1014A00099E00E94C3110E9443050F900F900F9086
:1014B0000F90DF91CF911F910F91FF900895CF93DF
:1014C000DF931F92CDB7DEB7CE0101960E94C8050B
:1014D000882381F089818D3039F484E099E00E947D
:1014E000C3110E94430505C061E0CE0101960E9430
:1014F000020589810F90DF91CF9108950E945F0AC4
:10150000882369F18D3051F018F48A3039F00FC01A
:10151000883511F0883759F40C94BE0689E495E0BB
:1015200090931D0480931C0482ED9FE00EC08BE617
:1015300096E00E94C3110E9443058DE795E09093C9
:101540001D0480931C048EE79AE090931F048093FF
:101550001E048CE597E09093210480932004089565
:101560000E945F0A882309F48BC08D3071F018F453
:101570008A3059F014C0883511F0883781F4809191
:10158000060481117DC00C94BE06909106048091E2
:101590000504981708F074C086E794E056C090EDF3
:1015A000980F9A3008F04FC0E0910604AE2FB0E0DB
:1015B000A95FBB4F8C93EF5FE09306048091050415
:1015C000E8135EC0F0E0E95FFB4F108267E074E073
:1015D0008DEE93E00E944E1283EF98E00E94C311BB
:1015E0000E9443058DEE93E09F938F938AEF93E0E3
:1015F0009F938F9389E092E09F938F9387E294E08B
:101600009F938F930E94551287E294E00E944305B6
:101610008DE795E090931D0480931C048EE79AE07B
:1016200090931F0480931E048CE597E0909321040F
:10163000809320048DB79EB708960FB6F8949EBF8E
:101640000FBE8DBF089581EE91E00E94C3110E94EC
:1016500043051092060483E08093050489E296E036
:1016600090931D0480931C0480EB9AE090931F04D8
:1016700080931E048CE597E09093210480932004CE
:1016800008950E945F0A882309F43FC08D30B9F0A5
:1016900018F48A30A1F021C0883511F08837E9F4B8
:1016A00083EF98E00E94C3110E9443058AED97E002
:1016B00090931D0480931C0489E59FE01CC0109248
:1016C000060483E08093050489E296E090931D046C
:1016D00080931C0480EB9AE00EC08BE696E00E949B
:1016E000C3110E9443058BE696E090931D048093FE
:1016F0001C0481E49BE090931F0480931E048CE5FE
:1017000097E090932104809320040895CF930E9442
:101710005F0AC82F882309F473C08D3029F118F4AB
:101720008A3011F12AC0883511F0883731F580915F
:101730000604811112C08AED97E090931D048093F6
:101740001C0489E59FE090931F0480931E048CE5A0
:1017500097E0909321048093200483EF98E00E9407
:10176000C311CF910C944305E091060480910504C8
:10177000E817B0F486E794E028C08C2F0E94AD06ED
:10178000882309F1E0910604AE2FB0E0A95FBB4FBA
:10179000CC93EF5FE093060480910504E81330C01A
:1017A000F0E0E95FFB4F108267E074E081EF93E0C7
:1017B0000E944E1283EF98E00E94C3110E944305DD
:1017C000CF910C94BE0687E292E00E94C3110E9462
:1017D00043051092060483E08093050488EC96E0AC
:1017E00090931D0480931C0486E89BE090931F0453
:1017F00080931E048CE597E090932104809320044D
:10180000CF9108950E945F0A882309F477C08D3034
:1018100021F118F48A3009F12AC0883511F088378F
:1018200031F580910604811112C08AED97E0909302
:101830001D0480931C0489E59FE090931F0480930E
:101840001E048CE597E0909321048093200483EF9D
:1018500098E00E94C3110C94430590910604809176
:101860000504981708F04AC084EB94E02CC090ED72
:10187000980F9A3030F5E0910604AE2FB0E0A95FE2
:10188000BB4F8C93EF5FE093060480910504E8134F
:1018900035C0F0E0E95FFB4F108267E074E085EF50
:1018A00093E00E944E121092060483E08093050498
:1018B00088EC96E090931D0480931C0486E89BE0DE
:1018C00013C081EE91E00E94C3110E944305109263
:1018D000060484E08093050487E297E090931D045A
:1018E00080931C0482E09CE090931F0480931E046C
:1018F0008CE597E090932104809320040895CF9382
:10190000DF930E945F0AC82F882309F496C08D30A8
:1019100039F118F48A3021F14CC0883519F0883734
:1019200009F047C080910604811112C08AED97E04A
:1019300090931D0480931C0489E59FE090931F04FD
:1019400080931E048CE597E09093210480932004FB
:1019500083EF98E00E94C311DF91CF910C9443056F
:10196000C0910604C11103C080E394E04BC0EC2F8A
:10197000F0E0E95FFB4F108267E074E08AEF93E0EC
:101980000E944E12CA3038F4EC2FF0E0E650FC4FC3
:101990001082CF5FF7CF1092060484E08093050495
:1019A00087E297E090931D0480931C0482E09CE002
:1019B0003AC08C2F0E94AD06882311F1E0910604F5
:1019C000D1E0DE0FD0930604F0E0E95FFB4FC08367
:1019D00080910504D81331C0ED2FF0E0E95FFB4F93
:1019E000108267E074E08AEF93E00E944E12DA30D2
:1019F00090F6ED2FF0E0E650FC4F1082DF5FF7CF5E
:101A000087E292E00E94C3110E94430510920604EF
:101A10008AE0809305048DE797E090931D048093FE
:101A20001C048FE79CE090931F0480931E048CE5B8
:101A300097E09093210480932004DF91CF91089543
:101A40006F927F928F929F92AF92BF92CF92DF92CE
:101A5000EF92FF920F931F93CF93DF93CDB7DEB733
:101A600062970FB6F894DEBF0FBECDBF0E945F0A2B
:101A7000882309F47AC1883509F449C188F482358C
:101A800009F441C130F4833409F481C08834E1F0B1
:101A900054C1833509F435C1873509F48BC04DC174
:101AA000823709F430C130F4833609F470C08836C7
:101AB00059F043C1873709F47DC0883709F427C13D
:101AC000833709F03AC11DC18AE392E00E944305C1
:101AD000198200E010E099E4692E92E0792E27E265
:101AE000C22E24E0D22E37E5A32E32E0B32E1F9370
:101AF0000F937F926F92DF92CF920E94551287E2EE
:101B000094E00E9443059E012F5F3F4F40E150E06B
:101B1000B8018091E0030E949D07CE0101964C011F
:101B200087E2E82E84E0F82E0F900F900F900F9030
:101B30000F900F90F40181914F011F928F93BF92EC
:101B4000AF92FF92EF920E945512F3E0EF0EF11C5C
:101B50000F900F900F900F900F900F9087E5E81661
:101B600084E0F80639F70E947D058823E1F387E2D7
:101B700094E00E94430587E392E00E944305005FE2
:101B80001F4F011592E0190709F0B1CFDCC00E9488
:101B90001708182F092F0E94FB07F82EE92E0E9424
:101BA0007D058823E1F3EF92FF920F931F938DE55C
:101BB00092E095C08AE589839E012F5F3F4F41E007
:101BC00050E060E470E08091E0030E94FE060E9415
:101BD0007D058823E1F31F9280E48F9389811F9212
:101BE0008F9388E992E09F938F9387E294E09F938D
:101BF0008F930E94551287E294E00E9443059E0154
:101C00002F5F3F4F41E050E060E470E08091E003DF
:101C10000E949D070FB6F894DEBF0FBECDBF0E9495
:101C20007D058823E1F31F9280E48F9389811F92C1
:101C30008F938EEB92E09F938F9387E294E09F9334
:101C40008F930E94551287E294E00E94430585EA33
:101C500089839E012F5F3F4F41E050E06FE071E0CC
:101C60008091E0030E94FE060FB6F894DEBF0FBE1F
:101C7000CDBF0E947D058823E1F381E08F938FE043
:101C80008F9389811F928F9388E992E09F938F931E
:101C900087E294E09F938F930E94551287E294E02D
:101CA0000E9443059E012F5F3F4F41E050E06FE0EF
:101CB00071E08091E0030E949D070FB6F894DEBFAB
:101CC0000FBECDBF0E947D058823E1F381E08F9395
:101CD0008FE08F9389811F928F938EEB92E09F9379
:101CE0008F9387E294E09F938F930E94551287E22F
:101CF00094E00E9443050FB6F894DEBF0FBECDBF3F
:101D000022C08FEF01C080E00E9469081CC086E9F4
:101D100091E090931D0480931C048CE19FE09093CC
:101D20001F0480931E048CE597E090932104809318
:101D3000200480E00E94810618C086E398E00E949B
:101D4000C3110E9443058BEF90E090931D04809394
:101D50001C0480E29DE090931F0480931E048CE598
:101D600097E0909321048093200462960FB6F89434
:101D7000DEBF0FBECDBFDF91CF911F910F91FF90BE
:101D8000EF90DF90CF90BF90AF909F908F907F901B
:101D90006F9008950E945F0A882309F44CC0833332
:101DA00089F030F4813361F0823369F582E50BC04C
:101DB0008835A1F0883791F0843329F586E503C092
:101DC00080E501C084E58093E0038BEF90E0909381
:101DD0001D0480931C0480E29DE023C086E991E00D
:101DE00090931D0480931C048CE19FE090931F044A
:101DF00080931E048CE597E0909321048093200447
:101E000080E00C94810686E398E00E94C3110E9452
:101E1000430588E690E090931D0480931C048AECAF
:101E20009EE090931F0480931E048CE597E09093AE
:101E300021048093200408950E945F0A8823C1F141
:101E40008835A9F018F4853431F01AC0853619F0B8
:101E5000883769F015C081E00E94810688E690E02D
:101E600090931D0480931C048AEC9EE017C08AEDB9
:101E700097E090931D0480931C0489E59FE00EC0B9
:101E800086E398E00E94C3110E94430586E991E031
:101E900090931D0480931C048CE19FE090931F0499
:101EA00080931E048CE597E0909321048093200496
:101EB00008950E945F0A882309F448C0843541F0E0
:101EC00018F4843499F02AC0843681F0843731F5CF
:101ED000109206048AE0809305048DE797E09093C2
:101EE0001D0480931C048FE79CE008C086E991E004
:101EF00090931D0480931C048CE19FE090931F0439
:101F000080931E048CE597E0909321048093200435
:101F100083EF98E00E94C3110C94430586E398E098
:101F20000E94C3110E9443058AED97E090931D041F
:101F300080931C0489E59FE090931F0480931E0406
:101F40008CE597E090932104809320040895CF932B
:101F5000DF931F92CDB7DEB7CE0101960E94C80570
:101F60008111FACF0E945F0A89838D30A1F028F495
:101F7000882371F08A3079F004C0883571F0883791
:101F800061F08BE696E00E94C3110E94430519821E
:101F90008981882339F38AE001C088E70F90DF91B7
:101FA000CF910895EF92FF920F931F93CF93DF93FA
:101FB00000D01F92CDB7DEB783EF98E00E94C31127
:101FC0000E9443058DEE93E09F938F938AEF93E0F9
:101FD0009F938F9383EE92E09F938F9387E294E099
:101FE0009F938F930E94551287E294E00E944305CD
:101FF00081E00E94810688EE93E00E94DB110FB61B
:10200000F894DEBF0FBECDBF0E94F8118823E1F324
:102010000DEF12E087E2E82E84E0F82E199939C01E
:1020200083EE93E00E94C3110E94430583B1867042
:102030001F928F931F930F93FF92EF920E9455125E
:1020400087E294E00E9443050E94A70F0F900F9033
:102050000F900F900F900F90883701F710920604A1
:1020600083E08093050489E296E090931D048093B9
:102070001C0480EB9AE090931F0480931E048CE56F
:1020800097E0909321048093200480E00E948106D1
:1020900013C11A99C5CF60E081E00E94A00680E5D7
:1020A0008093E0030E9417089093DF038093DE0380
:1020B0000E94FB072091DE033091DF038217930714
:1020C00039F089EB93E00E94C3110E94430519C0C7
:1020D00089E593E00E94C3110E9443050E944609CE
:1020E00084E099E00E94C3110E9443058BE696E0CC
:1020F0000E94C3110E9443050E94A70F883709F46C
:10210000ADCF80E00E94690881EF93E09F938F93A9
:1021100085EF93E09F938F9382E193E09F938F935A
:1021200081EE93E09F938F930E94551221EE33E04E
:102130004CE050E062EE70E08091E0030E94FE0609
:102140002AEF33E04BE050E06FEE70E08091E00367
:102150000E94FE062DEE33E044E050E06AEF70E0AE
:102160008091E0030E94FE060E9417088093DE0320
:102170009093DF0399838A839E012F5F3F4F42E054
:1021800050E06EEF70E08091E0030E94FE0686ED65
:1021900092E00E94C3110E94430580E00E948106E4
:1021A00088EB9BE00E94DB110FB6F894DEBF0FBEF8
:1021B000CDBF0E94F8118823E1F381E00E948106DF
:1021C00061E081E00E94A00684E58093E00347E29D
:1021D00054E06CE070E082EE90E00E94F508882305
:1021E00009F446C061EE73E087E294E00E94451274
:1021F000892BF1F547E254E06BE070E08FEE90E060
:102200000E94F5088823A1F16AEF73E087E294E069
:102210000E944512892B61F547E254E064E070E0CA
:102220008AEF90E00E94F508882311F16DEE73E0CB
:1022300087E294E00E944512892BD1F40E9417088E
:102240009093DF038093DE030E94FB072091DE035F
:102250003091DF038217930759F48FEB92E00E94CD
:10226000C3110E9443050E94460982EF94E002C018
:102270008DE992E00E94C3110E94430580E00E9414
:10228000810660E080E00E94A0061092060483E0D0
:102290008093050482E096E090931D0480931C04D3
:1022A00080EB9AE090931F0480931E048CE597E0E6
:1022B00090932104809320040F900F900F90DF9152
:1022C000CF911F910F91FF90EF90089583EF98E0C9
:1022D0000E94C3110E94430588EB98E00E94C3113D
:1022E0000E94430581E598E00E94C3110E944305C6
:1022F0000E9437120E94C3110E94430584E099E0B6
:102300000E94C3110E94430584E099E00E94C3111A
:102310000E9443058AED97E090931D0480931C046E
:1023200089E59FE090931F0480931E048CE597E05D
:1023300090932104809320040895E0912004F0916B
:102340002104309709F009940895A9E5B4E020E04C
:1023500030E02617370741F0FC01E20FF31FE4914C
:10236000ED932F5F3F4FF5CF89E594E008959C01F1
:1023700080E090E0F901E80FF91FE491EE2311F0FD
:102380000196F8CF0895CF93DF93EC010E94B71127
:10239000BC016F5F7F4FCE01DF91CF910C94A511EF
:1023A0001092260410922504109224041092230403
:1023B000109222040895909326048093250410928D
:1023C00024041092230410928500109284008AEF56
:1023D00090E09093890080938800EFE6F0E08081A0
:1023E00082608083E1E8F0E08081836080830895EB
:1023F00080912204882319F01092220481E008952C
:102400001F920F920FB60F9211242F933F938F9329
:102410009F93809123049091240401969093240427
:10242000809323042091250430912604821793077A
:1024300059F41092810080916F008D7F80936F001E
:1024400081E0809322040AC08091880090918900E5
:1024500086509F4F90938900809388009F918F9121
:102460003F912F910F900FBE0F901F90189587E00E
:1024700099E00895FB01DC010D900020E9F7119728
:1024800001900D920020E1F70895FB01DC018D9190
:10249000019080190110D9F3990B0895FB01DC011B
:1024A00001900D920020E1F70895AEE0B0E0EBE579
:1024B000F2E10C9416150D891E8986E08C831A832F
:1024C00009838FEF9FE79E838D83AE01475E5F4F49
:1024D0006F89788DCE0101960E947712EF81F88581
:1024E000E00FF11F10822E96E4E00C943215ABE061
:1024F000B0E0EDE7F2E10C9408156C017B018A0174
:10250000FC0117821682838181FFCCC1CE01019626
:102510003C01F6019381F70193FD859193FF819131
:102520007F01882309F4BAC1853239F493FD85917E
:1025300093FF81917F01853229F4B60190E00E94DA
:102540006E14E7CF912C212C312CFFE1F315D8F03C
:102550008B3279F038F4803279F08332A1F4232D74
:1025600020611DC08D3261F0803369F4232D21601C
:1025700016C0832D8260382EE32DE4603E2E2AC0E3
:10258000F32DF8601DC037FC2DC020ED280F2A3038
:1025900040F08E32B9F436FC81C1232D2064322EF6
:1025A00019C036FE06C08AE0989E200D1124922E96
:1025B00011C0EAE02E9E200D1124222EF32DF06290
:1025C0003F2E08C08C3621F4832D8068382E02C03F
:1025D000883641F4F70193FD859193FF81917F0146
:1025E0008111B3CF982F9F7D9554933028F40C5FC1
:1025F0001F4F9FE399830DC0833631F0833771F00D
:10260000833509F059C021C0F801808189830E5FAC
:102610001F4F88248394912C530113C02801F2E0AA
:102620004F0E511CF801A080B18036FE03C0692D09
:1026300070E002C06FEF7FEFC5010E9463144C0190
:102640008201F32DFF773F2E16C0280122E0420EB3
:10265000511CF801A080B18036FE03C0692D70E0E6
:1026600002C06FEF7FEFC5010E9458144C01F32D9B
:10267000F0683F2E820133FC1BC0822D90E088164B
:102680009906B0F4B60180E290E00E946E142A949C
:10269000F4CFF50137FC859137FE81915F01B601DA
:1026A00090E00E946E1421102A9421E0821A910871
:1026B0008114910471F7E8C0843611F0893641F530
:1026C000F80137FE07C060817181828193810C5FC0
:1026D0001F4F08C060817181072E000C880B990B79
:1026E0000E5F1F4FF32DFF763F2E97FF09C0909589
:1026F0008095709561957F4F8F4F9F4FF0683F2E6B
:102700002AE030E0A3010E94AA14882E861845C052
:10271000853731F4232D2F7EB22E2AE030E025C0FC
:10272000932D997FB92E8F36C1F018F4883579F042
:10273000B5C0803719F0883721F0B0C0E92FE061CB
:10274000BE2EB4FE0DC0FB2DF460BF2E09C034FEBA
:102750000AC0292F2660B22E06C028E030E005C04E
:1027600020E130E002C020E132E0F801B7FE07C00E
:1027700060817181828193810C5F1F4F06C06081EF
:10278000718180E090E00E5F1F4FA3010E94AA14A8
:10279000882E8618FB2DFF773F2E36FE0DC0232D89
:1027A0002E7FA22E891458F434FE0BC032FC09C0CF
:1027B000832D8E7EA82E05C0B82CA32C03C0B82C68
:1027C00001C0B92CA4FE0FC0FE01E80DF11D8081EF
:1027D000803321F49A2D997EA92E09C0A2FE06C04D
:1027E000B394B39404C08A2D867809F0B394A3FC03
:1027F00011C0A0FE06C0B21488F4280C922C9B18BD
:102800000EC0B21460F4B60180E290E00E946E1433
:10281000B394F7CFB21418F42B1802C0982C212CC3
:10282000A4FE10C0B60180E390E00E946E14A2FEE8
:1028300017C0A1FC03C088E790E002C088E590E0E3
:10284000B6010CC08A2D867859F0A1FE02C08BE239
:1028500001C080E2A7FC8DE2B60190E00E946E14F8
:10286000891438F4B60180E390E00E946E149A94C3
:10287000F7CF8A94F301E80DF11D8081B60190E055
:102880000E946E148110F5CF222009F442CEB601C9
:1028900080E290E00E946E142A94F6CFF6018681C1
:1028A000978102C08FEF9FEF2B96E2E10C942415E5
:1028B000FC010590615070400110D8F7809590950B
:1028C0008E0F9F1F0895FC01615070400190011010
:1028D000D8F7809590958E0F9F1F08950F931F93A3
:1028E000CF93DF93FB01238121FD03C08FEF9FEF87
:1028F0002CC022FF16C046815781248135814217A2
:10290000530744F4A081B1819D012F5F3F4F318374
:1029100020838C93268137812F5F3F4F3783268317
:1029200014C08B01EC01FB010084F185E02D0995B9
:10293000892BE1F6D80116968D919C9117970196F7
:1029400017969C938E931697CE01DF91CF911F918E
:102950000F910895FA01AA27283051F1203181F111
:10296000E8946F936E7F6E5F7F4F8F4F9F4FAF4F97
:10297000B1E03ED0B4E03CD0670F781F891F9A1FAA
:10298000A11D680F791F8A1F911DA11D6A0F711D5E
:10299000811D911DA11D20D009F468943F912AE06A
:1029A000269F11243019305D3193DEF6CF01089552
:1029B000462F4770405D4193B3E00FD0C9F7F6CF83
:1029C000462F4F70405D4A3318F0495D31FD40524B
:1029D000419302D0A9F7EACFB4E0A69597958795E1
:1029E00077956795BA95C9F70097610571050895C0
:1029F0009B01AC010A2E069457954795379527956C
:102A0000BA95C9F7620F731F841F951FA01D089503
:102A10002F923F924F925F926F927F928F929F92EE
:102A2000AF92BF92CF92DF92EF92FF920F931F93DC
:102A3000CF93DF93CDB7DEB7CA1BDB0B0FB6F8948D
:102A4000DEBF0FBECDBF09942A88398848885F84CD
:102A50006E847D848C849B84AA84B984C884DF803E
:102A6000EE80FD800C811B81AA81B981CE0FD11D22
:102A70000FB6F894DEBF0FBECDBFED010895F894F8
:022A8000FFCF86
:102A82001E013501510167010A0A0D53595354457C
:102A92004D204552524F520A0D25730A0D000A0D60
:102AA20053657269616C204672616D696E6720457B
:102AB20072726F72000A0D53657269616C20446113
:102AC2007461204F76657272756E204572726F72F4
:102AD200000A0D53657269616C20506172697479E4
:102AE200204572726F72000A0D53657269616C2023
:102AF200545820627566206F766572666C6F772017
:102B02004572726F7200574F204E6F2020203D2079
:102B120025730A0D41737379204E6F203D20257372
:102B22002D30312D25730A0A0D000D52657365741F
:102B320074696E6720416C6C206F66204545505267
:102B42004F4D20746F2025303278202D20253033D0
:102B520064252520646F6E65000A0D4572617365F8
:102B6200204552522025780A0D0043616C63756C32
:102B72006174656420436865636B73756D203D20E5
:102B8200253034780A0D002D000A0A426F61726402
:102B92002049443A2025732D2573206973207365DB
:102BA2006C656374656420666F722070726F677201
:102BB200616D6D696E670A0A0D000A0A0D48455873
:102BC2002044554D500A0D0A0041646472203D2094
:102BD200253034783A20002530327820000A0D431F
:102BE200616C63756C6174656420436865636B73C3
:102BF200756D203D20253034780A0D53746F72654F
:102C02006420436865636B73756D20202020203D2E
:102C120020253034780A0D000A0D446174612025A4
:102C2200303278207772697474656E20746F206117
:102C320064647265737320253034780A0D000A0DBE
:102C420044617461202530327820726561642066A7
:102C5200726F6D20616464726573732025303478FD
:102C62000A0D0050726F6772616D6D696E67204266
:102C72006F6172642025732D25730A0D004865610A
:102C820064657220506F7274203D20253032780ABC
:0C2C92000D0025732D30312D257300003E
:00000001FF
