:100000000C9498080C94B5080C94B5080C94B50899
:100010000C94B5080C94B5080C94B5080C94B5086C
:100020000C94B5080C94B5080C94B5080C94761C87
:100030000C94B5080C94B5080C94B5080C94B5084C
:100040000C94B5080C94B5080C948E090C94CB084C
:100050000C94B5080C94B5080C94B5080C94B5082C
:100060000C94B5080C94B5083237303436330A0D89
:10007000506F727420457870616E646572205465AB
:1000800073740A0D3D3D3D3D3D3D3D3D3D3D3D3D96
:100090003D3D3D3D3D3D0A0D42697433203D2047C5
:1000A000534E332C2042697432203D2047534E3248
:1000B0002C2042697431203D2047534E312C204280
:1000C000697430203D2047534E300A0A0D4F555475
:1000D00020202020494E0A0D000A0A0A0A0D506FFE
:1000E000727420457870616E646572204465627533
:1000F000670A0D3D3D3D3D3D3D3D3D3D3D3D3D3D69
:100100003D3D3D3D3D3D0A0D5072657373202758BE
:100110002720746F20457869740A0A0D47534E33BF
:100120002047534E322047534E312047534E300A1A
:100130000D000A0A0A0A0D4445425547204D454E16
:10014000550A0D3D3D3D3D3D3D3D3D3D3D3D3D3D2A
:100150000A0D0A0D53656C65637420454550524F76
:100160004D20416464726573733A0A0D31202D206D
:10017000307835303A204E657420436F6E6E65637B
:10018000746F722F4E657420416461707465720AD9
:100190000D32202D20307835323A20414443204220
:1001A0006F74746F6D2042640A0D33202D203078F7
:1001B00035343A204E657420457874656E73696FE6
:1001C0006E0A0D34202D20307835363A20414443D4
:1001D00020546F702042640A0D35202D2030783471
:1001E000313A20506F727420457870616E64657288
:1001F00020284857303030313132204F6E6C792909
:100200000A0D0A0D5072657373205820746F2065B3
:100210007869740A0A0D000A0A0A0A0D4545505207
:100220004F4D2044656275670A0D3D3D3D3D3D3DA6
:100230003D3D3D3D3D0A0A0D44202D20446973702B
:100240006C61792053746F726564204465746169D0
:100250006C730A0D48202D204865782044756D7018
:100260000A0D57202D2057726974650A0D52202DF2
:1002700020526573657420454550524F4D20746F70
:100280002030300A0D53202D2053657420454550F1
:10029000524F4D20746F2046460A0D43202D2044B6
:1002A0006973706C617920436865636B73756D73F6
:1002B0000A0D50202D2050726F6772616D20426FC1
:1002C0006172642044657461696C730A0D58202D55
:1002D0002052657475726E20746F20446562756774
:1002E000204D656E750A0A0D000A0A0D2021212194
:1002F00020506C656173652052652D456E74657282
:10030000207573696E67206E756D65726963206311
:10031000686172616374657273206F6E6C792028F6
:100320002730272D27392729202121210A0D000ACE
:100330000A0D2021212120506C65617365205265D2
:100340002D456E746572207573696E6720416C70FF
:1003500068612D6E756D6572696320636861726195
:100360006374657273206F6E6C7920282741272D86
:10037000275A272C202730272D27392729202121CC
:10038000210A0D000A0A0D20212121204545505245
:100390004F4D2052454144204552524F5220212179
:1003A000210A0A0D000A0D446174612072657465AA
:1003B0006E74696F6E20436865636B204641494CDB
:1003C000454421210A0D000A0D44617461207265C3
:1003D00074656E74696F6E204F4B0A0A0D000A0D2A
:1003E000436865636B696E67206461746120726540
:1003F00074656E74696F6E0A0D506F776572696E01
:1004000067204F464620666F722033207365636F06
:100410006E64730A0A0D00504342204173737920C1
:10042000532F4E203D2000504342204173737920CA
:10043000502F4E203D200050726F6475637420531E
:100440002F4E20203D200050726F64756374205041
:100450002F4E20203D2000556E646566696E6564F0
:10046000000A0A0D212121205741524E494E4720B2
:100470002121210A0D43616C63756C6174656420F0
:10048000616E642053746F72656420436865636BAA
:1004900073756D204D617463680A0A0D000A0A0DB8
:1004A00021212120436865636B73756D206D69732D
:1004B0006D61746368202121210A0D53657474698C
:1004C0006E6720757020454550524F4D0A0D000A49
:1004D0000A0D21212120436865636B204865616412
:1004E00065722069732066697474656420636F7235
:1004F000726563746C79202121210A0D5072657335
:10050000732027782720746F20454E544552206B66
:10051000657920746F2072657472790A0D000A0A79
:100520000D212121204E6F7420456E6F7567682064
:100530006368617261637465727320666F722057BD
:100540006F726B73204F72646572202D20312052C0
:1005500065717569726564202121210A0D506C65F1
:100560006173652072657472790A0D000A0A0D21A3
:100570002121204E6F20636861726163746572731C
:1005800020656E7465726564202D206D6178696DDB
:10059000756D206F66203132205265717569726504
:1005A00064202121210A0D506C65617365207265FC
:1005B0007472790A0D000A0A0D212121204E6F74F0
:1005C00020456E6F7567682063686172616374654A
:1005D000727320656E7465726564202D203320521D
:1005E00065717569726564202121210A0D506C6561
:1005F0006173652072657472790A0D000A0A0D2113
:100600002121204E6F7420456E6F756768206368E6
:10061000617261637465727320656E74657265647E
:10062000202D203420526571756972656420212166
:10063000210A0D506C656173652072657472790AC8
:100640000D002121212121212121212121212121CF
:1006500021212121210A0D212121205445535420FB
:100660004641494C4544202121210A0D21212121C7
:100670002121212121212121212121212121210A81
:100680000A0D52656D6F766520426F61726420615C
:100690006E642071756172616E74696E65206F722F
:1006A0002072657465737420626F6172640A0A0D4A
:1006B000000A0A0D2A2A2A2A2A2A2A2A2A2A2A2A21
:1006C0002A2A2A2A2A2A2A0A0D2A2A2A2054455363
:1006D0005420504153534544202A2A2A0A0D2A2ADD
:1006E0002A2A2A2A2A2A2A2A2A2A2A2A2A2A2A2A6A
:1006F0002A0A0A0D52656D6F766520426F61726439
:1007000020616E64206170706C79205445535445AB
:1007100044204D41524B0A0A0D000A0D212121208F
:10072000504F525420455850414E44455220544554
:100730005354204641494C4544202121210A0D5063
:10074000726573732027582720746F206578697449
:10075000206F7220454E544552206B657920746F8E
:100760002052657472790A0D000A0D537563636532
:10077000737366756C6C7920436865636B65642080
:10078000616E642050726F6772616D6D65642045A3
:100790004550524F4D21210A0D000A0A0A0D41759C
:1007A000746F6D61746963616C6C792063686563F3
:1007B0006B696E6720616E642050726F6772616D45
:1007C0006D696E6720454550524F4D0A0D000A0A6B
:1007D0000A0D436F6E6E6563742074686520416412
:1007E000617074657220626F61726420556E646519
:1007F00072205465737420746F20746865204A6990
:10080000670A0D50726573732027582720746F2074
:1008100065786974206F7220454E544552206B658F
:100820007920746F2070726F636565640A0D000A29
:100830000A0A0D436F6E6E656374207468652062EA
:100840006F61726420556E64657220546573742004
:10085000746F20746865204A69670A0D454E5355C8
:10086000524520464C59494E47204C454144204969
:100870005320434F4E4E454354454420746F204A05
:10088000554D5045520A0A0D507265737320275812
:100890002720746F2065786974206F7220454E544C
:1008A0004552206B657920746F2070726F636565A7
:1008B000640A0D000A0A0A0D456E74657220746898
:1008C00065204E65787420626F61726427732053CF
:1008D000657269616C204E6F0A0D000A0A0A0D45A7
:1008E0006E7465722074686520626F61726427732C
:1008F0002053657269616C204E6F2E0A0D283320DB
:100900004368617261637465727329206F72202776
:10091000582720746F20657869740A0D005072653D
:1009200073732027582720746F2065786974206FAF
:100930007220454E544552206B657920746F2070AB
:10094000726F636565640A0A0A0D000A0A0A0D439C
:100950006865636B2074686520666F6C6C6F77697F
:100960006E672064657461696C73206172652063D1
:100970006F72726563740A0A0D000A0A0A0D456EE9
:100980007465722074686520626F617264277320D9
:10099000417373656D626C79205265766973696F16
:1009A0006E204E6F206F66207468652062617463EC
:1009B00068206F6620626F6172647320556E646593
:1009C0007220546573740A0D283320436861726184
:1009D0006374657273290A0D000A0A0A0D456E7464
:1009E00065722074686520576F726B73204F726454
:1009F0006572204E6F2028574F29206F662074683B
:100A000065206261746368206F6620626F61726442
:100A10007320556E64657220546573740A0D284DF9
:100A20004158203D20313020436861726163746514
:100A30007273290A0D000A0A0A0D363736382D302E
:100A400031204E657420416461707465722050439A
:100A5000422073656C65637465640A0D000A0A0AB6
:100A60000D363531392D3031204E657420436F6E8F
:100A70006E6563746F72205043422073656C6563CA
:100A80007465640A0D000A0A0D53656C6563742071
:100A9000426F61726420556E646572205465737490
:100AA0002028425554290A0D3D3D3D3D3D3D3D3DEB
:100AB0003D3D3D3D3D3D3D3D3D3D3D3D3D3D3D3D66
:100AC0003D3D3D3D3D0A0D31202D20363531392D3E
:100AD0003031202D204E657420436F6E6E65637437
:100AE0006F72205043420A0D32202D20363736389F
:100AF0002D3031202D204E65742041646170746565
:100B000072205043420A0D58202D204578697420E8
:100B1000746F205374617274204D656E750A0D3CBC
:100B2000454E5445523E2D20546F207265667265C5
:100B300073682073637265656E0A0A0D000A0A0DF8
:100B40005374617274204D454E550A0D3D3D3D3D37
:100B50003D3D3D3D3D3D3D3D0A0D54202D20426F24
:100B60006172642074657374730A0D44202D2044EF
:100B700065627567204D656E750A0D3C454E54459E
:100B8000523E2D20546F2072656672657368207323
:100B9000637265656E0A0A0D000A0A0A0D21212199
:100BA000204641494C454420544F2050524F475213
:100BB000414D2044455441494C53202121210A0DE7
:100BC000436865636B3A0A0D2020202A546865202B
:100BD0007468652066696E616C20617373656D620F
:100BE0006C79207479706520697320636F72726507
:100BF00063740A0D2020202A5468652041737365B0
:100C00006D626C7920697320636F72726563746CB6
:100C1000792066697474656420746F207468652037
:100C200054657374204A69670A0A0D5072657373BC
:100C30002027454E5445522720746F205245545268
:100C40005920206F662027582720746F2065786907
:100C50007420746F207374617274206D656E750AF0
:100C60000D000A0A0A0D2A2A2A2A2A2A2A2A2A2AA8
:100C70002A2A2A2A2A2A2A2A2A2A2A2A2A2A2A2AD4
:100C80002A2A2A2A2A2A2A2A2A2A2A2A2A2A2A2AC4
:100C90002A2A2A2A0A0D2A2A2A2046696E616C20ED
:100CA000417373656D626C792073756363657373EB
:100CB00066756C6C792050726F6772616D6D6564DA
:100CC000202A2A2A0A0D2A2A2A2A2A2A2A2A2A2ACB
:100CD0002A2A2A2A2A2A2A2A2A2A2A2A2A2A2A2A74
:100CE0002A2A2A2A2A2A2A2A2A2A2A2A2A2A2A2A64
:100CF0002A2A2A2A0A0D436865636B2074686520D6
:100D000064657461696C2073686F776E206F6E2004
:100D10007468652073637265656E20617265206317
:100D20006F72726563740A0D52656D6F766520543B
:100D3000657374656420417373656D626C792061BD
:100D40006E6420636F6D706C6574652074686520D7
:100D50006E65636573736172792050617065727737
:100D60006F726B0A0A0D50726573732027454E54DB
:100D700045522720746F2070726F6772616D206119
:100D80002046696E616C20617373656D626C7920B9
:100D90006F66207468652073616D65207479706575
:100DA0000A0D50726573732027582720746F2065D1
:100DB00078697420746F207374617274206D656E2D
:100DC000750A0D000A0A0A0D456E74657220746872
:100DD000652053657269616C206E6F2E206F6620EE
:100DE0007468652046696E616C20417373656D623D
:100DF0006C7920756E64657220746573740A0D28B1
:100E00004D4158203D203132204368617261637446
:100E1000657273290A0D004E4554204144415054D7
:100E2000455220415353454D424C59004E455420A4
:100E3000455854454E53494F4E20415353454D421A
:100E40004C59004E455420415353454D424C590096
:100E50000A0A0A0D456E7465722074686520507226
:100E60006F647563742773205265766973696F6E5A
:100E7000202D203320436861726163746572732092
:100E800028652E672E20303041290A0D000A0A0DF0
:100E9000456E746572207468652050726F64756366
:100EA000742050617274204E756D626572202D2021
:100EB00034204E756D657269632063686172616389
:100EC000746572730A0D000A0A0D21212120494E12
:100ED00056414C494420454E545259202D20506CC7
:100EE000656173652052657472790A0D000A0A0DF6
:100EF00046696E616C20546573742053746172741A
:100F0000204D656E750A0D3D3D3D3D3D3D3D3D3DF0
:100F10003D3D3D3D3D3D3D3D3D3D3D3D0A0A0D5381
:100F2000656C656374207468652050726F647563C6
:100F30007420547970650A0D31202D204E455420BF
:100F4000417373656D626C790A0D32202D204E4518
:100F50005420457874656E73696F6E0A0D33202DC9
:100F6000204E455420416461707465720A0D000A78
:100F70000D43757272656E7420454550524F4D2079
:100F8000436F6E74656E74730A0D3D3D3D3D3D3D8E
:100F90003D3D3D3D3D3D3D3D3D3D3D3D3D3D3D3D81
:100FA0003D0A0A0D004E65742041646170746572DB
:100FB00020504342004E657420436F6E6E6563742B
:100FC0006F72205043420020436F6D6D616E64204C
:100FD0006E6F7420696D706C656D656E7465640A02
:100FE0000D000A0A426F61726420546573742046D2
:100FF00069726D776172650A0D2A2A2A2A2A2A2ABD
:101000002A2A2A2A2A2A2A2A2A2A2A2A2A2A2A0A60
:101010000A0D000A0A0D21212120494E56414C4952
:10102000442054455354204A4947204944204445CC
:10103000544543544544202121210A0D000A0A4603
:10104000696E616C2054657374204669726D7761B6
:1010500072650A0D3D3D3D3D3D3D3D3D3D3D3D3DC6
:101060003D3D3D3D3D3D0A0A0A0D000A0A0D45453C
:1010700047204E657420436F6E6E6563746F7220F7
:101080002D204932432054657374204669726D7770
:101090006172650A0D3D3D3D3D3D3D3D3D3D3D3D62
:1010A0003D3D3D3D3D3D3D3D3D3D3D3D3D3D3D3D70
:1010B0003D3D3D3D3D3D3D3D3D3D0A0D4669726D29
:1010C000776172652049443A20000A0A0A0A0A0A2E
:1010D0000A0A0A0A0A0D28632920436F7079726987
:1010E00067687420546865204D61677374696D206A
:1010F000436F6D70616E79204C74642E20323032F3
:10110000360A0A0D000A0A0A0A0A0A0A0A0A0A0A1A
:101110000A0A0A0A0D000A0D00544A3030303030F5
:10112000365F5357202D205665722050312E3800DF
:1011300011241FBECFEFD8E0DEBFCDBF14E0A0E08A
:10114000B1E0EEE6FFE302C005900D92AC36B107C8
:10115000D9F726E0ACE6B4E001C01D92AF37B20784
:10116000E1F70E94A40A0C94B51F0C9400001092A1
:101170002D0510922C0510922B0510922A05109225
:10118000C50087E68093C40086E08093C20088E9AA
:101190008093C10008951F920F920FB60F921124F1
:1011A0008F939F93EF93FF9390912B0580912A0546
:1011B000981306C08091C1008F7D8093C10011C03B
:1011C000E0912A05F0E0EA58FB4F80818093C60049
:1011D00080912A058F5F80932A05843B10F010923E
:1011E0002A05FF91EF919F918F910F900FBE0F9065
:1011F0001F901895F89420912B0530E080912A05D6
:101200007894482F50E02417350710F42C543F4FA2
:101210008D54821B08951F93CF93DF93D82F192FDE
:10122000C62F0E94FA088C17E0F380912B052D2F12
:10123000ED2FF12F9E2F921B9C1758F49191A82F00
:10124000B0E0AA58BB4F9C938F5F843B98F380E03B
:10125000F1CFF89480932B058091C10085FD16C0D5
:10126000E0912A05F0E0EA58FB4F80818093C600A8
:1012700080912A058F5F80932A05843B10F010929D
:101280002A058091C10080628093C100789484E037
:10129000DF91CF911F910895CF93DF93FC010190CF
:1012A0000020E9F73197EF01C81BD90B6C2F0E9482
:1012B0000B09843011F48C2F01C080E0DF91CF91B5
:1012C0000895CF93C82F1092C1000E94B708EC2F49
:1012D000F0E0EE0FFF1FE050FF4F81818F93808180
:1012E0008F9388E091E09F938F9388E995E09F9397
:1012F0008F930E94CB1C0F900F900F900F900F9028
:101300000F9088E995E0CF910C944C0920912B0522
:1013100090912A0581E0291380E008951F920F9291
:101320000FB60F9211242F933F934F935F936F93B8
:101330007F938F939F93AF93BF93EF93FF9390917E
:10134000C0008091C600E0912D05F0E0E459FB4F0C
:10135000808380912D058F5F80932D058A3010F05A
:1013600010922D05892F8C7159F094FF02C080E0F6
:1013700005C093FF02C081E001C082E00E946109C4
:10138000FF91EF91BF91AF919F918F917F916F915D
:101390005F914F913F912F910F900FBE0F901F9033
:1013A000189530912D0520912C053217A9F0F8944D
:1013B000E0912C05F0E0E459FB4F2081FC012083F3
:1013C00080912C058F5F80932C058A3010F010924D
:1013D0002C05789484E0089580E00895CF93DF93FE
:1013E0001F92CDB7DEB78FEF9FEF2091BC0029830E
:1013F000298127FD02C00197C1F70F90DF91CF919E
:1014000008958CE08093B800ECEBF0E0808184607C
:1014100080830895FF920F931F93CF93DF93C82F7C
:10142000162FF42E052F84EA8093BC000E94EE094B
:10143000CC0FC093BB0084E88093BC000E94EE09EF
:10144000CF2DD02FCE01810F911D8C0184E8F82E75
:10145000C017D10741F089918093BB00F092BC0086
:101460000E94EE09F5CF8091B90094E99093BC00F9
:10147000DF91CF911F910F91FF900895AF92BF928E
:10148000CF92DF92EF92FF920F931F93CF93DF9350
:10149000C82F062FF42E152F84EA8093BC000E94DB
:1014A000EE09CC0FC160C093BB0084E88093BC0000
:1014B0000E94EE09CF2DD12F10E0E12CF12C680114
:1014C00081E0C81AD10884ECB82E94E8A92EE01661
:1014D000F10691F0CE14DF0419F4A092BC0002C012
:1014E000B092BC000E94EE098091BB0088838FEF10
:1014F000E81AF80A2196EBCF84E98093BC00DF91CB
:10150000CF911F910F91FF90EF90DF90CF90BF9000
:10151000AF900895813011F4289A0895289808957D
:1015200084E08BB98AB1886F8AB98BB18F708BB91F
:1015300052985B985B9A5B985B9A5B985B9A5B9816
:10154000209A80E00C948A0A0E94900A0E94B708B0
:101550000E94010A0E943D1C0E94B11B0E940A1CAD
:10156000FDCF811102C0229806C0229A613011F489
:101570002A9A01C02A9883B184700895CF93DF938B
:10158000C9B1C470D4E08AE090E00E94481C0E9477
:10159000671C8823E1F389B18470C81307C0D15058
:1015A00091F781E0C11103C080E001C082E0DF91CA
:1015B000CF9108952BB12F7030E1839FC00111248A
:1015C000822B8BB9089590ED980F9A3058F0982F90
:1015D0009F7D91549A3130F091E08D3209F090E086
:1015E000892F089581E0089585E091E10E94301CE3
:1015F0000E944C098BE499E00E94301C0E944C0927
:101600008DE199E090938E0580938D0588E799E1AF
:101610009093900580938F0582E89FE090939205C8
:101620008093910582E695E09F938F9386E695E0FF
:101630009F938F938BE695E09F938F9386E891E03D
:101640009F938F9388E995E09F938F930E94CB1C83
:1016500088E995E00E944C098DB79EB70A960FB6AF
:10166000F8949EBF0FBE8DBF80913705882319F077
:1016700085EA9FE002C085EB9FE00E94301C9F93AB
:101680008F938EE592E09F938F9388E995E09F93E7
:101690008F930E94CB1C0F900F900F900F900F9084
:1016A0000F9088E995E00C944C096F927F928F928D
:1016B0009F92AF92BF92CF92DF92EF92FF920F93E1
:1016C0001F93CF93DF93CDB7DEB761970FB6F89432
:1016D000DEBF0FBECDBF882E962E6A017901062F80
:1016E000172F77247394780E202F802F891990E07C
:1016F0008C159D05A0F50F3F110519F010F0672C12
:1017000001C0682C2983F701E80FF91F80818A83C3
:10171000AE014F5F5F4F61E0862D0E940A0AAE0165
:101720004F5F5F4F62E0862D0E940A0AAA24AA94A6
:10173000B12CAE014F5F5F4F61E0862D0E940A0A17
:10174000883219F40F5F1F4FCFCF81E0A81AB1087C
:1017500081F789EA91E00E944C0980E001C081E0B4
:1017600061960FB6F894DEBF0FBECDBFDF91CF916B
:101770001F910F91FF90EF90DF90CF90BF90AF90AF
:101780009F908F907F906F900895CF93DF9300D0BC
:101790001F92CDB7DEB799838A839E012F5F3F4F9B
:1017A00042E050E06EEF70E080913A050E94550BE8
:1017B0000F900F900F90DF91CF9108951F93CF93CB
:1017C000DF931F92CDB7DEB7182FCE0101960E948E
:1017D000D109882391F0112379F089818D3039F472
:1017E00086E191E10E94301C0E944C0905C061E035
:1017F000CE0101960E940B0989810F90DF91CF9154
:101800001F910895CF93DF931F92CDB7DEB7CE011E
:1018100001960E94D1098111FACF81E00E94DE0B6E
:1018200089838D30A1F028F4882371F08A3079F013
:1018300004C0883571F0883761F08DE199E00E942D
:10184000301C0E944C0919828981882331F38AE077
:1018500001C088E70F90DF91CF9108958091350501
:10186000811112C08DEE9EE090938E0580938D05C0
:1018700087EA9EE09093900580938F0582E89FE031
:10188000909392058093910581E00E94DE0B88235E
:1018900009F45EC0843541F018F4843429F140C065
:1018A000843611F18437E1F5109277058AE0809350
:1018B000760586E89AE090938E0580938D0583E304
:1018C0009DE09093900580938F0582E89FE0909330
:1018D00092058093910585E091E10E94301C0E9461
:1018E0004C0910923605089582E391E090938E059D
:1018F00080938D0587EF98E19093900580938F05F5
:1019000082E89FE0909392058093910585E091E1B4
:101910000E94301C0E944C0981E080933605089596
:1019200087EC9FE00E94301C0E944C098DE39BE0F5
:1019300090938E0580938D058EE29CE090939005A8
:1019400080938F0582E89FE09093920580939105A4
:101950000895CF93DF931F92CDB7DEB781E00E9449
:10196000DE0B8823D1F0883511F08837B1F480E0A0
:101970000E94DA0A82E391E090938E0580938D05B0
:1019800087EF98E19093900580938F0582E89FE020
:10199000909392058093910562C00E94671C8823F2
:1019A00009F45DC0E0912E05F0E0EE59FB4F808117
:1019B00080932F058F700E94DA0A88EB9BE00E94CB
:1019C000481CAE014F5F5F4F61E080913A050E9475
:1019D0003E0A998180912F05292F21701F922F9304
:1019E00091FB222720F91F922F9392FB222720F9A7
:1019F0001F922F9393FB992790F91F929F93982FF3
:101A000091701F929F9381FB992790F91F929F934A
:101A100082FB992790F91F929F9383FB882780F977
:101A20001F928F938AEC91E09F938F9388E995E0C2
:101A30009F938F930E94CB1C88E995E00E944C09EC
:101A400080912E058F5F0FB6F894DEBF0FBECDBF1D
:101A50008A3018F480932E0502C010922E050F9044
:101A6000DF91CF910895CF93DF9381E00E94DE0B49
:101A7000882309F45BC0823399F068F48133F1F56F
:101A80006CE072E086E695E00E94C41C1092370577
:101A90008DE59AE010C0883541F1883731F12EC0CC
:101AA00061E172E086E695E00E94C41C81E08093CB
:101AB000370586E39AE00E94301CEC0185E091E155
:101AC0000E94301C0E944C09CE010E944C091092C9
:101AD00077058AE08093760589ED99E090938E05ED
:101AE00080938D0589E99DE017C08DE39BE090937D
:101AF0008E0580938D058EE29CE00EC087EC9FE002
:101B00000E94301C0E944C0986E89AE090938E0552
:101B100080938D0583E39DE09093900580938F05DE
:101B200082E89FE09093920580939105DF91CF9199
:101B30000895CF9381E00E94DE0BC82F882309F41B
:101B400083C08D3029F118F48A3011F128C088350E
:101B500011F0883721F580917705811112C08DE34E
:101B60009BE090938E0580938D058EE29CE0909390
:101B7000900580938F0582E89FE090939205809373
:101B8000910585E091E10E94301CCF910C944C09A5
:101B90008091770581112BC08EE195E016C08C2FC6
:101BA0000E94E30A882379F0E091770581E08E0FA7
:101BB00080937705F0E0E858FA4FC083909176055E
:101BC0008917A8F441C08FE293E00E94301C0E9464
:101BD0004C09109277058AE08093760589ED99E0AB
:101BE00090938E0580938D0589E99DE023C0C09177
:101BF0007705EC2FF0E0E858FA4F108268E775E0BF
:101C00008BE695E00E94C41CCA3038F4EC2FF0E05B
:101C1000E559FA4F1082CF5FF7CF1092770583E036
:101C2000809376058AE799E090938E0580938D05E1
:101C300086E29EE09093900580938F0582E89FE076
:101C40009093920580939105CF910895CF9381E071
:101C50000E94DE0BC82F882309F477C08D3029F14C
:101C600018F48A3011F12AC0883511F0883731F51F
:101C700080917705811112C08DE39BE090938E05D2
:101C800080938D058EE29CE09093900580938F0564
:101C900082E89FE0909392058093910585E091E121
:101CA0000E94301CCF910C944C0990917705809143
:101CB00076059817A8F586EB95E016C08C2F0E9444
:101CC000E30A882379F080917705E82FF0E0E8585F
:101CD000FA4FC0838F5F80937705909176058917BF
:101CE000F8F433C08FE293E00E94301C0E944C094C
:101CF0001092770583E0809376058AE799E09093C8
:101D00008E0580938D0586E29EE0909390058093EA
:101D10008F0582E89FE0909392058093910515C00E
:101D2000E0917705F0E0E858FA4F108268E775E037
:101D300082E695E00E94C41C85E091E10E94301C7F
:101D40000E944C09CF910C94F40ACF91089580E041
:101D50000E94DE0B882309F45DC08233B1F040F4A9
:101D6000813309F03FC01092340583E49EE021C026
:101D70008333D1F08434B1F51092770510928E053B
:101D800010928D0589E79BE13BC081E0809334058B
:101D90008CE29EE0909333058093320561E081E010
:101DA0000E94B10A84E50EC082E08093340587E189
:101DB0009EE0909333058093320560E081E00E94BD
:101DC000B10A80E580933A051092770584E080930C
:101DD00076058DE89EE090938E0580938D058BE0CF
:101DE0009FE00EC087EC9EE00E94301C0E944C09D0
:101DF0008DEE9EE090938E0580938D0587EA9EE0A0
:101E00009093900580938F0582E89FE090939205D0
:101E100080939105089581E00E94DE0B882309F4E8
:101E200070C08D3021F118F48A3009F123C0883553
:101E300011F08837F9F480917705811112C08DEE89
:101E40009EE090938E0580938D0587EA9EE09093A7
:101E5000900580938F0582E89FE090939205809390
:101E6000910585E091E10E94301C0C944C098CEFA7
:101E700095E02CC090ED980F9A3030F5E091770501
:101E8000AE2FB0E0A858BA4F8C93EF5FE093770580
:101E900080917605E817A8F1F0E0E858FA4F108233
:101EA00068E775E08CE495E00E94C41C1092770509
:101EB00083E08093760580E59EE090938E05809385
:101EC0008D0580E290E113C089EE92E00E94301C03
:101ED0000E944C091092770584E0809376058DE886
:101EE0009EE090938E0580938D058BE09FE090930C
:101EF000900580938F0582E89FE0909392058093F0
:101F000091050895CF93DF9380918D0590918E0573
:101F1000009771F10E94241CEC01833B910510F0A5
:101F2000C2EBD0E00E94FA0890E08C179D07D0F336
:101F3000BE0180918D0590918E050E94121C20910A
:101F40008D0530918E052C0F3D1F30938E0520930B
:101F50008D056C2F0E940B09E0918D05F0918E0587
:101F6000E491E1110DC010928E0510928D0508C00C
:101F700080918F05909190059093920580939105A3
:101F8000DF91CF910895CF93DF9385E091E10E9497
:101F9000301C0E944C098BE499E00E94301C0E9486
:101FA0004C0980913205909133050E94301C9F931B
:101FB0008F9386E192E09F938F93C8E9D5E0DF93FA
:101FC000CF930E94CB1CCE010E944C0988E495E07F
:101FD0009F938F938CE495E09F938F9380E392E09F
:101FE0009F938F93DF93CF930E94CB1CCE010E94CF
:101FF0004C0981E595E02DB73EB7225F3F4F0FB604
:10200000F8943EBF0FBE2DBF209151052223A9F0A9
:102010009F938F9383E592E09F938F93DF93CF936A
:102020000E94CB1C0F900F900F900F900F900F906D
:10203000CE01DF91CF910C944C09DF91CF9108959F
:10204000CF9381E00E94DE0BC82F882309F47CC067
:102050008D3009F118F48A30F1F026C0883511F07E
:10206000883711F58DEE9EE090938E0580938D0557
:1020700087EA9EE09093900580938F0582E89FE029
:10208000909392058093910585E091E10E94301C28
:10209000CF910C944C099091770580917605981713
:1020A00058F586EB95E016C08C2F0E94E30A882332
:1020B00079F080917705E82FF0E0E858FA4FC08377
:1020C0008F5F80937705909176058917A8F43CC0BF
:1020D0008FE293E00E94301C0E944C091092770519
:1020E00083E08093760580E59EE090938E05809353
:1020F0008D0580E290E11EC0E0917705F0E0E858A0
:10210000FA4F108268E775E088E495E00E94C41CED
:1021100085E091E10E94301C0E944C09109251050B
:102120000E94C30F8DE199E090938E0580938D05F9
:1021300083EF99E19093900580938F0582E89FE06B
:102140009093920580939105CF910895CF9381E06C
:102150000E94DE0BC82F882309F482C08D3029F13C
:1021600018F48A3011F128C0883511F0883721F52C
:10217000E0917705E11127C08DEE9EE090938E05EA
:1021800080938D0587EA9EE09093900580938F055C
:1021900082E89FE0909392058093910585E091E11C
:1021A0000E94301CCF910C944C09809177058111CD
:1021B0002BC08CE695E016C08C2F0E94E30A882382
:1021C00079F0E091770581E08E0F80937705F0E05C
:1021D000E858FA4FC083909176058917A8F440C05B
:1021E0008FE293E00E94301C0E944C091092770508
:1021F0008CE08093760584EC9DE090938E0580932F
:102200008D0586EA90E122C0C0917705EC2FF0E0C1
:10221000E858FA4F108268E775E081E595E00E9482
:10222000C41CCC3038F4EC2FF0E0EF5AFA4F108297
:10223000CF5FF7CFC09377050E94C30F8DE199E080
:1022400090938E0580938D0589E39AE19093900594
:1022500080938F0582E89FE090939205809391058B
:10226000CF910895AF92BF92CF92DF92EF92FF92FB
:102270001F93CF93DF93CDB7DEB761970FB6F89476
:10228000DEBF0FBECDBF182F7A0169016F3F710508
:1022900011F008F01F5F698388EEA82E83E0B82E46
:1022A000AE014F5F5F4F61E0812F0E940A0A8832C2
:1022B00061F081E0A81AB10899F784E893E00E94E0
:1022C000301C0E944C0980E01BC0AE014E5F5F4F86
:1022D0006E2D812F0E943E0A20E0822F90E08E1505
:1022E0009F0568F4F601E80FF91FA2E0B0E0AC0F1B
:1022F000BD1FA80FB91F8C9180832F5FEECF81E0A7
:1023000061960FB6F894DEBF0FBECDBFDF91CF91BF
:102310001F91FF90EF90DF90CF90BF90AF90089506
:10232000CF92DF92EF92FF920F931F93CF937B0197
:102330006A019A01AB01BC0180913A050E943211F9
:10234000C0E08C2F90E08601080F191FF8018E1550
:102350009F0570F48081811102C0C1110AC00E94E2
:10236000E30A811103C0F801108204C0CF5FE9CFF6
:10237000108281E0CF911F910F91FF90EF90DF903D
:10238000CF900895CF93DF9300D01F92CDB7DEB7E3
:102390009E012F5F3F4F42E050E06EEF70E0809172
:1023A0003A050E94321189819A81982789279827B6
:1023B0000F900F900F90DF91CF910895AF92BF9241
:1023C000CF92DF92EF92FF920F931F93CF93DF9301
:1023D000CDB7DEB762970FB6F894DEBF0FBECDBFA4
:1023E000198200E010E0E12CF12C5E0141E1A40E25
:1023F000B11C9E012F5F3F4F40E150E0B70180913B
:102400003A050E943211FE0131968191080F111D8B
:10241000AE16BF06D1F750E1E50EF11CE11482E0E3
:10242000F80639F70E94C211292FA801481B51094B
:10243000CA01C22ED12C8C199D0980959095629667
:102440000FB6F894DEBF0FBECDBFDF91CF911F91C5
:102450000F91FF90EF90DF90CF90BF90AF900895D5
:1024600084E692E00E944C0982E695E09F938F9368
:1024700086E695E09F938F938DE792E09F938F93ED
:102480008BE395E09F938F930E94CB1C2BE335E069
:102490004CE050E062EE70E080913A050E94550BEE
:1024A0002BE635E04BE050E06FEE70E080913A05AE
:1024B0000E94550B2EE535E044E050E06AEF70E0F5
:1024C00080913A050E94550B0E94DE1190933905C8
:1024D000809338052DB73EB7285F3F4F0FB6F8946D
:1024E0003EBF0FBE2DBF0C94C50B7F928F929F9263
:1024F000AF92BF92CF92DF92EF92FF920F931F9312
:10250000CF93DF931F92CDB7DEB7782E898300E09B
:1025100010E0E12CF12C96E8C92E92E0D92E28E9A2
:10252000A22E25E0B22E4801892C992486940E947F
:1025300086098823E1F3C40101969F938F938981D3
:102540001F928F93DF92CF92BF92AF920E94CB1CCB
:1025500088E995E00E944C099E012F5F3F4F41E0C2
:1025600050E0B70180913A050E94550B9E012F5F04
:102570003F4F41E050E0B70180913A050E9432118F
:102580000FB6F894DEBF0FBECDBF89817816E1F09B
:102590000E9486098823E1F389811F928F9385EB3E
:1025A00092E09F938F9388E995E09F938F930E9489
:1025B000CB1C88E995E00E944C090F900F900F907A
:1025C0000F900F900F900AC09FEFE91AF90A0C596B
:1025D0001F4F011588EC180709F0A5CF0E94860946
:1025E0008823E1F30F90DF91CF911F910F91FF901E
:1025F000EF90DF90CF90BF90AF909F908F907F90A3
:1026000008950F931F93CF93DF93EB018A019A01F3
:10261000AB01BC0180913A050E9432118823A1F0E0
:1026200080E0282F30E0F801E20FF31F2C173D0760
:1026300048F4908190539A3018F0108280E004C0E2
:102640008F5FEFCF108281E0DF91CF911F910F91CB
:102650000895FF920F931F93CF93DF9300D000D084
:10266000CDB7DEB786E191E10E94301C0E944C0993
:102670008FE69FE00E94301C0E944C090E94C2110C
:102680009F938F9386E293E09F938F9308E915E0E1
:102690001F930F930E94CB1CC8010E944C090E94FB
:1026A000DE1180933805909339059F938F9386ECC4
:1026B00092E09F938F931F930F930E94CB1CC801AE
:1026C0000E944C0986E191E10E94301C0E944C0955
:1026D0000FB6F894DEBF0FBECDBF0E9486098823D7
:1026E000E1F387E494E00E94301C0E944C0987E5E6
:1026F00094E00E94301C8C0148E955E064E070E0F1
:1027000080E090E00E9401138823F1F08DE2F82E22
:10271000F0929C054DE955E062E070E084E090E0C5
:102720000E940113882381F0F0929F0540EA55E052
:1027300063E070E086E090E00E949011882321F031
:102740001092A30508E915E0C8010E944C0986E132
:1027500091E10E94301C0E944C090E948609882346
:10276000E1F387E394E00E94301C0E944C0987E566
:1027700094E00E94301C8C0148E955E06DE070E067
:1027800089E090E00E949011882389F08DE2809387
:10279000A50546EA55E06DE070E084E090E00E9417
:1027A0009011882321F01092B30508E915E0C801C3
:1027B0000E944C0986E191E10E94301C0E944C0964
:1027C0000E9486098823E1F387E294E00E94301C8E
:1027D0000E944C0987E594E00E94301C8C0148E976
:1027E00055E06CE070E082EE90E00E94901188234A
:1027F00011F008E915E0C8010E944C0986E191E159
:102800000E94301C0E944C090E9486098823E1F333
:1028100087E194E00E94301C0E944C0987E594E017
:102820000E94301C8C0148E955E06BE070E08FEEAF
:1028300090E00E9490118823D1F063EE72E088E965
:1028400095E00E94B01CAE014F5F5F4F64E070E006
:102850008AEF90E00E949011882349F0BE016F5FDB
:102860007F4F88E995E00E94B01C08E915E0C80197
:102870000E944C0986E191E10E94301C0E944C09A3
:102880000F900F900F900F90DF91CF911F910F91AC
:10289000FF9008956F927F928F929F92AF92BF9216
:1028A000CF92DF92EF92FF920F931F93CF93DF931C
:1028B000CDB7DEB762970FB6F894DEBF0FBECDBFBF
:1028C00081E00E94DE0B882309F4A7C1883509F452
:1028D00076C1B0F4803509F454C140F4843459F120
:1028E000883461F1833409F080C18BC0833509F4E9
:1028F00042C1873509F498C0823509F076C13DC1DF
:10290000803709F43EC140F48436A9F08836B1F02E
:10291000833609F06AC175C0833709F42CC120F4ED
:10292000823709F42AC161C1873709F47DC088372D
:1029300009F445C15AC10E9429135DC185EE92E098
:102940000E944C09198200E010E094EF692E92E099
:10295000792E28E9C22E25E0D22E32E0A32E33E0D4
:10296000B32E1F930F937F926F92DF92CF920E94AC
:10297000CB1C88E995E00E944C099E012F5F3F4FD8
:1029800040E150E0B80180913A050E943211CE0139
:1029900001964C0188E9E82E85E0F82E0F900F9003
:1029A0000F900F900F900F90F40181914F011F92A3
:1029B0008F93BF92AF92FF92EF920E94CB1CF3E0F5
:1029C000EF0EF11C0F900F900F900F900F900F9043
:1029D00088ECE81685E0F80639F70E948609882316
:1029E000E1F388E995E00E944C098AE792E00E94B1
:1029F0004C09005F1F4F011592E0190709F0B1CF94
:102A0000FAC00E94DE11182F092F0E94C211F82E61
:102A1000E92E0E9486098823E1F3EF92FF920F933B
:102A20001F9388E093E095C08AE589839E012F5F1C
:102A30003F4F41E050E060E470E080913A050E9431
:102A4000550B0E9486098823E1F31F9280E48F933F
:102A500089811F928F9383E493E09F938F9388E9FA
:102A600095E09F938F930E94CB1C88E995E00E948C
:102A70004C099E012F5F3F4F41E050E060E470E061
:102A800080913A050E9432110FB6F894DEBF0FBE56
:102A9000CDBF0E9486098823E1F31F9280E48F93C3
:102AA00089811F928F9389E693E09F938F9388E9A2
:102AB00095E09F938F930E94CB1C88E995E00E943C
:102AC0004C0985EA89839E012F5F3F4F41E050E02A
:102AD0006FE071E080913A050E94550B0FB6F894B3
:102AE000DEBF0FBECDBF0E9486098823E1F381E0DF
:102AF0008F938FE08F9389811F928F9383E493E06C
:102B00009F938F9388E995E09F938F930E94CB1CAE
:102B100088E995E00E944C099E012F5F3F4F41E0FC
:102B200050E06FE071E080913A050E9432110FB6DB
:102B3000F894DEBF0FBECDBF0E9486098823E1F363
:102B400081E08F938FE08F9389811F928F9389E625
:102B500093E09F938F9388E995E09F938F930E94D2
:102B6000CB1C88E995E00E944C090FB6F894DEBFB3
:102B70000FBECDBF40C08FEF01C080E00E94751234
:102B80003AC0109277058AE08093760586E89AE04D
:102B900090938E0580938D0583E39DE0909390053F
:102BA00080938F0582E89FE0909392058093910532
:102BB00085E091E10E94301C0E944C092EC082E306
:102BC00091E090938E0580938D0587EF98E1909327
:102BD000900580938F0582E89FE090939205809303
:102BE000910580E00E948A0A18C087EC9FE00E944D
:102BF000301C0E944C0987E192E090938E058093EF
:102C00008D058AE494E19093900580938F0582E886
:102C10009FE0909392058093910562960FB6F89489
:102C2000DEBF0FBECDBFDF91CF911F910F91FF90FF
:102C3000EF90DF90CF90BF90AF909F908F907F905C
:102C40006F90089581E00E94DE0B882309F499C0FB
:102C50008D3071F018F48A3059F014C0883511F0B5
:102C6000883781F48091770581118BC00C94F40A28
:102C70009091770580917605981708F082C086EBD1
:102C800095E064C090ED980F9A3008F05DC0E09137
:102C90007705AE2FB0E0A858BA4F8C93EF5FE09362
:102CA000770580917605E8136CC0F0E0E858FA4F9C
:102CB000108268E775E08EE595E00E94C41C85E00F
:102CC00091E10E94301C0E944C098EE595E09F9393
:102CD0008F938BE695E09F938F938EE893E09F937D
:102CE0008F9388E995E09F938F930E94CB1C88E98E
:102CF00095E00E944C098DB79EB708960FB6F894E0
:102D00009EBF0FBE8DBF80913605882329F00E949B
:102D100030120E9429130DC080913705882319F0C5
:102D20008EEC97E002C08FE298E09093310580939B
:102D30003005809130059091310590938E058093F8
:102D40008D058EEB99E113C089EE92E00E94301C54
:102D50000E944C091092770583E0809376058BEDF5
:102D600098E090938E0580938D0582E296E1909392
:102D7000900580938F0582E89FE090939205809361
:102D8000910508958F929F92AF92BF92CF92DF925A
:102D9000EF92FF920F931F93CF93DF9300D0CDB7A5
:102DA000DEB785E091E10E94301C0E944C098EE55F
:102DB00095E09F938F938BE695E09F938F9389EC9B
:102DC00093E09F938F9388E995E09F938F930E9460
:102DD000CB1C88E995E00E944C0981E00E948A0A98
:102DE00088EE93E00E94481C0FB6F894DEBF0FBE39
:102DF000CDBF0E94671C8823E1F3809137058823AB
:102E0000E9F060E081E00E94B10A80E580933A0534
:102E10000E94DE1190933905809338050E94C211FB
:102E200020913805309139058217930789F18DE992
:102E300094E00E94301C0E944C0943C003EE13E052
:102E400058E9E52E55E0F52E19991FC08FEC94E056
:102E50000E94301C0E944C0983B186701F928F9390
:102E60001F930F93FF92EF920E94CB1C88E995E08D
:102E70000E944C090E94020C0F900F900F900F902F
:102E80000F900F90883701F7C8C01A99DFCFB9CFDC
:102E900081E694E00E94301C0E944C090E94291394
:102EA00086E191E10E94301C0E944C098DE199E07D
:102EB0000E94301C0E944C090E94020C883709F4C1
:102EC000ACC080E00E9475120E9430128EED93E03B
:102ED0000E94301C0E944C0980E00E948A0A88EB04
:102EE0009BE00E94481C0E94671C8823E1F381E05C
:102EF0000E948A0A80913705811107C061E081E054
:102F00000E94B10A84E580933A0548E955E06CE0F7
:102F100070E082EE90E00E949011882309F498C03E
:102F20006BE375E088E995E00E94BB1C892B09F0F2
:102F30008FC048E955E06BE070E08FEE90E00E94B2
:102F40009011882309F484C06BE675E088E995E068
:102F50000E94BB1C892B09F07BC048E955E064E066
:102F600070E08AEF90E00E949011882309F470C00D
:102F70006EE575E088E995E00E94BB1C892B09F09D
:102F800067C00E94DE1190933905809338050E9436
:102F9000C21120913805309139058217930709F045
:102FA00057C059C085E091E10E94301C0E944C0935
:102FB00019828EE690E00E94301C0E944C0980929B
:102FC0003A05AE014F5F5F4F61E081E40E940A0A5B
:102FD00088EC90E00E946F1C10922E059924939427
:102FE000E0912E05EA3008F480C0911046C08AE1D5
:102FF00097E00E94301C0E944C090E94020C883706
:1030000089F685E091E10E94301C0E944C0982E41F
:1030100096E00E94301C0E944C091092770583E0D4
:10302000809376058BED98E090938E0580938D05C7
:1030300082E296E19093900580938F0582E89FE06D
:10304000909392058093910580E00E948A0AC0C007
:1030500085EA93E00AC087EC93E00E94301C0E944E
:103060004C090E94291389E697E00E94301C0E94B7
:103070004C098091370581112BC080E00E948A0A9B
:1030800060E080E00E94B10A85E091E10E94301C7E
:103090000E944C0981EB96E00E94301C0E944C0972
:1030A0001092770583E08093760584EB98E0909307
:1030B0008E0580938D0582E296E190939005809332
:1030C0008F0582E89FE0909392058093910580C0E0
:1030D00021E4822E38EFE32E33E0F32E08E915E0E9
:1030E0004BE0C42E44E0D42E63CFF0E0EE59FB4F0A
:1030F000808180932F058F700E94DA0A84E690E029
:103100000E946F1CAE014E5F5F4F61E080913A05F7
:103110000E943E0A8A818F708A8390912F058913BD
:1031200005C094ECA92E93E0B92E05C08FEBA82E14
:1031300083E0B82E912C80E00E94DA0A80912F055E
:10314000982F91701F929F9381FB992790F91F925E
:103150009F9382FB992790F91F929F9383FB882767
:1031600080F91F928F93FF92EF921F930F930E940B
:10317000CB1C88E995E00E944C098A81BF92AF92EE
:10318000982F91701F929F9381FB992790F91F921E
:103190009F9382FB992790F91F929F9383FB882727
:1031A00080F91F928F93DF92CF921F930F930E940B
:1031B000CB1C88E995E00E944C0980912E058F5F19
:1031C00080932E050FB6F894DEBF0FBECDBF08CF9B
:1031D0000F900F90DF91CF911F910F91FF90EF9083
:1031E000DF90CF90BF90AF909F908F900895CF9336
:1031F000DF931F92CDB7DEB781E00E948A0A81E09B
:103200000E94DE0B882309F46FC0843399F140F4E7
:10321000823381F168F5813309F04EC080E52BC01F
:103220008835A1F1883791F1853309F045C01982BD
:1032300081E480933A05AE014F5F5F4F61E00E94E9
:103240000A0A89ED90E090938E0580938D0589EAB6
:103250009CE09093900580938F0582E89FE0909387
:1032600092058093910588EC90E00E94481C3CC038
:1032700084E501C082E580933A0587E192E090936E
:103280008E0580938D058AE494E124C08DE39BE054
:1032900090938E0580938D058EE29CE0909390052F
:1032A00080938F0582E89FE090939205809391052B
:1032B00080E00E948A0A18C087EC9FE00E94301CC0
:1032C0000E944C0982E391E090938E0580938D05D6
:1032D00087EF98E19093900580938F0582E89FE0B7
:1032E00090939205809391050F90DF91CF9108956F
:1032F00081E00E94DE0B882309F43FC08D30B9F0D5
:1033000018F48A30A1F021C0883511F08837E9F42B
:1033100085E091E10E94301C0E944C098DE39BE006
:1033200090938E0580938D058EE29CE01CC01092D8
:10333000770583E0809376058BED98E090938E057A
:1033400080938D0582E296E10EC087EC9EE00E949C
:10335000301C0E944C098DE199E090938E0580937A
:103360008D0588E799E19093900580938F0582E819
:103370009FE09093920580939105089581E00E94CB
:10338000DE0B882379F18D3051F018F48A3039F052
:103390000FC0883511F0883759F40C94F40A8AE983
:1033A00097E090938E0580938D0582EC96E110C096
:1033B0008DE199E00E94301C0E944C0980913005FB
:1033C0009091310590938E0580938D058EEB99E158
:1033D0009093900580938F0582E89FE090939205EB
:1033E00080939105089581E00E94DE0B882309F403
:1033F0003FC08D30B9F018F48A30A1F021C0883573
:1034000011F08837E9F485E091E10E94301C0E94B8
:103410004C098DEE9EE090938E0580938D0587EA92
:103420009EE01CC0109277058CE08093760584ECBA
:103430009DE090938E0580938D0586EA90E10EC005
:1034400087EC9EE00E94301C0E944C098DE199E0BF
:1034500090938E0580938D0583EF99E1909390056D
:1034600080938F0582E89FE0909392058093910569
:10347000089581E00E94DE0B882309F4ADC08D30F1
:1034800031F118F48A3019F113C0883511F08837FA
:1034900079F485E091E10E94301C0E944C098DEE88
:1034A0009EE090938E0580938D0587EA9EE08AC00A
:1034B00087EC9EE00E94301C0E944C098DE199E04F
:1034C00090938E0580938D0583EF99E17BC085E015
:1034D00091E10E94301C0E944C0981E00E948A0AFE
:1034E00084E690E00E946F1C809132059091330534
:1034F0000E94301C9F938F9383E294E09F938F935D
:1035000088E995E09F938F930E94CB1C88E995E012
:103510000E944C092CE435E044E050E060E070E0AB
:1035200080913A050E94550B0F900F900F900F90CD
:103530000F900F9081110BC00E948A0A89E99BE0CD
:1035400090938E0580938D0589E39BE13BC022E437
:1035500034E042E050E064E070E080913A050E947F
:10356000550B28E435E043E050E066E070E08091E0
:103570003A050E94550B21E535E04DE050E069E049
:1035800070E080913A050E94550B0E94DE119093E5
:103590003905809338050E94C50B0E94291380E0ED
:1035A0000E948A0A80913405823021F485E494E0F7
:1035B0000E944C0982E69CE090938E0580938D05D5
:1035C0008DEE9AE19093900580938F0582E89FE0BD
:1035D0009093920580939105089581E00E94DE0BFF
:1035E000882309F445C08D30B9F018F48A30A1F071
:1035F00027C0883511F0883719F585E091E10E94E0
:10360000301C0E944C098DEE9EE090938E058093B5
:103610008D0587EA9EE022C00E94391A109251055A
:103620000E94C30F109277058CE08093760584EC9E
:103630009DE090938E0580938D0586EA90E10EC003
:1036400087EC9EE00E94301C0E944C0982E69CE0C0
:1036500090938E0580938D058DEE9AE19093900561
:1036600080938F0582E89FE0909392058093910567
:10367000089581E00E94DE0B8823D1F18D30B9F0EE
:1036800018F48A30A1F01EC0883511F08837D1F4C3
:1036900085E091E10E94301C0E944C098DEE9EE075
:1036A00090938E0580938D0587EA9EE017C00E9457
:1036B000C30F8DE199E090938E0580938D0589E38A
:1036C0009AE10CC087EC9EE00E94301C0E944C09DD
:1036D00010928E0510928D058DEE9AE190939005D3
:1036E00080938F0582E89FE09093920580939105E7
:1036F0000895CF9380E00E94DE0BC82F882379F1D4
:1037000088E690E00E94301CFC0180ED8C0F8A302E
:10371000B0F490917705E90FF11D8081C8130FC0B7
:1037200081E0890F809377058630C8F082E391E0CD
:1037300090938E0580938D0587EF98E106C01092D7
:103740008E0510928D0587EA9EE0909390058093F8
:103750008F0582E89FE09093920580939105CF9129
:10376000089585E091E10E94301C0E944C098AEC8A
:1037700090E10E94301C0E944C098BE690E10E946F
:10378000301C0E944C090E94AD1C0E94301C0E94FB
:103790004C0986E191E10E94301C0E944C090E9474
:1037A000BE0A8093350581110FC08DE390E10E9420
:1037B000301C0E944C098DEE9EE090938E05809304
:1037C0008D0587EA9EE01BC0823059F483E190E1C9
:1037D0000E94301C0E944C09109292051092910593
:1037E000089582EE9FE00E94301C0E944C098DE3F8
:1037F0009BE090938E0580938D058EE29CE09093E4
:10380000900580938F0582E89FE0909392058093C6
:1038100091050895E0919105F0919205309709F096
:1038200009940895AAECB5E020E030E026173707A8
:1038300041F0FC01E20FF31FE491ED932F5F3F4F46
:10384000F5CF8AEC95E008959C0180E090E0F901C5
:10385000E80FF91FE491EE2311F00196F8CF0895D7
:10386000CF93DF93EC010E94241CBC016F5F7F4F5C
:10387000CE01DF91CF910C94121C109297051092FB
:10388000960510929505109294051092930508954F
:103890001092930590939705809396051092950545
:1038A0001092940510928500109284008AEF90E0A7
:1038B0009093890080938800EFE6F0E08081826039
:1038C0008083E1E8F0E080818360808308958091C7
:1038D0009305882319F01092930581E008950E94C2
:1038E000481C0E94671C8823E1F308951F920F92E1
:1038F0000FB60F9211242F933F938F939F93809134
:103900009405909195050196909395058093940563
:1039100020919605309197058217930759F41092DC
:10392000810080916F008D7F80936F0081E0809394
:1039300093050AC0809188009091890086509F4F1E
:1039400090938900809388009F918F913F912F9150
:103950000F900FBE0F901F90189589E191E1089587
:10396000FB01DC010D900020E9F7119701900D9209
:103970000020E1F70895FB01DC018D910190801991
:103980000110D9F3990B0895FB01DC0101900D9210
:103990000020E1F70895AEE0B0E0E1EDFCE10C9429
:1039A0008C1F0D891E8986E08C831A8309838FEF13
:1039B0009FE79E838D83AE01475E5F4F6F89788D51
:1039C000CE0101960E94ED1CEF81F885E00FF11FFA
:1039D00010822E96E4E00C94A81FABE0B0E0E3EF79
:1039E000FCE10C947E1F6C017B018A01FC011782B3
:1039F0001682838181FFCCC1CE0101963C01F60184
:103A00009381F70193FD859193FF81917F01882335
:103A100009F4BAC1853239F493FD859193FF819100
:103A20007F01853229F4B60190E00E94E41EE7CFC1
:103A3000912C212C312CFFE1F315D8F08B3279F049
:103A400038F4803279F08332A1F4232D20611DC037
:103A50008D3261F0803369F4232D216016C0832DEF
:103A60008260382EE32DE4603E2E2AC0F32DF860EC
:103A70001DC037FC2DC020ED280F2A3040F08E32BB
:103A8000B9F436FC81C1232D2064322E19C036FED4
:103A900006C08AE0989E200D1124922E11C0EAE003
:103AA0002E9E200D1124222EF32DF0623F2E08C0F1
:103AB0008C3621F4832D8068382E02C0883641F47C
:103AC000F70193FD859193FF81917F018111B3CF20
:103AD000982F9F7D9554933028F40C5F1F4F9FE3E0
:103AE00099830DC0833631F0833771F0833509F047
:103AF00059C021C0F801808189830E5F1F4F88243F
:103B00008394912C530113C02801F2E04F0E511CF5
:103B1000F801A080B18036FE03C0692D70E002C0BC
:103B20006FEF7FEFC5010E94D91E4C018201F32D7A
:103B3000FF773F2E16C0280122E0420E511CF801EB
:103B4000A080B18036FE03C0692D70E002C06FEF27
:103B50007FEFC5010E94CE1E4C01F32DF0683F2E71
:103B6000820133FC1BC0822D90E088169906B0F4C8
:103B7000B60180E290E00E94E41E2A94F4CFF501A1
:103B800037FC859137FE81915F01B60190E00E947C
:103B9000E41E21102A9421E0821A910881149104D4
:103BA00071F7E8C0843611F0893641F5F80137FE27
:103BB00007C060817181828193810C5F1F4F08C0B3
:103BC00060817181072E000C880B990B0E5F1F4FCF
:103BD000F32DFF763F2E97FF09C090958095709545
:103BE00061957F4F8F4F9F4FF0683F2E2AE030E066
:103BF000A3010E94201F882E861845C0853731F406
:103C0000232D2F7EB22E2AE030E025C0932D997F00
:103C1000B92E8F36C1F018F4883579F0B5C08037E9
:103C200019F0883721F0B0C0E92FE061BE2EB4FE54
:103C30000DC0FB2DF460BF2E09C034FE0AC0292F31
:103C40002660B22E06C028E030E005C020E130E05A
:103C500002C020E132E0F801B7FE07C06081718147
:103C6000828193810C5F1F4F06C06081718180E06B
:103C700090E00E5F1F4FA3010E94201F882E861820
:103C8000FB2DFF773F2E36FE0DC0232D2E7FA22E5B
:103C9000891458F434FE0BC032FC09C0832D8E7E8B
:103CA000A82E05C0B82CA32C03C0B82C01C0B92C79
:103CB000A4FE0FC0FE01E80DF11D8081803321F4C8
:103CC0009A2D997EA92E09C0A2FE06C0B394B39482
:103CD00004C08A2D867809F0B394A3FC11C0A0FE1D
:103CE00006C0B21488F4280C922C9B180EC0B21493
:103CF00060F4B60180E290E00E94E41EB394F7CF36
:103D0000B21418F42B1802C0982C212CA4FE10C059
:103D1000B60180E390E00E94E41EA2FE17C0A1FC61
:103D200003C088E790E002C088E590E0B6010CC0CF
:103D30008A2D867859F0A1FE02C08BE201C080E294
:103D4000A7FC8DE2B60190E00E94E41E891438F4CD
:103D5000B60180E390E00E94E41E9A94F7CF8A9423
:103D6000F301E80DF11D8081B60190E00E94E41E90
:103D70008110F5CF222009F442CEB60180E290E016
:103D80000E94E41E2A94F6CFF6018681978102C034
:103D90008FEF9FEF2B96E2E10C949A1FFC010590A8
:103DA000615070400110D8F7809590958E0F9F1F3D
:103DB0000895FC016150704001900110D8F7809582
:103DC00090958E0F9F1F08950F931F93CF93DF93AE
:103DD000FB01238121FD03C08FEF9FEF2CC022FF49
:103DE00016C046815781248135814217530744F418
:103DF000A081B1819D012F5F3F4F318320838C9340
:103E0000268137812F5F3F4F3783268314C08B0174
:103E1000EC01FB010084F185E02D0995892BE1F689
:103E2000D80116968D919C911797019617969C93A1
:103E30008E931697CE01DF91CF911F910F91089528
:103E4000FA01AA27283051F1203181F1E8946F93CB
:103E50006E7F6E5F7F4F8F4F9F4FAF4FB1E03ED071
:103E6000B4E03CD0670F781F891F9A1FA11D680F0F
:103E7000791F8A1F911DA11D6A0F711D811D911D42
:103E8000A11D20D009F468943F912AE0269F1124B7
:103E90003019305D3193DEF6CF010895462F47701B
:103EA000405D4193B3E00FD0C9F7F6CF462F4F7076
:103EB000405D4A3318F0495D31FD4052419302D0D4
:103EC000A9F7EACFB4E0A69597958795779567957A
:103ED000BA95C9F700976105710508959B01AC017A
:103EE0000A2E06945795479537952795BA95C9F7A1
:103EF000620F731F841F951FA01D08952F923F927C
:103F00004F925F926F927F928F929F92AF92BF92E9
:103F1000CF92DF92EF92FF920F931F93CF93DF9395
:103F2000CDB7DEB7CA1BDB0B0FB6F894DEBF0FBEF2
:103F3000CDBF09942A88398848885F846E847D843F
:103F40008C849B84AA84B984C884DF80EE80FD8041
:103F50000C811B81AA81B981CE0FD11D0FB6F894B7
:0E3F6000DEBF0FBECDBFED010895F894FFCF78
:103F6E001E013501510167010A0A0D53595354457B
:103F7E004D204552524F520A0D25730A0D000A0D5F
:103F8E0053657269616C204672616D696E6720457A
:103F9E0072726F72000A0D53657269616C20446112
:103FAE007461204F76657272756E204572726F72F3
:103FBE00000A0D53657269616C20506172697479E3
:103FCE00204572726F72000A0D53657269616C2022
:103FDE00545820627566206F766572666C6F772016
:103FEE004572726F7200574F204E6F2020203D2079
:103FFE0025730A0D41737379204E6F203D20257372
:10400E002D30312D25732020000A0A0D212121206B
:10401E00454550524F4D2057726974652045727256
:10402E006F72202121210A0A0D00202530317820BF
:10403E002020202530317820202020253031782076
:10404E002020202530317820202020202D20446172
:10405E0074612052656164203D2025303178253011
:10406E00317825303178253031780D0036353139BB
:10407E0000363736380046696E616C2041737365C1
:10408E006D626C7920547970653A2025730A0D00A3
:10409E0046696E616C20417373656D626C79204E5A
:1040AE00756D6265723A2025732D30302D25730A99
:1040BE000A0D0053657269616C204E6F3A202573AC
:1040CE000A0A0D000A0A0D5570646174696E672044
:1040DE00454550524F4D2021210A0A0D0025732DC2
:1040EE0030312D2573000D526573657474696E67DA
:1040FE0020416C6C206F6620454550524F4D207408
:10410E006F2025303278202D202530336425252050
:10411E00646F6E65000A0D457261736520455252DB
:10412E002025780A0D0043616C63756C61746564BB
:10413E0020436865636B73756D203D2025303478A0
:10414E000A0D002D000A0A0D4845582044554D50C1
:10415E000A0D0A0041646472203D20253034783AFD
:10416E0020002530327820000A0D43616C63756C97
:10417E006174656420436865636B73756D203D20C3
:10418E00253034780A0D53746F7265642043686568
:10419E00636B73756D20202020203D2025303478F0
:1041AE000A0D000A0D4461746120253032782077A3
:1041BE0072697474656E20746F20616464726573C5
:1041CE007320253034780A0D000A0D446174612085
:1041DE002530327820726561642066726F6D2061C1
:1041EE0064647265737320253034780A0D000A0AF0
:1041FE00426F6172642049443A2025732D25732045
:10420E0069732073656C656374656420666F7220D4
:10421E0070726F6772616D6D696E670A0A0D004686
:10422E0041494C00504153530050726F6772616D9B
:10423E006D696E6720426F6172642025732D257340
:10424E000A0D0048656164657220506F7274203DDE
:10425E0020253032780A0D0025303178253031781E
:10426E0025303178253031782020002530317825E1
:10427E003031782530317825303178202D20257356
:10428E000A0D000A0A0D50726F6772616D6D696ECC
:10429E00672044657461696C20666F722025730A0D
:1042AE000D003030000A0D4E6F7720646F204E6582
:1042BE007420616461707465722073747566660A29
:0C42CE000D0000010204080F0E0D0B078C
:00000001FF
