S0130000544A3030303030365F53572E7372656344
S11300000C945C030C9479030C9479030C94790399
S11300100C9479030C9479030C9479030C9479036C
S11300200C9479030C9479030C9479030C94630C69
S11300300C9479030C9479030C9479030C9479034C
S11300400C9479030C9479030C9452040C948F034C
S11300500C9479030C9479030C9479030C9479032C
S11300600C9479030C9479030A0A0A0A0D53656CFB
S113007065637420454550524F4D20416464726558
S113008073733A0A0D31202D20307835303A204EE2
S1130090657420436F6E6E6563746F720A0D32204F
S11300A02D20307835323A2041444320426F747415
S11300B06F6D2042640A0D33202D20307835343A98
S11300C0204E657420457874656E73696F6E0A0DF1
S11300D034202D20307835363A2041444320546F63
S11300E0702042640A0D0A0D507265737320582003
S11300F0746F20657869740A0A0D000A0A0A0A0DE9
S1130100454550524F4D2044656275670A0D3D3D8B
S11301103D3D3D3D3D3D3D3D3D0A0A0D50202D20D8
S113012050726F6475637420436F64650A0D4820D0
S11301302D204865782044756D700A0D4B202D20C4
S1130140436865636B73756D0A0D57202D205772D4
S11301506974650A0D52202D20526573657420451B
S11301604550524F4D20746F2030300A0D53202DCE
S11301702053657420454550524F4D20746F2046DE
S1130180460A0D58202D2052657475726E20746FC6
S1130190204465627567204D656E750A0D000A0A74
S11301A00A0A0D4445425547204D454E550A0D3D1A
S11301B03D3D3D3D3D3D3D3D3D3D3D3D0A0D4520E3
S11301C02D20454550524F4D2044656275670A0DF8
S11301D058202D204578697420746F2053746172FF
S11301E074204D656E750A0D000A0A0D4E6F742059
S11301F0456E6F75676820636861726163746572C8
S11302007320656E7465726564202D2033205265F9
S11302107175697265640A0D506C6561736520724D
S1130220657472790A0D000A0A0D4E6F7420456ECA
S11302306F756768206368617261637465727320A7
S1130240656E7465726564202D2034205265717565
S1130250697265640A0D506C65617365207265741A
S113026072790A0D000A0A0D546F6F206D616E7960
S1130270206368617261637465727320656E74656E
S1130280726564202D20506C6561736520726574FD
S113029072790A0D005355434345535346554C4C0C
S11302A05920436865636B656420616E64205072F5
S11302B06F6772616D6D656420454550524F4D21E5
S11302C0210A0A0D52656D6F766520426F61726472
S11302D020616E64206170706C79205445535445DC
S11302E044204D41524B0A0A0D000A0A0A0D417579
S11302F0746F6D61746963616C6C792063686563A4
S11303006B696E6720616E642050726F6772616DF5
S11303106D696E6720454550524F4D0A0D000A0A1B
S11303200A0D436F6E6E6563742074686520626F96
S113033061726420556E6465722054657374207410
S11303406F20746865204A69670A0D454E535552FB
S11303504520464C59494E47204C45414420495379
S113036020434F4E4E454354454420746F204A5514
S11303704D5045520A0A0D50726573732027582751
S113038020746F2065786974206F7220616E792003
S11303906F74686572206B657920746F2070726F5A
S11303A0636565640A0D000A0A0A0D456E74657278
S11303B020746865204E65787420626F61726427CA
S11303C0732053657269616C204E6F0A0D000A0A2E
S11303D00A0D456E7465722074686520626F6172DF
S11303E06427732053657269616C204E6F2E0A0D69
S11303F028332043686172616374657273290A0D3E
S11304000050726573732027582720746F20657815
S11304106974206F7220616E79206F746865722030
S11304206B657920746F2070726F636565640A0A66
S11304300A0D000A0A0A0D436865636B2074686537
S113044020666F6C6C6F77696E6720646574616990
S11304506C732061726520636F72726563740A0A3B
S11304600D000A0A0A0D456E7465722074686520D1
S1130470626F617264277320417373656D626C7976
S1130480205265766973696F6E204E6F206F662007
S1130490746865206261746368206F6620626F61AE
S11304A072647320556E64657220546573740A0D0A
S11304B028332043686172616374657273290A0D7D
S11304C0000A0A0A0D456E7465722074686520621C
S11304D06F617264277320417373656D626C792058
S11304E04E6F206F662074686520626174636820B3
S11304F06F6620626F6172647320556E646572204A
S1130500546573740A0D28342043686172616374FE
S1130510657273290A0D000A0A0A0D456E74657224
S11305202074686520576F726B73204F7264657214
S1130530204E6F2028574F29206F6620746865204D
S11305406261746368206F6620626F6172647320F5
S1130550556E64657220546573740A0D284D4158B4
S1130560203D203130204368617261637465727389
S1130570290A0D000A0A0D5374617274204D454E08
S1130580550A0D3D3D3D3D3D3D3D3D3D3D3D3D0A15
S11305900D54202D20426F6172642074657374734E
S11305A00A0D44202D204465627567204D656E75E3
S11305B00A0D3C454E5445523E2D20546F20726521
S11305C066726573682073637265656E0A0A0D004E
S11305D020436F6D6D616E64206E6F7420696D7061
S11305E06C656D656E7465640A0D000A0A0D4545F7
S11305F047204E657420436F6E6E6563746F72207E
S11306002D2049324320454550524F4D2050726FA2
S11306106772616D6D65720A0D3D3D3D3D3D3D3D29
S11306203D3D3D3D3D3D3D3D3D3D3D3D3D3D3D3DF6
S11306303D3D3D3D3D3D3D3D3D3D3D3D3D3D3D3DE6
S11306403D3D0A0D4669726D776172652049443AF1
S113065020000A0A0A0A0A0A0A0A0A0A0A0D286370
S11306602920436F70797269676874205468652023
S11306704D61677374696D20436F6D70616E79208D
S11306804C74642E20323032350A0A0D002E000AD2
S11306900A0A0A0A0A0A0A0A0A0A0A0A0A0A0D00BD
S11306A00A0D00544A3030303030365F5357202D15
S11306B0205665722030310011241FBECFEFD8E0E0
S11306C0DEBFCDBF12E0A0E0B1E0E0E2FFE102C096
S11306D005900D92A43AB107D9F724E0A4EAB2E058
S11306E001C01D92A738B207E1F70E9461050C947E
S11306F08E0F0C9400001092650310926403109204
S11307006303109262031092C50087E68093C400CD
S113071086E08093C20088E98093C10008951F9207
S11307200F920FB60F9211248F939F93EF93FF9321
S11307309091630380916203981306C08091C10075
S11307408F7D8093C10011C0E0916203F0E0E25517
S1130750FD4F80818093C600809162038F5F8093F8
S11307606203843B10F010926203FF91EF919F911A
S11307708F910F900FBE0F901F901895F8942091B1
S1130780630330E0809162037894482F50E024178B
S1130790350710F42C543F4F8D54821B08951F933A
S11307A0CF93DF93D82F192FC62F0E94BE038C1727
S11307B0E0F3809163032D2FED2FF12F9E2F921BD9
S11307C09C1758F49191A82FB0E0A255BD4F9C936B
S11307D08F5F843B98F380E0F1CFF89480936303B8
S11307E08091C10085FD16C0E0916203F0E0E255FE
S11307F0FD4F80818093C600809162038F5F809358
S11308006203843B10F0109262038091C100806205
S11308108093C100789484E0DF91CF911F91089573
S1130820CF93DF93FC0101900020E9F73197EF01AA
S1130830C81BD90B6C2F0E94CF03843011F48C2F6A
S113084001C080E0DF91CF910895CF93C82F10921B
S1130850C1000E947B03EC2FF0E0EE0FFF1FE0507D
S1130860FF4F81818F9380818F9388E091E09F93E4
S11308708F9380EA93E09F938F930E94A40C0F9030
S11308800F900F900F900F900F9080EA93E0CF910C
S11308900C941004209163039091620381E0291366
S11308A080E008951F920F920FB60F9211242F9398
S11308B03F934F935F936F937F938F939F93AF93E4
S11308C0BF93EF93FF939091C0008091C600E09195
S11308D06503F0E0EC55FD4F8083809165038F5FE5
S11308E0809365038A3010F010926503892F8C7110
S11308F059F094FF02C080E005C093FF02C081E07C
S113090001C082E00E942504FF91EF91BF91AF9155
S11309109F918F917F916F915F914F913F912F9113
S11309200F900FBE0F901F90189530916503209182
S113093064033217A9F0F894E0916403F0E0EC55F5
S1130940FD4F2081FC012083809164038F5F80939D
S113095064038A3010F010926403789484E008955C
S113096080E00895CF93DF931F92CDB7DEB78FEF6A
S11309709FEF2091BC002983298127FD02C00197A4
S1130980C1F70F90DF91CF9108958CE08093B80068
S1130990ECEBF0E08081846080830895FF920F93F4
S11309A01F93CF93DF93C82F162FF42E052F84EABD
S11309B08093BC000E94B204CC0FC093BB0084E8B7
S11309C08093BC000E94B204CF2DD02FCE01810FA2
S11309D0911D8C0184E8F82EC017D10741F089914C
S11309E08093BB00F092BC000E94B204F5CF8091CA
S11309F0B90094E99093BC00DF91CF911F910F91BE
S1130A00FF900895AF92BF92CF92DF92EF92FF9240
S1130A100F931F93CF93DF93C82F062FF42E152F18
S1130A2084EA8093BC000E94B204CC0FC160C093DE
S1130A30BB0084E88093BC000E94B204CF2DD12F68
S1130A4010E0E12CF12C680181E0C81AD10884EC93
S1130A50B82E94E8A92EE016F10691F0CE14DF0426
S1130A6019F4A092BC0002C0B092BC000E94B2046F
S1130A708091BB0088838FEFE81AF80A2196EBCFA8
S1130A8084E98093BC00DF91CF911F910F91FF9077
S1130A90EF90DF90CF90BF90AF900895813011F424
S1130AA0289A089528980895529A5A985A9A5A98C2
S1130AB05A9A5A985A9A5A98209A80E090E00C943C
S1130AC04E050E9454050E947B030E94330C0E9431
S1130AD0CF0B0E94000CFDCF8FE896E00E94260CFD
S1130AE00E94100483E394E00E94260C0E941004E8
S1130AF081E094E090939603809395038AED97E0C8
S1130B0090939803809397038DE296E090939A03D1
S1130B10809399038BE693E09F938F938FE693E002
S1130B209F938F9384E793E09F938F9386E891E05C
S1130B309F938F9380EA93E09F938F930E94A40CDA
S1130B408DB79EB70A960FB6F8949EBF0FBE8DBFA1
S1130B5080EA93E00C9410040F931F93CF93DF93D8
S1130B60182F042FE9016F3F710511F008F01F5F82
S1130B706883AE0161E0812F0E94CE048832C9F7F8
S1130B802196AE01602F812F0E940205CE01DF91D4
S1130B90CF911F910F910895CF938FE896E00E9413
S1130BA0260C0E94100487E693E09F938F9384E7BA
S1130BB093E09F938F938AEA91E09F938F9380EAC7
S1130BC093E09F938F930E94A40C80EA93E00E9489
S1130BD0100481E00E944E058DB79EB708960FB6AB
S1130BE0F8949EBF0FBE8DBFCAE08DE896E00E94C8
S1130BF0260C0E94100488EC90E00E943E0C0E9497
S1130C005B0C8823E1F3C15081F780E00E944E051C
S1130C108FE896E00E94260C0E94100485E992E079
S1130C200E94260C0E94100410927F0383E080939C
S1130C307E0387EA93E0909396038093950382E57D
S1130C4097E090939803809397038DE296E09093B6
S1130C509A0380939903CF910895CF93DF93809162
S1130C60950390919603009771F10E941A0CEC0180
S1130C70833B910510F0C2EBD0E00E94BE0390E0EC
S1130C808C179D07D0F3BE01809195039091960334
S1130C900E94080C20919503309196032C0F3D1F60
S1130CA030939603209395036C2F0E94CF03E09119
S1130CB09503F0919603E491E1110DC0109296030F
S1130CC01092950308C08091970390919803909394
S1130CD09A0380939903DF91CF9108950F931F9303
S1130CE0CF93C82F8A016F3F710511F008F0CF5FD1
S1130CF0F8016083A80161E08C2F0E94CE04883241
S1130D00C9F7A80162E08C2FCF911F910F910C9429
S1130D10CE047F928F929F92AF92BF92CF92DF9236
S1130D20EF92FF920F931F93CF93DF9300D01F9204
S1130D30CDB7DEB7782E8A8300E010E0E12CF12CE9
S1130D4094ECC92E91E0D92E20EAA22E23E0B22EF3
S1130D504801892C992486940E944A048823E1F34B
S1130D60C40101969F938F938A811F928F93DF9280
S1130D70CF92BF92AF920E94A40C80EA93E00E94AB
S1130D801004AE014F5F5F4FB701809166030E946C
S1130D906E069E012F5F3F4F41E050E0B701809106
S1130DA066030E94AC050FB6F894DEBF0FBECDBF3C
S1130DB08A817816E1F00E944A048823E1F38A814B
S1130DC01F928F9383EF91E09F938F9380EA93E038
S1130DD09F938F930E94A40C80EA93E00E941004D6
S1130DE00F900F900F900F900F900F900AC09FEFED
S1130DF0E91AF90A0C591F4F011588EC180709F074
S1130E00A7CF0E944A048823E1F30F900F900F901C
S1130E10DF91CF911F910F91FF90EF90DF90CF90D2
S1130E20BF90AF909F908F907F900895CF93DF9362
S1130E301F92CDB7DEB7CE0101960E949504882398
S1130E4081F089818D3039F480EA96E00E94260C85
S1130E500E94100405C061E0CE0101960E94CF03F8
S1130E6089810F90DF91CF9108950E9416078823FE
S1130E70C1F0883511F0883711F40C946C058AEEB2
S1130E8092E090939603809395038CEC95E0909375
S1130E909803809397038DE296E090939A0380934E
S1130EA0990308950E941607882309F482C0E091EB
S1130EB07F038D3069F018F48A3051F051C08835C1
S1130EC019F0883709F04CC0E11173C00C946C051B
S1130ED080917E03E81718F489EE91E04FC0F0E0AA
S1130EE0E058FC4F108260E873E087E693E00E94CC
S1130EF09D0C8FE896E00E94260C0E94100487E661
S1130F0093E09F938F9384E793E09F938F9384E080
S1130F1092E09F938F9380EA93E09F938F930E9434
S1130F20A40C80EA93E00E9410048EE193E0909375
S1130F3096038093950385E397E0909398038093B9
S1130F4097038DE296E090939A03809399038DB76B
S1130F509EB708960FB6F8949EBF0FBE8DBF089536
S1130F60AE2FB0E0A058BC4F8C93EF5FE0937F03AB
S1130F7080917E038E17E8F485E692E00E94260CA9
S1130F800E94100410927F0383E080937E038EEC12
S1130F9093E0909396038093950382E597E0909372
S1130FA09803809397038DE296E090939A0380933D
S1130FB0990308950E941607882351F1883511F08A
S1130FC0883779F48FE896E00E94260C0E9410047A
S1130FD084E795E0909396038093950381E89BE0E2
S1130FE00DC010927F0383E080937E038EEC93E028
S1130FF0909396038093950382E597E090939803EA
S1131000809397038DE296E090939A0380939903DB
S113101008950E941607882309F468C0E0917F03AD
S11310208D3011F118F48A30F9F037C0883511F099
S1131030883799F5E11112C084E795E090939603FF
S11310408093950381E89BE09093980380939703A2
S11310508DE296E090939A03809399038FE896E04B
S11310600E94260C0C94100480917E03E81718F457
S113107089EE91E020C0F0E0E058FC4F108260E877
S113108073E08BE693E00E949D0C8FE896E00E944B
S1131090260C0E9410040C946C05AE2FB0E0A058EE
S11310A0BC4F8C93EF5FE0937F0380917E038E1798
S11310B0E8F485E692E00E94260C0E941004109247
S11310C07F0383E080937E0382E694E0909396030B
S11310D08093950389E098E0909398038093970315
S11310E08DE296E090939A038093990308950E9469
S11310F01607882309F46EC0E0917F038D3011F147
S113110018F48A30F9F03DC0883511F08837C9F5F4
S1131110E11112C084E795E09093960380939503C0
S113112081E89BE090939803809397038DE296E087
S113113090939A03809399038FE896E00E94260C7B
S11311400C94100480917E03E81718F487E292E06F
S113115026C0F0E0E058FC4F108260E873E08FE6B0
S113116093E00E949D0C10927F0383E080937E03A2
S113117082E694E0909396038093950389E098E047
S11311801FC0AE2FB0E0A058BC4F8C93EF5FE0932C
S11311907F0380917E038E17E8F485E692E00E9437
S11311A0260C0E94100410927F0384E080937E0337
S11311B081EC94E0909396038093950387E798E0FD
S11311C090939803809397038DE296E090939A030B
S11311D08093990308950E941607882309F467C031
S11311E0E0917F038D3011F118F48A30F9F036C0A4
S11311F0883511F0883791F5E11112C084E795E044
S1131200909396038093950381E89BE090939803D1
S1131210809397038DE296E090939A0380939903C9
S11312208FE896E00E94260C0C941004F0E0E0583D
S1131230FC4F108260E873E084E793E00E949D0C09
S113124010927F0384E080937E0381EC94E090937A
S113125096038093950387E798E01FC0AE2FB0E014
S1131260A058BC4F8C93EF5FE0937F0380917E0383
S11312708E17E8F485E692E00E94260C0E94100482
S113128010927F038AE080937E0387E195E0909338
S11312909603809395038BEE98E090939803809344
S11312A097038DE296E090939A03809399030895AF
S11312B04F925F926F927F928F929F92AF92BF9262
S11312C0CF92DF92EF92FF920F931F93CF93DF930E
S11312D0CDB7DEB76B970FB6F894DEBF0FBECDBFA8
S11312E00E941607882309F464C1883509F433C1C0
S11312F070F4823509F42BC118F48834C9F041C163
S1131300833509F422C1873509F478C03AC183379B
S113131009F41BC130F4883659F0823709F417C137
S113132030C1873709F46AC0883709F414C129C168
S113133085E392E00E941004198200E010E094E436
S1131340492E92E0592E20EA622E23E0722E4E019D
S113135082E1880E911C32E5A32E32E0B32E1F9356
S11313600F935F924F927F926F920E94A40C80EA37
S113137093E00E9410049E012F5F3F4F40E150E034
S1131380B801809166030E94AC056E0192E0C90E1B
S1131390D11C80EAE82E83E0F82E0F900F900F9076
S11313A00F900F900F90F60181916F011F928F9310
S11313B0BF92AF92FF92EF920E94A40CF3E0EF0E63
S11313C0F11C0F900F900F900F900F900F90C81476
S11313D0D90449F70E944A048823E1F380EA93E0A0
S11313E00E94100482E392E00E941004005F1F4FE9
S11313F0011582E0180709F0B2CFC9C080E48983DF
S11314008AE58A83AE014F5F5F4F60E470E08091AC
S113141066030E946E060E944A048823E1F31F9229
S113142080E48F938A811F928F9388E592E09F9343
S11314308F9380EA93E09F938F930E94A40C80EA99
S113144093E00E9410049E012F5F3F4F41E050E063
S113145060E470E0809166030E94AC050FB6F894D6
S1131460DEBF0FBECDBF0E944A048823E1F31F9262
S113147080E48F938A811F928F938EE792E09F93EB
S11314808F9380EA93E09F938F930E94A40C80EA49
S113149093E00E9410048FE0898385EA8A83AE0179
S11314A04F5F5F4F6FE071E0809166030E946E06AC
S11314B00FB6F894DEBF0FBECDBF0E944A04882346
S11314C0E1F381E08F938FE08F938A811F928F9352
S11314D088E592E09F938F9380EA93E09F938F93A4
S11314E00E94A40C80EA93E00E9410049E012F5FE6
S11314F03F4F41E050E06FE071E0809166030E944D
S1131500AC050FB6F894DEBF0FBECDBF0E944A04EF
S11315108823E1F381E08F938FE08F938A811F9278
S11315208F938EE792E09F938F9380EA93E09F934B
S11315308F930E94A40C80EA93E00E9410040FB6DB
S1131540F894DEBF0FBECDBF22C08FEF01C080E094
S11315500E9489061CC08EE991E0909396038093C3
S1131560950382E49BE090939803809397038DE224
S113157096E090939A038093990380E00E944E052D
S113158018C080ED95E00E94260C0E9410048BEF99
S113159090E0909396038093950388E599E0909367
S11315A09803809397038DE296E090939A03809337
S11315B099036B960FB6F894DEBF0FBECDBFDF91D3
S11315C0CF911F910F91FF90EF90DF90CF90BF903C
S11315D0AF909F908F907F906F905F904F90089501
S11315E00E941607882309F44CC0833389F030F431
S11315F0813361F0823369F582E50BC08835A1F04F
S1131600883791F0843329F586E503C080E501C06D
S113161084E5809366038BEF90E090939603809328
S1131620950388E599E023C08EE991E090939603B1
S11316308093950382E49BE09093980380939703AF
S11316408DE296E090939A038093990380E00C9442
S11316504E0580ED95E00E94260C0E94100488E659
S113166090E0909396038093950380EF9AE0909393
S11316709803809397038DE296E090939A03809366
S1131680990308950E9416078823D1F18835B9F08B
S113169018F4853431F01CC0853619F0883779F098
S11316A017C081E00E944E050E94C50488E690E0C0
S11316B0909396038093950380EF9AE017C084E794
S11316C095E0909396038093950381E89BE00EC088
S11316D080ED95E00E94260C0E9410048EE991E0B2
S11316E0909396038093950382E49BE090939803F0
S11316F0809397038DE296E090939A0380939903E5
S113170008950E941607882309F448C0843541F0DF
S113171018F4843499F02AC0843681F0843731F582
S113172010927F038AE080937E0387E195E0909393
S11317309603809395038BEE98E008C08EE991E0C0
S1131740909396038093950382E49BE0909398038F
S1131750809397038DE296E090939A038093990384
S11317608FE896E00E94260C0C94100480ED95E01E
S11317700E94260C0E94100484E795E0909396033F
S11317808093950381E89BE090939803809397035B
S11317908DE296E090939A0380939903089582E5ED
S11317A096E00E94260C0E9410048BEE95E00E94A5
S11317B0260C0E9410040E949A0C0E94260C0E947F
S11317C0100480EA96E00E94260C0E94100480EA2D
S11317D096E00E94260C0E94100484E795E0909302
S11317E096038093950381E89BE0909398038093FC
S11317F097038DE296E090939A038093990308955A
S1131800E0919903F0919A03309709F009940895AF
S1131810A2EDB3E020E030E02617370741F0FC01E9
S1131820E20FF31FE491ED932F5F3F4FF5CF82ED6D
S113183093E008959C0180E090E0F901E80FF91F1E
S1131840E491EE2311F00196F8CF0895CF93DF933E
S1131850EC010E941A0CBC016F5F7F4FCE01DF9137
S1131860CF910C94080C10929F0310929E03109237
S11318709D0310929C0310929B03089590939F03E1
S113188080939E0310929D0310929C0310928500F6
S1131890109284008AEF90E09093890080938800EE
S11318A0EFE6F0E0808182608083E1E8F0E080810F
S11318B083608083089580919B03882319F010929C
S11318C09B0381E008951F920F920FB60F9211248B
S11318D02F933F938F939F9380919C0390919D03AB
S11318E0019690939D0380939C0320919E033091D5
S11318F09F038217930759F41092810080916F001F
S11319008D7F80936F0081E080939B030AC0809158
S113191088009091890086509F4F9093890080930E
S113192088009F918F913F912F910F900FBE0F9040
S11319301F90189583EA96E00895FB01DC0101905D
S11319400D920020E1F70895AEE0B0E0EAEAFCE091
S11319500C94650F0D891E8986E08C831A83098394
S11319608FEF9FE79E838D83AE01475E5F4F6F8944
S1131970788DCE0101960E94C60CEF81F885E00FA8
S1131980F11F10822E96E4E00C94810FABE0B0E0DE
S1131990ECECFCE00C94570F6C017B018A01FC0118
S11319A017821682838181FFCCC1CE0101963C014E
S11319B0F6019381F70193FD859193FF81917F0156
S11319C0882309F4BAC1853239F493FD859193FFD4
S11319D081917F01853229F4B60190E00E94BD0E09
S11319E0E7CF912C212C312CFFE1F315D8F08B3269
S11319F079F038F4803279F08332A1F4232D206118
S1131A001DC08D3261F0803369F4232D216016C02E
S1131A10832D8260382EE32DE4603E2E2AC0F32D00
S1131A20F8601DC037FC2DC020ED280F2A3040F08F
S1131A308E32B9F436FC81C1232D2064322E19C0B4
S1131A4036FE06C08AE0989E200D1124922E11C005
S1131A50EAE02E9E200D1124222EF32DF0623F2E5B
S1131A6008C08C3621F4832D8068382E02C0883655
S1131A7041F4F70193FD859193FF81917F018111D9
S1131A80B3CF982F9F7D9554933028F40C5F1F4F4C
S1131A909FE399830DC0833631F0833771F083352A
S1131AA009F059C021C0F801808189830E5F1F4F5E
S1131AB088248394912C530113C02801F2E04F0E23
S1131AC0511CF801A080B18036FE03C0692D70E07E
S1131AD002C06FEF7FEFC5010E94B20E4C0182017C
S1131AE0F32DFF773F2E16C0280122E0420E511C31
S1131AF0F801A080B18036FE03C0692D70E002C0F9
S1131B006FEF7FEFC5010E94A70E4C01F32DF06823
S1131B103F2E820133FC1BC0822D90E0881699066B
S1131B20B0F4B60180E290E00E94BD0E2A94F4CF96
S1131B30F50137FC859137FE81915F01B60190E094
S1131B400E94BD0E21102A9421E0821A910881146A
S1131B50910471F7E8C0843611F0893641F5F80133
S1131B6037FE07C060817181828193810C5F1F4FB2
S1131B7008C060817181072E000C880B990B0E5FE1
S1131B801F4FF32DFF763F2E97FF09C09095809548
S1131B90709561957F4F8F4F9F4FF0683F2E2AE0DD
S1131BA030E0A3010E94F90E882E861845C08537BF
S1131BB031F4232D2F7EB22E2AE030E025C0932D60
S1131BC0997FB92E8F36C1F018F4883579F0B5C0F5
S1131BD0803719F0883721F0B0C0E92FE061BE2EBC
S1131BE0B4FE0DC0FB2DF460BF2E09C034FE0AC044
S1131BF0292F2660B22E06C028E030E005C020E17F
S1131C0030E002C020E132E0F801B7FE07C0608195
S1131C107181828193810C5F1F4F06C06081718145
S1131C2080E090E00E5F1F4FA3010E94F90E882E02
S1131C308618FB2DFF773F2E36FE0DC0232D2E7FF9
S1131C40A22E891458F434FE0BC032FC09C0832D33
S1131C508E7EA82E05C0B82CA32C03C0B82C01C0BE
S1131C60B92CA4FE0FC0FE01E80DF11D8081803364
S1131C7021F49A2D997EA92E09C0A2FE06C0B39420
S1131C80B39404C08A2D867809F0B394A3FC11C0E0
S1131C90A0FE06C0B21488F4280C922C9B180EC027
S1131CA0B21460F4B60180E290E00E94BD0EB394D9
S1131CB0F7CFB21418F42B1802C0982C212CA4FED0
S1131CC010C0B60180E390E00E94BD0EA2FE17C0D2
S1131CD0A1FC03C088E790E002C088E590E0B6016B
S1131CE00CC08A2D867859F0A1FE02C08BE201C097
S1131CF080E2A7FC8DE2B60190E00E94BD0E89143B
S1131D0038F4B60180E390E00E94BD0E9A94F7CFB8
S1131D108A94F301E80DF11D8081B60190E00E94E0
S1131D20BD0E8110F5CF222009F442CEB60180E227
S1131D3090E00E94BD0E2A94F6CFF6018681978129
S1131D4002C08FEF9FEF2B96E2E10C94730FFC011E
S1131D500590615070400110D8F7809590958E0FD2
S1131D609F1F0895FC016150704001900110D8F745
S1131D70809590958E0F9F1F08950F931F93CF9377
S1131D80DF93FB01238121FD03C08FEF9FEF2CC064
S1131D9022FF16C04681578124813581421753079B
S1131DA044F4A081B1819D012F5F3F4F3183208393
S1131DB08C93268137812F5F3F4F3783268314C04E
S1131DC08B01EC01FB010084F185E02D0995892B41
S1131DD0E1F6D80116968D919C9117970196179666
S1131DE09C938E931697CE01DF91CF911F910F9103
S1131DF00895FA01AA27283051F1203181F1E8949D
S1131E006F936E7F6E5F7F4F8F4F9F4FAF4FB1E0E9
S1131E103ED0B4E03CD0670F781F891F9A1FA11DE4
S1131E20680F791F8A1F911DA11D6A0F711D811DE5
S1131E30911DA11D20D009F468943F912AE0269FAA
S1131E4011243019305D3193DEF6CF010895462F09
S1131E504770405D4193B3E00FD0C9F7F6CF462FEA
S1131E604F70405D4A3318F0495D31FD4052419353
S1131E7002D0A9F7EACFB4E0A69597958795779510
S1131E806795BA95C9F700976105710508959B0197
S1131E90AC010A2E06945795479537952795BA9520
S1131EA0C9F7620F731F841F951FA01D08952F92F9
S1131EB03F924F925F926F927F928F929F92AF92D6
S1131EC0BF92CF92DF92EF92FF920F931F93CF9323
S1131ED0DF93CDB7DEB7CA1BDB0B0FB6F894DEBFBA
S1131EE00FBECDBF09942A88398848885F846E84E0
S1131EF07D848C849B84AA84B984C884DF80EE802A
S1131F00FD800C811B81AA81B981CE0FD11D0FB632
S1131F10F894DEBF0FBECDBFED010895F894FFCF56
S1131F201E013501510167010A0A0D5359535445E5
S1131F304D204552524F520A0D25730A0D000A0DC9
S1131F4053657269616C204672616D696E672045E4
S1131F5072726F72000A0D53657269616C2044617C
S1131F607461204F76657272756E204572726F725D
S1131F70000A0D53657269616C205061726974794D
S1131F80204572726F72000A0D53657269616C208C
S1131F90545820627566206F766572666C6F772080
S1131FA04572726F7200574F204E6F2020203D20E3
S1131FB025730A0D41737379204E6F203D202573DC
S1131FC02D30312D25730A0A0D0050726F6772612E
S1131FD06D6D696E6720426F6172642025732D25D3
S1131FE0730A0D000D526573657474696E67204140
S1131FF06C6C206F6620454550524F4D20746F2005
S113200025303278202D2025303364252520646F37
S11320106E65000A0D457261736520455252202594
S1132020780A0D000A0A426F6172642049443A201A
S113203025732D25732069732073656C656374653E
S11320406420666F722070726F6772616D6D696E65
S1132050670A0A0D000A0A0D4845582044554D5098
S11320600A0D0A0041646472203D20253034783A18
S113207020002530327820000A0D44617461202547
S1132080303278207772697474656E20746F2061C1
S113209064647265737320253034780A0D000A0D68
S11320A04461746120253032782072656164206651
S11320B0726F6D20616464726573732025303478A7
S10720C00A0D000001
S9030000FC
