:100000000C94F2050C940F060C940F060C940F063A
:100010000C940F060C940F060C940F060C940F060C
:100020000C940F060C940F060C940F060C942115DB
:100030000C940F060C940F060C940F060C940F06EC
:100040000C940F060C940F060C94E8060C942506ED
:100050000C940F060C940F060C940F060C940F06CC
:100060000C940F060C940F060A0A0A0A0D506F72C0
:100070007420457870616E646572204465627567AE
:100080000A0D3D3D3D3D3D3D3D3D3D3D3D3D3D3D03
:100090003D3D3D3D3D0A0D50726573732027582745
:1000A00020746F20457869740A0A0D47534E332037
:1000B00047534E322047534E312047534E300A0D9E
:1000C000000A0A0A0A0D4445425547204D454E553F
:1000D0000A0D3D3D3D3D3D3D3D3D3D3D3D3D3D0AE6
:1000E0000D0A0D53656C65637420454550524F4DA4
:1000F00020416464726573733A0A0D31202D2030FB
:100100007835303A204E657420436F6E6E656374A7
:100110006F722F4E657420416461707465720A0DB0
:1001200032202D20307835323A2041444320426F2E
:1001300074746F6D2042640A0D33202D20307835A1
:10014000343A204E657420457874656E73696F6E1D
:100150000A0D34202D20307835363A204144432092
:10016000546F702042640A0D35202D2030783431D0
:100170003A20506F727420457870616E6465722009
:10018000284857303030313132204F6E6C79290A8F
:100190000D0A0D5072657373205820746F206578B6
:1001A00069740A0A0D000A0A0A0A0D454550524FA1
:1001B0004D2044656275670A0D3D3D3D3D3D3D3D29
:1001C0003D3D3D3D0A0A0D44202D20446973706C6D
:1001D00061792053746F7265642044657461696C41
:1001E000730A0D48202D204865782044756D700AEB
:1001F0000D57202D2057726974650A0D52202D204D
:10020000526573657420454550524F4D20746F20E0
:1002100030300A0D53202D2053657420454550522F
:100220004F4D20746F2046460A0D43202D2044690F
:1002300073706C617920436865636B73756D730AC5
:100240000D50202D2050726F6772616D20426F61DA
:1002500072642044657461696C730A0D58202D2006
:1002600052657475726E20746F20446562756720E4
:100270004D656E750A0A0D000A0A0D202A2A2A20E9
:10028000506C656173652052652D456E74657220F2
:100290007573696E67206E756D657269632063683A
:1002A0006172616374657273206F6E6C79202827A8
:1002B00030272D27392729202A2A2A0A0D000A0A41
:1002C0000D202A2A2A20506C656173652052652D05
:1002D000456E746572207573696E6720416C706835
:1002E000612D6E756D65726963206368617261630B
:1002F00074657273206F6E6C7920282741272D2733
:100300005A272C202730272D27392729202A2A2A27
:100310000A0D000A0A0D202A2A2A20454550524F6C
:100320004D2052454144204552524F52202A2A2AFC
:100330000A0A0D000A0D4461746120726574656ECD
:1003400074696F6E20436865636B204641494C4574
:100350004421210A0D000A0D446174612072657404
:10036000656E74696F6E204F4B0A0A0D000A0D43CB
:100370006865636B696E672064617461207265747F
:10038000656E74696F6E0A0D506F776572696E677E
:10039000204F464620666F722033207365636F6E70
:1003A00064730A0A0D00504342204173737920534D
:1003B0002F4E203D2000504342204173737920503E
:1003C0002F4E203D200050726F6475637420532FB0
:1003D0004E20203D200050726F6475637420502FB2
:1003E0004E20203D2000556E646566696E65640090
:1003F0000A0A0D2A2A2A205741524E494E47202ADE
:100400002A2A0A0D43616C63756C6174656420610E
:100410006E642053746F72656420436865636B7308
:10042000756D204D617463680A0A0D4375727265BB
:100430006E7420436F6E74656E74730A0D2D2D2DCE
:100440002D2D2D2D2D2D2D2D2D2D2D2D2D0A0D004C
:100450000A0A0D436865636B73756D206D69736D72
:10046000617463680A0D53657474696E67207570F2
:1004700020454550524F4D0A0D000A0A0D4368654C
:10048000636B2048656164657220697320666974D6
:1004900074656420636F72726563746C790A0D50C1
:1004A000726573732027782720746F20454E54455A
:1004B00052206B657920746F2072657472790A0D11
:1004C000000A0A0D4E6F7420456E6F7567682063D1
:1004D00068617261637465727320666F7220576F12
:1004E000726B73204F72646572202D20312052652B
:1004F0007175697265640A0D506C6561736520726F
:10050000657472790A0D000A0A0D4E6F7420456EEB
:100510006F756768206368617261637465727320C8
:10052000656E7465726564202D2033205265717587
:10053000697265640A0D506C65617365207265743B
:1005400072790A0D000A0A0D4E6F7420456E6F75A0
:100550006768206368617261637465727320656E99
:100560007465726564202D2034205265717569723E
:1005700065640A0D506C65617365207265747279EB
:100580000A0D000A0D5355434345535346554C4CF1
:100590005920436865636B656420616E6420507206
:1005A0006F6772616D6D656420454550524F4D21F6
:1005B000210A0A0D52656D6F766520426F61726483
:1005C00020616E64206170706C79205445535445ED
:1005D00044204D41524B0A0A0D000A0A0A0D41758A
:1005E000746F6D61746963616C6C792063686563B5
:1005F0006B696E6720616E642050726F6772616D07
:100600006D696E6720454550524F4D0A0D000A0A2C
:100610000A0D436F6E6E6563742074686520626FA7
:1006200061726420556E6465722054657374207421
:100630006F20746865204A69670A0D454E5355520C
:100640004520464C59494E47204C4541442049538A
:1006500020434F4E4E454354454420746F204A5525
:100660004D5045520A0A0D50726573732027582762
:1006700020746F2065786974206F7220454E544550
:1006800052206B657920746F2070726F63656564AA
:100690000A0D000A0A0A0D456E74657220746865B9
:1006A000204E65787420626F6172642773205365F1
:1006B0007269616C204E6F0A0D000A0A0A0D456EC0
:1006C0007465722074686520626F6172642773209C
:1006D00053657269616C204E6F2E0A0D28332043DA
:1006E00068617261637465727329206F7220275884
:1006F0002720746F20657869740A0D005072657345
:10070000732027582720746F2065786974206F72D2
:1007100020454E544552206B657920746F207072CD
:100720006F636565640A0A0A0D000A0A0A0D4368C8
:1007300065636B2074686520666F6C6C6F77696E9B
:10074000672064657461696C732061726520636FF2
:1007500072726563740A0A0D000A0A0A0D456E7406
:1007600065722074686520626F617264277320412E
:100770007373656D626C79205265766973696F6E0B
:10078000204E6F206F662074686520626174636814
:10079000206F6620626F6172647320556E646572AB
:1007A00020546573740A0D283320436861726163B5
:1007B00074657273290A0D000A0A0A0D456E746584
:1007C000722074686520626F6172642773204173C0
:1007D00073656D626C79204E6F206F66207468655A
:1007E000206261746368206F6620626F6172647357
:1007F00020556E64657220546573740A0D28342088
:1008000043686172616374657273290A0D000A0A94
:100810000A0D456E7465722074686520576F726B9F
:1008200073204F72646572204E6F2028574F292025
:100830006F6620746865206261746368206F66204B
:10084000626F6172647320556E64657220546573C3
:10085000740A0D284D4158203D20313020436861F5
:1008600072616374657273290A0D000A0A0A0D36F3
:100870003736382D3031204E6574204164617074F4
:100880006572205043422073656C65637465640A29
:100890000D000A0A0A0D363531392D3031204E65EA
:1008A0007420436F6E6E6563746F722050434220F4
:1008B00073656C65637465640A0D000A0A0D5365FF
:1008C0006C65637420426F61726420556E6465725A
:1008D00020546573742028425554290A0D3D3D3D2E
:1008E0003D3D3D3D3D3D3D3D3D3D3D3D3D3D3D3D38
:1008F0003D3D3D3D3D3D3D3D3D3D0A0D31202D20E1
:10090000363531392D3031202D204E657420436F1E
:100910006E6E6563746F72205043420A0D32202D53
:1009200020363736382D3031202D204E6574204149
:10093000646170746572205043420A0D58202D2066
:100940004578697420746F205374617274204D650A
:100950006E750A0D3C454E5445523E2D20546F2075
:10096000726566726573682073637265656E0A0AE4
:100970000D000A0A0D5374617274204D454E550ADC
:100980000D3D3D3D3D3D3D3D3D3D3D3D3D0A0D5413
:10099000202D20426F6172642074657374730A0D98
:1009A00044202D204465627567204D656E750A0DE3
:1009B0003C454E5445523E2D20546F207265667260
:1009C0006573682073637265656E0A0A0D000A0A12
:1009D0000D456E7465722046696E616C20417373BB
:1009E000656D626C79204E756D6265720A0D2850D6
:1009F000726F6475637420436F6465202D2034200A
:100A00004E756D65726963206368617261637465B8
:100A100072730A0D3C454E5445523E2D20546F20B2
:100A2000726566726573682073637265656E0A0A23
:100A30000D000A0D454550524F4D20436F6E7465B1
:100A40006E74730A0D3D3D3D3D3D3D3D3D3D3D3D9B
:100A50003D3D3D3D0A0A0D004E65742041646170C4
:100A600074657220504342004E657420436F6E6E71
:100A70006563746F72205043420020436F6D6D6157
:100A80006E64206E6F7420696D706C656D656E7438
:100A900065640A0D000A0A426F617264205465732E
:100AA00074204669726D776172650A0D2A2A2A2AB6
:100AB0002A2A2A2A2A2A2A2A2A2A2A2A2A2A2A2A96
:100AC0002A2A0A0A0D000A0A0D2A2A2A20494E5605
:100AD000414C49442054455354204A4947204944F5
:100AE000204445544543544544202A2A2A0A0D00EF
:100AF0000A0A46696E616C205465737420466972F7
:100B00006D776172650A0D2A2A2A2A2A2A2A2A2A38
:100B10002A2A2A2A2A2A2A2A2A2A0A0A0D000A0AFC
:100B20000D454547204E657420436F6E6E656374B6
:100B30006F72202D2049324320546573742046691A
:100B4000726D776172650A0D3D3D3D3D3D3D3D3D18
:100B50003D3D3D3D3D3D3D3D3D3D3D3D3D3D3D3DC5
:100B60003D3D3D3D3D3D3D3D3D3D3D3D3D0A0D460F
:100B700069726D776172652049443A20000A0A0A59
:100B80000A0A0A0A0A0A0A0A0D28632920436F7012
:100B900079726967687420546865204D6167737461
:100BA000696D20436F6D70616E79204C74642E20E6
:100BB000323032350A0A0D000A0A0A0A0A0A0A0AFB
:100BC0000A0A0A0A0A0A0A0D000A0D00544A3030BD
:100BD000303030365F5357202D205665722050310B
:100BE0002E33000011241FBECFEFD8E0DEBFCDBFF3
:100BF00013E0A0E0B1E0E4ECF0E302C005900D9258
:100C0000A039B107D9F725E0A0E9B3E001C01D92F2
:100C1000AB38B207E1F70E94FB070C9460180C9404
:100C20000000109251041092500410924F04109240
:100C30004E041092C50087E68093C40086E080933E
:100C4000C20088E98093C10008951F920F920FB6E9
:100C50000F9211248F939F93EF93FF9390914F04E2
:100C600080914E04981306C08091C1008F7D8093BF
:100C7000C10011C0E0914E04F0E0E656FC4F8081C7
:100C80008093C60080914E048F5F80934E04843B16
:100C900010F010924E04FF91EF919F918F910F9061
:100CA0000FBE0F901F901895F89420914F0430E0DC
:100CB00080914E047894482F50E02417350710F4A3
:100CC0002C543F4F8D54821B08951F93CF93DF9375
:100CD000D82F192FC62F0E9454068C17E0F380914D
:100CE0004F042D2FED2FF12F9E2F921B9C1758F4A0
:100CF0009191A82FB0E0A656BC4F9C938F5F843B88
:100D000098F380E0F1CFF89480934F048091C10074
:100D100085FD16C0E0914E04F0E0E656FC4F808160
:100D20008093C60080914E048F5F80934E04843B75
:100D300010F010924E048091C10080628093C10037
:100D4000789484E0DF91CF911F910895CF93DF9342
:100D5000FC0101900020E9F73197EF01C81BD90B86
:100D60006C2F0E946506843011F48C2F01C080E046
:100D7000DF91CF910895CF93C82F1092C1000E94A8
:100D80001106EC2FF0E0EE0FFF1FE050FF4F8181C6
:100D90008F9380818F9388E091E09F938F9384EA73
:100DA00094E09F938F930E9476150F900F900F9071
:100DB0000F900F900F9084EA94E0CF910C94A606C8
:100DC00020914F0490914E0481E0291380E0089512
:100DD0001F920F920FB60F9211242F933F934F93B0
:100DE0005F936F937F938F939F93AF93BF93EF9393
:100DF000FF939091C0008091C600E0915104F0E013
:100E0000E057FC4F8083809151048F5F80935104A1
:100E10008A3010F010925104892F8C7159F094FF90
:100E200002C080E005C093FF02C081E001C082E003
:100E30000E94BB06FF91EF91BF91AF919F918F915F
:100E40007F916F915F914F913F912F910F900FBEC6
:100E50000F901F9018953091510420915004321733
:100E6000A9F0F894E0915004F0E0E057FC4F2081A5
:100E7000FC012083809150048F5F809350048A305E
:100E800010F010925004789484E0089580E0089562
:100E9000CF93DF931F92CDB7DEB78FEF9FEF2091F7
:100EA000BC002983298127FD02C00197C1F70F905B
:100EB000DF91CF9108958CE08093B800ECEBF0E0E7
:100EC0008081846080830895FF920F931F93CF9356
:100ED000DF93C82F162FF42E052F84EA8093BC00D1
:100EE0000E944807CC0FC093BB0084E88093BC00ED
:100EF0000E944807CF2DD02FCE01810F911D8C016C
:100F000084E8F82EC017D10741F089918093BB0087
:100F1000F092BC000E944807F5CF8091B90094E997
:100F20009093BC00DF91CF911F910F91FF90089596
:100F3000AF92BF92CF92DF92EF92FF920F931F93E7
:100F4000CF93DF93C82F062FF42E152F84EA8093BA
:100F5000BC000E944807CC0FC160C093BB0084E86E
:100F60008093BC000E944807CF2DD12F10E0E12CC8
:100F7000F12C680181E0C81AD10884ECB82E94E8FD
:100F8000A92EE016F10691F0CE14DF0419F4A09218
:100F9000BC0002C0B092BC000E9448078091BB0018
:100FA00088838FEFE81AF80A2196EBCF84E98093C3
:100FB000BC00DF91CF911F910F91FF90EF90DF90D8
:100FC000CF90BF90AF900895813011F4289A089582
:100FD0002898089584E08BB98AB1886D8AB95298AF
:100FE0005B985B9A5B985B9A5B985B9A5B98209A9C
:100FF00080E00C94E4070E94EA070E9411060E9418
:101000005B070E94F1140E9466140E94BE14FDCF7B
:10101000811102C0229806C0229A613011F42A9AE6
:1010200001C02A9883B184700895CF93DF93C9B12A
:10103000C470D4E08AE090E00E94FC140E9419156C
:101040008823E1F389B18470C81307C0D15091F7A8
:1010500081E0C11103C080E001C082E0DF91CF9147
:1010600008952BB12F7030E1839FC0011124822B92
:101070008BB9089590ED980F9A3058F0982F9F7D76
:1010800091549A3130F091E08D3209F090E0892F3F
:10109000089581E0089588EB9BE00E94E4140E948B
:1010A000A6068AE297E00E94E4140E94A6068CEF4E
:1010B00096E090939A048093990480E09EE0909348
:1010C0009C0480939B048AE099E090939E04809313
:1010D0009D048EE694E09F938F9382E794E09F9324
:1010E0008F9387E794E09F938F9386E891E09F9397
:1010F0008F9384EA94E09F938F930E94761584EAFD
:1011000094E00E94A6068DB79EB70A960FB6F89493
:101110009EBF0FBE8DBF80915504882319F088E5CE
:101120009AE002C088E69AE00E94E4149F938F93AD
:1011300089EA91E09F938F9384EA94E09F938F9341
:101140000E9476150F900F900F900F900F900F90B8
:1011500084EA94E00C94A6068F929F92AF92BF927D
:10116000CF92DF92EF92FF920F931F93CF93DF9373
:10117000CDB7DEB761970FB6F894DEBF0FBECDBF17
:10118000982EA62E6A017901062F172F88248394A2
:10119000880E202F802F8A1990E08C159D0538F538
:1011A0000F3F110519F010F0B82C01C0B92C29839C
:1011B000F701E80FF91F80818A83AE014F5F5F4F0F
:1011C00061E08B2D0E946407AE014F5F5F4F62E0CC
:1011D0008B2D0E946407AE014F5F5F4F61E08B2D46
:1011E0000E9464078832B9F70F5F1F4FD2CF619614
:1011F0000FB6F894DEBF0FBECDBFDF91CF911F9128
:101200000F91FF90EF90DF90CF90BF90AF909F90A5
:101210008F900895CF93DF938091990490919A04D1
:10122000009771F10E94D814EC01833B910510F0F6
:10123000C2EBD0E00E94540690E08C179D07D0F3DB
:10124000BE018091990490919A040E94C614209145
:10125000990430919A042C0F3D1F30939A042093E7
:1012600099046C2F0E946506E0919904F0919A040C
:10127000E491E1110DC010929A041092990408C0F3
:1012800080919B0490919C0490939E0480939D0474
:10129000DF91CF910895AF92BF92CF92DF92EF92FC
:1012A000FF921F93CF93DF93CDB7DEB761970FB651
:1012B000F894DEBF0FBECDBF182F7A0169016F3FD2
:1012C000710511F008F01F5F698388EEA82E83E096
:1012D000B82EAE014F5F5F4F61E0812F0E9464071F
:1012E000883261F081E0A81AB10899F783E193E0B0
:1012F0000E94E4140E94A60680E01BC0AE014E5F6F
:101300005F4F6E2D812F0E94980720E0822F90E082
:101310008E159F0568F4F601E80FF91FA2E0B0E012
:10132000AC0FBD1FA80FB91F8C9180832F5FEECF2C
:1013300081E061960FB6F894DEBF0FBECDBFDF919E
:10134000CF911F91FF90EF90DF90CF90BF90AF9023
:101350000895CF92DF92EF92FF920F931F93CF9356
:101360007B016A019A01AB01BC01809158040E9483
:101370004B09C0E08C2F90E08601080F191FF8017F
:101380008E159F0570F48081811102C0C1110AC0C1
:101390000E943A08811103C0F801108204C0CF5F97
:1013A000E9CF108281E0CF911F910F91FF90EF90D4
:1013B000DF90CF900895CF93DF9300D01F92CDB7E9
:1013C000DEB79E012F5F3F4F42E050E06EEF70E0CE
:1013D000809158040E944B0989819A819827892716
:1013E00098270F900F900F90DF91CF910895AF92B3
:1013F000BF92CF92DF92EF92FF920F931F93CF9302
:10140000DF93CDB7DEB762970FB6F894DEBF0FBE9D
:10141000CDBF198200E010E0E12CF12C5E0141E12A
:10142000A40EB11C9E012F5F3F4F40E150E0B70179
:10143000809158040E944B09FE0131968191080F5A
:10144000111DAE16BF06D1F750E1E50EF11CE114F7
:1014500082E0F80639F70E94DB09292FA801481B12
:101460005109CA01C22ED12C8C199D0980959095E5
:1014700062960FB6F894DEBF0FBECDBFDF91CF915D
:101480001F910F91FF90EF90DF90CF90BF90AF90A2
:101490000895CF93DF9300D01F92CDB7DEB78FEAC8
:1014A00091E00E94A6068EE694E09F938F9382E7D8
:1014B00094E09F938F9388EC91E09F938F9389E5BD
:1014C00094E09F938F930E94761529E534E04CE0D9
:1014D00050E062EE70E0809158040E94AC0827E76B
:1014E00034E04BE050E06FEE70E0809158040E94D1
:1014F000AC082AE634E044E050E06AEF70E0809106
:1015000058040E94AC080E94F709809356049093F7
:10151000570499838A839E012F5F3F4F42E050E03A
:101520006EEF70E0809158040E94AC080FB6F894FA
:10153000DEBF0FBECDBF0F900F900F90DF91CF9108
:1015400008957F928F929F92AF92BF92CF92DF9237
:10155000EF92FF920F931F93CF93DF931F92CDB71C
:10156000DEB7782E898300E010E0E12CF12C91EDBC
:10157000C92E91E0D92E24EAA22E24E0B22E4801F1
:10158000892C992486940E94E0068823E1F3C40103
:1015900001969F938F9389811F928F93DF92CF92B1
:1015A000BF92AF920E94761584EA94E00E94A6064C
:1015B0009E012F5F3F4F41E050E0B70180915804FA
:1015C0000E94AC089E012F5F3F4F41E050E0B70101
:1015D000809158040E944B090FB6F894DEBF0FBEED
:1015E000CDBF89817816E1F00E94E0068823E1F3FF
:1015F00089811F928F9380E092E09F938F9384EA7A
:1016000094E09F938F930E94761584EA94E00E9461
:10161000A6060F900F900F900F900F900F900AC09A
:101620009FEFE91AF90A0C591F4F011588EC1807AA
:1016300009F0A5CF0E94E0068823E1F30F90DF9127
:10164000CF911F910F91FF90EF90DF90CF90BF90BF
:10165000AF909F908F907F9008950F931F93CF939B
:10166000DF93EB018A019A01AB01BC018091580420
:101670000E944B098823A1F080E0282F30E0F80178
:10168000E20FF31F2C173D0748F4908190539A30D6
:1016900018F0108280E004C08F5FEFCF108281E0ED
:1016A000DF91CF911F910F910895FF920F931F9398
:1016B000CF93DF9300D000D0CDB7DEB789EC9BE0AD
:1016C0000E94E4140E94A60682E39AE00E94E414B9
:1016D0000E94A6060E94DB099F938F938EEE92E0F4
:1016E0009F938F9304EA14E01F930F930E94761543
:1016F000C8010E94A6060E94F709809356049093A1
:1017000057049F938F9381E192E09F938F931F9350
:101710000F930E947615C8010E94A60689EC9BE0F3
:101720000E94E4140E94A6060FB6F894DEBF0FBE16
:10173000CDBF0E94E0068823E1F386ED93E00E948E
:10174000E4140E94A60686EE93E00E94E4148C0145
:1017500044EA54E064E070E080E090E00E942D0BE9
:101760008823F1F08DE2F82EF092A80449EA54E0C3
:1017700062E070E084E090E00E942D0B882381F00D
:10178000F092AB044CEA54E063E070E086E090E055
:101790000E94A909882321F01092AF0404EA14E002
:1017A000C8010E94A60689EC9BE00E94E4140E94F6
:1017B000A6060E94E0068823E1F386EC93E00E94EF
:1017C000E4140E94A60686EE93E00E94E4148C01C5
:1017D00044EA54E064E070E089E090E00E94A909E6
:1017E000882389F08DE28093A80449EA54E06DE0F3
:1017F00070E084E090E00E94A909882321F0109213
:10180000B60404EA14E0C8010E94A60689EC9BE035
:101810000E94E4140E94A6060E94E0068823E1F3D9
:1018200086EB93E00E94E4140E94A60686EE93E005
:101830000E94E4148C0144EA54E06CE070E082EE13
:1018400090E00E94A909882311F004EA14E0C8017D
:101850000E94A60689EC9BE00E94E4140E94A60662
:101860000E94E0068823E1F386EA93E00E94E414F4
:101870000E94A60686EE93E00E94E4148C0144EADE
:1018800054E06BE070E08FEE90E00E94A90988239D
:10189000D1F06EE272E084EA94E00E945B15AE0142
:1018A0004F5F5F4F64E070E08AEF90E00E94A9090B
:1018B000882349F0BE016F5F7F4F84EA94E00E9465
:1018C0005B1504EA14E0C8010E94A60689EC9BE0BF
:1018D0000E94E4140E94A6060F900F900F900F90A4
:1018E000DF91CF911F910F91FF900895CF93DF93D8
:1018F0001F92CDB7DEB7CE0101960E942B07882339
:1019000081F089818D3039F489EC9BE00E94E414E8
:101910000E94A60605C061E0CE0101960E94650600
:1019200089810F90DF91CF9108950E94760C8823D2
:1019300009F474C08D3021F118F48A3009F127C000
:10194000883511F0883719F580918304811112C010
:101950008EEC99E090939A04809399048FE09DE037
:1019600090939C0480939B048AE099E090939E045A
:1019700080939D0488EB9BE00E94E4140C94A606DF
:101980008091830481114AC085E495E02CC090EDDC
:10199000980F9A3030F5E0918304AE2FB0E0AC5749
:1019A000BB4F8C93EF5FE093830480918204E81334
:1019B00035C0F0E0EC57FB4F108264E874E085E638
:1019C00094E00E946F151092830483E08093820458
:1019D00089E597E090939A048093990485E49EE0CA
:1019E00013C088E792E00E94E4140E94A6061092B9
:1019F000830484E08093820488EB97E090939A04B8
:101A00008093990485E99CE090939C0480939B04C7
:101A10008AE099E090939E0480939D0408950E942B
:101A2000760C8823A9F01092830484E080938204CA
:101A300010929A041092990485E99CE090939C047A
:101A400080939B048AE099E090939E0480939D0488
:101A500008950E94760C882369F18D3051F018F4B6
:101A60008A3039F00FC0883511F0883759F40C945A
:101A70004B088AED95E090939A048093990487E14E
:101A800093E10EC08CEF96E00E94E4140E94A6063B
:101A90008EE096E090939A048093990489E29DE009
:101AA00090939C0480939B048AE099E090939E0419
:101AB00080939D0408950E94760C882309F49FC0AA
:101AC0008D3071F018F48A3059F014C0883511F057
:101AD000883781F480918304811191C00C944B0864
:101AE0009091830480918204981708F088C087E061
:101AF00095E06AC090ED980F9A3008F063C0E091CD
:101B00008304AE2FB0E0AC57BB4F8C93EF5FE093F4
:101B1000830480918204E81372C0F0E0EC57FB4F1D
:101B2000108264E874E08AE694E00E946F1588EB06
:101B30009BE00E94E4140E94A6068AE694E09F932C
:101B40008F9387E794E09F938F9380E392E09F9336
:101B50008F9384EA94E09F938F930E94761584EA92
:101B600094E00E94A6068DB79EB708960FB6F8942B
:101B70009EBF0FBE8DBF80915404882369F00E94E0
:101B8000490A0E94550B86EA91E090939A0480934B
:101B9000990481EB90E129C080915504882349F094
:101BA0008AED95E090939A048093990487E193E1FC
:101BB0001CC08EE096E090939A048093990489E289
:101BC0009DE013C088E792E00E94E4140E94A606FC
:101BD0001092830483E0809382048AEB96E09093D2
:101BE0009A04809399048BE59DE090939C048093E4
:101BF0009B048AE099E090939E0480939D0408954D
:101C00000E94760C882309F43FC08D30B9F018F497
:101C10008A30A1F021C0883511F08837E9F488EBCB
:101C20009BE00E94E4140E94A60682E799E090934C
:101C30009A048093990488E892E11CC0109283046E
:101C400083E0809382048AEB96E090939A048093D9
:101C500099048BE59DE00EC08CEF96E00E94E414A1
:101C60000E94A6068CEF96E090939A0480939904C4
:101C700080E09EE090939C0480939B048AE099E02E
:101C800090939E0480939D040895CF930E94760CB8
:101C9000C82F882309F477C08D3029F118F48A30D1
:101CA00011F12AC0883511F0883731F5809183040D
:101CB000811112C082E799E090939A04809399046D
:101CC00088E892E190939C0480939B048AE099E0D9
:101CD00090939E0480939D0488EB9BE00E94E41403
:101CE000CF910C94A606909183048091820498175A
:101CF000A8F587E095E016C08C2F0E943A0888234B
:101D000079F080918304E82FF0E0EC57FB4FC0831B
:101D10008F5F80938304909182048917F8F433C015
:101D20008EEB92E00E94E4140E94A60610928304B7
:101D300083E08093820489E597E090939A048093EE
:101D4000990485E49EE090939C0480939B048AE030
:101D500099E090939E0480939D0415C0E0918304C4
:101D6000F0E0EC57FB4F108264E874E08EE694E0FC
:101D70000E946F1588EB9BE00E94E4140E94A60667
:101D8000CF910C944B08CF910895CF930E94760C7D
:101D9000C82F882309F483C08D3029F118F48A30C4
:101DA00011F128C0883511F0883721F5809183041E
:101DB000811112C082E799E090939A04809399046C
:101DC00088E892E190939C0480939B048AE099E0D8
:101DD00090939E0480939D0488EB9BE00E94E41402
:101DE000CF910C94A6068091830481112BC081ECC5
:101DF00094E016C08C2F0E943A08882379F0E09175
:101E0000830481E08E0F80938304F0E0EC57FB4F56
:101E1000C083909182048917A8F441C08EEB92E0B0
:101E20000E94E4140E94A606109283048AE0809324
:101E300082048EE098E090939A048093990485EC54
:101E40009EE023C0C0918304EC2FF0E0EC57FB4FE1
:101E5000108264E874E087E794E00E946F15CA304E
:101E600038F4EC2FF0E0E958FB4F1082CF5FF7CF4A
:101E70001092830483E08093820489E597E0909335
:101E80009A048093990485E49EE090939C04809347
:101E90009B048AE099E090939E0480939D04CF91E7
:101EA0000895CF93DF930E94760C882309F45BC0DA
:101EB000823399F068F48133F1F561E672E082E7EC
:101EC00094E00E946F151092550482E998E010C0CA
:101ED000883541F1883731F12EC066E672E082E73D
:101EE00094E00E946F1581E0809355048BE698E0A2
:101EF0000E94E414EC0188EB9BE00E94E4140E9431
:101F0000A606CE010E94A606109283048AE0809362
:101F100082048EE098E090939A048093990485EC73
:101F20009EE017C082E799E090939A048093990409
:101F300088E892E10EC08AE79AE00E94E4140E94C9
:101F4000A6068BEB98E090939A048093990481E520
:101F50009FE090939C0480939B048AE099E0909387
:101F60009E0480939D04DF91CF910895CF93DF93DA
:101F70001F92CDB7DEB70E94760C8823B9F0883562
:101F800011F0883799F481EC90E090939A04809353
:101F9000990481E390E190939C0480939B048AE0F0
:101FA00099E090939E0480939D0457C00E94191558
:101FB000882309F452C0E0915204F0E0EB57FC4F43
:101FC0008081809353048F700E94310888EB9BE0DE
:101FD0000E94FC14AE014F5F5F4F61E08091580496
:101FE0000E949807809153048983382F317081FBB8
:101FF000222720F982FB992790F983FB882780F913
:102000001F923F931F922F931F929F931F928F9324
:102010001F923F931F922F931F929F931F928F9314
:102020008BE692E09F938F9384EA94E09F938F9343
:102030000E94761584EA94E00E94A60680915204DC
:102040008F5F0FB6F894DEBF0FBECDBF8A3018F495
:102050008093520402C0109252040F90DF91CF91EE
:102060000895CF93DF931F92CDB7DEB781E00E9432
:10207000E4070E94760C882309F46FC0843399F139
:1020800040F4823381F168F5813309F04EC080E578
:102090002BC08835A1F1883791F1853309F045C00F
:1020A000198281E480935804AE014F5F5F4F61E075
:1020B0000E94640788E690E090939A0480939904C4
:1020C00086EB9FE090939C0480939B048AE099E0C8
:1020D00090939E0480939D0488EC90E00E94FC14F1
:1020E0003CC084E501C082E58093580486EA91E013
:1020F00090939A048093990481EB90E124C082E745
:1021000099E090939A048093990488E892E19093DF
:102110009C0480939B048AE099E090939E048093B2
:102120009D0480E00E94E40718C08AE79AE00E94BC
:10213000E4140E94A60681EC90E090939A048093A8
:10214000990481E390E190939C0480939B048AE03E
:1021500099E090939E0480939D040F90DF91CF911E
:1021600008956F927F928F929F92AF92BF92CF927B
:10217000DF92EF92FF920F931F93CF93DF93CDB730
:10218000DEB762970FB6F894DEBF0FBECDBF0E94D8
:10219000760C882309F4A7C1883509F476C1B0F418
:1021A000803509F454C140F4843459F1883461F124
:1021B000833409F080C18BC0833509F442C187356F
:1021C00009F498C0823509F076C13DC1803709F421
:1021D0003EC140F48436A9F08836B1F0833609F068
:1021E0006AC175C0833709F42CC120F4823709F421
:1021F0002AC161C1873709F47DC0883709F445C118
:102200005AC10E94550B5DC18DEA92E00E94A6065C
:10221000198200E010E09CEB692E92E0792E24EA0E
:10222000C22E24E0D22E3AECA32E32E0B32E1F931E
:102230000F937F926F92DF92CF920E94761584EA7D
:1022400094E00E94A6069E012F5F3F4F40E150E0C0
:10225000B801809158040E944B09CE0101964C01AF
:1022600084EAE82E84E0F82E0F900F900F900F90E4
:102270000F900F90F40181914F011F928F93BF92A5
:10228000AF92FF92EF920E947615F3E0EF0EF11CF1
:102290000F900F900F900F900F900F9084EDE81615
:1022A00084E0F80639F70E94E0068823E1F384EA27
:1022B00094E00E94A60685EC91E00E94A606005FCD
:1022C0001F4F011592E0190709F0B1CFFAC00E9423
:1022D000F709182F092F0E94DB09F82EE92E0E941A
:1022E000E0068823E1F3EF92FF920F931F9380EDB6
:1022F00092E095C08AE589839E012F5F3F4F41E0C0
:1023000050E060E470E0809158040E94AC080E94A4
:10231000E0068823E1F31F9280E48F9389811F9266
:102320008F938BE093E09F938F9384EA94E09F9345
:102330008F930E94761584EA94E00E94A6069E017F
:102340002F5F3F4F41E050E060E470E0809158041F
:102350000E944B090FB6F894DEBF0FBECDBF0E949E
:10236000E0068823E1F31F9280E48F9389811F9216
:102370008F9381E393E09F938F9384EA94E09F93FC
:102380008F930E94761584EA94E00E94A60685EA5F
:1023900089839E012F5F3F4F41E050E06FE071E085
:1023A000809158040E94AC080FB6F894DEBF0FBEAF
:1023B000CDBF0E94E0068823E1F381E08F938FE098
:1023C0008F9389811F928F938BE093E09F938F93DC
:1023D00084EA94E09F938F930E94761584EA94E0B8
:1023E0000E94A6069E012F5F3F4F41E050E06FE044
:1023F00071E0809158040E944B090FB6F894DEBF3B
:102400000FBECDBF0E94E0068823E1F381E08F93E9
:102410008FE08F9389811F928F9381E393E09F9345
:102420008F9384EA94E09F938F930E94761584EAB9
:1024300094E00E94A6060FB6F894DEBF0FBECDBF93
:1024400040C08FEF01C080E00E94A10A3AC0109204
:1024500083048AE0809382048BEB98E090939A0443
:102460008093990481E59FE090939C0480939B0462
:102470008AE099E090939E0480939D0488EB9BE012
:102480000E94E4140E94A6062EC081EC90E0909376
:102490009A048093990481E390E190939C04809343
:1024A0009B048AE099E090939E0480939D0480E0D1
:1024B0000E94E40718C08AE79AE00E94E4140E9490
:1024C000A60686EA91E090939A048093990481EBA2
:1024D00090E190939C0480939B048AE099E0909310
:1024E0009E0480939D0462960FB6F894DEBF0FBEE3
:1024F000CDBFDF91CF911F910F91FF90EF90DF90B3
:10250000CF90BF90AF909F908F907F906F900895E5
:102510000E94760C882309F45EC0843541F018F4DB
:10252000843429F140C0843611F18437E1F51092EA
:1025300083048AE0809382048BEB98E090939A0462
:102540008093990481E59FE090939C0480939B0481
:102550008AE099E090939E0480939D0488EB9BE031
:102560000E94E4140E94A60610925404089581EC7F
:1025700090E090939A048093990481E390E1909382
:102580009C0480939B048AE099E090939E0480933E
:102590009D0488EB9BE00E94E4140E94A60681E063
:1025A0008093540408958AE79AE00E94E4140E94FC
:1025B000A60682E799E090939A048093990488E8AC
:1025C00092E190939C0480939B048AE099E090931D
:1025D0009E0480939D040895CF93DF931F92CDB7FF
:1025E000DEB7CE0101960E942B078111FACF0E941F
:1025F000760C89838D30A1F028F4882371F08A301D
:1026000079F004C0883571F0883761F08CEF96E07E
:102610000E94E4140E94A60619828981882339F356
:102620008AE001C088E70F90DF91CF9108950F9362
:102630001F93CF93DF9388EB9BE00E94E4140E94EA
:10264000A6068AE694E09F938F9387E794E09F9392
:102650008F9386E593E09F938F9384EA94E09F9312
:102660008F930E94761584EA94E00E94A60681E08A
:102670000E94E40788EE93E00E94FC148DB79EB799
:1026800008960FB6F8949EBF0FBE8DBF0E94191515
:102690008823E1F3809155048823F1F060E081E024
:1026A0000E94080880E5809358040E94F7099093DF
:1026B0005704809356040E94DB0920915604309100
:1026C00057048217930709F44CC080E594E00E94F8
:1026D000E4140E94A6065DC0C0E7D3E004EA14E05B
:1026E00019993CC08AE794E00E94E4140E94A6066F
:1026F00083B186701F928F93DF93CF931F930F93B5
:102700000E94761584EA94E00E94A6060E94EC12CC
:102710000F900F900F900F900F900F90883701F748
:102720001092830483E0809382048AEB96E0909376
:102730009A04809399048BE59DE090939C04809388
:102740009B048AE099E090939E0480939D0480E02E
:10275000DF91CF911F910F910C94E4071A99C2CF8A
:102760009DCF80EF93E00E94E4140E94A6060E9491
:10277000550B89EC9BE00E94E4140E94A6068CEFA6
:1027800096E00E94E4140E94A6060E94EC1288378C
:1027900039F280E00E94A10A0E94490A8DE693E086
:1027A0000E94E4140E94A60680E00E94E40788EBE1
:1027B0009BE00E94FC140E9419158823E1F381E03C
:1027C0000E94E40780915504811107C061E081E017
:1027D0000E94080884E58093580444EA54E06CE0C1
:1027E00070E082EE90E00E94A9098823D9F169E5A2
:1027F00074E084EA94E00E946615892B99F544EA16
:1028000054E06BE070E08FEE90E00E94A90988230D
:1028100049F167E774E084EA94E00E946615892B29
:1028200009F544EA54E064E070E08AEF90E00E9429
:10283000A9098823B9F06AE674E084EA94E00E946A
:102840006615892B79F40E94F709909357048093B9
:1028500056040E94DB0920915604309157048217D8
:10286000930719F084E393E00AC086E593E00E94A1
:10287000E4140E94A6060E94550B83E895E00E948E
:10288000E4140E94A60680E00E94E40760E080E075
:102890000E9408081092830483E08093820483E9F5
:1028A00096E090939A04809399048BE59DE0909331
:1028B0009C0480939B048AE099E090939E0480930B
:1028C0009D04DF91CF911F910F91089588EB9BE0BC
:1028D0000E94E4140E94A6068DE79BE00E94E41487
:1028E0000E94A6068EE19BE00E94E4140E94A606C8
:1028F0000E9458150E94E4140E94A60689EC9BE0F1
:102900000E94E4140E94A6060E94150890E0009719
:1029100079F480EF9AE00E94E4140E94A6068EECFF
:1029200099E090939A04809399048FE09DE01BC0F6
:10293000029759F486EC9AE00E94E4140E94A606DD
:1029400010929E0410929D04089585E99AE00E94D9
:10295000E4140E94A60682E799E090939A0480937B
:10296000990488E892E190939C0480939B048AE008
:1029700099E090939E0480939D040895E0919D04B6
:10298000F0919E04309709F009940895A6EDB4E003
:1029900020E030E02617370741F0FC01E20FF31F7B
:1029A000E491ED932F5F3F4FF5CF86ED94E00895CE
:1029B0009C0180E090E0F901E80FF91FE491EE231B
:1029C00011F00196F8CF0895CF93DF93EC010E94A8
:1029D000D814BC016F5F7F4FCE01DF91CF910C9473
:1029E000C6141092A3041092A2041092A104109293
:1029F000A00410929F0408959093A3048093A204CE
:102A00001092A1041092A0041092850010928400EC
:102A10008AEF90E09093890080938800EFE6F0E0E1
:102A2000808182608083E1E8F0E080818360808340
:102A3000089580919F04882319F010929F0481E0EB
:102A400008951F920F920FB60F9211242F933F9368
:102A50008F939F938091A0049091A10401969093ED
:102A6000A1048093A0042091A2043091A3048217B2
:102A7000930759F41092810080916F008D7F8093AD
:102A80006F0081E080939F040AC08091880090913C
:102A9000890086509F4F90938900809388009F9172
:102AA0008F913F912F910F900FBE0F901F9018950F
:102AB0008CEC9BE00895FB01DC010D900020E9F710
:102AC000119701900D920020E1F70895FB01DC01C0
:102AD0008D91019080190110D9F3990B0895FB0194
:102AE000DC0101900D920020E1F70895AEE0B0E026
:102AF000ECE7F5E10C9437180D891E8986E08C838C
:102B00001A8309838FEF9FE79E838D83AE01475E13
:102B10005F4F6F89788DCE0101960E949815EF81E5
:102B2000F885E00FF11F10822E96E4E00C94531804
:102B3000ABE0B0E0EEE9F5E10C9429186C017B0103
:102B40008A01FC0117821682838181FFCCC1CE01EC
:102B500001963C01F6019381F70193FD859193FF66
:102B600081917F01882309F4BAC1853239F493FD3C
:102B7000859193FF81917F01853229F4B60190E020
:102B80000E948F17E7CF912C212C312CFFE1F315F8
:102B9000D8F08B3279F038F4803279F08332A1F4B6
:102BA000232D20611DC08D3261F0803369F4232D07
:102BB000216016C0832D8260382EE32DE4603E2E06
:102BC0002AC0F32DF8601DC037FC2DC020ED280F62
:102BD0002A3040F08E32B9F436FC81C1232D2064B6
:102BE000322E19C036FE06C08AE0989E200D1124B0
:102BF000922E11C0EAE02E9E200D1124222EF32DDC
:102C0000F0623F2E08C08C3621F4832D8068382E68
:102C100002C0883641F4F70193FD859193FF8191BD
:102C20007F018111B3CF982F9F7D9554933028F465
:102C30000C5F1F4F9FE399830DC0833631F08337BC
:102C400071F0833509F059C021C0F8018081898372
:102C50000E5F1F4F88248394912C530113C02801C9
:102C6000F2E04F0E511CF801A080B18036FE03C087
:102C7000692D70E002C06FEF7FEFC5010E948417DD
:102C80004C018201F32DFF773F2E16C0280122E070
:102C9000420E511CF801A080B18036FE03C0692DA0
:102CA00070E002C06FEF7FEFC5010E9479174C0101
:102CB000F32DF0683F2E820133FC1BC0822D90E083
:102CC00088169906B0F4B60180E290E00E948F1752
:102CD0002A94F4CFF50137FC859137FE81915F018D
:102CE000B60190E00E948F1721102A9421E0821AE9
:102CF00091088114910471F7E8C0843611F0893687
:102D000041F5F80137FE07C06081718182819381AE
:102D10000C5F1F4F08C060817181072E000C880B6B
:102D2000990B0E5F1F4FF32DFF763F2E97FF09C0C3
:102D300090958095709561957F4F8F4F9F4FF0686C
:102D40003F2E2AE030E0A3010E94CB17882E861880
:102D500045C0853731F4232D2F7EB22E2AE030E096
:102D600025C0932D997FB92E8F36C1F018F4883580
:102D700079F0B5C0803719F0883721F0B0C0E92F5D
:102D8000E061BE2EB4FE0DC0FB2DF460BF2E09C065
:102D900034FE0AC0292F2660B22E06C028E030E09B
:102DA00005C020E130E002C020E132E0F801B7FECA
:102DB00007C060817181828193810C5F1F4F06C0C3
:102DC0006081718180E090E00E5F1F4FA3010E943F
:102DD000CB17882E8618FB2DFF773F2E36FE0DC0B1
:102DE000232D2E7FA22E891458F434FE0BC032FC02
:102DF00009C0832D8E7EA82E05C0B82CA32C03C03D
:102E0000B82C01C0B92CA4FE0FC0FE01E80DF11DC5
:102E10008081803321F49A2D997EA92E09C0A2FECB
:102E200006C0B394B39404C08A2D867809F0B39495
:102E3000A3FC11C0A0FE06C0B21488F4280C922C8A
:102E40009B180EC0B21460F4B60180E290E00E94BC
:102E50008F17B394F7CFB21418F42B1802C0982C24
:102E6000212CA4FE10C0B60180E390E00E948F17D1
:102E7000A2FE17C0A1FC03C088E790E002C088E56D
:102E800090E0B6010CC08A2D867859F0A1FE02C0F0
:102E90008BE201C080E2A7FC8DE2B60190E00E94C7
:102EA0008F17891438F4B60180E390E00E948F17E1
:102EB0009A94F7CF8A94F301E80DF11D8081B60151
:102EC00090E00E948F178110F5CF222009F442CEA6
:102ED000B60180E290E00E948F172A94F6CFF601A7
:102EE0008681978102C08FEF9FEF2B96E2E10C94D1
:102EF0004518FC010590615070400110D8F780958D
:102F000090958E0F9F1F0895FC01615070400190B5
:102F10000110D8F7809590958E0F9F1F08950F93FD
:102F20001F93CF93DF93FB01238121FD03C08FEF1C
:102F30009FEF2CC022FF16C0468157812481358126
:102F40004217530744F4A081B1819D012F5F3F4F89
:102F5000318320838C93268137812F5F3F4F3783C6
:102F6000268314C08B01EC01FB010084F185E02D68
:102F70000995892BE1F6D80116968D919C911797AA
:102F8000019617969C938E931697CE01DF91CF9161
:102F90001F910F910895FA01AA27283051F120318D
:102FA00081F1E8946F936E7F6E5F7F4F8F4F9F4FDD
:102FB000AF4FB1E03ED0B4E03CD0670F781F891F1F
:102FC0009A1FA11D680F791F8A1F911DA11D6A0FED
:102FD000711D811D911DA11D20D009F468943F91A0
:102FE0002AE0269F11243019305D3193DEF6CF019F
:102FF0000895462F4770405D4193B3E00FD0C9F765
:10300000F6CF462F4F70405D4A3318F0495D31FDD1
:103010004052419302D0A9F7EACFB4E0A695979524
:10302000879577956795BA95C9F7009761057105FA
:1030300008959B01AC010A2E069457954795379544
:103040002795BA95C9F7620F731F841F951FA01D9E
:1030500008952F923F924F925F926F927F928F923C
:103060009F92AF92BF92CF92DF92EF92FF920F9317
:103070001F93CF93DF93CDB7DEB7CA1BDB0B0FB621
:10308000F894DEBF0FBECDBF09942A8839884888DE
:103090005F846E847D848C849B84AA84B984C88474
:1030A000DF80EE80FD800C811B81AA81B981CE0F6B
:1030B000D11D0FB6F894DEBF0FBECDBFED01089550
:0430C000F894FFCFB2
:1030C4001E013501510167010A0A0D535953544534
:1030D4004D204552524F520A0D25730A0D000A0D18
:1030E40053657269616C204672616D696E67204533
:1030F40072726F72000A0D53657269616C204461CB
:103104007461204F76657272756E204572726F72AB
:10311400000A0D53657269616C205061726974799B
:10312400204572726F72000A0D53657269616C20DA
:10313400545820627566206F766572666C6F7720CE
:103144004572726F7200574F204E6F2020203D2031
:1031540025730A0D41737379204E6F203D2025732A
:103164002D30312D257320200025730A0A0D000A05
:103174000A0D5570646174696E6720454550524F5D
:103184004D2021210A0A0D0025732D30312D257380
:10319400000D526573657474696E6720416C6C2010
:1031A4006F6620454550524F4D20746F20253032B4
:1031B40078202D2025303364252520646F6E65002A
:1031C4000A0D4572617365204552522025780A0D17
:1031D4000043616C63756C61746564204368656366
:1031E4006B73756D203D20253034780A0D002D0059
:1031F4000A0A426F6172642049443A2025732D25DE
:10320400732069732073656C656374656420666FED
:10321400722070726F6772616D6D696E670A0A0D54
:1032240000363531390036373638002025303178CC
:10323400202020202530317820202020253031788E
:10324400202020202530317820202020202D2044CB
:103254006174612052656164203D202530317825F8
:1032640030317825303178253031780D000A0A0D57
:103274004845582044554D500A0D0A004164647273
:10328400203D20253034783A200025303278200043
:103294000A0D43616C63756C6174656420436865F1
:1032A400636B73756D203D20253034780A0D53749B
:1032B4006F72656420436865636B73756D202020AD
:1032C40020203D20253034780A0D000A0D44617415
:1032D400612025303278207772697474656E2074A9
:1032E4006F206164647265737320253034780A0D2D
:1032F400000A0D44617461202530327820726561C2
:10330400642066726F6D2061646472657373202536
:103314003034780A0D0050726F6772616D6D696E9A
:103324006720426F6172642025732D25730A0D0096
:1033340048656164657220506F7274203D202530A9
:1033440032780A0D0000010204080F0E0D0B07006D
:00000001FF
