S0130000544A3030303030365F53572E7372656344
S11300000C94E70A0C94040B0C94040B0C94040B4E
S11300100C94040B0C94040B0C94040B0C94040B20
S11300200C94040B0C94040B0C94040B0C94751F8B
S11300300C94040B0C94040B0C94040B0C94040B00
S11300400C94040B0C94040B0C94DD0B0C941A0B01
S11300500C94040B0C94040B0C94040B0C94040BE0
S11300600C94040B0C94040B3237303436330A0DE1
S11300704E6574204964656E746966696361746968
S11300806F6E20546573740A0D3D3D3D3D3D3D3D0D
S11300903D3D3D3D3D3D3D3D3D3D3D3D3D3D3D3D8C
S11300A00A0D42697433203D2047534E332C2042BD
S11300B0697432203D2047534E322C2042697431FA
S11300C0203D2047534E312C2042697430203D207E
S11300D047534E300A0A0D4F555420202020494ED4
S11300E00A0D000A0A0A0A0D506F727420457870CE
S11300F0616E6465722044656275670A0D3D3D3D1D
S11301003D3D3D3D3D3D3D3D3D3D3D3D3D3D3D3D1B
S11301100A0D50726573732027582720746F204589
S11301207869740A0A0D47534E332047534E3220E0
S113013047534E312047534E300A0D000A0A0A0A2B
S11301400D4445425547204D454E550A0D3D3D3D14
S11301503D3D3D3D3D3D3D0A0D0A0D53656C6563D6
S11301607420454550524F4D204164647265737349
S11301703A0A0D31202D20307835303A204E6574FE
S113018020436F6E6E6563746F722F4E65742041E9
S11301906461707465720A0D32202D203078353216
S11301A03A2041444320426F74746F6D2042640AC4
S11301B00D33202D20307835343A204E6574204597
S11301C07874656E73696F6E0A0D34202D20307853
S11301D035363A2041444320546F702042640A0D5E
S11301E035202D20307834313A20506F72742045F8
S11301F07870616E64657220284857303030313130
S113020032204F6E6C79290A0D0A0D507265737392
S1130210205820746F20657869740A0A0D000A0A50
S11302200A0A0D454550524F4D2044656275670AD0
S11302300D3D3D3D3D3D3D3D3D3D3D3D3D0A0A0DB0
S113024044202D20446973706C61792053746F725B
S113025065642044657461696C730A0D48202D201F
S11302604865782044756D700A0D57202D2057720B
S11302706974650A0D52202D2052657365742045FA
S11302804550524F4D20746F2030300A0D53202DAD
S11302902053657420454550524F4D20746F2046BD
S11302A0460A0D43202D20446973706C6179204304
S11302B06865636B73756D730A0D50202D20507241
S11302C06F6772616D20426F61726420446574616E
S11302D0696C730A0D58202D2052657475726E2056
S11302E0746F204465627567204D656E750A0A0D4A
S11302F0000A0A0D2021212120506C6561736520BC
S113030052652D456E746572207573696E67206E33
S1130310756D657269632063686172616374657287
S113032073206F6E6C7920282730272D27392729D1
S1130330202121210A0D000A0A0D2021212120500B
S11303406C656173652052652D456E746572207508
S113035073696E6720416C7068612D6E756D65728E
S113036069632063686172616374657273206F6E80
S11303706C7920282741272D275A272C202730271E
S11303802D27392729202121210A0D000A0A0D20B1
S113039021212120454550524F4D205245414420B2
S11303A04552524F52202121210A0A0D000A0D44C0
S11303B061746120726574656E74696F6E20436840
S11303C065636B204641494C454421210A0D000ACE
S11303D00D4461746120726574656E74696F6E207A
S11303E04F4B0A0A0D000A0D436865636B696E671B
S11303F0206461746120726574656E74696F6E0A3D
S11304000D506F776572696E67204F464620666FA0
S1130410722033207365636F6E64730A0A0D005093
S11304204342204173737920532F4E203D200050C6
S11304304342204173737920502F4E203D200050B9
S1130440726F6475637420532F4E20203D2000503A
S1130450726F6475637420502F4E20203D20005528
S11304606E646566696E6564000A0A0D21212120A7
S11304705741524E494E47202121210A0D43616CB8
S113048063756C6174656420616E642053746F726B
S1130490656420436865636B73756D204D61746397
S11304A0680A0A0D000A0A0D2121212043686563A8
S11304B06B73756D206D69736D61746368202121A0
S11304C0210A0D53657474696E6720757020454563
S11304D050524F4D0A0D000A0A0D21212120436874
S11304E065636B2048656164657220697320666981
S11304F07474656420636F72726563746C7920210F
S113050021210A0D50726573732027782720746F98
S113051020454E544552206B657920746F207265D6
S11305207472790A0D000A0A0D212121204E6F747C
S113053020456E6F756768206368617261637465D6
S1130540727320666F7220576F726B73204F7264E0
S11305506572202D203120526571756972656420A1
S11305602121210A0D506C656173652072657472D6
S1130570790A0D000A0A0D212121204E6F2063689B
S1130580617261637465727320656E74657265640B
S1130590202D206D6178696D756D206F6620313274
S11305A0205265717569726564202121210A0D50FC
S11305B06C656173652072657472790A0D000A0AAC
S11305C00D212121204E6F7420456E6F75676820C0
S11305D06368617261637465727320656E746572B9
S11305E06564202D2033205265717569726564201D
S11305F02121210A0D506C65617365207265747246
S1130600790A0D000A0A0D212121204E6F7420451C
S11306106E6F756768206368617261637465727375
S113062020656E7465726564202D203420526571D6
S11306307569726564202121210A0D506C6561730E
S1130640652072657472790A0D002121212121210E
S1130650212121212121212121212121210A0D21B1
S113066021212054455354204641494C45442021DE
S113067021210A0D21212121212121212121212191
S1130680212121212121210A0A0D52656D6F7665F0
S113069020426F61726420616E64207175617261C1
S11306A06E74696E65206F72207265746573742050
S11306B0626F6172640A0A0D000A0A0D2A2A2A2A44
S11306C02A2A2A2A2A2A2A2A2A2A2A2A2A2A2A0AA6
S11306D00D2A2A2A2054455354205041535345444B
S11306E0202A2A2A0A0D2A2A2A2A2A2A2A2A2A2AAD
S11306F02A2A2A2A2A2A2A2A2A0A0A0D52656D6FC8
S1130700766520426F61726420616E64206170704E
S11307106C7920544553544544204D41524B0A0AA8
S11307200D000A0D212121204E4554204944454EF7
S113073054494649434154494F4E2054455354204B
S11307404641494C4544202121210A0D50726573CC
S1130750732027582720746F2065786974206F727E
S113076020454E544552206B657920746F205265A4
S11307707472790A0D000A0D5375636365737366A9
S1130780756C6C7920436865636B656420616E6485
S11307902050726F6772616D6D65642045455052DB
S11307A04F4D21210A0D000A0A0A0D4175746F6D1F
S11307B061746963616C6C7920636865636B696EED
S11307C06720616E642050726F6772616D6D696E2F
S11307D06720454550524F4D0A0D000A0A0A0D4341
S11307E06F6E6E6563742074686520416461707413
S11307F0657220626F61726420556E646572205464
S113080065737420746F20746865204A69670A0DE3
S113081050726573732027582720746F2065786998
S113082074206F7220454E544552206B65792074B4
S11308306F2070726F636565640A0D000A0A0A0D01
S1130840436F6E6E6563742074686520626F6172B5
S11308506420556E646572205465737420746F202F
S1130860746865204A69670A0D454E535552452000
S1130870464C59494E47204C454144204953204356
S11308804F4E4E454354454420746F204A554D50B5
S113089045520A0A0D507265737320275827207435
S11308A06F2065786974206F7220454E544552203C
S11308B06B657920746F2070726F636565640A0DCF
S11308C0000A0A0A0D456E74657220746865204E2C
S11308D065787420626F617264277320536572694E
S11308E0616C204E6F0A0D000A0A0A0D456E74658C
S11308F0722074686520626F617264277320536587
S11309007269616C204E6F2E0A0D28332043686192
S11309107261637465727329206F722027582720CF
S1130920746F20657869740A0D00507265737320C2
S113093027582720746F2065786974206F722045CA
S11309404E544552206B657920746F2070726F632A
S11309506565640A0A0A0D000A0A0A0D436865639C
S11309606B2074686520666F6C6C6F77696E6720A6
S113097064657461696C732061726520636F72725F
S11309806563740A0A0D000A0A0A0D456E746572DD
S11309902074686520626F617264277320417373E9
S11309A0656D626C79205265766973696F6E204E4D
S11309B06F206F6620746865206261746368206FBD
S11309C06620626F6172647320556E646572205490
S11309D06573740A0D28332043686172616374651A
S11309E07273290A0D000A0A0A0D456E7465722095
S11309F074686520576F726B73204F726465722040
S1130A004E6F2028574F29206F6620746865206236
S1130A1061746368206F6620626F6172647320552D
S1130A206E64657220546573740A0D284D41582014
S1130A303D203130204368617261637465727329AB
S1130A400A0D000A0A0A0D363736382D3031204E89
S1130A506574204164617074657220504342207350
S1130A60656C65637465640A0D000A0A0A0D3635FF
S1130A7031392D3031204E657420436F6E6E6563BD
S1130A80746F72205043422073656C6563746564AF
S1130A900A0D000A0A0D53656C65637420426F6188
S1130AA0726420556E646572205465737420284204
S1130AB05554290A0D3D3D3D3D3D3D3D3D3D3D3DAA
S1130AC03D3D3D3D3D3D3D3D3D3D3D3D3D3D3D3D52
S1130AD03D3D0A0D31202D20363531392D30312060
S1130AE02D204E657420436F6E6E6563746F7220A3
S1130AF05043420A0D32202D20363736382D3031FE
S1130B00202D204E657420416461707465722050FC
S1130B1043420A0D58202D204578697420746F20B3
S1130B205374617274204D656E750A0D3C454E54C4
S1130B3045523E2D20546F2072656672657368209D
S1130B4073637265656E0A0A0D000A0A0D537461B7
S1130B507274204D454E550A0D3D3D3D3D3D3D3D94
S1130B603D3D3D3D3D0A0D54202D20426F61726490
S1130B702074657374730A0D44202D2044656275D6
S1130B8067204D656E750A0D56202D2056696577D0
S1130B902053746F72656420496E666F0A0D3C457C
S1130BA04E5445523E2D20546F2072656672657313
S1130BB0682073637265656E0A0A0D000A0A0A0DDD
S1130BC02121214E6F20417373656D626C7920433E
S1130BD06F6E6E656374656420746F204A69672064
S1130BE02121210A0A0D000A0A0A0D426F6172646A
S1130BF02054797065206973204E4554204558541B
S1130C00454E4445520A0A0D000A0A0A0D426F6114
S1130C1072642054797065206973204E45542043D2
S1130C204F4E4E4543544F520A0A0D000A0A0A0D0C
S1130C30417373656D626C792054797065206973B2
S1130C40204E455420434F4E4E4543544F522F415E
S1130C504441505445520A0D000A0A0A0D41737367
S1130C60656D626C792054797065206973204E45F6
S1130C705420455854454E4445520A0A0D0021213A
S1130C802121212121212121212121212121212150
S1130C90210A0D2121212054455354204641494C19
S1130CA04544202121210A0D212121212121212115
S1130CB021212121212121212121210A0A0D5265ED
S1130CC06D6F766520417373656D626C7920616E1A
S1130CD0642071756172616E74696E65206F722033
S1130CE07265746573740A0A0D50726573732027F4
S1130CF0454E5445522720746F2070726F6772619D
S1130D006D20612046696E616C20617373656D624C
S1130D106C79206F66207468652073616D6520743A
S1130D207970650A0D5072657373202758272074F3
S1130D306F206578697420746F20737461727420F5
S1130D406D656E750A0D000A0D212121204E455452
S1130D50204944454E54494649434154494F4E2045
S1130D6054455354204641494C4544202121210AED
S1130D700D50726573732027582720746F2065788F
S1130D806974206F7220454E544552206B6579205A
S1130D90746F2052657472790A0D000A0A0D2A2AAA
S1130DA02A2046696E616C20417373656D626C79AB
S1130DB0207375636365737366756C6C7920507208
S1130DC06F6772616D6D6564202A2A2A0A0A0D23F1
S1130DD0232320436F6E6E65637420746865204C12
S1130DE06567616379204164617074657220656E22
S1130DF064206F66207468652046696E616C2041CA
S1130E007373656D626C7920746F20746865205407
S1130E10657374204A6967202323230A0D50726581
S1130E20737320616E79206B6579207768656E2015
S1130E3072656164790A0D000A0A0D232323204395
S1130E406F6E6E656374207468652046696E616CAC
S1130E5020417373656D626C7920746F20746865CA
S1130E602054657374204A6967202323230A0A0DDA
S1130E70000A0A0A0D212121204641494C454420FB
S1130E80544F2050524F4752414D204445544149FC
S1130E904C53202121210A0D436865636B3A0A0DE6
S1130EA02020202A546865207468652066696E6174
S1130EB06C20617373656D626C7920747970652040
S1130EC0697320636F72726563740A0D2020202A8F
S1130ED054686520417373656D626C792069732071
S1130EE0636F72726563746C792066697474656487
S1130EF020746F207468652054657374204A696790
S1130F000A0A0D50726573732027454E54455227C3
S1130F1020746F20524554525920206F6620275860
S1130F202720746F206578697420746F207374614E
S1130F307274206D656E750A0D000A0A0A0D2A2A5C
S1130F402A2A2A2A2A2A2A2A2A2A2A2A2A2A2A2AFD
S1130F502A2A2A2A2A2A2A2A2A2A2A2A2A2A2A2AED
S1130F602A2A2A2A2A2A2A2A2A2A2A2A0A0D2A2A1A
S1130F702A2046696E616C20417373656D626C79D9
S1130F80207375636365737366756C6C7920507236
S1130F906F6772616D6D6564202A2A2A0A0D2A2AF8
S1130FA02A2A2A2A2A2A2A2A2A2A2A2A2A2A2A2A9D
S1130FB02A2A2A2A2A2A2A2A2A2A2A2A2A2A2A2A8D
S1130FC02A2A2A2A2A2A2A2A2A2A2A2A0A0D436863
S1130FD065636B207468652064657461696C207353
S1130FE0686F776E206F6E20746865207363726516
S1130FF0656E2061726520636F72726563740A0D99
S113100052656D6F76652054657374656420417311
S113101073656D626C7920616E6420636F6D706CB2
S113102065746520746865206E65636573736172A9
S113103079205061706572776F726B0A0A0D507275
S11310406573732027454E5445522720746F2070D2
S1131050726F6772616D20612046696E616C2061F8
S11310607373656D626C79206F6620746865207394
S1131070616D6520747970650A0D50726573732013
S113108027582720746F206578697420746F207343
S113109074617274206D656E750A0D000A0A0A0D7A
S11310A02A2A2A2A2A2A2A2A2A2A2A2A2A2A2A2A9C
S11310B02A2A2A2A2A2A2A2A2A2A2A2A2A2A2A2A8C
S11310C02A2A2A2A2A2A2A2A2A2A2A2A2A2A2A2A7C
S11310D02A2A2A2A2A2A2A2A2A0A0D2A2A2A204697
S11310E0696E616C20417373656D626C79207375F0
S11310F0636365737366756C6C792050726F677285
S1131100616D6D656420616E6420546573746564FB
S1131110202A2A2A0A0D2A2A2A2A2A2A2A2A2A2A72
S11311202A2A2A2A2A2A2A2A2A2A2A2A2A2A2A2A1B
S11311302A2A2A2A2A2A2A2A2A2A2A2A2A2A2A2A0B
S11311402A2A2A2A2A2A2A2A2A2A2A2A2A2A2A0A1B
S11311500A0D436865636B20746865206465746177
S1131160696C2073686F776E2061626F76652061A9
S1131170726520636F72726563740A0D52656D6FD8
S113118076652054657374656420417373656D627C
S11311906C7920616E6420636F6D706C657465207A
S11311A0746865206E65636573736172792050613C
S11311B0706572776F726B0A0A0D507265737320D3
S11311C027454E5445522720746F2070726F677202
S11311D0616D20612046696E616C20617373656D79
S11311E0626C79206F66207468652073616D652078
S11311F0747970650A0D507265737320275827201F
S1131200746F206578697420746F207374617274CC
S1131210206D656E750A0D000A0A0A0D456E746527
S113122072207468652053657269616C206E6F2E3C
S1131230206F66207468652046696E616C20417376
S113124073656D626C7920756E6465722074657364
S1131250740A0D284D4158203D20313220436861E5
S113126072616374657273290A0D004E45542041FE
S113127044415054455220415353454D424C59002A
S11312804E455420455854454E53494F4E204153E2
S113129053454D424C59004E455420415353454DFE
S11312A0424C59000A0A0A0D456E7465722074682E
S11312B0652050726F647563742773205265766974
S11312C073696F6E202D20332043686172616374EB
S11312D06572732028652E672E20303041290A0D4F
S11312E0000A0A0D456E7465722074686520507298
S11312F06F647563742050617274204E756D6265FD
S113130072202D2034204E756D65726963206368E8
S113131061726163746572730A0D000A0A0D2121FA
S11313202120494E56414C494420454E545259209F
S11313302D20506C656173652052657472790A0DB5
S1131340000A0A0D46696E616C205465737420535B
S113135074617274204D656E750A0D3D3D3D3D3DD1
S11313603D3D3D3D3D3D3D3D3D3D3D3D3D3D3D3DA9
S11313700A0A0D53656C65637420746865205072A5
S11313806F6475637420547970650A0D31202D20C3
S11313904E455420417373656D626C790A0D322099
S11313A02D204E455420457874656E73696F6E0A1E
S11313B00D33202D204E45542041646170746572B4
S11313C00A0A0D56202D20566965772053746F72D2
S11313D0656420496E666F0A0D000A0D43757272CA
S11313E0656E7420454550524F4D20436F6E7465B1
S11313F06E74730A0D3D3D3D3D3D3D3D3D3D3D3DDE
S11314003D3D3D3D3D3D3D3D3D3D3D3D0A0A0D00DB
S11314104E657420416461707465722050434200CB
S11314204E657420436F6E6E6563746F7220504313
S1131430420020436F6D6D616E64206E6F7420698D
S11314406D706C656D656E7465640A0D000A0A4200
S11314506F6172642054657374204669726D77619C
S113146072650A0D2D2D2D2D2D2D2D2D2D2D2D2D6E
S11314702D2D2D2D2D2D2D0A0A0D000A0A0D2121A9
S11314802120494E56414C49442054455354204A46
S11314904947204944204445544543544544202168
S11314A021210A0D000A0A46696E616C2054657395
S11314B074204669726D776172650A0D2D2D2D2D8C
S11314C02D2D2D2D2D2D2D2D2D2D2D2D2D2D2D0A6B
S11314D00D002A2A2A2A2A2A2A2A2A2A2A2A2A2AAF
S11314E02A2A2A2A2A2A2A2A2A2A2A2A2A2A2A2A58
S11314F02A2A2A2A2A2A2A2A2A2A2A2A2A2A2A2A48
S11315000A0D7C20436F70797269676874286329B7
S1131510203230323620546865204D616773746917
S11315206D20436F6D70616E79204C74642E207C45
S1131530200A0D7C202020454547204E6574204319
S11315406F6E6E6563746F72202D20493243205490
S1131550657374204669726D77617265202020205E
S11315607C0A0D2A2A2A2A2A2A2A2A2A2A2A2A2AC2
S11315702A2A2A2A2A2A2A2A2A2A2A2A2A2A2A2AC7
S11315802A2A2A2A2A2A2A2A2A2A2A2A2A2A2A2AB7
S11315902A0A0A0D4669726D776172652049443AD8
S11315A020000A0A0A0A0A0A0A0A0A0A0A0A0A0A8B
S11315B00A0D000A0D00544A3030303030365F5383
S11315C057202D205665722042312E3200001124FE
S11315D01FBECFEFD8E0DEBFCDBF14E0A0E0B1E086
S11315E0ECE6F5E402C005900D92A035B107D9F7F9
S11315F026E0A0E5B4E001C01D92A436B207E1F7ED
S11316000E94260D0C94B4220C9400001092110533
S11316101092100510920F0510920E051092C5003D
S113162087E68093C40086E08093C20088E98093B3
S1131630C10008951F920F920FB60F9211248F9339
S11316409F93EF93FF9390910F0580910E0598134C
S113165006C08091C1008F7D8093C10011C0E091CC
S11316600E05F0E0E65AFB4F80818093C60080911E
S11316700E058F5F80930E05843B10F010920E05CB
S1131680FF91EF919F918F910F900FBE0F901F903C
S11316901895F89420910F0530E080910E05789408
S11316A0482F50E02417350710F42C543F4F8D5425
S11316B0821B08951F93CF93DF93D82F192FC62F22
S11316C00E94490B8C17E0F380910F052D2FED2F0D
S11316D0F12F9E2F921B9C1758F49191A82FB0E0E4
S11316E0A65ABB4F9C938F5F843B98F380E0F1CF65
S11316F0F89480930F058091C10085FD16C0E09198
S11317000E05F0E0E65AFB4F80818093C60080917D
S11317100E058F5F80930E05843B10F010920E052A
S11317208091C10080628093C100789484E0DF914D
S1131730CF911F910895CF93DF93FC010190002076
S1131740E9F73197EF01C81BD90B6C2F0E945A0B94
S1131750843011F48C2F01C080E0DF91CF91089583
S1131760CF93C82F1092C1000E94060BEC2FF0E01B
S1131770EE0FFF1FE050FF4F81818F9380818F9385
S113178088E091E09F938F938DE795E09F938F93EB
S11317900E94CA1F0F900F900F900F900F900F9000
S11317A08DE795E0CF910C949B0B20910F059091C0
S11317B00E0581E0291380E008951F920F920FB661
S11317C00F9211242F933F934F935F936F937F93C3
S11317D08F939F93AF93BF93EF93FF939091C00028
S11317E08091C600E0911105F0E0E05BFB4F80833F
S11317F0809111058F5F809311058A3010F010924B
S11318001105892F8C7159F094FF02C080E005C046
S113181093FF02C081E001C082E00E94B00BFF91FF
S1131820EF91BF91AF919F918F917F916F915F9154
S11318304F913F912F910F900FBE0F901F901895CD
S113184030911105209110053217A9F0F894E09118
S11318501005F0E0E05BFB4F2081FC0120838091C8
S113186010058F5F809310058A3010F010921005D8
S1131870789484E0089580E00895CF93DF931F92D5
S1131880CDB7DEB7CE0101960E94200C21E030E0F6
S1131890811102C020E030E0C9010F90DF91CF91A7
S11318A00895CF93DF931F92CDB7DEB78FEF9FEFED
S11318B02091BC002983298127FD02C00197C1F72B
S11318C00F90DF91CF9108958CE08093B800ECEBFA
S11318D0F0E08081846080830895FF920F931F93CA
S11318E0CF93DF93C82F162FF42E052F84EA80930D
S11318F0BC000E94510CCC0FC093BB0084E88093C1
S1131900BC000E94510CCF2DD02FCE01810F911D10
S11319108C0184E8F82EC017D10741F08991809397
S1131920BB00F092BC000E94510CF5CF8091B9002D
S113193094E99093BC00DF91CF911F910F91FF9098
S11319400895AF92BF92CF92DF92EF92FF920F93DE
S11319501F93CF93DF93C82F062FF42E152F84EAFD
S11319608093BC000E94510CCC0FC160C093BB009B
S113197084E88093BC000E94510CCF2DD12F10E03D
S1131980E12CF12C680181E0C81AD10884ECB82E4E
S113199094E8A92EE016F10691F0CE14DF0419F4B0
S11319A0A092BC0002C0B092BC000E94510C809175
S11319B0BB0088838FEFE81AF80A2196EBCF84E9FD
S11319C08093BC00DF91CF911F910F91FF90EF9016
S11319D0DF90CF90BF90AF9008951F93CF93DF9384
S11319E01F92CDB7DEB7182F1982AE014F5F5F4F3C
S11319F061E00E946D0CAE014F5F5F4F61E0812F8B
S1131A000E946D0C91E0883209F090E0892F0F90CC
S1131A10DF91CF911F910895813011F4289A089590
S1131A202898089584E08BB98AB1886F8AB98BB1FC
S1131A308F708BB952985B985B9A5B985B9A5B98B2
S1131A405B9A5B98209A80E00C940C0D0E94120D16
S1131A500E94060B0E94640C0E943C1F0E94C41E3C
S1131A600E94091FFDCF811102C0229806C0229A4C
S1131A70613011F42A9A01C02A9883B184700895C0
S1131A80CF93DF93C9B1C470D4E08AE090E00E94A0
S1131A90471F0E94661F8823E1F389B18470C8132D
S1131AA007C0D15091F781E0C11103C080E001C0AB
S1131AB082E0DF91CF9108952BB12F7030E1839FA5
S1131AC0C0011124822B8BB9089590ED980F9A30A0
S1131AD058F0982F9F7D91549A3130F091E08D32D7
S1131AE009F090E0892F089581E008956F927F9224
S1131AF08F929F92AF92BF92CF92DF92EF92FF921A
S1131B000F931F93CF93DF93CDB7DEB761970FB6D3
S1131B10F894DEBF0FBECDBF882E962E6A017901E0
S1131B20062F172F77247394780E202F802F89196E
S1131B3090E08C159D05A0F50F3F110519F010F0EC
S1131B40672C01C0682C2983F701E80FF91F8081F5
S1131B508A83AE014F5F5F4F61E0862D0E946D0C5A
S1131B60AE014F5F5F4F62E0862D0E946D0CAA2488
S1131B70AA94B12CAE014F5F5F4F61E0862D0E94A5
S1131B806D0C883219F40F5F1F4FCFCF81E0A81A74
S1131B90B10881F786E891E00E949B0B80E001C0C8
S1131BA081E061960FB6F894DEBF0FBECDBFDF9122
S1131BB0CF911F910F91FF90EF90DF90CF90BF9046
S1131BC0AF909F908F907F906F900895CF93DF9305
S1131BD000D01F92CDB7DEB799838A839E012F5F11
S1131BE03F4F42E050E06EEF70E080911F050E948D
S1131BF0760D0F900F900F90DF91CF910895CF93B2
S1131C00DF938091720590917305009771F10E94A2
S1131C10231FEC01833B910510F0C2EBD0E00E943E
S1131C20490B90E08C179D07D0F3BE01809172059B
S1131C30909173050E94111F2091720530917305D4
S1131C402C0F3D1F30937305209372056C2F0E9457
S1131C505A0BE0917205F0917305E491E1110DC006
S1131C60109273051092720508C0809174059091CA
S1131C7075059093770580937605DF91CF9108954C
S1131C800F931F93CF93DF938C010E94D50B88236E
S1131C90E1F3C0917605D091770510937305009315
S1131CA072058091720590917305892B19F00E9439
S1131CB0FF0DF7CFD0937705C0937605DF91CF91D1
S1131CC01F910F910895AF92BF92CF92DF92EF923E
S1131CD0FF921F93CF93DF93CDB7DEB761970FB613
S1131CE0F894DEBF0FBECDBF182F7A0169016F3F94
S1131CF0710511F008F01F5F698388EEA82E83E058
S1131D00B82EAE014F5F5F4F61E0812F0E946D0CD2
S1131D10883251F081E0A81AB10899F78CE893E071
S1131D200E94400E80E01BC0AE014E5F5F4F6E2DDF
S1131D30812F0E94A10C20E0822F90E08E159F0538
S1131D4068F4F601E80FF91FA2E0B0E0AC0FBD1F84
S1131D50A80FB91F8C9180832F5FEECF81E061962D
S1131D600FB6F894DEBF0FBECDBFDF91CF911F91A8
S1131D70FF90EF90DF90CF90BF90AF900895CF93F6
S1131D80DF9300D01F92CDB7DEB79E012F5F3F4F88
S1131D9042E050E06EEF70E080911F050E94630EF8
S1131DA089819A819827892798270F900F900F90FF
S1131DB0DF91CF910895AF92BF92CF92DF92EF92CD
S1131DC0FF920F931F93CF93DF93CDB7DEB7629744
S1131DD00FB6F894DEBF0FBECDBF198200E010E04D
S1131DE0E12CF12C5E0141E1A40EB11C9E012F5F98
S1131DF03F4F40E150E0B70180911F050E94630E00
S1131E00FE0131968191080F111DAE16BF06D1F760
S1131E1050E1E50EF11CE11482E0F80639F70E9466
S1131E20BF0E292FA801481B5109CA01C22ED12C6B
S1131E308C199D098095909562960FB6F894DEBF33
S1131E400FBECDBFDF91CF911F910F91FF90EF9007
S1131E50DF90CF90BF90AF90089587EA91E00E9401
S1131E609B0B87E495E09F938F938BE495E09F937E
S1131E708F9380EC91E09F938F9380E295E09F9302
S1131E808F930E94CA1F20E235E04CE050E062EEDE
S1131E9070E080911F050E94760D20E535E04BE04F
S1131EA050E06FEE70E080911F050E94760D23E4F0
S1131EB035E044E050E06AEF70E080911F050E9435
S1131EC0760D0E94DB0E90931D0580931C052DB7A3
S1131ED03EB7285F3F4F0FB6F8943EBF0FBE2DBFED
S1131EE00C94E60D7F928F929F92AF92BF92CF9205
S1131EF0DF92EF92FF920F931F93CF93DF931F9282
S1131F00CDB7DEB7782E898300E010E0E12CF12C08
S1131F1099ECC92E91E0D92E2DE7A22E25E0B22E00
S1131F204801892C992486940E94D50B8823E1F3D7
S1131F30C40101969F938F9389811F928F93DF929F
S1131F40CF92BF92AF920E94CA1F8DE795E00E9484
S1131F509B0B9E012F5F3F4F41E050E0B701809102
S1131F601F050E94760D9E012F5F3F4F41E050E018
S1131F70B70180911F050E94630E0FB6F894DEBF6F
S1131F800FBECDBF89817816E1F00E94D50B88235E
S1131F90E1F389811F928F9388EF91E09F938F9350
S1131FA08DE795E09F938F930E94CA1F8DE795E07C
S1131FB00E949B0B0F900F900F900F900F900F901B
S1131FC00AC09FEFE91AF90A0C591F4F011588EC52
S1131FD0180709F0A5CF0E94D50B8823E1F30F90D1
S1131FE0DF91CF911F910F91FF90EF90DF90CF90F1
S1131FF0BF90AF909F908F907F900895CF92DF9283
S1132000EF92FF920F931F93CF937B016A019A0182
S1132010AB01BC0180911F050E94630EC0E08C2FB0
S113202090E08601080F191FF8018E159F0570F4C2
S11320308081811102C0C1110AC00E94650D811105
S113204003C0F801108204C0CF5FE9CF108281E0A1
S1132050CF911F910F91FF90EF90DF90CF90089553
S11320609F92AF92BF92CF92DF92EF92FF920F9323
S11320701F93CF93DF9300D0CDB7DEB719828EE6DE
S113208090E00E94400E81E480931F05AE014F5FF3
S11320905F4F61E00E946D0C88EC90E00E946E1F1F
S11320A0109212059924939423E1E22E22E0F22E59
S11320B00DE715E036E2C32E32E0D32EE09112058F
S11320C0EA3008F073C0F0E0EA5BFB4F8081809354
S11320D013058F700E945C0D84E690E00E946E1FD1
S11320E0AE014E5F5F4F61E080911F050E94A10C1D
S11320F08A818F708A8390911305891305C09EE0AD
S1132100A92E92E0B92E05C089E0A82E82E0B82E4F
S1132110912C80E00E945C0D80911305982F9170A2
S11321201F929F9381FB992790F91F929F9382FBA3
S1132130992790F91F929F9383FB882780F91F9218
S11321408F93FF92EF921F930F930E94CA1F8DE704
S113215095E00E949B0B8A81BF92AF92982F917059
S11321601F929F9381FB992790F91F929F9382FB63
S1132170992790F91F929F9383FB882780F91F92D8
S11321808F93DF92CF921F930F930E94CA1F8DE704
S113219095E00E949B0B809112058F5F809312053E
S11321A00FB6F894DEBF0FBECDBF88CF892D0F9038
S11321B00F90DF91CF911F910F91FF90EF90DF90DF
S11321C0CF90BF90AF909F9008951F93CF93DF93CC
S11321D01F92CDB7DEB7182FCE0101960E94200CB6
S11321E0882381F0112369F089818D3029F483EBF0
S11321F095E10E94400E05C061E0CE0101960E9467
S11322005A0B89810F90DF91CF911F910895CF933D
S1132210DF931F92CDB7DEB781E00E94E5108823DB
S1132220D1F0883511F08837B1F480E00E945C0D5C
S11322308CE391E090937305809372058BEB91E1AD
S113224090937505809374058FEF9DE090937705C7
S11322508093760562C00E94661F882309F45DC0DE
S1132260E0911205F0E0EA5BFB4F80818093130557
S11322708F700E945C0D88EB9BE00E94471FAE01AB
S11322804F5F5F4F61E080911F050E94A10C99810F
S113229080911305292F21701F922F9391FB2227E0
S11322A020F91F922F9392FB222720F91F922F933C
S11322B093FB992790F91F929F93982F91701F92E7
S11322C09F9381FB992790F91F929F9382FB9927F3
S11322D090F91F929F9383FB882780F91F928F9315
S11322E08EE392E09F938F938DE795E09F938F9376
S11322F00E94CA1F8DE795E00E949B0B80911205F6
S11323008F5F0FB6F894DEBF0FBECDBF8A3018F4CE
S11323108093120502C0109212050F90DF91CF91A5
S11323200895CF93DF931F92CDB7DEB7CE01019608
S11323300E94200C8111FACF81E00E94E51089836C
S11323408D3091F028F4882361F08A3069F004C05C
S1132350883561F0883751F08AE299E00E94400E96
S113236019828981882341F38AE001C088E70F90AC
S1132370DF91CF9108951F93CF93DF931F92CDB731
S1132380DEB781E00E940C0D81E00E94E5108823F5
S113239009F482C0843379F038F4823361F078F43C
S11323A08133D9F580E508C08835A1F1883791F1EA
S11323B0853339F032C082E580931F053BC084E544
S11323C0FBCF11E410931F0581E40E94ED0C8823D8
S11323D089F1198210931F05AE014F5F5F4F61E0D1
S11323E081E40E946D0C83EE90E0909373058093DA
S11323F0720587E091E190937505809374058FEFE2
S11324009DE0909377058093760588EC90E00E9498
S1132410471F42C082EA95E115C082E394E10E941D
S1132420400E8CE391E090937305809372058BEBDF
S113243091E128C080911F050E94ED0C81111AC002
S11324408CEB9BE00E94400E8AE49BE09093730522
S11324508093720585EA95E19093750580937405E0
S11324608FEF9DE0909377058093760580E00E943E
S11324700C0D12C08EE192E0909373058093720567
S11324808CE696E190937505809374058FEF9DE03B
S113249090937705809376050F90DF91CF911F91EC
S11324A00895CF93DF9381E00E94E510882309F417
S11324B05CC08233A1F070F4813309F040C060E85D
S11324C072E08BE495E00E94C31F10921B058AE61C
S11324D09AE010C0883531F1883721F130C065E8C1
S11324E072E08BE495E00E94C31F81E080931B059A
S11324F083E49AE00E942F1FEC0182EA95E10E9496
S1132500400ECE010E949B0B10925C058AE08093E2
S11325105B0586EE99E0909373058093720588EBD2
S113252092E119C082EA95E10E94400E8AE49BE0A0
S1132530909373058093720585EA95E10CC082E35C
S113254094E10E94400E83E99AE09093730580938E
S1132550720581E592E190937505809374058FEF80
S11325609DE09093770580937605DF91CF91089550
S1132570CF9381E00E94E510C82F882309F476C028
S11325808D3049F018F48A3031F01DC0883551F08F
S1132590883741F018C080915C0581113AC086E209
S11325A095E027C080915C0581110DC082EA95E118
S11325B00E94400E8AE49BE0909373058093720519
S11325C085EA95E149C08C2F0E94650D882379F036
S11325D0E0915C0581E08E0F80935C05F0E0E35AA6
S11325E0FA4FC08390915B05891798F43FC087E345
S11325F093E00E94400E10925C058AE080935B0594
S113260086EE99E0909373058093720588EB92E1CE
S113261023C0C0915C05EC2FF0E0E35AFA4F10821E
S11326206DE575E080E595E00E94C31FCA3038F47B
S1132630EC2FF0E0E05BFA4F1082CF5FF7CF1092FF
S11326405C0583E080935B0587E899E090937305CC
S11326508093720585E993E19093750580937405E1
S11326608FEF9DE09093770580937605CF91089541
S113267082EA95E10E94400E88E599E00E94400EAE
S11326808AE299E090937305809372058AE39CE152
S113269090937505809374058FEF9DE09093770573
S11326A08093760587E495E09F938F938BE495E080
S11326B09F938F9380E595E09F938F938AE892E0B0
S11326C09F938F938DE795E09F938F930E94CA1FEA
S11326D08DE795E00E949B0B8DB79EB70A960FB6C7
S11326E0F8949EBF0FBE8DBF80911B05882319F0FF
S11326F080E194E102C080E294E10E942F1F9F9345
S11327008F938DE194E09F938F938DE795E09F9352
S11327108F930E94CA1F0F900F900F900F900F90ED
S11327200F908DE795E00C949B0BCF9381E00E9472
S1132730E510C82F882309F469C08D3049F018F4D6
S11327408A3031F020C0883569F0883759F01BC0D1
S113275090915C0580915B05981708F044C08EEB5E
S113276095E027C080915C0581110DC082EA95E156
S11327700E94400E8AE49BE0909373058093720557
S113278085EA95E125C08C2F0E94650D882379F098
S113279080915C05E82FF0E0E35AFA4FC0838F5F25
S11327A080935C0590915B058917E8F42FC087E35B
S11327B093E00E94400E10925C0583E080935B05D9
S11327C087E899E0909373058093720585E993E116
S11327D090937505809374058FEF9DE09093770532
S11327E08093760513C0E0915C05F0E0E35AFA4F5C
S11327F010826DE575E087E495E00E94C31F82EACC
S113280095E10E94400ECF910C943813CF91089516
S113281081E00E94E510882309F463C08D30C9F07B
S113282018F48A30B1F018C0883511F08837A1F453
S113283080915C05811104C082EA95E10E94400EFA
S113284081E493E190937305809372058BE39AE19D
S11328503EC084E096E02CC090ED980F9A3030F59D
S1132860E0915C05AE2FB0E0A35ABA4F8C93EF5FB2
S1132870E0935C0580915B05E81798F1F0E0E35A7A
S1132880FA4F10826DE575E081E395E00E94C31F65
S113289010925C0583E080935B0584EA92E1909357
S11328A073058093720582E49BE111C081EF92E08D
S11328B00E94400E10925C0584E080935B0581EEDB
S11328C092E1909373058093720588E094E190936C
S11328D07505809374058FEF9DE090937705809341
S11328E0760508950F931F93CF93DF93EB018A012D
S11328F09A01AB01BC0180911F050E94630E8823DD
S1132900A1F080E0282F30E0F801E20FF31F2C172C
S11329103D0748F4908190539A3018F0108280E07B
S113292004C08F5FEFCF108281E0DF91CF911F91C0
S11329300F910895FF920F931F93CF93DF9300D0CD
S113294000D0CDB7DEB783EB95E10E94400E8AED4F
S113295093E10E94400E0E94BF0E9F938F938DE0DF
S113296093E09F938F930DE715E01F930F930E94BD
S1132970CA1FC8010E949B0B0E94DB0E80931C059A
S113298090931D059F938F938DEA92E09F938F936D
S11329901F930F930E94CA1FC8010E949B0B83EBD5
S11329A095E10E94400E0FB6F894DEBF0FBECDBF76
S11329B00E94D50B8823E1F38FE494E00E94400E3B
S11329C08FE594E00E942F1F8C014DE755E064E0F1
S11329D070E080E090E00E9472148823F1F08DE2B0
S11329E0F82EF092810542E855E062E070E084E060
S11329F090E00E947214882381F0F092840545E8E7
S1132A0055E063E070E086E090E00E94FE0F8823CA
S1132A1021F0109288050DE715E0C8010E949B0B78
S1132A2083EB95E10E94400E0E94D50B8823E1F3CD
S1132A308FE394E00E94400E8FE594E00E942F1FE4
S1132A408C014DE755E06DE070E089E090E00E9474
S1132A50FE0F882389F08DE280938A054BE855E0C8
S1132A606DE070E084E090E00E94FE0F882321F086
S1132A70109298050DE715E0C8010E949B0B83EBAB
S1132A8095E10E94400E0E94D50B8823E1F38FE26A
S1132A9094E00E94400E8FE594E00E942F1F8C0169
S1132AA04DE755E06CE070E082EE90E00E94FE0F8E
S1132AB0882311F00DE715E0C8010E949B0B83EBFE
S1132AC095E10E94400E0E94D50B8823E1F38FE12B
S1132AD094E00E94400E8FE594E00E942F1F8C0129
S1132AE04DE755E06BE070E08FEE90E00E94FE0F42
S1132AF08823D1F06AEC72E08DE795E00E94AF1F65
S1132B00AE014F5F5F4F64E070E08AEF90E00E9497
S1132B10FE0F882349F0BE016F5F7F4F8DE795E07C
S1132B200E94AF1F0DE715E0C8010E949B0B83EBC9
S1132B3095E10E94400E0F900F900F900F90DF913F
S1132B40CF911F910F91FF900895CF93DF938091C0
S1132B501905811112C081E493E190937305809368
S1132B6072058BE39AE190937505809374058FEF5A
S1132B709DE0909377058093760581E00E94E510AF
S1132B80882309F4A6C0863509F446C028F48434A1
S1132B9049F1843549F087C0843731F08637E1F153
S1132BA0843609F080C01EC010925C058AE08093D0
S1132BB05B0582EA95E10E94400E83E99AE09093D6
S1132BC073058093720581E592E190937505809376
S1132BD074058FEF9DE090937705809376051092AE
S1132BE01A0577C082EA95E10E94400E8CE391E0D9
S1132BF090937305809372058BEB91E19093750527
S1132C00809374058FEF9DE090937705809376050C
S1132C1081E080931A055DC082EA95E10E94400E2E
S1132C2081E00E940C0D84E690E00E946E1F80E516
S1132C3080931F0589E09CE00E942F1FEC01809186
S1132C401F050E94ED0C811112C084E580931F05BD
S1132C500E94ED0C882331F087EE9BE00E942F1F29
S1132C60EC0105C08CEB9BE00E94400E05C0CE0138
S1132C700E949B0B0E949A148AE49BE09093730534
S1132C808093720585EA95E19093750580937405A8
S1132C908FEF9DE0909377058093760580E0DF9138
S1132CA0CF910C940C0D82E394E10E94400E8AE4CF
S1132CB09BE0909373058093720585EA95E1909368
S1132CC07505809374058FEF9DE09093770580934D
S1132CD07605DF91CF9108956F927F928F929F92A4
S1132CE0AF92BF92CF92DF92EF92FF920F931F9316
S1132CF0CF93DF93CDB7DEB762970FB6F894DEBFFC
S1132D000FBECDBF81E00E94E510882309F499C16C
S1132D10883509F46AC1B0F4803509F454C140F42B
S1132D20843459F1883461F1833409F074C18BC05F
S1132D30833509F442C1873509F498C0823509F016
S1132D406AC13DC1803709F43EC140F48436A9F01C
S1132D508836B1F0833609F05EC175C0833709F453
S1132D602CC120F4823709F42AC155C1873709F4EC
S1132D707DC0883709F439C14EC10E949A144FC1ED
S1132D808CEC92E00E949B0B198200E010E09BED1A
S1132D90692E92E0792E2DE7C22E25E0D22E39EE4F
S1132DA0A32E32E0B32E1F930F937F926F92DF9284
S1132DB0CF920E94CA1F8DE795E00E949B0B9E0153
S1132DC02F5F3F4F40E150E0B80180911F050E9402
S1132DD0630ECE0101964C018DE7E82E85E0F82EB6
S1132DE00F900F900F900F900F900F90F40181911E
S1132DF04F011F928F93BF92AF92FF92EF920E9466
S1132E00CA1FF3E0EF0EF11C0F900F900F900F907C
S1132E100F900F908DEAE81685E0F80639F70E94C6
S1132E20D50B8823E1F38DE795E00E949B0B8DEB96
S1132E3091E00E949B0B005F1F4F011592E0190760
S1132E4009F0B1CFECC00E94DB0E182F092F0E94AD
S1132E50BF0EF82EE92E0E94D50B8823E1F3EF92E2
S1132E60FF920F931F938FEE92E095C08AE58983BA
S1132E709E012F5F3F4F41E050E060E470E080919D
S1132E801F050E94760D0E94D50B8823E1F31F9243
S1132E9080E48F9389811F928F938AE293E09F93BA
S1132EA08F938DE795E09F938F930E94CA1F8DE7C0
S1132EB095E00E949B0B9E012F5F3F4F41E050E045
S1132EC060E470E080911F050E94630E0FB6F894D1
S1132ED0DEBF0FBECDBF0E94D50B8823E1F31F9246
S1132EE080E48F9389811F928F9380E593E09F9371
S1132EF08F938DE795E09F938F930E94CA1F8DE770
S1132F0095E00E949B0B85EA89839E012F5F3F4FCA
S1132F1041E050E06FE071E080911F050E94760D62
S1132F200FB6F894DEBF0FBECDBF0E94D50B882329
S1132F30E1F381E08F938FE08F9389811F928F93C8
S1132F408AE293E09F938F938DE795E09F938F930D
S1132F500E94CA1F8DE795E00E949B0B9E012F5F84
S1132F603F4F41E050E06FE071E080911F050E9407
S1132F70630E0FB6F894DEBF0FBECDBF0E94D50B13
S1132F808823E1F381E08F938FE08F9389811F92EF
S1132F908F9380E593E09F938F938DE795E09F93C4
S1132FA08F930E94CA1F8DE795E00E949B0B0FB67A
S1132FB0F894DEBF0FBECDBF32C08FEF01C080E0FA
S1132FC00E94720F2CC010925C058AE080935B050E
S1132FD082EA95E10E94400E83E99AE0909373059A
S1132FE08093720581E592E122C08CE391E0909395
S1132FF07305809372058BEB91E190937505809333
S113300074058FEF9DE0909377058093760580E0BB
S11330100E940C0D16C082E394E10E94400E8EE1E2
S113302092E090937305809372058CE696E19093F9
S11330307505809374058FEF9DE0909377058093D9
S1133040760562960FB6F894DEBF0FBECDBFDF9152
S1133050CF911F910F91FF90EF90DF90CF90BF9091
S1133060AF909F908F907F906F90089581E00E9421
S1133070E510882309F495C08D3071F018F48A3076
S113308059F014C0883511F0883781F480915C05BB
S1133090811187C00C94381390915C0580915B0575
S11330A0981708F07EC08EEB95E062C090ED980F03
S11330B09A3008F05BC0E0915C05AE2FB0E0A35AF3
S11330C0BA4F8C93EF5FE0935C0580915B05E81346
S11330D068C0F0E0E35AFA4F10826DE575E083E4CE
S11330E095E00E94C31F82EA95E10E94400E83E4AA
S11330F095E09F938F9380E595E09F938F9385E769
S113310093E09F938F938DE795E09F938F930E9415
S1133110CA1F8DE795E00E949B0B8DB79EB708965A
S11331200FB6F8949EBF0FBE8DBF80911A058823F9
S113313029F00E942D0F0E949A140DC080911B0546
S1133140882319F08BED97E002C08CE398E090930C
S1133150150580931405809114059091150590939D
S11331607305809372058BE79CE111C081EF92E0B7
S11331700E94400E10925C0583E080935B0588EE0C
S113318098E0909373058093720586E398E1909399
S11331907505809374058FEF9DE090937705809378
S11331A0760508950F931F93CF93DF9382EA95E1F9
S11331B00E94400E83E495E09F938F9380E595E011
S11331C09F938F9386EA93E09F938F938DE795E087
S11331D09F938F930E94CA1F8DE795E00E949B0BDB
S11331E081E00E940C0D88EE93E00E94471F8DB78A
S11331F09EB708960FB6F8949EBF0FBE8DBF0E946F
S1133200661F8823E1F380911B058823D9F060E0D1
S113321081E00E94330D80E580931F050E94DB0E40
S113322090931D0580931C050E94BF0E20911C05E0
S113323030911D058217930759F185EA94E00E94A5
S1133240400E39C0C0ECD3E00DE715E019991DC05C
S113325087ED94E00E94400E83B186701F928F9395
S1133260DF93CF931F930F930E94CA1F8DE795E0BE
S11332700E949B0B0E9491110F900F900F900F9042
S11332800F900F90883711F79CC01A99E1CFBFCFE8
S113329089E694E00E94400E0E949A1483EB95E123
S11332A00E94400E8AE299E00E94400E0E94911111
S11332B0883709F486C080E00E94720F0E942D0FA7
S11332C086EE93E00E94400E80E00E940C0D88EB95
S11332D09BE00E94471F0E94661F8823E1F381E060
S11332E00E940C0D80911B05811107C061E081E0F3
S11332F00E94330D84E580931F054DE755E06CE093
S113330070E082EE90E00E94FE0F882309F477C0FB
S113331060E275E08DE795E00E94BA1F892B09F001
S11333206EC04DE755E06BE070E08FEE90E00E94D8
S1133330FE0F882309F463C060E575E08DE795E02E
S11333400E94BA1F892B09F05AC04DE755E064E08A
S113335070E08AEF90E00E94FE0F882309F44FC0CA
S113336063E475E08DE795E00E94BA1F892B09F0AC
S113337046C00E94DB0E90931D0580931C050E949D
S1133380BF0E20911C0530911D0582179307B9F5D6
S113339039C082EA95E10E94400E0E9430108111EA
S11333A03FC082E297E00E94400E0E94911188374C
S11333B081F782EA95E10E94400E8AE496E00E9439
S11333C0400E10925C0583E080935B0588EE98E0E4
S11333D0909373058093720586E398E19093750545
S11333E0809374058FEF9DE0909377058093760525
S11333F080E0DF91CF911F910F910C940C0D8DEA19
S113340093E008C08FEC93E00E94400E0E949A144F
S113341086E797E00E94400E80911B058111BDCF85
S113342080E00E940C0D60E080E00E94330D82EA8F
S113343095E10E94400E89EB96E00E94400E1092A6
S11334405C0583E080935B0581EC98E090937305C1
S11334508093720586E398E19093750580937405D3
S11334608FEF9DE09093770580937605DF91CF9160
S11334701F910F910895CF93DF9380E00E94E51090
S1133480882309F4A7C0833351F1A0F4813311F1E7
S1133490823309F089C081E08093180580E892E1C5
S11334A0909317058093160561E081E00E94330D27
S11334B084E523C0863589F1863779F1843409F0AF
S11334C073C010925C0510927305109272058CE81B
S11334D09EE176C01092180587E992E105C082E06A
S11334E0809318058BE692E1909317058093160557
S11334F060E081E00E94330D80E580931F05109207
S11335005C0584E080935B0581EE92E19093730502
S11335108093720588E094E153C082EA95E10E94A9
S1133520400E81E00E940C0D84E690E00E946E1F24
S113353080E580931F058CE29CE00E942F1FEC0124
S113354080911F050E94ED0C811112C084E58093C7
S11335501F050E94ED0C882331F089E59CE00E9450
S11335602F1FEC0105C08CEB9BE00E94400E05C0B0
S1133570CE010E949B0B0E949A1481E493E19093E4
S11335807305809372058BE39AE19093750580939C
S113359074058FEF9DE0909377058093760580E026
S11335A0DF91CF910C940C0D8BE193E10E94400EBE
S11335B081E493E190937305809372058BE39AE120
S11335C090937505809374058FEF9DE09093770534
S11335D080937605DF91CF910895CF93DF9388E5AB
S11335E099E00E94400E80911605909117050E9463
S11335F02F1F9F938F9385ED93E09F938F93CDE738
S1133600D5E0DF93CF930E94CA1FCE010E949B0B8B
S11336108DE295E09F938F9381E395E09F938F9341
S11336208FEE93E09F938F93DF93CF930E94CA1FF3
S1133630CE010E949B0B86E395E02DB73EB7225F37
S11336403F4F0FB6F8943EBF0FBE2DBF20913605F5
S11336502223A9F09F938F9382E194E09F938F9309
S1133660DF93CF930E94CA1F0F900F900F900F907B
S11336700F900F90CE01DF91CF910C949B0BDF91B3
S1133680CF910895CF9381E00E94E510C82F88233D
S113369009F46CC08D30A9F018F48A3091F01AC086
S11336A0883511F08837B1F482EA95E10E94400E22
S11336B081E493E190937305809372058BE39AE11F
S11336C04BC090915C0580915B05981748F58EEB93
S11336D095E016C08C2F0E94650D882379F08091A7
S11336E05C05E82FF0E0E35AFA4FC0838F5F8093C4
S11336F05C0590915B05891798F438C087E393E0E3
S11337000E94400E10925C0583E080935B0584EA7E
S113371092E1909373058093720582E49BE11CC04F
S1133720E0915C05F0E0E35AFA4F10826DE575E034
S11337308DE295E00E94C31F82EA95E10E94400E4B
S1133740109236050E94ED1A8AE299E0909373056F
S1133750809372058EEA9CE19093750580937405BD
S11337608FEF9DE09093770580937605CF91089530
S1133770CF9381E00E94E510C82F882309F478C014
S11337808D30C9F018F48A30B1F01CC0883511F0BE
S11337908837C1F4E0915C05E1111BC082EA95E130
S11337A00E94400E81E493E1909373058093720527
S11337B08BE39AE153C080915C05811129C084E7B1
S11337C095E016C08C2F0E94650D882379F0E09156
S11337D05C0581E08E0F80935C05F0E0E35AFA4FBC
S11337E0C08390915B05891798F442C087E393E006
S11337F00E94400E10925C058CE080935B0588E18A
S113380092E1909373058093720588EB9BE126C047
S1133810C0915C05EC2FF0E0E35AFA4F10826DE59D
S113382075E086E395E00E94C31FCC3038F4EC2F9A
S1133830F0E0EA5CFA4F1082CF5FF7CFC0935C05EB
S11338400E94ED1A88E39EE00E94400E8AE299E00D
S113385090937305809372058FEE9CE190937505A8
S1133860809374058FEF9DE09093770580937605A0
S1133870CF91089581E00E94E5108823D9F18D301D
S1133880A9F018F48A3091F01FC0883511F08837F8
S1133890D9F482EA95E10E94400E8AE49BE0909379
S11338A073058093720585EA95E11AC010925C0550
S11338B083E080935B0588EE98E090937305809392
S11338C0720586E398E10CC08BE193E10E94400EFF
S11338D08AE299E090937305809372058AE39CE1F0
S11338E090937505809374058FEF9DE09093770511
S11338F080937605089581E00E94E510882369F19C
S11339008D3051F018F48A3039F00FC0883511F039
S1133910883759F40C94381387EA97E09093730529
S11339208093720582ED98E10EC08AE299E00E94CC
S1133930400E809114059091150590937305809322
S113394072058BE79CE190937505809374058FEF66
S11339509DE09093770580937605089581E00E9419
S1133960E5108823D9F18D30A9F018F48A3091F04C
S11339701FC0883511F08837D9F482EA95E10E9496
S1133980400E81E493E190937305809372058BE379
S11339909AE11AC010925C058CE080935B0588E183
S11339A092E1909373058093720588EB9BE10CC0C0
S11339B08BE193E10E94400E8AE299E090937305B3
S11339C0809372058EEA9CE190937505809374054B
S11339D08FEF9DE09093770580937605089581E0BD
S11339E00E94E510882309F410C18D3011F118F4F8
S11339F08A30F9F011C0883511F0883769F482EA09
S1133A0095E10E94400E81E493E1909373058093C5
S1133A1072058BE39AE1D6C08BE193E10E94400EDC
S1133A208AE299E090937305809372058EEA9CE193
S1133A30C9C082EA95E10E94400E81E00E940C0D0B
S1133A4084E690E00E946E1F809116059091170500
S1133A500E942F1F9F938F9383E294E09F938F93F1
S1133A608DE795E09F938F930E94CA1F8DE795E0A1
S1133A700E949B0B21E335E044E050E060E070E0FD
S1133A8080911F050E94760D0F900F900F900F905C
S1133A900F900F9081110BC00E940C0D81E79EE0E6
S1133AA0909373058093720580E59EE18BC023E4B7
S1133AB034E042E050E064E070E080911F050E9431
S1133AC0760D2DE235E043E050E066E070E0809151
S1133AD01F050E94760D26E335E04DE050E069E0D5
S1133AE070E080911F050E94760D0E94DB0E90937A
S1133AF01D0580931C050E94E60D0E949A1480E027
S1133B000E940C0D80911805823009F066C08BE983
S1133B109DE00E94400E0E943D0C892BE1F38091B0
S1133B201F0580931E0581E480931F0581E00E9498
S1133B300C0D84E690E00E946E1F0E9430108111EB
S1133B4030C087E49DE00E94400E0E9491118837A6
S1133B5019F582EA95E10E94400E10925C058CE012
S1133B6080935B058EE79CE09093730580937205C8
S1133B7086E09EE190937505809374058FEF9DE038
S1133B80909377058093760580E00E940C0D8091D8
S1133B901E0580931F05089582EA95E10E94400E58
S1133BA0CCCF80911E0580931F050E949A1480E05B
S1133BB00E940C0D8CE990E190937305809372053B
S1133BC086E09EE190937505809374058FEF9DE0E8
S1133BD09093770580937605089580911E058093D0
S1133BE01F058AE39FE0909373058093720586E036
S1133BF09EE190937505809374058FEF9DE09093FB
S1133C007705809376050C94ED1A089581E00E945F
S1133C10E510882309F443C08D30A9F018F48A30E4
S1133C2091F029C0883511F0883729F582EA95E1A9
S1133C300E94400E81E493E1909373058093720592
S1133C408BE39AE122C082EA95E10E94400E0E9431
S1133C50EF1C109236050E94ED1A10925C058CE060
S1133C6080935B0588E192E19093730580937205DC
S1133C7088EB9BE10AC08BE193E10E94400E109215
S1133C8073051092720586E09EE19093750580930A
S1133C9074058FEF9DE090937705809376050895E2
S1133CA081E00E94E5108823B1F18D30A9F018F469
S1133CB08A3091F01CC0883511F08837C1F482EA4B
S1133CC095E10E94400E81E493E190937305809303
S1133CD072058BE39AE115C00E94ED1A8AE299E01D
S1133CE090937305809372058FEE9CE10AC08BE17B
S1133CF093E10E94400E109273051092720586E0C3
S1133D009EE190937505809374058FEF9DE09093E9
S1133D107705809376050895CF9380E00E94E5109F
S1133D20C82F882379F188E690E00E942F1FFC01B8
S1133D3080ED8C0F8A30B0F490915C05E90FF11D91
S1133D408081C8130FC081E0890F80935C058630A1
S1133D50C8F08CE391E090937305809372058BEB2C
S1133D6091E106C010927305109272058BE39AE1FB
S1133D7090937505809374058FEF9DE0909377057C
S1133D8080937605CF91089582EA95E10E94400ED2
S1133D9082ED94E10E94400E0E94AC1F0E94400EEE
S1133DA083EB95E10E94400E0E94400D809319051B
S1133DB081110DC085EA94E10E94400E81E493E1F3
S1133DC090937305809372058BE39AE117C0823058
S1133DD049F48BE794E10E94400E1092770510920B
S1133DE0760508958DE494E10E94400E8AE49BE0F8
S1133DF0909373058093720585EA95E19093750518
S1133E00809374058FEF9DE09093770580937605FA
S1133E100895E0917605F0917705309709F00994BB
S1133E200895AFEAB5E020E030E02617370741F007
S1133E30FC01E20FF31FE491ED932F5F3F4FF5CFA9
S1133E408FEA95E008959C0180E090E0F901E80F85
S1133E50F91FE491EE2311F00196F8CF0895CF9362
S1133E60DF93EC010E94231FBC016F5F7F4FCE01E3
S1133E70DF91CF910C94111F10927C0510927B0559
S1133E8010927A051092790510927805089510928F
S1133E90780590937C0580937B0510927A051092A7
S1133EA0790510928500109284008AEF90E0909337
S1133EB0890080938800EFE6F0E08081826080834F
S1133EC0E1E8F0E080818360808308958091780543
S1133ED0882319F01092780581E008950E94471F05
S1133EE00E94661F8823E1F308951F920F920FB674
S1133EF00F9211242F933F938F939F938091790571
S1133F0090917A05019690937A0580937905209192
S1133F107B0530917C058217930759F41092810038
S1133F2080916F008D7F80936F0081E0809378058E
S1133F300AC0809188009091890086509F4F909389
S1133F408900809388009F918F913F912F910F90CA
S1133F500FBE0F901F90189586EB95E10895FB0115
S1133F60DC010D900020E9F7119701900D920020DB
S1133F70E1F70895FB01DC018D9101908019011096
S1133F80D9F3990B0895FB01DC0101900D920020F7
S1133F90E1F70895AEE0B0E0E0EDFFE10C948B2290
S1133FA00D891E8986E08C831A8309838FEF9FE72E
S1133FB09E838D83AE01475E5F4F6F89788DCE01FE
S1133FC001960E94EC1FEF81F885E00FF11F10822B
S1133FD02E96E4E00C94A722ABE0B0E0E2EFFFE120
S1133FE00C947D226C017B018A01FC0117821682EC
S1133FF0838181FFCCC1CE0101963C01F6019381FE
S1134000F70193FD859193FF81917F01882309F442
S1134010BAC1853239F493FD859193FF81917F0173
S1134020853229F4B60190E00E94E321E7CF912C78
S1134030212C312CFFE1F315D8F08B3279F038F4D0
S1134040803279F08332A1F4232D20611DC08D329A
S113405061F0803369F4232D216016C0832D8260C2
S1134060382EE32DE4603E2E2AC0F32DF8601DC0E7
S113407037FC2DC020ED280F2A3040F08E32B9F4E1
S113408036FC81C1232D2064322E19C036FE06C0B1
S11340908AE0989E200D1124922E11C0EAE02E9EF3
S11340A0200D1124222EF32DF0623F2E08C08C36F1
S11340B021F4832D8068382E02C0883641F4F7013C
S11340C093FD859193FF81917F018111B3CF982F47
S11340D09F7D9554933028F40C5F1F4F9FE3998381
S11340E00DC0833631F0833771F0833509F059C040
S11340F021C0F801808189830E5F1F4F8824839437
S1134100912C530113C02801F2E04F0E511CF80109
S1134110A080B18036FE03C0692D70E002C06FEF4D
S11341207FEFC5010E94D8214C018201F32DFF7756
S11341303F2E16C0280122E0420E511CF801A08037
S1134140B18036FE03C0692D70E002C06FEF7FEFCF
S1134150C5010E94CD214C01F32DF0683F2E820150
S113416033FC1BC0822D90E088169906B0F4B6018A
S113417080E290E00E94E3212A94F4CFF50137FC19
S1134180859137FE81915F01B60190E00E94E321A1
S113419021102A9421E0821A91088114910471F764
S11341A0E8C0843611F0893641F5F80137FE07C0BE
S11341B060817181828193810C5F1F4F08C060818F
S11341C07181072E000C880B990B0E5F1F4FF32D86
S11341D0FF763F2E97FF09C0909580957095619565
S11341E07F4F8F4F9F4FF0683F2E2AE030E0A301AE
S11341F00E941F22882E861845C0853731F4232D4E
S11342002F7EB22E2AE030E025C0932D997FB92E5F
S11342108F36C1F018F4883579F0B5C0803719F0BD
S1134220883721F0B0C0E92FE061BE2EB4FE0DC086
S1134230FB2DF460BF2E09C034FE0AC0292F26606E
S1134240B22E06C028E030E005C020E130E002C014
S113425020E132E0F801B7FE07C0608171818281FC
S113426093810C5F1F4F06C06081718180E090E0F4
S11342700E5F1F4FA3010E941F22882E8618FB2D5C
S1134280FF773F2E36FE0DC0232D2E7FA22E8914DC
S113429058F434FE0BC032FC09C0832D8E7EA82E48
S11342A005C0B82CA32C03C0B82C01C0B92CA4FEA3
S11342B00FC0FE01E80DF11D8081803321F49A2D99
S11342C0997EA92E09C0A2FE06C0B394B39404C07B
S11342D08A2D867809F0B394A3FC11C0A0FE06C011
S11342E0B21488F4280C922C9B180EC0B21460F4FB
S11342F0B60180E290E00E94E321B394F7CFB214B8
S113430018F42B1802C0982C212CA4FE10C0B6015E
S113431080E390E00E94E321A2FE17C0A1FC03C049
S113432088E790E002C088E590E0B6010CC08A2DD1
S1134330867859F0A1FE02C08BE201C080E2A7FC9E
S11343408DE2B60190E00E94E321891438F4B601AD
S113435080E390E00E94E3219A94F7CF8A94F301DA
S1134360E80DF11D8081B60190E00E94E3218110E7
S1134370F5CF222009F442CEB60180E290E00E94FB
S1134380E3212A94F6CFF6018681978102C08FEF4C
S11343909FEF2B96E2E10C949922FC010590615069
S11343A070400110D8F7809590958E0F9F1F089547
S11343B0FC016150704001900110D8F780959095F0
S11343C08E0F9F1F08950F931F93CF93DF93FB01CD
S11343D0238121FD03C08FEF9FEF2CC022FF16C065
S11343E046815781248135814217530744F4A081C3
S11343F0B1819D012F5F3F4F318320838C932681B0
S113440037812F5F3F4F3783268314C08B01EC0124
S1134410FB010084F185E02D0995892BE1F6D80193
S113442016968D919C911797019617969C938E934F
S11344301697CE01DF91CF911F910F910895FA0144
S1134440AA27283051F1203181F1E8946F936E7FCF
S11344506E5F7F4F8F4F9F4FAF4FB1E03ED0B4E0C0
S11344603CD0670F781F891F9A1FA11D680F791F01
S11344708A1F911DA11D6A0F711D811D911DA11D12
S113448020D009F468943F912AE0269F1124301922
S1134490305D3193DEF6CF010895462F4770405DBD
S11344A04193B3E00FD0C9F7F6CF462F4F70405D6C
S11344B04A3318F0495D31FD4052419302D0A9F7C7
S11344C0EACFB4E0A6959795879577956795BA95C1
S11344D0C9F700976105710508959B01AC010A2E87
S11344E006945795479537952795BA95C9F7620F5E
S11344F0731F841F951FA01D08952F923F924F9202
S11345005F926F927F928F929F92AF92BF92CF925F
S1134510DF92EF92FF920F931F93CF93DF93CDB768
S1134520DEB7CA1BDB0B0FB6F894DEBF0FBECDBFE0
S113453009942A88398848885F846E847D848C84B1
S11345409B84AA84B984C884DF80EE80FD800C81BA
S11345501B81AA81B981CE0FD11D0FB6F894DEBF9D
S10F45600FBECDBFED010895F894FFCF0D
S113456C1E013501510167010A0A0D535953544573
S113457C4D204552524F520A0D25730A0D000A0D57
S113458C53657269616C204672616D696E67204572
S113459C72726F72000A0D53657269616C2044610A
S11345AC7461204F76657272756E204572726F72EB
S11345BC000A0D53657269616C20506172697479DB
S11345CC204572726F72000A0D53657269616C201A
S11345DC545820627566206F766572666C6F77200E
S11345EC4572726F72000A0A0D2121212045455033
S11345FC524F4D205772697465204572726F722048
S113460C2121210A0A0D000A0A0D5570646174698E
S113461C6E6720454550524F4D2021210A0A0D004A
S113462C25732D30312D2573000D5265736574740B
S113463C696E6720416C6C206F6620454550524F63
S113464C4D20746F2025303278202D202530336492
S113465C252520646F6E65000A0D45726173652013
S113466C4552522025780A0D004641494C005041D0
S113467C5353002530317825303178253031782565
S113468C30317820200025303178253031782530B0
S113469C317825303178202D2025730A0D00202502
S11346AC30317820202020253031782020202025FE
S11346BC30317820202020253031782020202020F3
S11346CC2D20446174612052656164203D202530A5
S11346DC31782530317825303178253031780D001A
S11346EC36353139003637363800574F204E6F2067
S11346FC20203D2025730A0D41737379204E6F20C1
S113470C3D2025732D30312D257320200043616C01
S113471C63756C6174656420436865636B73756D54
S113472C203D20253034780A0D002D000A0A0D484E
S113473C45582044554D500A0D0A004164647220BA
S113474C3D20253034783A20002530327820000A78
S113475C0D43616C63756C617465642043686563B7
S113476C6B73756D203D20253034780A0D53746FAE
S113477C72656420436865636B73756D202020201B
S113478C203D20253034780A0D000A0D44617461F3
S113479C2025303278207772697474656E20746FBA
S11347AC206164647265737320253034780A0D00BB
S11347BC0A0D44617461202530327820726561647D
S11347CC2066726F6D20616464726573732025308A
S11347DC34780A0D000A0A426F6172642049443A23
S11347EC2025732D25732069732073656C656374A0
S11347FC656420666F722070726F6772616D6D698B
S113480C6E670A0A0D0050726F6772616D6D696E86
S113481C6720426F6172642025732D25730A0D0085
S113482C48656164657220506F7274203D20253098
S113483C32780A0D0046696E616C20417373656DA4
S113484C626C7920547970653A2025730A0D004600
S113485C696E616C20417373656D626C79204E7561
S113486C6D6265723A2025732D30302D25730A0A3A
S113487C0D0053657269616C204E6F3A2025730AE2
S113488C0A0D000A0A0D50726F6772616D6D696EC4
S113489C672044657461696C7320666F722025739C
S11348AC0A0D0030300000010204080F0E0D0B0736
S9030000FC
